{
	"PureVsView/src/PureVsView.sol": {
		"PureVsView": {
			"abi": [
				{
					"inputs": [],
					"name": "getX",
					"outputs": [
						{
							"internalType": "uint256",
							"name": "",
							"type": "uint256"
						}
					],
					"stateMutability": "view",
					"type": "function"
				},
				{
					"inputs": [],
					"name": "getY",
					"outputs": [
						{
							"internalType": "uint256",
							"name": "",
							"type": "uint256"
						}
					],
					"stateMutability": "view",
					"type": "function"
				}
			],
			"devdoc": {
				"kind": "dev",
				"methods": {},
				"version": 1
			},
			"evm": {
				"assembly": "    /* \"PureVsView/src/PureVsView.sol\":63:369  contract PureVsView {... */\n  mstore(0x40, 0x80)\n    /* \"PureVsView/src/PureVsView.sol\":109:111  24 */\n  0x18\n    /* \"PureVsView/src/PureVsView.sol\":89:111  uint256 private x = 24 */\n  0x00\n  sstore\n    /* \"PureVsView/src/PureVsView.sol\":137:139  42 */\n  0x2a\n    /* \"PureVsView/src/PureVsView.sol\":117:139  uint256 private y = 42 */\n  0x01\n  sstore\n    /* \"PureVsView/src/PureVsView.sol\":63:369  contract PureVsView {... */\n  callvalue\n  dup1\n  iszero\n  tag_1\n  jumpi\n  0x00\n  dup1\n  revert\ntag_1:\n  pop\n  dataSize(sub_0)\n  dup1\n  dataOffset(sub_0)\n  0x00\n  codecopy\n  0x00\n  return\nstop\n\nsub_0: assembly {\n        /* \"PureVsView/src/PureVsView.sol\":63:369  contract PureVsView {... */\n      mstore(0x40, 0x80)\n      callvalue\n      dup1\n      iszero\n      tag_1\n      jumpi\n      0x00\n      dup1\n      revert\n    tag_1:\n      pop\n      jumpi(tag_2, lt(calldatasize, 0x04))\n      shr(0xe0, calldataload(0x00))\n      dup1\n      0x0b7f1665\n      eq\n      tag_3\n      jumpi\n      dup1\n      0x5197c7aa\n      eq\n      tag_4\n      jumpi\n    tag_2:\n      0x00\n      dup1\n      revert\n        /* \"PureVsView/src/PureVsView.sol\":296:367  function getY() public view returns (uint256) {... */\n    tag_3:\n      tag_5\n      tag_6\n      jump\t// in\n    tag_5:\n      mload(0x40)\n      tag_7\n      swap2\n      swap1\n      tag_8\n      jump\t// in\n    tag_7:\n      mload(0x40)\n      dup1\n      swap2\n      sub\n      swap1\n      return\n        /* \"PureVsView/src/PureVsView.sol\":219:290  function getX() public view returns (uint256) {... */\n    tag_4:\n      tag_9\n      tag_10\n      jump\t// in\n    tag_9:\n      mload(0x40)\n      tag_11\n      swap2\n      swap1\n      tag_8\n      jump\t// in\n    tag_11:\n      mload(0x40)\n      dup1\n      swap2\n      sub\n      swap1\n      return\n        /* \"PureVsView/src/PureVsView.sol\":296:367  function getY() public view returns (uint256) {... */\n    tag_6:\n        /* \"PureVsView/src/PureVsView.sol\":333:340  uint256 */\n      0x00\n        /* \"PureVsView/src/PureVsView.sol\":359:360  y */\n      sload(0x01)\n        /* \"PureVsView/src/PureVsView.sol\":352:360  return y */\n      swap1\n      pop\n        /* \"PureVsView/src/PureVsView.sol\":296:367  function getY() public view returns (uint256) {... */\n      swap1\n      jump\t// out\n        /* \"PureVsView/src/PureVsView.sol\":219:290  function getX() public view returns (uint256) {... */\n    tag_10:\n        /* \"PureVsView/src/PureVsView.sol\":256:263  uint256 */\n      0x00\n        /* \"PureVsView/src/PureVsView.sol\":282:283  x */\n      dup1\n      sload\n        /* \"PureVsView/src/PureVsView.sol\":275:283  return x */\n      swap1\n      pop\n        /* \"PureVsView/src/PureVsView.sol\":219:290  function getX() public view returns (uint256) {... */\n      swap1\n      jump\t// out\n        /* \"#utility.yul\":7:84   */\n    tag_14:\n        /* \"#utility.yul\":44:51   */\n      0x00\n        /* \"#utility.yul\":73:78   */\n      dup2\n        /* \"#utility.yul\":62:78   */\n      swap1\n      pop\n        /* \"#utility.yul\":7:84   */\n      swap2\n      swap1\n      pop\n      jump\t// out\n        /* \"#utility.yul\":90:208   */\n    tag_15:\n        /* \"#utility.yul\":177:201   */\n      tag_19\n        /* \"#utility.yul\":195:200   */\n      dup2\n        /* \"#utility.yul\":177:201   */\n      tag_14\n      jump\t// in\n    tag_19:\n        /* \"#utility.yul\":172:175   */\n      dup3\n        /* \"#utility.yul\":165:202   */\n      mstore\n        /* \"#utility.yul\":90:208   */\n      pop\n      pop\n      jump\t// out\n        /* \"#utility.yul\":214:436   */\n    tag_8:\n        /* \"#utility.yul\":307:311   */\n      0x00\n        /* \"#utility.yul\":345:347   */\n      0x20\n        /* \"#utility.yul\":334:343   */\n      dup3\n        /* \"#utility.yul\":330:348   */\n      add\n        /* \"#utility.yul\":322:348   */\n      swap1\n      pop\n        /* \"#utility.yul\":358:429   */\n      tag_21\n        /* \"#utility.yul\":426:427   */\n      0x00\n        /* \"#utility.yul\":415:424   */\n      dup4\n        /* \"#utility.yul\":411:428   */\n      add\n        /* \"#utility.yul\":402:408   */\n      dup5\n        /* \"#utility.yul\":358:429   */\n      tag_15\n      jump\t// in\n    tag_21:\n        /* \"#utility.yul\":214:436   */\n      swap3\n      swap2\n      pop\n      pop\n      jump\t// out\n\n    auxdata: 0xa26469706673582212202d5479ec24457e82dbc0a51b42e83c4993da576121740fdbb962580e164e85de64736f6c634300081a0033\n}\n",
				"bytecode": {
					"linkReferences": {},
					"object": "608060405260185f55602a6001553480156017575f80fd5b5060dc806100245f395ff3fe6080604052348015600e575f80fd5b50600436106030575f3560e01c80630b7f16651460345780635197c7aa14604e575b5f80fd5b603a6068565b60405160459190608f565b60405180910390f35b60546071565b604051605f9190608f565b60405180910390f35b5f600154905090565b5f8054905090565b5f819050919050565b6089816079565b82525050565b5f60208201905060a05f8301846082565b9291505056fea26469706673582212202d5479ec24457e82dbc0a51b42e83c4993da576121740fdbb962580e164e85de64736f6c634300081a0033",
					"opcodes": "PUSH1 0x80 PUSH1 0x40 MSTORE PUSH1 0x18 PUSH0 SSTORE PUSH1 0x2A PUSH1 0x1 SSTORE CALLVALUE DUP1 ISZERO PUSH1 0x17 JUMPI PUSH0 DUP1 REVERT JUMPDEST POP PUSH1 0xDC DUP1 PUSH2 0x24 PUSH0 CODECOPY PUSH0 RETURN INVALID PUSH1 0x80 PUSH1 0x40 MSTORE CALLVALUE DUP1 ISZERO PUSH1 0xE JUMPI PUSH0 DUP1 REVERT JUMPDEST POP PUSH1 0x4 CALLDATASIZE LT PUSH1 0x30 JUMPI PUSH0 CALLDATALOAD PUSH1 0xE0 SHR DUP1 PUSH4 0xB7F1665 EQ PUSH1 0x34 JUMPI DUP1 PUSH4 0x5197C7AA EQ PUSH1 0x4E JUMPI JUMPDEST PUSH0 DUP1 REVERT JUMPDEST PUSH1 0x3A PUSH1 0x68 JUMP JUMPDEST PUSH1 0x40 MLOAD PUSH1 0x45 SWAP2 SWAP1 PUSH1 0x8F JUMP JUMPDEST PUSH1 0x40 MLOAD DUP1 SWAP2 SUB SWAP1 RETURN JUMPDEST PUSH1 0x54 PUSH1 0x71 JUMP JUMPDEST PUSH1 0x40 MLOAD PUSH1 0x5F SWAP2 SWAP1 PUSH1 0x8F JUMP JUMPDEST PUSH1 0x40 MLOAD DUP1 SWAP2 SUB SWAP1 RETURN JUMPDEST PUSH0 PUSH1 0x1 SLOAD SWAP1 POP SWAP1 JUMP JUMPDEST PUSH0 DUP1 SLOAD SWAP1 POP SWAP1 JUMP JUMPDEST PUSH0 DUP2 SWAP1 POP SWAP2 SWAP1 POP JUMP JUMPDEST PUSH1 0x89 DUP2 PUSH1 0x79 JUMP JUMPDEST DUP3 MSTORE POP POP JUMP JUMPDEST PUSH0 PUSH1 0x20 DUP3 ADD SWAP1 POP PUSH1 0xA0 PUSH0 DUP4 ADD DUP5 PUSH1 0x82 JUMP JUMPDEST SWAP3 SWAP2 POP POP JUMP INVALID LOG2 PUSH5 0x6970667358 0x22 SLT KECCAK256 0x2D SLOAD PUSH26 0xEC24457E82DBC0A51B42E83C4993DA576121740FDBB962580E16 0x4E DUP6 0xDE PUSH5 0x736F6C6343 STOP ADDMOD BYTE STOP CALLER "
				},
				"gasEstimates": {
					"creation": {
						"codeDepositCost": "44000",
						"executionCost": "44302",
						"totalCost": "88302"
					},
					"external": {
						"getX()": "2432",
						"getY()": "2410"
					}
				},
				"methodIdentifiers": {
					"getX()": "5197c7aa",
					"getY()": "0b7f1665"
				}
			},
			"storageLayout": {
				"storage": [
					{
						"astId": 4,
						"contract": "PureVsView/src/PureVsView.sol:PureVsView",
						"label": "x",
						"offset": 0,
						"slot": "0",
						"type": "t_uint256"
					},
					{
						"astId": 7,
						"contract": "PureVsView/src/PureVsView.sol:PureVsView",
						"label": "y",
						"offset": 0,
						"slot": "1",
						"type": "t_uint256"
					}
				],
				"types": {
					"t_uint256": {
						"encoding": "inplace",
						"label": "uint256",
						"numberOfBytes": "32"
					}
				}
			},
			"userdoc": {
				"kind": "user",
				"methods": {},
				"version": 1
			}
		}
	}
}