{
	"data": {
		"bytecode": {
			"linkReferences": {},
			"object": "6080604052348015600e575f80fd5b506103a18061001c5f395ff3fe608060405234801561000f575f80fd5b5060043610610029575f3560e01c8063427034941461002d575b5f80fd5b61004760048036038101906100429190610171565b61005d565b60405161005491906101b6565b60405180910390f35b5f808210156100a1576040517f08c379a00000000000000000000000000000000000000000000000000000000081526004016100989061024f565b60405180910390fd5b5f8214806100af5750600182145b156100bc575f9050610135565b600282036100cd5760019050610135565b5f6002836100db919061029a565b036100e8575f9050610135565b5f600390505b8281826100fb91906102f7565b1161012f575f818461010d919061029a565b0361011b575f915050610135565b6002816101289190610338565b90506100ee565b50600190505b919050565b5f80fd5b5f819050919050565b6101508161013e565b811461015a575f80fd5b50565b5f8135905061016b81610147565b92915050565b5f602082840312156101865761018561013a565b5b5f6101938482850161015d565b91505092915050565b5f8115159050919050565b6101b08161019c565b82525050565b5f6020820190506101c95f8301846101a7565b92915050565b5f82825260208201905092915050565b7f546865206e756d6265722073686f756c642062652067726561746572207468615f8201527f6e20300000000000000000000000000000000000000000000000000000000000602082015250565b5f6102396023836101cf565b9150610244826101df565b604082019050919050565b5f6020820190508181035f8301526102668161022d565b9050919050565b7f4e487b71000000000000000000000000000000000000000000000000000000005f52601260045260245ffd5b5f6102a48261013e565b91506102af8361013e565b9250826102bf576102be61026d565b5b828206905092915050565b7f4e487b71000000000000000000000000000000000000000000000000000000005f52601160045260245ffd5b5f6103018261013e565b915061030c8361013e565b925082820261031a8161013e565b91508282048414831517610331576103306102ca565b5b5092915050565b5f6103428261013e565b915061034d8361013e565b9250828201905080821115610365576103646102ca565b5b9291505056fea26469706673582212203e47f9432bdd00e749eec63ffff661065f9546b3228802496c9c905003cd857b64736f6c634300081a0033",
			"opcodes": "PUSH1 0x80 PUSH1 0x40 MSTORE CALLVALUE DUP1 ISZERO PUSH1 0xE JUMPI PUSH0 DUP1 REVERT JUMPDEST POP PUSH2 0x3A1 DUP1 PUSH2 0x1C PUSH0 CODECOPY PUSH0 RETURN INVALID PUSH1 0x80 PUSH1 0x40 MSTORE CALLVALUE DUP1 ISZERO PUSH2 0xF JUMPI PUSH0 DUP1 REVERT JUMPDEST POP PUSH1 0x4 CALLDATASIZE LT PUSH2 0x29 JUMPI PUSH0 CALLDATALOAD PUSH1 0xE0 SHR DUP1 PUSH4 0x42703494 EQ PUSH2 0x2D JUMPI JUMPDEST PUSH0 DUP1 REVERT JUMPDEST PUSH2 0x47 PUSH1 0x4 DUP1 CALLDATASIZE SUB DUP2 ADD SWAP1 PUSH2 0x42 SWAP2 SWAP1 PUSH2 0x171 JUMP JUMPDEST PUSH2 0x5D JUMP JUMPDEST PUSH1 0x40 MLOAD PUSH2 0x54 SWAP2 SWAP1 PUSH2 0x1B6 JUMP JUMPDEST PUSH1 0x40 MLOAD DUP1 SWAP2 SUB SWAP1 RETURN JUMPDEST PUSH0 DUP1 DUP3 LT ISZERO PUSH2 0xA1 JUMPI PUSH1 0x40 MLOAD PUSH32 0x8C379A000000000000000000000000000000000000000000000000000000000 DUP2 MSTORE PUSH1 0x4 ADD PUSH2 0x98 SWAP1 PUSH2 0x24F JUMP JUMPDEST PUSH1 0x40 MLOAD DUP1 SWAP2 SUB SWAP1 REVERT JUMPDEST PUSH0 DUP3 EQ DUP1 PUSH2 0xAF JUMPI POP PUSH1 0x1 DUP3 EQ JUMPDEST ISZERO PUSH2 0xBC JUMPI PUSH0 SWAP1 POP PUSH2 0x135 JUMP JUMPDEST PUSH1 0x2 DUP3 SUB PUSH2 0xCD JUMPI PUSH1 0x1 SWAP1 POP PUSH2 0x135 JUMP JUMPDEST PUSH0 PUSH1 0x2 DUP4 PUSH2 0xDB SWAP2 SWAP1 PUSH2 0x29A JUMP JUMPDEST SUB PUSH2 0xE8 JUMPI PUSH0 SWAP1 POP PUSH2 0x135 JUMP JUMPDEST PUSH0 PUSH1 0x3 SWAP1 POP JUMPDEST DUP3 DUP2 DUP3 PUSH2 0xFB SWAP2 SWAP1 PUSH2 0x2F7 JUMP JUMPDEST GT PUSH2 0x12F JUMPI PUSH0 DUP2 DUP5 PUSH2 0x10D SWAP2 SWAP1 PUSH2 0x29A JUMP JUMPDEST SUB PUSH2 0x11B JUMPI PUSH0 SWAP2 POP POP PUSH2 0x135 JUMP JUMPDEST PUSH1 0x2 DUP2 PUSH2 0x128 SWAP2 SWAP1 PUSH2 0x338 JUMP JUMPDEST SWAP1 POP PUSH2 0xEE JUMP JUMPDEST POP PUSH1 0x1 SWAP1 POP JUMPDEST SWAP2 SWAP1 POP JUMP JUMPDEST PUSH0 DUP1 REVERT JUMPDEST PUSH0 DUP2 SWAP1 POP SWAP2 SWAP1 POP JUMP JUMPDEST PUSH2 0x150 DUP2 PUSH2 0x13E JUMP JUMPDEST DUP2 EQ PUSH2 0x15A JUMPI PUSH0 DUP1 REVERT JUMPDEST POP JUMP JUMPDEST PUSH0 DUP2 CALLDATALOAD SWAP1 POP PUSH2 0x16B DUP2 PUSH2 0x147 JUMP JUMPDEST SWAP3 SWAP2 POP POP JUMP JUMPDEST PUSH0 PUSH1 0x20 DUP3 DUP5 SUB SLT ISZERO PUSH2 0x186 JUMPI PUSH2 0x185 PUSH2 0x13A JUMP JUMPDEST JUMPDEST PUSH0 PUSH2 0x193 DUP5 DUP3 DUP6 ADD PUSH2 0x15D JUMP JUMPDEST SWAP2 POP POP SWAP3 SWAP2 POP POP JUMP JUMPDEST PUSH0 DUP2 ISZERO ISZERO SWAP1 POP SWAP2 SWAP1 POP JUMP JUMPDEST PUSH2 0x1B0 DUP2 PUSH2 0x19C JUMP JUMPDEST DUP3 MSTORE POP POP JUMP JUMPDEST PUSH0 PUSH1 0x20 DUP3 ADD SWAP1 POP PUSH2 0x1C9 PUSH0 DUP4 ADD DUP5 PUSH2 0x1A7 JUMP JUMPDEST SWAP3 SWAP2 POP POP JUMP JUMPDEST PUSH0 DUP3 DUP3 MSTORE PUSH1 0x20 DUP3 ADD SWAP1 POP SWAP3 SWAP2 POP POP JUMP JUMPDEST PUSH32 0x546865206E756D6265722073686F756C64206265206772656174657220746861 PUSH0 DUP3 ADD MSTORE PUSH32 0x6E20300000000000000000000000000000000000000000000000000000000000 PUSH1 0x20 DUP3 ADD MSTORE POP JUMP JUMPDEST PUSH0 PUSH2 0x239 PUSH1 0x23 DUP4 PUSH2 0x1CF JUMP JUMPDEST SWAP2 POP PUSH2 0x244 DUP3 PUSH2 0x1DF JUMP JUMPDEST PUSH1 0x40 DUP3 ADD SWAP1 POP SWAP2 SWAP1 POP JUMP JUMPDEST PUSH0 PUSH1 0x20 DUP3 ADD SWAP1 POP DUP2 DUP2 SUB PUSH0 DUP4 ADD MSTORE PUSH2 0x266 DUP2 PUSH2 0x22D JUMP JUMPDEST SWAP1 POP SWAP2 SWAP1 POP JUMP JUMPDEST PUSH32 0x4E487B7100000000000000000000000000000000000000000000000000000000 PUSH0 MSTORE PUSH1 0x12 PUSH1 0x4 MSTORE PUSH1 0x24 PUSH0 REVERT JUMPDEST PUSH0 PUSH2 0x2A4 DUP3 PUSH2 0x13E JUMP JUMPDEST SWAP2 POP PUSH2 0x2AF DUP4 PUSH2 0x13E JUMP JUMPDEST SWAP3 POP DUP3 PUSH2 0x2BF JUMPI PUSH2 0x2BE PUSH2 0x26D JUMP JUMPDEST JUMPDEST DUP3 DUP3 MOD SWAP1 POP SWAP3 SWAP2 POP POP JUMP JUMPDEST PUSH32 0x4E487B7100000000000000000000000000000000000000000000000000000000 PUSH0 MSTORE PUSH1 0x11 PUSH1 0x4 MSTORE PUSH1 0x24 PUSH0 REVERT JUMPDEST PUSH0 PUSH2 0x301 DUP3 PUSH2 0x13E JUMP JUMPDEST SWAP2 POP PUSH2 0x30C DUP4 PUSH2 0x13E JUMP JUMPDEST SWAP3 POP DUP3 DUP3 MUL PUSH2 0x31A DUP2 PUSH2 0x13E JUMP JUMPDEST SWAP2 POP DUP3 DUP3 DIV DUP5 EQ DUP4 ISZERO OR PUSH2 0x331 JUMPI PUSH2 0x330 PUSH2 0x2CA JUMP JUMPDEST JUMPDEST POP SWAP3 SWAP2 POP POP JUMP JUMPDEST PUSH0 PUSH2 0x342 DUP3 PUSH2 0x13E JUMP JUMPDEST SWAP2 POP PUSH2 0x34D DUP4 PUSH2 0x13E JUMP JUMPDEST SWAP3 POP DUP3 DUP3 ADD SWAP1 POP DUP1 DUP3 GT ISZERO PUSH2 0x365 JUMPI PUSH2 0x364 PUSH2 0x2CA JUMP JUMPDEST JUMPDEST SWAP3 SWAP2 POP POP JUMP INVALID LOG2 PUSH5 0x6970667358 0x22 SLT KECCAK256 RETURNDATACOPY SELFBALANCE 0xF9 NUMBER 0x2B 0xDD STOP 0xE7 BLOBHASH 0xEE 0xC6 EXTCODEHASH SELFDESTRUCT 0xF6 PUSH2 0x65F SWAP6 CHAINID 0xB3 0x22 DUP9 MUL BLOBHASH PUSH13 0x9C905003CD857B64736F6C6343 STOP ADDMOD BYTE STOP CALLER "
		},
		"gasEstimates": {
			"creation": {
				"codeDepositCost": "185800",
				"executionCost": "230",
				"totalCost": "186030"
			},
			"external": {
				"isPrime(uint256)": "infinite"
			}
		},
		"methodIdentifiers": {
			"isPrime(uint256)": "42703494"
		}
	},
	"abi": [
		{
			"inputs": [
				{
					"internalType": "uint256",
					"name": "number",
					"type": "uint256"
				}
			],
			"name": "isPrime",
			"outputs": [
				{
					"internalType": "bool",
					"name": "",
					"type": "bool"
				}
			],
			"stateMutability": "pure",
			"type": "function"
		}
	]
}