{
	"Decoder/src/Decoder.sol": {
		"Decoder": {
			"abi": [
				{
					"inputs": [
						{
							"internalType": "bytes",
							"name": "_data",
							"type": "bytes"
						}
					],
					"name": "decodeData",
					"outputs": [
						{
							"internalType": "string",
							"name": "",
							"type": "string"
						},
						{
							"internalType": "uint256",
							"name": "",
							"type": "uint256"
						}
					],
					"stateMutability": "pure",
					"type": "function"
				},
				{
					"inputs": [],
					"name": "encoded",
					"outputs": [
						{
							"internalType": "bytes",
							"name": "",
							"type": "bytes"
						}
					],
					"stateMutability": "view",
					"type": "function"
				}
			],
			"devdoc": {
				"kind": "dev",
				"methods": {},
				"version": 1
			},
			"evm": {
				"assembly": "    /* \"Decoder/src/Decoder.sol\":63:552  contract Decoder {... */\n  mstore(0x40, 0x80)\n  callvalue\n  dup1\n  iszero\n  tag_1\n  jumpi\n  0x00\n  dup1\n  revert\ntag_1:\n  pop\n  dataSize(sub_0)\n  dup1\n  dataOffset(sub_0)\n  0x00\n  codecopy\n  0x00\n  return\nstop\n\nsub_0: assembly {\n        /* \"Decoder/src/Decoder.sol\":63:552  contract Decoder {... */\n      mstore(0x40, 0x80)\n      callvalue\n      dup1\n      iszero\n      tag_1\n      jumpi\n      0x00\n      dup1\n      revert\n    tag_1:\n      pop\n      jumpi(tag_2, lt(calldatasize, 0x04))\n      shr(0xe0, calldataload(0x00))\n      dup1\n      0x247eff5f\n      eq\n      tag_3\n      jumpi\n      dup1\n      0x447a06f5\n      eq\n      tag_4\n      jumpi\n    tag_2:\n      0x00\n      dup1\n      revert\n        /* \"Decoder/src/Decoder.sol\":315:335  bytes public encoded */\n    tag_3:\n      tag_5\n      tag_6\n      jump\t// in\n    tag_5:\n      mload(0x40)\n      tag_7\n      swap2\n      swap1\n      tag_8\n      jump\t// in\n    tag_7:\n      mload(0x40)\n      dup1\n      swap2\n      sub\n      swap1\n      return\n        /* \"Decoder/src/Decoder.sol\":342:550  function decodeData(... */\n    tag_4:\n      tag_9\n      0x04\n      dup1\n      calldatasize\n      sub\n      dup2\n      add\n      swap1\n      tag_10\n      swap2\n      swap1\n      tag_11\n      jump\t// in\n    tag_10:\n      tag_12\n      jump\t// in\n    tag_9:\n      mload(0x40)\n      tag_13\n      swap3\n      swap2\n      swap1\n      tag_14\n      jump\t// in\n    tag_13:\n      mload(0x40)\n      dup1\n      swap2\n      sub\n      swap1\n      return\n        /* \"Decoder/src/Decoder.sol\":315:335  bytes public encoded */\n    tag_6:\n      0x00\n      dup1\n      sload\n      tag_15\n      swap1\n      tag_16\n      jump\t// in\n    tag_15:\n      dup1\n      0x1f\n      add\n      0x20\n      dup1\n      swap2\n      div\n      mul\n      0x20\n      add\n      mload(0x40)\n      swap1\n      dup2\n      add\n      0x40\n      mstore\n      dup1\n      swap3\n      swap2\n      swap1\n      dup2\n      dup2\n      mstore\n      0x20\n      add\n      dup3\n      dup1\n      sload\n      tag_17\n      swap1\n      tag_16\n      jump\t// in\n    tag_17:\n      dup1\n      iszero\n      tag_18\n      jumpi\n      dup1\n      0x1f\n      lt\n      tag_19\n      jumpi\n      0x0100\n      dup1\n      dup4\n      sload\n      div\n      mul\n      dup4\n      mstore\n      swap2\n      0x20\n      add\n      swap2\n      jump(tag_18)\n    tag_19:\n      dup3\n      add\n      swap2\n      swap1\n      0x00\n      mstore\n      keccak256(0x00, 0x20)\n      swap1\n    tag_20:\n      dup2\n      sload\n      dup2\n      mstore\n      swap1\n      0x01\n      add\n      swap1\n      0x20\n      add\n      dup1\n      dup4\n      gt\n      tag_20\n      jumpi\n      dup3\n      swap1\n      sub\n      0x1f\n      and\n      dup3\n      add\n      swap2\n    tag_18:\n      pop\n      pop\n      pop\n      pop\n      pop\n      dup2\n      jump\t// out\n        /* \"Decoder/src/Decoder.sol\":342:550  function decodeData(... */\n    tag_12:\n        /* \"Decoder/src/Decoder.sol\":417:430  string memory */\n      0x60\n        /* \"Decoder/src/Decoder.sol\":432:439  uint256 */\n      0x00\n        /* \"Decoder/src/Decoder.sol\":449:466  string memory str */\n      dup1\n        /* \"Decoder/src/Decoder.sol\":468:479  uint256 num */\n      0x00\n        /* \"Decoder/src/Decoder.sol\":494:499  _data */\n      dup5\n        /* \"Decoder/src/Decoder.sol\":483:519  abi.decode(_data, (string, uint256)) */\n      dup1\n      0x20\n      add\n      swap1\n      mload\n      dup2\n      add\n      swap1\n      tag_22\n      swap2\n      swap1\n      tag_23\n      jump\t// in\n    tag_22:\n        /* \"Decoder/src/Decoder.sol\":448:519  (string memory str, uint256 num) = abi.decode(_data, (string, uint256)) */\n      swap2\n      pop\n      swap2\n      pop\n        /* \"Decoder/src/Decoder.sol\":534:537  str */\n      dup2\n        /* \"Decoder/src/Decoder.sol\":539:542  num */\n      dup2\n        /* \"Decoder/src/Decoder.sol\":526:543  return (str, num) */\n      swap4\n      pop\n      swap4\n      pop\n      pop\n      pop\n        /* \"Decoder/src/Decoder.sol\":342:550  function decodeData(... */\n      swap2\n      pop\n      swap2\n      jump\t// out\n        /* \"#utility.yul\":7:105   */\n    tag_24:\n        /* \"#utility.yul\":58:64   */\n      0x00\n        /* \"#utility.yul\":92:97   */\n      dup2\n        /* \"#utility.yul\":86:98   */\n      mload\n        /* \"#utility.yul\":76:98   */\n      swap1\n      pop\n        /* \"#utility.yul\":7:105   */\n      swap2\n      swap1\n      pop\n      jump\t// out\n        /* \"#utility.yul\":111:279   */\n    tag_25:\n        /* \"#utility.yul\":194:205   */\n      0x00\n        /* \"#utility.yul\":228:234   */\n      dup3\n        /* \"#utility.yul\":223:226   */\n      dup3\n        /* \"#utility.yul\":216:235   */\n      mstore\n        /* \"#utility.yul\":268:272   */\n      0x20\n        /* \"#utility.yul\":263:266   */\n      dup3\n        /* \"#utility.yul\":259:273   */\n      add\n        /* \"#utility.yul\":244:273   */\n      swap1\n      pop\n        /* \"#utility.yul\":111:279   */\n      swap3\n      swap2\n      pop\n      pop\n      jump\t// out\n        /* \"#utility.yul\":285:424   */\n    tag_26:\n        /* \"#utility.yul\":374:380   */\n      dup3\n        /* \"#utility.yul\":369:372   */\n      dup2\n        /* \"#utility.yul\":364:367   */\n      dup4\n        /* \"#utility.yul\":358:381   */\n      mcopy\n        /* \"#utility.yul\":415:416   */\n      0x00\n        /* \"#utility.yul\":406:412   */\n      dup4\n        /* \"#utility.yul\":401:404   */\n      dup4\n        /* \"#utility.yul\":397:413   */\n      add\n        /* \"#utility.yul\":390:417   */\n      mstore\n        /* \"#utility.yul\":285:424   */\n      pop\n      pop\n      pop\n      jump\t// out\n        /* \"#utility.yul\":430:532   */\n    tag_27:\n        /* \"#utility.yul\":471:477   */\n      0x00\n        /* \"#utility.yul\":522:524   */\n      0x1f\n        /* \"#utility.yul\":518:525   */\n      not\n        /* \"#utility.yul\":513:515   */\n      0x1f\n        /* \"#utility.yul\":506:511   */\n      dup4\n        /* \"#utility.yul\":502:516   */\n      add\n        /* \"#utility.yul\":498:526   */\n      and\n        /* \"#utility.yul\":488:526   */\n      swap1\n      pop\n        /* \"#utility.yul\":430:532   */\n      swap2\n      swap1\n      pop\n      jump\t// out\n        /* \"#utility.yul\":538:911   */\n    tag_28:\n        /* \"#utility.yul\":624:627   */\n      0x00\n        /* \"#utility.yul\":652:690   */\n      tag_58\n        /* \"#utility.yul\":684:689   */\n      dup3\n        /* \"#utility.yul\":652:690   */\n      tag_24\n      jump\t// in\n    tag_58:\n        /* \"#utility.yul\":706:776   */\n      tag_59\n        /* \"#utility.yul\":769:775   */\n      dup2\n        /* \"#utility.yul\":764:767   */\n      dup6\n        /* \"#utility.yul\":706:776   */\n      tag_25\n      jump\t// in\n    tag_59:\n        /* \"#utility.yul\":699:776   */\n      swap4\n      pop\n        /* \"#utility.yul\":785:850   */\n      tag_60\n        /* \"#utility.yul\":843:849   */\n      dup2\n        /* \"#utility.yul\":838:841   */\n      dup6\n        /* \"#utility.yul\":831:835   */\n      0x20\n        /* \"#utility.yul\":824:829   */\n      dup7\n        /* \"#utility.yul\":820:836   */\n      add\n        /* \"#utility.yul\":785:850   */\n      tag_26\n      jump\t// in\n    tag_60:\n        /* \"#utility.yul\":875:904   */\n      tag_61\n        /* \"#utility.yul\":897:903   */\n      dup2\n        /* \"#utility.yul\":875:904   */\n      tag_27\n      jump\t// in\n    tag_61:\n        /* \"#utility.yul\":870:873   */\n      dup5\n        /* \"#utility.yul\":866:905   */\n      add\n        /* \"#utility.yul\":859:905   */\n      swap2\n      pop\n        /* \"#utility.yul\":628:911   */\n      pop\n        /* \"#utility.yul\":538:911   */\n      swap3\n      swap2\n      pop\n      pop\n      jump\t// out\n        /* \"#utility.yul\":917:1226   */\n    tag_8:\n        /* \"#utility.yul\":1028:1032   */\n      0x00\n        /* \"#utility.yul\":1066:1068   */\n      0x20\n        /* \"#utility.yul\":1055:1064   */\n      dup3\n        /* \"#utility.yul\":1051:1069   */\n      add\n        /* \"#utility.yul\":1043:1069   */\n      swap1\n      pop\n        /* \"#utility.yul\":1115:1124   */\n      dup2\n        /* \"#utility.yul\":1109:1113   */\n      dup2\n        /* \"#utility.yul\":1105:1125   */\n      sub\n        /* \"#utility.yul\":1101:1102   */\n      0x00\n        /* \"#utility.yul\":1090:1099   */\n      dup4\n        /* \"#utility.yul\":1086:1103   */\n      add\n        /* \"#utility.yul\":1079:1126   */\n      mstore\n        /* \"#utility.yul\":1143:1219   */\n      tag_63\n        /* \"#utility.yul\":1214:1218   */\n      dup2\n        /* \"#utility.yul\":1205:1211   */\n      dup5\n        /* \"#utility.yul\":1143:1219   */\n      tag_28\n      jump\t// in\n    tag_63:\n        /* \"#utility.yul\":1135:1219   */\n      swap1\n      pop\n        /* \"#utility.yul\":917:1226   */\n      swap3\n      swap2\n      pop\n      pop\n      jump\t// out\n        /* \"#utility.yul\":1232:1307   */\n    tag_29:\n        /* \"#utility.yul\":1265:1271   */\n      0x00\n        /* \"#utility.yul\":1298:1300   */\n      0x40\n        /* \"#utility.yul\":1292:1301   */\n      mload\n        /* \"#utility.yul\":1282:1301   */\n      swap1\n      pop\n        /* \"#utility.yul\":1232:1307   */\n      swap1\n      jump\t// out\n        /* \"#utility.yul\":1313:1430   */\n    tag_30:\n        /* \"#utility.yul\":1422:1423   */\n      0x00\n        /* \"#utility.yul\":1419:1420   */\n      dup1\n        /* \"#utility.yul\":1412:1424   */\n      revert\n        /* \"#utility.yul\":1436:1553   */\n    tag_31:\n        /* \"#utility.yul\":1545:1546   */\n      0x00\n        /* \"#utility.yul\":1542:1543   */\n      dup1\n        /* \"#utility.yul\":1535:1547   */\n      revert\n        /* \"#utility.yul\":1559:1676   */\n    tag_32:\n        /* \"#utility.yul\":1668:1669   */\n      0x00\n        /* \"#utility.yul\":1665:1666   */\n      dup1\n        /* \"#utility.yul\":1658:1670   */\n      revert\n        /* \"#utility.yul\":1682:1799   */\n    tag_33:\n        /* \"#utility.yul\":1791:1792   */\n      0x00\n        /* \"#utility.yul\":1788:1789   */\n      dup1\n        /* \"#utility.yul\":1781:1793   */\n      revert\n        /* \"#utility.yul\":1805:1985   */\n    tag_34:\n        /* \"#utility.yul\":1853:1930   */\n      0x4e487b7100000000000000000000000000000000000000000000000000000000\n        /* \"#utility.yul\":1850:1851   */\n      0x00\n        /* \"#utility.yul\":1843:1931   */\n      mstore\n        /* \"#utility.yul\":1950:1954   */\n      0x41\n        /* \"#utility.yul\":1947:1948   */\n      0x04\n        /* \"#utility.yul\":1940:1955   */\n      mstore\n        /* \"#utility.yul\":1974:1978   */\n      0x24\n        /* \"#utility.yul\":1971:1972   */\n      0x00\n        /* \"#utility.yul\":1964:1979   */\n      revert\n        /* \"#utility.yul\":1991:2272   */\n    tag_35:\n        /* \"#utility.yul\":2074:2101   */\n      tag_71\n        /* \"#utility.yul\":2096:2100   */\n      dup3\n        /* \"#utility.yul\":2074:2101   */\n      tag_27\n      jump\t// in\n    tag_71:\n        /* \"#utility.yul\":2066:2072   */\n      dup2\n        /* \"#utility.yul\":2062:2102   */\n      add\n        /* \"#utility.yul\":2204:2210   */\n      dup2\n        /* \"#utility.yul\":2192:2202   */\n      dup2\n        /* \"#utility.yul\":2189:2211   */\n      lt\n        /* \"#utility.yul\":2168:2186   */\n      0xffffffffffffffff\n        /* \"#utility.yul\":2156:2166   */\n      dup3\n        /* \"#utility.yul\":2153:2187   */\n      gt\n        /* \"#utility.yul\":2150:2212   */\n      or\n        /* \"#utility.yul\":2147:2235   */\n      iszero\n      tag_72\n      jumpi\n        /* \"#utility.yul\":2215:2233   */\n      tag_73\n      tag_34\n      jump\t// in\n    tag_73:\n        /* \"#utility.yul\":2147:2235   */\n    tag_72:\n        /* \"#utility.yul\":2255:2265   */\n      dup1\n        /* \"#utility.yul\":2251:2253   */\n      0x40\n        /* \"#utility.yul\":2244:2266   */\n      mstore\n        /* \"#utility.yul\":2034:2272   */\n      pop\n        /* \"#utility.yul\":1991:2272   */\n      pop\n      pop\n      jump\t// out\n        /* \"#utility.yul\":2278:2407   */\n    tag_36:\n        /* \"#utility.yul\":2312:2318   */\n      0x00\n        /* \"#utility.yul\":2339:2359   */\n      tag_75\n      tag_29\n      jump\t// in\n    tag_75:\n        /* \"#utility.yul\":2329:2359   */\n      swap1\n      pop\n        /* \"#utility.yul\":2368:2401   */\n      tag_76\n        /* \"#utility.yul\":2396:2400   */\n      dup3\n        /* \"#utility.yul\":2388:2394   */\n      dup3\n        /* \"#utility.yul\":2368:2401   */\n      tag_35\n      jump\t// in\n    tag_76:\n        /* \"#utility.yul\":2278:2407   */\n      swap2\n      swap1\n      pop\n      jump\t// out\n        /* \"#utility.yul\":2413:2720   */\n    tag_37:\n        /* \"#utility.yul\":2474:2478   */\n      0x00\n        /* \"#utility.yul\":2564:2582   */\n      0xffffffffffffffff\n        /* \"#utility.yul\":2556:2562   */\n      dup3\n        /* \"#utility.yul\":2553:2583   */\n      gt\n        /* \"#utility.yul\":2550:2606   */\n      iszero\n      tag_78\n      jumpi\n        /* \"#utility.yul\":2586:2604   */\n      tag_79\n      tag_34\n      jump\t// in\n    tag_79:\n        /* \"#utility.yul\":2550:2606   */\n    tag_78:\n        /* \"#utility.yul\":2624:2653   */\n      tag_80\n        /* \"#utility.yul\":2646:2652   */\n      dup3\n        /* \"#utility.yul\":2624:2653   */\n      tag_27\n      jump\t// in\n    tag_80:\n        /* \"#utility.yul\":2616:2653   */\n      swap1\n      pop\n        /* \"#utility.yul\":2708:2712   */\n      0x20\n        /* \"#utility.yul\":2702:2706   */\n      dup2\n        /* \"#utility.yul\":2698:2713   */\n      add\n        /* \"#utility.yul\":2690:2713   */\n      swap1\n      pop\n        /* \"#utility.yul\":2413:2720   */\n      swap2\n      swap1\n      pop\n      jump\t// out\n        /* \"#utility.yul\":2726:2874   */\n    tag_38:\n        /* \"#utility.yul\":2824:2830   */\n      dup3\n        /* \"#utility.yul\":2819:2822   */\n      dup2\n        /* \"#utility.yul\":2814:2817   */\n      dup4\n        /* \"#utility.yul\":2801:2831   */\n      calldatacopy\n        /* \"#utility.yul\":2865:2866   */\n      0x00\n        /* \"#utility.yul\":2856:2862   */\n      dup4\n        /* \"#utility.yul\":2851:2854   */\n      dup4\n        /* \"#utility.yul\":2847:2863   */\n      add\n        /* \"#utility.yul\":2840:2867   */\n      mstore\n        /* \"#utility.yul\":2726:2874   */\n      pop\n      pop\n      pop\n      jump\t// out\n        /* \"#utility.yul\":2880:3303   */\n    tag_39:\n        /* \"#utility.yul\":2957:2962   */\n      0x00\n        /* \"#utility.yul\":2982:3047   */\n      tag_83\n        /* \"#utility.yul\":2998:3046   */\n      tag_84\n        /* \"#utility.yul\":3039:3045   */\n      dup5\n        /* \"#utility.yul\":2998:3046   */\n      tag_37\n      jump\t// in\n    tag_84:\n        /* \"#utility.yul\":2982:3047   */\n      tag_36\n      jump\t// in\n    tag_83:\n        /* \"#utility.yul\":2973:3047   */\n      swap1\n      pop\n        /* \"#utility.yul\":3070:3076   */\n      dup3\n        /* \"#utility.yul\":3063:3068   */\n      dup2\n        /* \"#utility.yul\":3056:3077   */\n      mstore\n        /* \"#utility.yul\":3108:3112   */\n      0x20\n        /* \"#utility.yul\":3101:3106   */\n      dup2\n        /* \"#utility.yul\":3097:3113   */\n      add\n        /* \"#utility.yul\":3146:3149   */\n      dup5\n        /* \"#utility.yul\":3137:3143   */\n      dup5\n        /* \"#utility.yul\":3132:3135   */\n      dup5\n        /* \"#utility.yul\":3128:3144   */\n      add\n        /* \"#utility.yul\":3125:3150   */\n      gt\n        /* \"#utility.yul\":3122:3234   */\n      iszero\n      tag_85\n      jumpi\n        /* \"#utility.yul\":3153:3232   */\n      tag_86\n      tag_33\n      jump\t// in\n    tag_86:\n        /* \"#utility.yul\":3122:3234   */\n    tag_85:\n        /* \"#utility.yul\":3243:3297   */\n      tag_87\n        /* \"#utility.yul\":3290:3296   */\n      dup5\n        /* \"#utility.yul\":3285:3288   */\n      dup3\n        /* \"#utility.yul\":3280:3283   */\n      dup6\n        /* \"#utility.yul\":3243:3297   */\n      tag_38\n      jump\t// in\n    tag_87:\n        /* \"#utility.yul\":2963:3303   */\n      pop\n        /* \"#utility.yul\":2880:3303   */\n      swap4\n      swap3\n      pop\n      pop\n      pop\n      jump\t// out\n        /* \"#utility.yul\":3322:3660   */\n    tag_40:\n        /* \"#utility.yul\":3377:3382   */\n      0x00\n        /* \"#utility.yul\":3426:3429   */\n      dup3\n        /* \"#utility.yul\":3419:3423   */\n      0x1f\n        /* \"#utility.yul\":3411:3417   */\n      dup4\n        /* \"#utility.yul\":3407:3424   */\n      add\n        /* \"#utility.yul\":3403:3430   */\n      slt\n        /* \"#utility.yul\":3393:3515   */\n      tag_89\n      jumpi\n        /* \"#utility.yul\":3434:3513   */\n      tag_90\n      tag_32\n      jump\t// in\n    tag_90:\n        /* \"#utility.yul\":3393:3515   */\n    tag_89:\n        /* \"#utility.yul\":3551:3557   */\n      dup2\n        /* \"#utility.yul\":3538:3558   */\n      calldataload\n        /* \"#utility.yul\":3576:3654   */\n      tag_91\n        /* \"#utility.yul\":3650:3653   */\n      dup5\n        /* \"#utility.yul\":3642:3648   */\n      dup3\n        /* \"#utility.yul\":3635:3639   */\n      0x20\n        /* \"#utility.yul\":3627:3633   */\n      dup7\n        /* \"#utility.yul\":3623:3640   */\n      add\n        /* \"#utility.yul\":3576:3654   */\n      tag_39\n      jump\t// in\n    tag_91:\n        /* \"#utility.yul\":3567:3654   */\n      swap2\n      pop\n        /* \"#utility.yul\":3383:3660   */\n      pop\n        /* \"#utility.yul\":3322:3660   */\n      swap3\n      swap2\n      pop\n      pop\n      jump\t// out\n        /* \"#utility.yul\":3666:4173   */\n    tag_11:\n        /* \"#utility.yul\":3734:3740   */\n      0x00\n        /* \"#utility.yul\":3783:3785   */\n      0x20\n        /* \"#utility.yul\":3771:3780   */\n      dup3\n        /* \"#utility.yul\":3762:3769   */\n      dup5\n        /* \"#utility.yul\":3758:3781   */\n      sub\n        /* \"#utility.yul\":3754:3786   */\n      slt\n        /* \"#utility.yul\":3751:3870   */\n      iszero\n      tag_93\n      jumpi\n        /* \"#utility.yul\":3789:3868   */\n      tag_94\n      tag_30\n      jump\t// in\n    tag_94:\n        /* \"#utility.yul\":3751:3870   */\n    tag_93:\n        /* \"#utility.yul\":3937:3938   */\n      0x00\n        /* \"#utility.yul\":3926:3935   */\n      dup3\n        /* \"#utility.yul\":3922:3939   */\n      add\n        /* \"#utility.yul\":3909:3940   */\n      calldataload\n        /* \"#utility.yul\":3967:3985   */\n      0xffffffffffffffff\n        /* \"#utility.yul\":3959:3965   */\n      dup2\n        /* \"#utility.yul\":3956:3986   */\n      gt\n        /* \"#utility.yul\":3953:4070   */\n      iszero\n      tag_95\n      jumpi\n        /* \"#utility.yul\":3989:4068   */\n      tag_96\n      tag_31\n      jump\t// in\n    tag_96:\n        /* \"#utility.yul\":3953:4070   */\n    tag_95:\n        /* \"#utility.yul\":4094:4156   */\n      tag_97\n        /* \"#utility.yul\":4148:4155   */\n      dup5\n        /* \"#utility.yul\":4139:4145   */\n      dup3\n        /* \"#utility.yul\":4128:4137   */\n      dup6\n        /* \"#utility.yul\":4124:4146   */\n      add\n        /* \"#utility.yul\":4094:4156   */\n      tag_40\n      jump\t// in\n    tag_97:\n        /* \"#utility.yul\":4084:4156   */\n      swap2\n      pop\n        /* \"#utility.yul\":3880:4166   */\n      pop\n        /* \"#utility.yul\":3666:4173   */\n      swap3\n      swap2\n      pop\n      pop\n      jump\t// out\n        /* \"#utility.yul\":4179:4278   */\n    tag_41:\n        /* \"#utility.yul\":4231:4237   */\n      0x00\n        /* \"#utility.yul\":4265:4270   */\n      dup2\n        /* \"#utility.yul\":4259:4271   */\n      mload\n        /* \"#utility.yul\":4249:4271   */\n      swap1\n      pop\n        /* \"#utility.yul\":4179:4278   */\n      swap2\n      swap1\n      pop\n      jump\t// out\n        /* \"#utility.yul\":4284:4453   */\n    tag_42:\n        /* \"#utility.yul\":4368:4379   */\n      0x00\n        /* \"#utility.yul\":4402:4408   */\n      dup3\n        /* \"#utility.yul\":4397:4400   */\n      dup3\n        /* \"#utility.yul\":4390:4409   */\n      mstore\n        /* \"#utility.yul\":4442:4446   */\n      0x20\n        /* \"#utility.yul\":4437:4440   */\n      dup3\n        /* \"#utility.yul\":4433:4447   */\n      add\n        /* \"#utility.yul\":4418:4447   */\n      swap1\n      pop\n        /* \"#utility.yul\":4284:4453   */\n      swap3\n      swap2\n      pop\n      pop\n      jump\t// out\n        /* \"#utility.yul\":4459:4836   */\n    tag_43:\n        /* \"#utility.yul\":4547:4550   */\n      0x00\n        /* \"#utility.yul\":4575:4614   */\n      tag_101\n        /* \"#utility.yul\":4608:4613   */\n      dup3\n        /* \"#utility.yul\":4575:4614   */\n      tag_41\n      jump\t// in\n    tag_101:\n        /* \"#utility.yul\":4630:4701   */\n      tag_102\n        /* \"#utility.yul\":4694:4700   */\n      dup2\n        /* \"#utility.yul\":4689:4692   */\n      dup6\n        /* \"#utility.yul\":4630:4701   */\n      tag_42\n      jump\t// in\n    tag_102:\n        /* \"#utility.yul\":4623:4701   */\n      swap4\n      pop\n        /* \"#utility.yul\":4710:4775   */\n      tag_103\n        /* \"#utility.yul\":4768:4774   */\n      dup2\n        /* \"#utility.yul\":4763:4766   */\n      dup6\n        /* \"#utility.yul\":4756:4760   */\n      0x20\n        /* \"#utility.yul\":4749:4754   */\n      dup7\n        /* \"#utility.yul\":4745:4761   */\n      add\n        /* \"#utility.yul\":4710:4775   */\n      tag_26\n      jump\t// in\n    tag_103:\n        /* \"#utility.yul\":4800:4829   */\n      tag_104\n        /* \"#utility.yul\":4822:4828   */\n      dup2\n        /* \"#utility.yul\":4800:4829   */\n      tag_27\n      jump\t// in\n    tag_104:\n        /* \"#utility.yul\":4795:4798   */\n      dup5\n        /* \"#utility.yul\":4791:4830   */\n      add\n        /* \"#utility.yul\":4784:4830   */\n      swap2\n      pop\n        /* \"#utility.yul\":4551:4836   */\n      pop\n        /* \"#utility.yul\":4459:4836   */\n      swap3\n      swap2\n      pop\n      pop\n      jump\t// out\n        /* \"#utility.yul\":4842:4919   */\n    tag_44:\n        /* \"#utility.yul\":4879:4886   */\n      0x00\n        /* \"#utility.yul\":4908:4913   */\n      dup2\n        /* \"#utility.yul\":4897:4913   */\n      swap1\n      pop\n        /* \"#utility.yul\":4842:4919   */\n      swap2\n      swap1\n      pop\n      jump\t// out\n        /* \"#utility.yul\":4925:5043   */\n    tag_45:\n        /* \"#utility.yul\":5012:5036   */\n      tag_107\n        /* \"#utility.yul\":5030:5035   */\n      dup2\n        /* \"#utility.yul\":5012:5036   */\n      tag_44\n      jump\t// in\n    tag_107:\n        /* \"#utility.yul\":5007:5010   */\n      dup3\n        /* \"#utility.yul\":5000:5037   */\n      mstore\n        /* \"#utility.yul\":4925:5043   */\n      pop\n      pop\n      jump\t// out\n        /* \"#utility.yul\":5049:5472   */\n    tag_14:\n        /* \"#utility.yul\":5190:5194   */\n      0x00\n        /* \"#utility.yul\":5228:5230   */\n      0x40\n        /* \"#utility.yul\":5217:5226   */\n      dup3\n        /* \"#utility.yul\":5213:5231   */\n      add\n        /* \"#utility.yul\":5205:5231   */\n      swap1\n      pop\n        /* \"#utility.yul\":5277:5286   */\n      dup2\n        /* \"#utility.yul\":5271:5275   */\n      dup2\n        /* \"#utility.yul\":5267:5287   */\n      sub\n        /* \"#utility.yul\":5263:5264   */\n      0x00\n        /* \"#utility.yul\":5252:5261   */\n      dup4\n        /* \"#utility.yul\":5248:5265   */\n      add\n        /* \"#utility.yul\":5241:5288   */\n      mstore\n        /* \"#utility.yul\":5305:5383   */\n      tag_109\n        /* \"#utility.yul\":5378:5382   */\n      dup2\n        /* \"#utility.yul\":5369:5375   */\n      dup6\n        /* \"#utility.yul\":5305:5383   */\n      tag_43\n      jump\t// in\n    tag_109:\n        /* \"#utility.yul\":5297:5383   */\n      swap1\n      pop\n        /* \"#utility.yul\":5393:5465   */\n      tag_110\n        /* \"#utility.yul\":5461:5463   */\n      0x20\n        /* \"#utility.yul\":5450:5459   */\n      dup4\n        /* \"#utility.yul\":5446:5464   */\n      add\n        /* \"#utility.yul\":5437:5443   */\n      dup5\n        /* \"#utility.yul\":5393:5465   */\n      tag_45\n      jump\t// in\n    tag_110:\n        /* \"#utility.yul\":5049:5472   */\n      swap4\n      swap3\n      pop\n      pop\n      pop\n      jump\t// out\n        /* \"#utility.yul\":5478:5658   */\n    tag_46:\n        /* \"#utility.yul\":5526:5603   */\n      0x4e487b7100000000000000000000000000000000000000000000000000000000\n        /* \"#utility.yul\":5523:5524   */\n      0x00\n        /* \"#utility.yul\":5516:5604   */\n      mstore\n        /* \"#utility.yul\":5623:5627   */\n      0x22\n        /* \"#utility.yul\":5620:5621   */\n      0x04\n        /* \"#utility.yul\":5613:5628   */\n      mstore\n        /* \"#utility.yul\":5647:5651   */\n      0x24\n        /* \"#utility.yul\":5644:5645   */\n      0x00\n        /* \"#utility.yul\":5637:5652   */\n      revert\n        /* \"#utility.yul\":5664:5984   */\n    tag_16:\n        /* \"#utility.yul\":5708:5714   */\n      0x00\n        /* \"#utility.yul\":5745:5746   */\n      0x02\n        /* \"#utility.yul\":5739:5743   */\n      dup3\n        /* \"#utility.yul\":5735:5747   */\n      div\n        /* \"#utility.yul\":5725:5747   */\n      swap1\n      pop\n        /* \"#utility.yul\":5792:5793   */\n      0x01\n        /* \"#utility.yul\":5786:5790   */\n      dup3\n        /* \"#utility.yul\":5782:5794   */\n      and\n        /* \"#utility.yul\":5813:5831   */\n      dup1\n        /* \"#utility.yul\":5803:5884   */\n      tag_113\n      jumpi\n        /* \"#utility.yul\":5869:5873   */\n      0x7f\n        /* \"#utility.yul\":5861:5867   */\n      dup3\n        /* \"#utility.yul\":5857:5874   */\n      and\n        /* \"#utility.yul\":5847:5874   */\n      swap2\n      pop\n        /* \"#utility.yul\":5803:5884   */\n    tag_113:\n        /* \"#utility.yul\":5931:5933   */\n      0x20\n        /* \"#utility.yul\":5923:5929   */\n      dup3\n        /* \"#utility.yul\":5920:5934   */\n      lt\n        /* \"#utility.yul\":5900:5918   */\n      dup2\n        /* \"#utility.yul\":5897:5935   */\n      sub\n        /* \"#utility.yul\":5894:5978   */\n      tag_114\n      jumpi\n        /* \"#utility.yul\":5950:5968   */\n      tag_115\n      tag_46\n      jump\t// in\n    tag_115:\n        /* \"#utility.yul\":5894:5978   */\n    tag_114:\n        /* \"#utility.yul\":5715:5984   */\n      pop\n        /* \"#utility.yul\":5664:5984   */\n      swap2\n      swap1\n      pop\n      jump\t// out\n        /* \"#utility.yul\":5990:6298   */\n    tag_47:\n        /* \"#utility.yul\":6052:6056   */\n      0x00\n        /* \"#utility.yul\":6142:6160   */\n      0xffffffffffffffff\n        /* \"#utility.yul\":6134:6140   */\n      dup3\n        /* \"#utility.yul\":6131:6161   */\n      gt\n        /* \"#utility.yul\":6128:6184   */\n      iszero\n      tag_117\n      jumpi\n        /* \"#utility.yul\":6164:6182   */\n      tag_118\n      tag_34\n      jump\t// in\n    tag_118:\n        /* \"#utility.yul\":6128:6184   */\n    tag_117:\n        /* \"#utility.yul\":6202:6231   */\n      tag_119\n        /* \"#utility.yul\":6224:6230   */\n      dup3\n        /* \"#utility.yul\":6202:6231   */\n      tag_27\n      jump\t// in\n    tag_119:\n        /* \"#utility.yul\":6194:6231   */\n      swap1\n      pop\n        /* \"#utility.yul\":6286:6290   */\n      0x20\n        /* \"#utility.yul\":6280:6284   */\n      dup2\n        /* \"#utility.yul\":6276:6291   */\n      add\n        /* \"#utility.yul\":6268:6291   */\n      swap1\n      pop\n        /* \"#utility.yul\":5990:6298   */\n      swap2\n      swap1\n      pop\n      jump\t// out\n        /* \"#utility.yul\":6304:6738   */\n    tag_48:\n        /* \"#utility.yul\":6393:6398   */\n      0x00\n        /* \"#utility.yul\":6418:6484   */\n      tag_121\n        /* \"#utility.yul\":6434:6483   */\n      tag_122\n        /* \"#utility.yul\":6476:6482   */\n      dup5\n        /* \"#utility.yul\":6434:6483   */\n      tag_47\n      jump\t// in\n    tag_122:\n        /* \"#utility.yul\":6418:6484   */\n      tag_36\n      jump\t// in\n    tag_121:\n        /* \"#utility.yul\":6409:6484   */\n      swap1\n      pop\n        /* \"#utility.yul\":6507:6513   */\n      dup3\n        /* \"#utility.yul\":6500:6505   */\n      dup2\n        /* \"#utility.yul\":6493:6514   */\n      mstore\n        /* \"#utility.yul\":6545:6549   */\n      0x20\n        /* \"#utility.yul\":6538:6543   */\n      dup2\n        /* \"#utility.yul\":6534:6550   */\n      add\n        /* \"#utility.yul\":6583:6586   */\n      dup5\n        /* \"#utility.yul\":6574:6580   */\n      dup5\n        /* \"#utility.yul\":6569:6572   */\n      dup5\n        /* \"#utility.yul\":6565:6581   */\n      add\n        /* \"#utility.yul\":6562:6587   */\n      gt\n        /* \"#utility.yul\":6559:6671   */\n      iszero\n      tag_123\n      jumpi\n        /* \"#utility.yul\":6590:6669   */\n      tag_124\n      tag_33\n      jump\t// in\n    tag_124:\n        /* \"#utility.yul\":6559:6671   */\n    tag_123:\n        /* \"#utility.yul\":6680:6732   */\n      tag_125\n        /* \"#utility.yul\":6725:6731   */\n      dup5\n        /* \"#utility.yul\":6720:6723   */\n      dup3\n        /* \"#utility.yul\":6715:6718   */\n      dup6\n        /* \"#utility.yul\":6680:6732   */\n      tag_26\n      jump\t// in\n    tag_125:\n        /* \"#utility.yul\":6399:6738   */\n      pop\n        /* \"#utility.yul\":6304:6738   */\n      swap4\n      swap3\n      pop\n      pop\n      pop\n      jump\t// out\n        /* \"#utility.yul\":6758:7113   */\n    tag_49:\n        /* \"#utility.yul\":6825:6830   */\n      0x00\n        /* \"#utility.yul\":6874:6877   */\n      dup3\n        /* \"#utility.yul\":6867:6871   */\n      0x1f\n        /* \"#utility.yul\":6859:6865   */\n      dup4\n        /* \"#utility.yul\":6855:6872   */\n      add\n        /* \"#utility.yul\":6851:6878   */\n      slt\n        /* \"#utility.yul\":6841:6963   */\n      tag_127\n      jumpi\n        /* \"#utility.yul\":6882:6961   */\n      tag_128\n      tag_32\n      jump\t// in\n    tag_128:\n        /* \"#utility.yul\":6841:6963   */\n    tag_127:\n        /* \"#utility.yul\":6992:6998   */\n      dup2\n        /* \"#utility.yul\":6986:6999   */\n      mload\n        /* \"#utility.yul\":7017:7107   */\n      tag_129\n        /* \"#utility.yul\":7103:7106   */\n      dup5\n        /* \"#utility.yul\":7095:7101   */\n      dup3\n        /* \"#utility.yul\":7088:7092   */\n      0x20\n        /* \"#utility.yul\":7080:7086   */\n      dup7\n        /* \"#utility.yul\":7076:7093   */\n      add\n        /* \"#utility.yul\":7017:7107   */\n      tag_48\n      jump\t// in\n    tag_129:\n        /* \"#utility.yul\":7008:7107   */\n      swap2\n      pop\n        /* \"#utility.yul\":6831:7113   */\n      pop\n        /* \"#utility.yul\":6758:7113   */\n      swap3\n      swap2\n      pop\n      pop\n      jump\t// out\n        /* \"#utility.yul\":7119:7241   */\n    tag_50:\n        /* \"#utility.yul\":7192:7216   */\n      tag_131\n        /* \"#utility.yul\":7210:7215   */\n      dup2\n        /* \"#utility.yul\":7192:7216   */\n      tag_44\n      jump\t// in\n    tag_131:\n        /* \"#utility.yul\":7185:7190   */\n      dup2\n        /* \"#utility.yul\":7182:7217   */\n      eq\n        /* \"#utility.yul\":7172:7235   */\n      tag_132\n      jumpi\n        /* \"#utility.yul\":7231:7232   */\n      0x00\n        /* \"#utility.yul\":7228:7229   */\n      dup1\n        /* \"#utility.yul\":7221:7233   */\n      revert\n        /* \"#utility.yul\":7172:7235   */\n    tag_132:\n        /* \"#utility.yul\":7119:7241   */\n      pop\n      jump\t// out\n        /* \"#utility.yul\":7247:7390   */\n    tag_51:\n        /* \"#utility.yul\":7304:7309   */\n      0x00\n        /* \"#utility.yul\":7335:7341   */\n      dup2\n        /* \"#utility.yul\":7329:7342   */\n      mload\n        /* \"#utility.yul\":7320:7342   */\n      swap1\n      pop\n        /* \"#utility.yul\":7351:7384   */\n      tag_134\n        /* \"#utility.yul\":7378:7383   */\n      dup2\n        /* \"#utility.yul\":7351:7384   */\n      tag_50\n      jump\t// in\n    tag_134:\n        /* \"#utility.yul\":7247:7390   */\n      swap3\n      swap2\n      pop\n      pop\n      jump\t// out\n        /* \"#utility.yul\":7396:8076   */\n    tag_23:\n        /* \"#utility.yul\":7485:7491   */\n      0x00\n        /* \"#utility.yul\":7493:7499   */\n      dup1\n        /* \"#utility.yul\":7542:7544   */\n      0x40\n        /* \"#utility.yul\":7530:7539   */\n      dup4\n        /* \"#utility.yul\":7521:7528   */\n      dup6\n        /* \"#utility.yul\":7517:7540   */\n      sub\n        /* \"#utility.yul\":7513:7545   */\n      slt\n        /* \"#utility.yul\":7510:7629   */\n      iszero\n      tag_136\n      jumpi\n        /* \"#utility.yul\":7548:7627   */\n      tag_137\n      tag_30\n      jump\t// in\n    tag_137:\n        /* \"#utility.yul\":7510:7629   */\n    tag_136:\n        /* \"#utility.yul\":7689:7690   */\n      0x00\n        /* \"#utility.yul\":7678:7687   */\n      dup4\n        /* \"#utility.yul\":7674:7691   */\n      add\n        /* \"#utility.yul\":7668:7692   */\n      mload\n        /* \"#utility.yul\":7719:7737   */\n      0xffffffffffffffff\n        /* \"#utility.yul\":7711:7717   */\n      dup2\n        /* \"#utility.yul\":7708:7738   */\n      gt\n        /* \"#utility.yul\":7705:7822   */\n      iszero\n      tag_138\n      jumpi\n        /* \"#utility.yul\":7741:7820   */\n      tag_139\n      tag_31\n      jump\t// in\n    tag_139:\n        /* \"#utility.yul\":7705:7822   */\n    tag_138:\n        /* \"#utility.yul\":7846:7920   */\n      tag_140\n        /* \"#utility.yul\":7912:7919   */\n      dup6\n        /* \"#utility.yul\":7903:7909   */\n      dup3\n        /* \"#utility.yul\":7892:7901   */\n      dup7\n        /* \"#utility.yul\":7888:7910   */\n      add\n        /* \"#utility.yul\":7846:7920   */\n      tag_49\n      jump\t// in\n    tag_140:\n        /* \"#utility.yul\":7836:7920   */\n      swap3\n      pop\n        /* \"#utility.yul\":7639:7930   */\n      pop\n        /* \"#utility.yul\":7969:7971   */\n      0x20\n        /* \"#utility.yul\":7995:8059   */\n      tag_141\n        /* \"#utility.yul\":8051:8058   */\n      dup6\n        /* \"#utility.yul\":8042:8048   */\n      dup3\n        /* \"#utility.yul\":8031:8040   */\n      dup7\n        /* \"#utility.yul\":8027:8049   */\n      add\n        /* \"#utility.yul\":7995:8059   */\n      tag_51\n      jump\t// in\n    tag_141:\n        /* \"#utility.yul\":7985:8059   */\n      swap2\n      pop\n        /* \"#utility.yul\":7940:8069   */\n      pop\n        /* \"#utility.yul\":7396:8076   */\n      swap3\n      pop\n      swap3\n      swap1\n      pop\n      jump\t// out\n\n    auxdata: 0xa26469706673582212209f61a8bef7c0458d19e3c98059b6331dc2192a9b9f6ea111663365f0a00b889f64736f6c634300081a0033\n}\n",
				"bytecode": {
					"linkReferences": {},
					"object": "6080604052348015600e575f80fd5b5061059d8061001c5f395ff3fe608060405234801561000f575f80fd5b5060043610610034575f3560e01c8063247eff5f14610038578063447a06f514610056575b5f80fd5b610040610087565b60405161004d91906101ac565b60405180910390f35b610070600480360381019061006b9190610309565b610112565b60405161007e9291906103ba565b60405180910390f35b5f805461009390610415565b80601f01602080910402602001604051908101604052809291908181526020018280546100bf90610415565b801561010a5780601f106100e15761010080835404028352916020019161010a565b820191905f5260205f20905b8154815290600101906020018083116100ed57829003601f168201915b505050505081565b60605f805f8480602001905181019061012b919061050d565b915091508181935093505050915091565b5f81519050919050565b5f82825260208201905092915050565b8281835e5f83830152505050565b5f601f19601f8301169050919050565b5f61017e8261013c565b6101888185610146565b9350610198818560208601610156565b6101a181610164565b840191505092915050565b5f6020820190508181035f8301526101c48184610174565b905092915050565b5f604051905090565b5f80fd5b5f80fd5b5f80fd5b5f80fd5b7f4e487b71000000000000000000000000000000000000000000000000000000005f52604160045260245ffd5b61021b82610164565b810181811067ffffffffffffffff8211171561023a576102396101e5565b5b80604052505050565b5f61024c6101cc565b90506102588282610212565b919050565b5f67ffffffffffffffff821115610277576102766101e5565b5b61028082610164565b9050602081019050919050565b828183375f83830152505050565b5f6102ad6102a88461025d565b610243565b9050828152602081018484840111156102c9576102c86101e1565b5b6102d484828561028d565b509392505050565b5f82601f8301126102f0576102ef6101dd565b5b813561030084826020860161029b565b91505092915050565b5f6020828403121561031e5761031d6101d5565b5b5f82013567ffffffffffffffff81111561033b5761033a6101d9565b5b610347848285016102dc565b91505092915050565b5f81519050919050565b5f82825260208201905092915050565b5f61037482610350565b61037e818561035a565b935061038e818560208601610156565b61039781610164565b840191505092915050565b5f819050919050565b6103b4816103a2565b82525050565b5f6040820190508181035f8301526103d2818561036a565b90506103e160208301846103ab565b9392505050565b7f4e487b71000000000000000000000000000000000000000000000000000000005f52602260045260245ffd5b5f600282049050600182168061042c57607f821691505b60208210810361043f5761043e6103e8565b5b50919050565b5f67ffffffffffffffff82111561045f5761045e6101e5565b5b61046882610164565b9050602081019050919050565b5f61048761048284610445565b610243565b9050828152602081018484840111156104a3576104a26101e1565b5b6104ae848285610156565b509392505050565b5f82601f8301126104ca576104c96101dd565b5b81516104da848260208601610475565b91505092915050565b6104ec816103a2565b81146104f6575f80fd5b50565b5f81519050610507816104e3565b92915050565b5f8060408385031215610523576105226101d5565b5b5f83015167ffffffffffffffff8111156105405761053f6101d9565b5b61054c858286016104b6565b925050602061055d858286016104f9565b915050925092905056fea26469706673582212209f61a8bef7c0458d19e3c98059b6331dc2192a9b9f6ea111663365f0a00b889f64736f6c634300081a0033",
					"opcodes": "PUSH1 0x80 PUSH1 0x40 MSTORE CALLVALUE DUP1 ISZERO PUSH1 0xE JUMPI PUSH0 DUP1 REVERT JUMPDEST POP PUSH2 0x59D DUP1 PUSH2 0x1C PUSH0 CODECOPY PUSH0 RETURN INVALID PUSH1 0x80 PUSH1 0x40 MSTORE CALLVALUE DUP1 ISZERO PUSH2 0xF JUMPI PUSH0 DUP1 REVERT JUMPDEST POP PUSH1 0x4 CALLDATASIZE LT PUSH2 0x34 JUMPI PUSH0 CALLDATALOAD PUSH1 0xE0 SHR DUP1 PUSH4 0x247EFF5F EQ PUSH2 0x38 JUMPI DUP1 PUSH4 0x447A06F5 EQ PUSH2 0x56 JUMPI JUMPDEST PUSH0 DUP1 REVERT JUMPDEST PUSH2 0x40 PUSH2 0x87 JUMP JUMPDEST PUSH1 0x40 MLOAD PUSH2 0x4D SWAP2 SWAP1 PUSH2 0x1AC JUMP JUMPDEST PUSH1 0x40 MLOAD DUP1 SWAP2 SUB SWAP1 RETURN JUMPDEST PUSH2 0x70 PUSH1 0x4 DUP1 CALLDATASIZE SUB DUP2 ADD SWAP1 PUSH2 0x6B SWAP2 SWAP1 PUSH2 0x309 JUMP JUMPDEST PUSH2 0x112 JUMP JUMPDEST PUSH1 0x40 MLOAD PUSH2 0x7E SWAP3 SWAP2 SWAP1 PUSH2 0x3BA JUMP JUMPDEST PUSH1 0x40 MLOAD DUP1 SWAP2 SUB SWAP1 RETURN JUMPDEST PUSH0 DUP1 SLOAD PUSH2 0x93 SWAP1 PUSH2 0x415 JUMP JUMPDEST DUP1 PUSH1 0x1F ADD PUSH1 0x20 DUP1 SWAP2 DIV MUL PUSH1 0x20 ADD PUSH1 0x40 MLOAD SWAP1 DUP2 ADD PUSH1 0x40 MSTORE DUP1 SWAP3 SWAP2 SWAP1 DUP2 DUP2 MSTORE PUSH1 0x20 ADD DUP3 DUP1 SLOAD PUSH2 0xBF SWAP1 PUSH2 0x415 JUMP JUMPDEST DUP1 ISZERO PUSH2 0x10A JUMPI DUP1 PUSH1 0x1F LT PUSH2 0xE1 JUMPI PUSH2 0x100 DUP1 DUP4 SLOAD DIV MUL DUP4 MSTORE SWAP2 PUSH1 0x20 ADD SWAP2 PUSH2 0x10A JUMP JUMPDEST DUP3 ADD SWAP2 SWAP1 PUSH0 MSTORE PUSH1 0x20 PUSH0 KECCAK256 SWAP1 JUMPDEST DUP2 SLOAD DUP2 MSTORE SWAP1 PUSH1 0x1 ADD SWAP1 PUSH1 0x20 ADD DUP1 DUP4 GT PUSH2 0xED JUMPI DUP3 SWAP1 SUB PUSH1 0x1F AND DUP3 ADD SWAP2 JUMPDEST POP POP POP POP POP DUP2 JUMP JUMPDEST PUSH1 0x60 PUSH0 DUP1 PUSH0 DUP5 DUP1 PUSH1 0x20 ADD SWAP1 MLOAD DUP2 ADD SWAP1 PUSH2 0x12B SWAP2 SWAP1 PUSH2 0x50D JUMP JUMPDEST SWAP2 POP SWAP2 POP DUP2 DUP2 SWAP4 POP SWAP4 POP POP POP SWAP2 POP SWAP2 JUMP JUMPDEST PUSH0 DUP2 MLOAD SWAP1 POP SWAP2 SWAP1 POP JUMP JUMPDEST PUSH0 DUP3 DUP3 MSTORE PUSH1 0x20 DUP3 ADD SWAP1 POP SWAP3 SWAP2 POP POP JUMP JUMPDEST DUP3 DUP2 DUP4 MCOPY PUSH0 DUP4 DUP4 ADD MSTORE POP POP POP JUMP JUMPDEST PUSH0 PUSH1 0x1F NOT PUSH1 0x1F DUP4 ADD AND SWAP1 POP SWAP2 SWAP1 POP JUMP JUMPDEST PUSH0 PUSH2 0x17E DUP3 PUSH2 0x13C JUMP JUMPDEST PUSH2 0x188 DUP2 DUP6 PUSH2 0x146 JUMP JUMPDEST SWAP4 POP PUSH2 0x198 DUP2 DUP6 PUSH1 0x20 DUP7 ADD PUSH2 0x156 JUMP JUMPDEST PUSH2 0x1A1 DUP2 PUSH2 0x164 JUMP JUMPDEST DUP5 ADD SWAP2 POP POP SWAP3 SWAP2 POP POP JUMP JUMPDEST PUSH0 PUSH1 0x20 DUP3 ADD SWAP1 POP DUP2 DUP2 SUB PUSH0 DUP4 ADD MSTORE PUSH2 0x1C4 DUP2 DUP5 PUSH2 0x174 JUMP JUMPDEST SWAP1 POP SWAP3 SWAP2 POP POP JUMP JUMPDEST PUSH0 PUSH1 0x40 MLOAD SWAP1 POP SWAP1 JUMP JUMPDEST PUSH0 DUP1 REVERT JUMPDEST PUSH0 DUP1 REVERT JUMPDEST PUSH0 DUP1 REVERT JUMPDEST PUSH0 DUP1 REVERT JUMPDEST PUSH32 0x4E487B7100000000000000000000000000000000000000000000000000000000 PUSH0 MSTORE PUSH1 0x41 PUSH1 0x4 MSTORE PUSH1 0x24 PUSH0 REVERT JUMPDEST PUSH2 0x21B DUP3 PUSH2 0x164 JUMP JUMPDEST DUP2 ADD DUP2 DUP2 LT PUSH8 0xFFFFFFFFFFFFFFFF DUP3 GT OR ISZERO PUSH2 0x23A JUMPI PUSH2 0x239 PUSH2 0x1E5 JUMP JUMPDEST JUMPDEST DUP1 PUSH1 0x40 MSTORE POP POP POP JUMP JUMPDEST PUSH0 PUSH2 0x24C PUSH2 0x1CC JUMP JUMPDEST SWAP1 POP PUSH2 0x258 DUP3 DUP3 PUSH2 0x212 JUMP JUMPDEST SWAP2 SWAP1 POP JUMP JUMPDEST PUSH0 PUSH8 0xFFFFFFFFFFFFFFFF DUP3 GT ISZERO PUSH2 0x277 JUMPI PUSH2 0x276 PUSH2 0x1E5 JUMP JUMPDEST JUMPDEST PUSH2 0x280 DUP3 PUSH2 0x164 JUMP JUMPDEST SWAP1 POP PUSH1 0x20 DUP2 ADD SWAP1 POP SWAP2 SWAP1 POP JUMP JUMPDEST DUP3 DUP2 DUP4 CALLDATACOPY PUSH0 DUP4 DUP4 ADD MSTORE POP POP POP JUMP JUMPDEST PUSH0 PUSH2 0x2AD PUSH2 0x2A8 DUP5 PUSH2 0x25D JUMP JUMPDEST PUSH2 0x243 JUMP JUMPDEST SWAP1 POP DUP3 DUP2 MSTORE PUSH1 0x20 DUP2 ADD DUP5 DUP5 DUP5 ADD GT ISZERO PUSH2 0x2C9 JUMPI PUSH2 0x2C8 PUSH2 0x1E1 JUMP JUMPDEST JUMPDEST PUSH2 0x2D4 DUP5 DUP3 DUP6 PUSH2 0x28D JUMP JUMPDEST POP SWAP4 SWAP3 POP POP POP JUMP JUMPDEST PUSH0 DUP3 PUSH1 0x1F DUP4 ADD SLT PUSH2 0x2F0 JUMPI PUSH2 0x2EF PUSH2 0x1DD JUMP JUMPDEST JUMPDEST DUP2 CALLDATALOAD PUSH2 0x300 DUP5 DUP3 PUSH1 0x20 DUP7 ADD PUSH2 0x29B JUMP JUMPDEST SWAP2 POP POP SWAP3 SWAP2 POP POP JUMP JUMPDEST PUSH0 PUSH1 0x20 DUP3 DUP5 SUB SLT ISZERO PUSH2 0x31E JUMPI PUSH2 0x31D PUSH2 0x1D5 JUMP JUMPDEST JUMPDEST PUSH0 DUP3 ADD CALLDATALOAD PUSH8 0xFFFFFFFFFFFFFFFF DUP2 GT ISZERO PUSH2 0x33B JUMPI PUSH2 0x33A PUSH2 0x1D9 JUMP JUMPDEST JUMPDEST PUSH2 0x347 DUP5 DUP3 DUP6 ADD PUSH2 0x2DC JUMP JUMPDEST SWAP2 POP POP SWAP3 SWAP2 POP POP JUMP JUMPDEST PUSH0 DUP2 MLOAD SWAP1 POP SWAP2 SWAP1 POP JUMP JUMPDEST PUSH0 DUP3 DUP3 MSTORE PUSH1 0x20 DUP3 ADD SWAP1 POP SWAP3 SWAP2 POP POP JUMP JUMPDEST PUSH0 PUSH2 0x374 DUP3 PUSH2 0x350 JUMP JUMPDEST PUSH2 0x37E DUP2 DUP6 PUSH2 0x35A JUMP JUMPDEST SWAP4 POP PUSH2 0x38E DUP2 DUP6 PUSH1 0x20 DUP7 ADD PUSH2 0x156 JUMP JUMPDEST PUSH2 0x397 DUP2 PUSH2 0x164 JUMP JUMPDEST DUP5 ADD SWAP2 POP POP SWAP3 SWAP2 POP POP JUMP JUMPDEST PUSH0 DUP2 SWAP1 POP SWAP2 SWAP1 POP JUMP JUMPDEST PUSH2 0x3B4 DUP2 PUSH2 0x3A2 JUMP JUMPDEST DUP3 MSTORE POP POP JUMP JUMPDEST PUSH0 PUSH1 0x40 DUP3 ADD SWAP1 POP DUP2 DUP2 SUB PUSH0 DUP4 ADD MSTORE PUSH2 0x3D2 DUP2 DUP6 PUSH2 0x36A JUMP JUMPDEST SWAP1 POP PUSH2 0x3E1 PUSH1 0x20 DUP4 ADD DUP5 PUSH2 0x3AB JUMP JUMPDEST SWAP4 SWAP3 POP POP POP JUMP JUMPDEST PUSH32 0x4E487B7100000000000000000000000000000000000000000000000000000000 PUSH0 MSTORE PUSH1 0x22 PUSH1 0x4 MSTORE PUSH1 0x24 PUSH0 REVERT JUMPDEST PUSH0 PUSH1 0x2 DUP3 DIV SWAP1 POP PUSH1 0x1 DUP3 AND DUP1 PUSH2 0x42C JUMPI PUSH1 0x7F DUP3 AND SWAP2 POP JUMPDEST PUSH1 0x20 DUP3 LT DUP2 SUB PUSH2 0x43F JUMPI PUSH2 0x43E PUSH2 0x3E8 JUMP JUMPDEST JUMPDEST POP SWAP2 SWAP1 POP JUMP JUMPDEST PUSH0 PUSH8 0xFFFFFFFFFFFFFFFF DUP3 GT ISZERO PUSH2 0x45F JUMPI PUSH2 0x45E PUSH2 0x1E5 JUMP JUMPDEST JUMPDEST PUSH2 0x468 DUP3 PUSH2 0x164 JUMP JUMPDEST SWAP1 POP PUSH1 0x20 DUP2 ADD SWAP1 POP SWAP2 SWAP1 POP JUMP JUMPDEST PUSH0 PUSH2 0x487 PUSH2 0x482 DUP5 PUSH2 0x445 JUMP JUMPDEST PUSH2 0x243 JUMP JUMPDEST SWAP1 POP DUP3 DUP2 MSTORE PUSH1 0x20 DUP2 ADD DUP5 DUP5 DUP5 ADD GT ISZERO PUSH2 0x4A3 JUMPI PUSH2 0x4A2 PUSH2 0x1E1 JUMP JUMPDEST JUMPDEST PUSH2 0x4AE DUP5 DUP3 DUP6 PUSH2 0x156 JUMP JUMPDEST POP SWAP4 SWAP3 POP POP POP JUMP JUMPDEST PUSH0 DUP3 PUSH1 0x1F DUP4 ADD SLT PUSH2 0x4CA JUMPI PUSH2 0x4C9 PUSH2 0x1DD JUMP JUMPDEST JUMPDEST DUP2 MLOAD PUSH2 0x4DA DUP5 DUP3 PUSH1 0x20 DUP7 ADD PUSH2 0x475 JUMP JUMPDEST SWAP2 POP POP SWAP3 SWAP2 POP POP JUMP JUMPDEST PUSH2 0x4EC DUP2 PUSH2 0x3A2 JUMP JUMPDEST DUP2 EQ PUSH2 0x4F6 JUMPI PUSH0 DUP1 REVERT JUMPDEST POP JUMP JUMPDEST PUSH0 DUP2 MLOAD SWAP1 POP PUSH2 0x507 DUP2 PUSH2 0x4E3 JUMP JUMPDEST SWAP3 SWAP2 POP POP JUMP JUMPDEST PUSH0 DUP1 PUSH1 0x40 DUP4 DUP6 SUB SLT ISZERO PUSH2 0x523 JUMPI PUSH2 0x522 PUSH2 0x1D5 JUMP JUMPDEST JUMPDEST PUSH0 DUP4 ADD MLOAD PUSH8 0xFFFFFFFFFFFFFFFF DUP2 GT ISZERO PUSH2 0x540 JUMPI PUSH2 0x53F PUSH2 0x1D9 JUMP JUMPDEST JUMPDEST PUSH2 0x54C DUP6 DUP3 DUP7 ADD PUSH2 0x4B6 JUMP JUMPDEST SWAP3 POP POP PUSH1 0x20 PUSH2 0x55D DUP6 DUP3 DUP7 ADD PUSH2 0x4F9 JUMP JUMPDEST SWAP2 POP POP SWAP3 POP SWAP3 SWAP1 POP JUMP INVALID LOG2 PUSH5 0x6970667358 0x22 SLT KECCAK256 SWAP16 PUSH2 0xA8BE 0xF7 0xC0 GASLIMIT DUP14 NOT 0xE3 0xC9 DUP1 MSIZE 0xB6 CALLER SAR 0xC2 NOT 0x2A SWAP12 SWAP16 PUSH15 0xA111663365F0A00B889F64736F6C63 NUMBER STOP ADDMOD BYTE STOP CALLER "
				},
				"gasEstimates": {
					"creation": {
						"codeDepositCost": "287400",
						"executionCost": "322",
						"totalCost": "287722"
					},
					"external": {
						"decodeData(bytes)": "infinite",
						"encoded()": "infinite"
					}
				},
				"methodIdentifiers": {
					"decodeData(bytes)": "447a06f5",
					"encoded()": "247eff5f"
				}
			},
			"storageLayout": {
				"storage": [
					{
						"astId": 3,
						"contract": "Decoder/src/Decoder.sol:Decoder",
						"label": "encoded",
						"offset": 0,
						"slot": "0",
						"type": "t_bytes_storage"
					}
				],
				"types": {
					"t_bytes_storage": {
						"encoding": "bytes",
						"label": "bytes",
						"numberOfBytes": "32"
					}
				}
			},
			"userdoc": {
				"kind": "user",
				"methods": {},
				"version": 1
			}
		}
	}
}