{
	"TimelockEscrow/src/TimelockEscrow.sol": {
		"TimelockEscrow": {
			"abi": [
				{
					"inputs": [],
					"stateMutability": "nonpayable",
					"type": "constructor"
				},
				{
					"inputs": [
						{
							"internalType": "address",
							"name": "",
							"type": "address"
						}
					],
					"name": "amountDeposited",
					"outputs": [
						{
							"internalType": "uint256",
							"name": "",
							"type": "uint256"
						}
					],
					"stateMutability": "view",
					"type": "function"
				},
				{
					"inputs": [
						{
							"internalType": "address",
							"name": "buyer",
							"type": "address"
						}
					],
					"name": "buyerDeposit",
					"outputs": [
						{
							"internalType": "uint256",
							"name": "",
							"type": "uint256"
						}
					],
					"stateMutability": "view",
					"type": "function"
				},
				{
					"inputs": [],
					"name": "buyerWithdraw",
					"outputs": [],
					"stateMutability": "nonpayable",
					"type": "function"
				},
				{
					"inputs": [],
					"name": "createBuyOrder",
					"outputs": [],
					"stateMutability": "payable",
					"type": "function"
				},
				{
					"inputs": [],
					"name": "seller",
					"outputs": [
						{
							"internalType": "address",
							"name": "",
							"type": "address"
						}
					],
					"stateMutability": "view",
					"type": "function"
				},
				{
					"inputs": [
						{
							"internalType": "address",
							"name": "buyer",
							"type": "address"
						}
					],
					"name": "sellerWithdraw",
					"outputs": [],
					"stateMutability": "nonpayable",
					"type": "function"
				},
				{
					"inputs": [
						{
							"internalType": "address",
							"name": "",
							"type": "address"
						}
					],
					"name": "withdrawalTime",
					"outputs": [
						{
							"internalType": "uint256",
							"name": "",
							"type": "uint256"
						}
					],
					"stateMutability": "view",
					"type": "function"
				}
			],
			"devdoc": {
				"kind": "dev",
				"methods": {
					"sellerWithdraw(address)": {
						"params": {
							"buyer": "has passed"
						}
					}
				},
				"version": 1
			},
			"evm": {
				"assembly": "    /* \"TimelockEscrow/src/TimelockEscrow.sol\":63:1880  contract TimelockEscrow {... */\n  mstore(0x40, 0x80)\n    /* \"TimelockEscrow/src/TimelockEscrow.sol\":491:541  constructor() {... */\n  callvalue\n  dup1\n  iszero\n  tag_1\n  jumpi\n  0x00\n  dup1\n  revert\ntag_1:\n  pop\n    /* \"TimelockEscrow/src/TimelockEscrow.sol\":524:534  msg.sender */\n  caller\n    /* \"TimelockEscrow/src/TimelockEscrow.sol\":515:521  seller */\n  0x00\n  dup1\n    /* \"TimelockEscrow/src/TimelockEscrow.sol\":515:534  seller = msg.sender */\n  0x0100\n  exp\n  dup2\n  sload\n  dup2\n  0xffffffffffffffffffffffffffffffffffffffff\n  mul\n  not\n  and\n  swap1\n  dup4\n  0xffffffffffffffffffffffffffffffffffffffff\n  and\n  mul\n  or\n  swap1\n  sstore\n  pop\n    /* \"TimelockEscrow/src/TimelockEscrow.sol\":63:1880  contract TimelockEscrow {... */\n  dataSize(sub_0)\n  dup1\n  dataOffset(sub_0)\n  0x00\n  codecopy\n  0x00\n  return\nstop\n\nsub_0: assembly {\n        /* \"TimelockEscrow/src/TimelockEscrow.sol\":63:1880  contract TimelockEscrow {... */\n      mstore(0x40, 0x80)\n      jumpi(tag_1, lt(calldatasize, 0x04))\n      shr(0xe0, calldataload(0x00))\n      dup1\n      0x7cc947d0\n      gt\n      tag_9\n      jumpi\n      dup1\n      0x7cc947d0\n      eq\n      tag_5\n      jumpi\n      dup1\n      0x7ffdf46b\n      eq\n      tag_6\n      jumpi\n      dup1\n      0x8fe4b1e6\n      eq\n      tag_7\n      jumpi\n      dup1\n      0xf4f0e1ae\n      eq\n      tag_8\n      jumpi\n      jump(tag_1)\n    tag_9:\n      dup1\n      0x08551a53\n      eq\n      tag_2\n      jumpi\n      dup1\n      0x2e0bf525\n      eq\n      tag_3\n      jumpi\n      dup1\n      0x2e99a3bc\n      eq\n      tag_4\n      jumpi\n    tag_1:\n      0x00\n      dup1\n      revert\n        /* \"TimelockEscrow/src/TimelockEscrow.sol\":93:114  address public seller */\n    tag_2:\n      callvalue\n      dup1\n      iszero\n      tag_10\n      jumpi\n      0x00\n      dup1\n      revert\n    tag_10:\n      pop\n      tag_11\n      tag_12\n      jump\t// in\n    tag_11:\n      mload(0x40)\n      tag_13\n      swap2\n      swap1\n      tag_14\n      jump\t// in\n    tag_13:\n      mload(0x40)\n      dup1\n      swap2\n      sub\n      swap1\n      return\n        /* \"TimelockEscrow/src/TimelockEscrow.sol\":836:998  function createBuyOrder() external payable {... */\n    tag_3:\n      tag_15\n      tag_16\n      jump\t// in\n    tag_15:\n      stop\n        /* \"TimelockEscrow/src/TimelockEscrow.sol\":1109:1360  function sellerWithdraw(address buyer) external {... */\n    tag_4:\n      callvalue\n      dup1\n      iszero\n      tag_17\n      jumpi\n      0x00\n      dup1\n      revert\n    tag_17:\n      pop\n      tag_18\n      0x04\n      dup1\n      calldatasize\n      sub\n      dup2\n      add\n      swap1\n      tag_19\n      swap2\n      swap1\n      tag_20\n      jump\t// in\n    tag_19:\n      tag_21\n      jump\t// in\n    tag_18:\n      stop\n        /* \"TimelockEscrow/src/TimelockEscrow.sol\":1463:1706  function buyerWithdraw() external {... */\n    tag_5:\n      callvalue\n      dup1\n      iszero\n      tag_22\n      jumpi\n      0x00\n      dup1\n      revert\n    tag_22:\n      pop\n      tag_23\n      tag_24\n      jump\t// in\n    tag_23:\n      stop\n        /* \"TimelockEscrow/src/TimelockEscrow.sol\":1763:1878  function buyerDeposit(address buyer) external view returns (uint256) {... */\n    tag_6:\n      callvalue\n      dup1\n      iszero\n      tag_25\n      jumpi\n      0x00\n      dup1\n      revert\n    tag_25:\n      pop\n      tag_26\n      0x04\n      dup1\n      calldatasize\n      sub\n      dup2\n      add\n      swap1\n      tag_27\n      swap2\n      swap1\n      tag_20\n      jump\t// in\n    tag_27:\n      tag_28\n      jump\t// in\n    tag_26:\n      mload(0x40)\n      tag_29\n      swap2\n      swap1\n      tag_30\n      jump\t// in\n    tag_29:\n      mload(0x40)\n      dup1\n      swap2\n      sub\n      swap1\n      return\n        /* \"TimelockEscrow/src/TimelockEscrow.sol\":120:169  mapping(address => uint256) public withdrawalTime */\n    tag_7:\n      callvalue\n      dup1\n      iszero\n      tag_31\n      jumpi\n      0x00\n      dup1\n      revert\n    tag_31:\n      pop\n      tag_32\n      0x04\n      dup1\n      calldatasize\n      sub\n      dup2\n      add\n      swap1\n      tag_33\n      swap2\n      swap1\n      tag_20\n      jump\t// in\n    tag_33:\n      tag_34\n      jump\t// in\n    tag_32:\n      mload(0x40)\n      tag_35\n      swap2\n      swap1\n      tag_30\n      jump\t// in\n    tag_35:\n      mload(0x40)\n      dup1\n      swap2\n      sub\n      swap1\n      return\n        /* \"TimelockEscrow/src/TimelockEscrow.sol\":175:222  mapping(address => uint) public amountDeposited */\n    tag_8:\n      callvalue\n      dup1\n      iszero\n      tag_36\n      jumpi\n      0x00\n      dup1\n      revert\n    tag_36:\n      pop\n      tag_37\n      0x04\n      dup1\n      calldatasize\n      sub\n      dup2\n      add\n      swap1\n      tag_38\n      swap2\n      swap1\n      tag_20\n      jump\t// in\n    tag_38:\n      tag_39\n      jump\t// in\n    tag_37:\n      mload(0x40)\n      tag_40\n      swap2\n      swap1\n      tag_30\n      jump\t// in\n    tag_40:\n      mload(0x40)\n      dup1\n      swap2\n      sub\n      swap1\n      return\n        /* \"TimelockEscrow/src/TimelockEscrow.sol\":93:114  address public seller */\n    tag_12:\n      0x00\n      dup1\n      sload\n      swap1\n      0x0100\n      exp\n      swap1\n      div\n      0xffffffffffffffffffffffffffffffffffffffff\n      and\n      dup2\n      jump\t// out\n        /* \"TimelockEscrow/src/TimelockEscrow.sol\":836:998  function createBuyOrder() external payable {... */\n    tag_16:\n        /* \"TimelockEscrow/src/TimelockEscrow.sol\":936:942  3 days */\n      0x03f480\n        /* \"TimelockEscrow/src/TimelockEscrow.sol\":918:933  block.timestamp */\n      timestamp\n        /* \"TimelockEscrow/src/TimelockEscrow.sol\":918:942  block.timestamp + 3 days */\n      tag_42\n      swap2\n      swap1\n      tag_43\n      jump\t// in\n    tag_42:\n        /* \"TimelockEscrow/src/TimelockEscrow.sol\":889:903  withdrawalTime */\n      0x01\n        /* \"TimelockEscrow/src/TimelockEscrow.sol\":889:915  withdrawalTime[msg.sender] */\n      0x00\n        /* \"TimelockEscrow/src/TimelockEscrow.sol\":904:914  msg.sender */\n      caller\n        /* \"TimelockEscrow/src/TimelockEscrow.sol\":889:915  withdrawalTime[msg.sender] */\n      0xffffffffffffffffffffffffffffffffffffffff\n      and\n      0xffffffffffffffffffffffffffffffffffffffff\n      and\n      dup2\n      mstore\n      0x20\n      add\n      swap1\n      dup2\n      mstore\n      0x20\n      add\n      0x00\n      keccak256\n        /* \"TimelockEscrow/src/TimelockEscrow.sol\":889:942  withdrawalTime[msg.sender] = block.timestamp + 3 days */\n      dup2\n      swap1\n      sstore\n      pop\n        /* \"TimelockEscrow/src/TimelockEscrow.sol\":982:991  msg.value */\n      callvalue\n        /* \"TimelockEscrow/src/TimelockEscrow.sol\":952:967  amountDeposited */\n      0x02\n        /* \"TimelockEscrow/src/TimelockEscrow.sol\":952:979  amountDeposited[msg.sender] */\n      0x00\n        /* \"TimelockEscrow/src/TimelockEscrow.sol\":968:978  msg.sender */\n      caller\n        /* \"TimelockEscrow/src/TimelockEscrow.sol\":952:979  amountDeposited[msg.sender] */\n      0xffffffffffffffffffffffffffffffffffffffff\n      and\n      0xffffffffffffffffffffffffffffffffffffffff\n      and\n      dup2\n      mstore\n      0x20\n      add\n      swap1\n      dup2\n      mstore\n      0x20\n      add\n      0x00\n      keccak256\n        /* \"TimelockEscrow/src/TimelockEscrow.sol\":952:991  amountDeposited[msg.sender] = msg.value */\n      dup2\n      swap1\n      sstore\n      pop\n        /* \"TimelockEscrow/src/TimelockEscrow.sol\":836:998  function createBuyOrder() external payable {... */\n      jump\t// out\n        /* \"TimelockEscrow/src/TimelockEscrow.sol\":1109:1360  function sellerWithdraw(address buyer) external {... */\n    tag_21:\n        /* \"TimelockEscrow/src/TimelockEscrow.sol\":1194:1208  withdrawalTime */\n      0x01\n        /* \"TimelockEscrow/src/TimelockEscrow.sol\":1194:1215  withdrawalTime[buyer] */\n      0x00\n        /* \"TimelockEscrow/src/TimelockEscrow.sol\":1209:1214  buyer */\n      dup3\n        /* \"TimelockEscrow/src/TimelockEscrow.sol\":1194:1215  withdrawalTime[buyer] */\n      0xffffffffffffffffffffffffffffffffffffffff\n      and\n      0xffffffffffffffffffffffffffffffffffffffff\n      and\n      dup2\n      mstore\n      0x20\n      add\n      swap1\n      dup2\n      mstore\n      0x20\n      add\n      0x00\n      keccak256\n      sload\n        /* \"TimelockEscrow/src/TimelockEscrow.sol\":1175:1190  block.timestamp */\n      timestamp\n        /* \"TimelockEscrow/src/TimelockEscrow.sol\":1175:1215  block.timestamp >= withdrawalTime[buyer] */\n      lt\n      iszero\n        /* \"TimelockEscrow/src/TimelockEscrow.sol\":1167:1259  require(block.timestamp >= withdrawalTime[buyer], \"The 3 days freezing period hasn't ended\") */\n      tag_45\n      jumpi\n      mload(0x40)\n      0x08c379a000000000000000000000000000000000000000000000000000000000\n      dup2\n      mstore\n      0x04\n      add\n      tag_46\n      swap1\n      tag_47\n      jump\t// in\n    tag_46:\n      mload(0x40)\n      dup1\n      swap2\n      sub\n      swap1\n      revert\n    tag_45:\n        /* \"TimelockEscrow/src/TimelockEscrow.sol\":1277:1283  seller */\n      0x00\n      dup1\n      sload\n      swap1\n      0x0100\n      exp\n      swap1\n      div\n      0xffffffffffffffffffffffffffffffffffffffff\n      and\n        /* \"TimelockEscrow/src/TimelockEscrow.sol\":1269:1293  payable(seller).transfer */\n      0xffffffffffffffffffffffffffffffffffffffff\n      and\n        /* \"TimelockEscrow/src/TimelockEscrow.sol\":1269:1317  payable(seller).transfer(amountDeposited[buyer]) */\n      0x08fc\n        /* \"TimelockEscrow/src/TimelockEscrow.sol\":1294:1309  amountDeposited */\n      0x02\n        /* \"TimelockEscrow/src/TimelockEscrow.sol\":1294:1316  amountDeposited[buyer] */\n      0x00\n        /* \"TimelockEscrow/src/TimelockEscrow.sol\":1310:1315  buyer */\n      dup5\n        /* \"TimelockEscrow/src/TimelockEscrow.sol\":1294:1316  amountDeposited[buyer] */\n      0xffffffffffffffffffffffffffffffffffffffff\n      and\n      0xffffffffffffffffffffffffffffffffffffffff\n      and\n      dup2\n      mstore\n      0x20\n      add\n      swap1\n      dup2\n      mstore\n      0x20\n      add\n      0x00\n      keccak256\n      sload\n        /* \"TimelockEscrow/src/TimelockEscrow.sol\":1269:1317  payable(seller).transfer(amountDeposited[buyer]) */\n      swap1\n      dup2\n      iszero\n      mul\n      swap1\n      mload(0x40)\n      0x00\n      mload(0x40)\n      dup1\n      dup4\n      sub\n      dup2\n      dup6\n      dup9\n      dup9\n      call\n      swap4\n      pop\n      pop\n      pop\n      pop\n      iszero\n      dup1\n      iszero\n      tag_49\n      jumpi\n      returndatasize\n      0x00\n      dup1\n      returndatacopy\n      revert(0x00, returndatasize)\n    tag_49:\n      pop\n        /* \"TimelockEscrow/src/TimelockEscrow.sol\":1352:1353  0 */\n      0x00\n        /* \"TimelockEscrow/src/TimelockEscrow.sol\":1327:1342  amountDeposited */\n      0x02\n        /* \"TimelockEscrow/src/TimelockEscrow.sol\":1327:1349  amountDeposited[buyer] */\n      0x00\n        /* \"TimelockEscrow/src/TimelockEscrow.sol\":1343:1348  buyer */\n      dup4\n        /* \"TimelockEscrow/src/TimelockEscrow.sol\":1327:1349  amountDeposited[buyer] */\n      0xffffffffffffffffffffffffffffffffffffffff\n      and\n      0xffffffffffffffffffffffffffffffffffffffff\n      and\n      dup2\n      mstore\n      0x20\n      add\n      swap1\n      dup2\n      mstore\n      0x20\n      add\n      0x00\n      keccak256\n        /* \"TimelockEscrow/src/TimelockEscrow.sol\":1327:1353  amountDeposited[buyer] = 0 */\n      dup2\n      swap1\n      sstore\n      pop\n        /* \"TimelockEscrow/src/TimelockEscrow.sol\":1109:1360  function sellerWithdraw(address buyer) external {... */\n      pop\n      jump\t// out\n        /* \"TimelockEscrow/src/TimelockEscrow.sol\":1463:1706  function buyerWithdraw() external {... */\n    tag_24:\n        /* \"TimelockEscrow/src/TimelockEscrow.sol\":1533:1547  withdrawalTime */\n      0x01\n        /* \"TimelockEscrow/src/TimelockEscrow.sol\":1533:1559  withdrawalTime[msg.sender] */\n      0x00\n        /* \"TimelockEscrow/src/TimelockEscrow.sol\":1548:1558  msg.sender */\n      caller\n        /* \"TimelockEscrow/src/TimelockEscrow.sol\":1533:1559  withdrawalTime[msg.sender] */\n      0xffffffffffffffffffffffffffffffffffffffff\n      and\n      0xffffffffffffffffffffffffffffffffffffffff\n      and\n      dup2\n      mstore\n      0x20\n      add\n      swap1\n      dup2\n      mstore\n      0x20\n      add\n      0x00\n      keccak256\n      sload\n        /* \"TimelockEscrow/src/TimelockEscrow.sol\":1515:1530  block.timestamp */\n      timestamp\n        /* \"TimelockEscrow/src/TimelockEscrow.sol\":1515:1559  block.timestamp < withdrawalTime[msg.sender] */\n      lt\n        /* \"TimelockEscrow/src/TimelockEscrow.sol\":1507:1591  require(block.timestamp < withdrawalTime[msg.sender], \"It's too late to withdraw !\") */\n      tag_51\n      jumpi\n      mload(0x40)\n      0x08c379a000000000000000000000000000000000000000000000000000000000\n      dup2\n      mstore\n      0x04\n      add\n      tag_52\n      swap1\n      tag_53\n      jump\t// in\n    tag_52:\n      mload(0x40)\n      dup1\n      swap2\n      sub\n      swap1\n      revert\n    tag_51:\n        /* \"TimelockEscrow/src/TimelockEscrow.sol\":1609:1619  msg.sender */\n      caller\n        /* \"TimelockEscrow/src/TimelockEscrow.sol\":1601:1629  payable(msg.sender).transfer */\n      0xffffffffffffffffffffffffffffffffffffffff\n      and\n        /* \"TimelockEscrow/src/TimelockEscrow.sol\":1601:1658  payable(msg.sender).transfer(amountDeposited[msg.sender]) */\n      0x08fc\n        /* \"TimelockEscrow/src/TimelockEscrow.sol\":1630:1645  amountDeposited */\n      0x02\n        /* \"TimelockEscrow/src/TimelockEscrow.sol\":1630:1657  amountDeposited[msg.sender] */\n      0x00\n        /* \"TimelockEscrow/src/TimelockEscrow.sol\":1646:1656  msg.sender */\n      caller\n        /* \"TimelockEscrow/src/TimelockEscrow.sol\":1630:1657  amountDeposited[msg.sender] */\n      0xffffffffffffffffffffffffffffffffffffffff\n      and\n      0xffffffffffffffffffffffffffffffffffffffff\n      and\n      dup2\n      mstore\n      0x20\n      add\n      swap1\n      dup2\n      mstore\n      0x20\n      add\n      0x00\n      keccak256\n      sload\n        /* \"TimelockEscrow/src/TimelockEscrow.sol\":1601:1658  payable(msg.sender).transfer(amountDeposited[msg.sender]) */\n      swap1\n      dup2\n      iszero\n      mul\n      swap1\n      mload(0x40)\n      0x00\n      mload(0x40)\n      dup1\n      dup4\n      sub\n      dup2\n      dup6\n      dup9\n      dup9\n      call\n      swap4\n      pop\n      pop\n      pop\n      pop\n      iszero\n      dup1\n      iszero\n      tag_55\n      jumpi\n      returndatasize\n      0x00\n      dup1\n      returndatacopy\n      revert(0x00, returndatasize)\n    tag_55:\n      pop\n        /* \"TimelockEscrow/src/TimelockEscrow.sol\":1698:1699  0 */\n      0x00\n        /* \"TimelockEscrow/src/TimelockEscrow.sol\":1668:1683  amountDeposited */\n      0x02\n        /* \"TimelockEscrow/src/TimelockEscrow.sol\":1668:1695  amountDeposited[msg.sender] */\n      0x00\n        /* \"TimelockEscrow/src/TimelockEscrow.sol\":1684:1694  msg.sender */\n      caller\n        /* \"TimelockEscrow/src/TimelockEscrow.sol\":1668:1695  amountDeposited[msg.sender] */\n      0xffffffffffffffffffffffffffffffffffffffff\n      and\n      0xffffffffffffffffffffffffffffffffffffffff\n      and\n      dup2\n      mstore\n      0x20\n      add\n      swap1\n      dup2\n      mstore\n      0x20\n      add\n      0x00\n      keccak256\n        /* \"TimelockEscrow/src/TimelockEscrow.sol\":1668:1699  amountDeposited[msg.sender] = 0 */\n      dup2\n      swap1\n      sstore\n      pop\n        /* \"TimelockEscrow/src/TimelockEscrow.sol\":1463:1706  function buyerWithdraw() external {... */\n      jump\t// out\n        /* \"TimelockEscrow/src/TimelockEscrow.sol\":1763:1878  function buyerDeposit(address buyer) external view returns (uint256) {... */\n    tag_28:\n        /* \"TimelockEscrow/src/TimelockEscrow.sol\":1823:1830  uint256 */\n      0x00\n        /* \"TimelockEscrow/src/TimelockEscrow.sol\":1849:1864  amountDeposited */\n      0x02\n        /* \"TimelockEscrow/src/TimelockEscrow.sol\":1849:1871  amountDeposited[buyer] */\n      0x00\n        /* \"TimelockEscrow/src/TimelockEscrow.sol\":1865:1870  buyer */\n      dup4\n        /* \"TimelockEscrow/src/TimelockEscrow.sol\":1849:1871  amountDeposited[buyer] */\n      0xffffffffffffffffffffffffffffffffffffffff\n      and\n      0xffffffffffffffffffffffffffffffffffffffff\n      and\n      dup2\n      mstore\n      0x20\n      add\n      swap1\n      dup2\n      mstore\n      0x20\n      add\n      0x00\n      keccak256\n      sload\n        /* \"TimelockEscrow/src/TimelockEscrow.sol\":1842:1871  return amountDeposited[buyer] */\n      swap1\n      pop\n        /* \"TimelockEscrow/src/TimelockEscrow.sol\":1763:1878  function buyerDeposit(address buyer) external view returns (uint256) {... */\n      swap2\n      swap1\n      pop\n      jump\t// out\n        /* \"TimelockEscrow/src/TimelockEscrow.sol\":120:169  mapping(address => uint256) public withdrawalTime */\n    tag_34:\n      mstore(0x20, 0x01)\n      dup1\n      0x00\n      mstore\n      keccak256(0x00, 0x40)\n      0x00\n      swap2\n      pop\n      swap1\n      pop\n      sload\n      dup2\n      jump\t// out\n        /* \"TimelockEscrow/src/TimelockEscrow.sol\":175:222  mapping(address => uint) public amountDeposited */\n    tag_39:\n      mstore(0x20, 0x02)\n      dup1\n      0x00\n      mstore\n      keccak256(0x00, 0x40)\n      0x00\n      swap2\n      pop\n      swap1\n      pop\n      sload\n      dup2\n      jump\t// out\n        /* \"#utility.yul\":7:133   */\n    tag_57:\n        /* \"#utility.yul\":44:51   */\n      0x00\n        /* \"#utility.yul\":84:126   */\n      0xffffffffffffffffffffffffffffffffffffffff\n        /* \"#utility.yul\":77:82   */\n      dup3\n        /* \"#utility.yul\":73:127   */\n      and\n        /* \"#utility.yul\":62:127   */\n      swap1\n      pop\n        /* \"#utility.yul\":7:133   */\n      swap2\n      swap1\n      pop\n      jump\t// out\n        /* \"#utility.yul\":139:235   */\n    tag_58:\n        /* \"#utility.yul\":176:183   */\n      0x00\n        /* \"#utility.yul\":205:229   */\n      tag_76\n        /* \"#utility.yul\":223:228   */\n      dup3\n        /* \"#utility.yul\":205:229   */\n      tag_57\n      jump\t// in\n    tag_76:\n        /* \"#utility.yul\":194:229   */\n      swap1\n      pop\n        /* \"#utility.yul\":139:235   */\n      swap2\n      swap1\n      pop\n      jump\t// out\n        /* \"#utility.yul\":241:359   */\n    tag_59:\n        /* \"#utility.yul\":328:352   */\n      tag_78\n        /* \"#utility.yul\":346:351   */\n      dup2\n        /* \"#utility.yul\":328:352   */\n      tag_58\n      jump\t// in\n    tag_78:\n        /* \"#utility.yul\":323:326   */\n      dup3\n        /* \"#utility.yul\":316:353   */\n      mstore\n        /* \"#utility.yul\":241:359   */\n      pop\n      pop\n      jump\t// out\n        /* \"#utility.yul\":365:587   */\n    tag_14:\n        /* \"#utility.yul\":458:462   */\n      0x00\n        /* \"#utility.yul\":496:498   */\n      0x20\n        /* \"#utility.yul\":485:494   */\n      dup3\n        /* \"#utility.yul\":481:499   */\n      add\n        /* \"#utility.yul\":473:499   */\n      swap1\n      pop\n        /* \"#utility.yul\":509:580   */\n      tag_80\n        /* \"#utility.yul\":577:578   */\n      0x00\n        /* \"#utility.yul\":566:575   */\n      dup4\n        /* \"#utility.yul\":562:579   */\n      add\n        /* \"#utility.yul\":553:559   */\n      dup5\n        /* \"#utility.yul\":509:580   */\n      tag_59\n      jump\t// in\n    tag_80:\n        /* \"#utility.yul\":365:587   */\n      swap3\n      swap2\n      pop\n      pop\n      jump\t// out\n        /* \"#utility.yul\":674:791   */\n    tag_61:\n        /* \"#utility.yul\":783:784   */\n      0x00\n        /* \"#utility.yul\":780:781   */\n      dup1\n        /* \"#utility.yul\":773:785   */\n      revert\n        /* \"#utility.yul\":920:1042   */\n    tag_63:\n        /* \"#utility.yul\":993:1017   */\n      tag_85\n        /* \"#utility.yul\":1011:1016   */\n      dup2\n        /* \"#utility.yul\":993:1017   */\n      tag_58\n      jump\t// in\n    tag_85:\n        /* \"#utility.yul\":986:991   */\n      dup2\n        /* \"#utility.yul\":983:1018   */\n      eq\n        /* \"#utility.yul\":973:1036   */\n      tag_86\n      jumpi\n        /* \"#utility.yul\":1032:1033   */\n      0x00\n        /* \"#utility.yul\":1029:1030   */\n      dup1\n        /* \"#utility.yul\":1022:1034   */\n      revert\n        /* \"#utility.yul\":973:1036   */\n    tag_86:\n        /* \"#utility.yul\":920:1042   */\n      pop\n      jump\t// out\n        /* \"#utility.yul\":1048:1187   */\n    tag_64:\n        /* \"#utility.yul\":1094:1099   */\n      0x00\n        /* \"#utility.yul\":1132:1138   */\n      dup2\n        /* \"#utility.yul\":1119:1139   */\n      calldataload\n        /* \"#utility.yul\":1110:1139   */\n      swap1\n      pop\n        /* \"#utility.yul\":1148:1181   */\n      tag_88\n        /* \"#utility.yul\":1175:1180   */\n      dup2\n        /* \"#utility.yul\":1148:1181   */\n      tag_63\n      jump\t// in\n    tag_88:\n        /* \"#utility.yul\":1048:1187   */\n      swap3\n      swap2\n      pop\n      pop\n      jump\t// out\n        /* \"#utility.yul\":1193:1522   */\n    tag_20:\n        /* \"#utility.yul\":1252:1258   */\n      0x00\n        /* \"#utility.yul\":1301:1303   */\n      0x20\n        /* \"#utility.yul\":1289:1298   */\n      dup3\n        /* \"#utility.yul\":1280:1287   */\n      dup5\n        /* \"#utility.yul\":1276:1299   */\n      sub\n        /* \"#utility.yul\":1272:1304   */\n      slt\n        /* \"#utility.yul\":1269:1388   */\n      iszero\n      tag_90\n      jumpi\n        /* \"#utility.yul\":1307:1386   */\n      tag_91\n      tag_61\n      jump\t// in\n    tag_91:\n        /* \"#utility.yul\":1269:1388   */\n    tag_90:\n        /* \"#utility.yul\":1427:1428   */\n      0x00\n        /* \"#utility.yul\":1452:1505   */\n      tag_92\n        /* \"#utility.yul\":1497:1504   */\n      dup5\n        /* \"#utility.yul\":1488:1494   */\n      dup3\n        /* \"#utility.yul\":1477:1486   */\n      dup6\n        /* \"#utility.yul\":1473:1495   */\n      add\n        /* \"#utility.yul\":1452:1505   */\n      tag_64\n      jump\t// in\n    tag_92:\n        /* \"#utility.yul\":1442:1505   */\n      swap2\n      pop\n        /* \"#utility.yul\":1398:1515   */\n      pop\n        /* \"#utility.yul\":1193:1522   */\n      swap3\n      swap2\n      pop\n      pop\n      jump\t// out\n        /* \"#utility.yul\":1528:1605   */\n    tag_65:\n        /* \"#utility.yul\":1565:1572   */\n      0x00\n        /* \"#utility.yul\":1594:1599   */\n      dup2\n        /* \"#utility.yul\":1583:1599   */\n      swap1\n      pop\n        /* \"#utility.yul\":1528:1605   */\n      swap2\n      swap1\n      pop\n      jump\t// out\n        /* \"#utility.yul\":1611:1729   */\n    tag_66:\n        /* \"#utility.yul\":1698:1722   */\n      tag_95\n        /* \"#utility.yul\":1716:1721   */\n      dup2\n        /* \"#utility.yul\":1698:1722   */\n      tag_65\n      jump\t// in\n    tag_95:\n        /* \"#utility.yul\":1693:1696   */\n      dup3\n        /* \"#utility.yul\":1686:1723   */\n      mstore\n        /* \"#utility.yul\":1611:1729   */\n      pop\n      pop\n      jump\t// out\n        /* \"#utility.yul\":1735:1957   */\n    tag_30:\n        /* \"#utility.yul\":1828:1832   */\n      0x00\n        /* \"#utility.yul\":1866:1868   */\n      0x20\n        /* \"#utility.yul\":1855:1864   */\n      dup3\n        /* \"#utility.yul\":1851:1869   */\n      add\n        /* \"#utility.yul\":1843:1869   */\n      swap1\n      pop\n        /* \"#utility.yul\":1879:1950   */\n      tag_97\n        /* \"#utility.yul\":1947:1948   */\n      0x00\n        /* \"#utility.yul\":1936:1945   */\n      dup4\n        /* \"#utility.yul\":1932:1949   */\n      add\n        /* \"#utility.yul\":1923:1929   */\n      dup5\n        /* \"#utility.yul\":1879:1950   */\n      tag_66\n      jump\t// in\n    tag_97:\n        /* \"#utility.yul\":1735:1957   */\n      swap3\n      swap2\n      pop\n      pop\n      jump\t// out\n        /* \"#utility.yul\":1963:2143   */\n    tag_67:\n        /* \"#utility.yul\":2011:2088   */\n      0x4e487b7100000000000000000000000000000000000000000000000000000000\n        /* \"#utility.yul\":2008:2009   */\n      0x00\n        /* \"#utility.yul\":2001:2089   */\n      mstore\n        /* \"#utility.yul\":2108:2112   */\n      0x11\n        /* \"#utility.yul\":2105:2106   */\n      0x04\n        /* \"#utility.yul\":2098:2113   */\n      mstore\n        /* \"#utility.yul\":2132:2136   */\n      0x24\n        /* \"#utility.yul\":2129:2130   */\n      0x00\n        /* \"#utility.yul\":2122:2137   */\n      revert\n        /* \"#utility.yul\":2149:2340   */\n    tag_43:\n        /* \"#utility.yul\":2189:2192   */\n      0x00\n        /* \"#utility.yul\":2208:2228   */\n      tag_100\n        /* \"#utility.yul\":2226:2227   */\n      dup3\n        /* \"#utility.yul\":2208:2228   */\n      tag_65\n      jump\t// in\n    tag_100:\n        /* \"#utility.yul\":2203:2228   */\n      swap2\n      pop\n        /* \"#utility.yul\":2242:2262   */\n      tag_101\n        /* \"#utility.yul\":2260:2261   */\n      dup4\n        /* \"#utility.yul\":2242:2262   */\n      tag_65\n      jump\t// in\n    tag_101:\n        /* \"#utility.yul\":2237:2262   */\n      swap3\n      pop\n        /* \"#utility.yul\":2285:2286   */\n      dup3\n        /* \"#utility.yul\":2282:2283   */\n      dup3\n        /* \"#utility.yul\":2278:2287   */\n      add\n        /* \"#utility.yul\":2271:2287   */\n      swap1\n      pop\n        /* \"#utility.yul\":2306:2309   */\n      dup1\n        /* \"#utility.yul\":2303:2304   */\n      dup3\n        /* \"#utility.yul\":2300:2310   */\n      gt\n        /* \"#utility.yul\":2297:2333   */\n      iszero\n      tag_102\n      jumpi\n        /* \"#utility.yul\":2313:2331   */\n      tag_103\n      tag_67\n      jump\t// in\n    tag_103:\n        /* \"#utility.yul\":2297:2333   */\n    tag_102:\n        /* \"#utility.yul\":2149:2340   */\n      swap3\n      swap2\n      pop\n      pop\n      jump\t// out\n        /* \"#utility.yul\":2346:2515   */\n    tag_68:\n        /* \"#utility.yul\":2430:2441   */\n      0x00\n        /* \"#utility.yul\":2464:2470   */\n      dup3\n        /* \"#utility.yul\":2459:2462   */\n      dup3\n        /* \"#utility.yul\":2452:2471   */\n      mstore\n        /* \"#utility.yul\":2504:2508   */\n      0x20\n        /* \"#utility.yul\":2499:2502   */\n      dup3\n        /* \"#utility.yul\":2495:2509   */\n      add\n        /* \"#utility.yul\":2480:2509   */\n      swap1\n      pop\n        /* \"#utility.yul\":2346:2515   */\n      swap3\n      swap2\n      pop\n      pop\n      jump\t// out\n        /* \"#utility.yul\":2521:2747   */\n    tag_69:\n        /* \"#utility.yul\":2661:2695   */\n      0x5468652033206461797320667265657a696e6720706572696f64206861736e27\n        /* \"#utility.yul\":2657:2658   */\n      0x00\n        /* \"#utility.yul\":2649:2655   */\n      dup3\n        /* \"#utility.yul\":2645:2659   */\n      add\n        /* \"#utility.yul\":2638:2696   */\n      mstore\n        /* \"#utility.yul\":2730:2739   */\n      0x7420656e64656400000000000000000000000000000000000000000000000000\n        /* \"#utility.yul\":2725:2727   */\n      0x20\n        /* \"#utility.yul\":2717:2723   */\n      dup3\n        /* \"#utility.yul\":2713:2728   */\n      add\n        /* \"#utility.yul\":2706:2740   */\n      mstore\n        /* \"#utility.yul\":2521:2747   */\n      pop\n      jump\t// out\n        /* \"#utility.yul\":2753:3119   */\n    tag_70:\n        /* \"#utility.yul\":2895:2898   */\n      0x00\n        /* \"#utility.yul\":2916:2983   */\n      tag_107\n        /* \"#utility.yul\":2980:2982   */\n      0x27\n        /* \"#utility.yul\":2975:2978   */\n      dup4\n        /* \"#utility.yul\":2916:2983   */\n      tag_68\n      jump\t// in\n    tag_107:\n        /* \"#utility.yul\":2909:2983   */\n      swap2\n      pop\n        /* \"#utility.yul\":2992:3085   */\n      tag_108\n        /* \"#utility.yul\":3081:3084   */\n      dup3\n        /* \"#utility.yul\":2992:3085   */\n      tag_69\n      jump\t// in\n    tag_108:\n        /* \"#utility.yul\":3110:3112   */\n      0x40\n        /* \"#utility.yul\":3105:3108   */\n      dup3\n        /* \"#utility.yul\":3101:3113   */\n      add\n        /* \"#utility.yul\":3094:3113   */\n      swap1\n      pop\n        /* \"#utility.yul\":2753:3119   */\n      swap2\n      swap1\n      pop\n      jump\t// out\n        /* \"#utility.yul\":3125:3544   */\n    tag_47:\n        /* \"#utility.yul\":3291:3295   */\n      0x00\n        /* \"#utility.yul\":3329:3331   */\n      0x20\n        /* \"#utility.yul\":3318:3327   */\n      dup3\n        /* \"#utility.yul\":3314:3332   */\n      add\n        /* \"#utility.yul\":3306:3332   */\n      swap1\n      pop\n        /* \"#utility.yul\":3378:3387   */\n      dup2\n        /* \"#utility.yul\":3372:3376   */\n      dup2\n        /* \"#utility.yul\":3368:3388   */\n      sub\n        /* \"#utility.yul\":3364:3365   */\n      0x00\n        /* \"#utility.yul\":3353:3362   */\n      dup4\n        /* \"#utility.yul\":3349:3366   */\n      add\n        /* \"#utility.yul\":3342:3389   */\n      mstore\n        /* \"#utility.yul\":3406:3537   */\n      tag_110\n        /* \"#utility.yul\":3532:3536   */\n      dup2\n        /* \"#utility.yul\":3406:3537   */\n      tag_70\n      jump\t// in\n    tag_110:\n        /* \"#utility.yul\":3398:3537   */\n      swap1\n      pop\n        /* \"#utility.yul\":3125:3544   */\n      swap2\n      swap1\n      pop\n      jump\t// out\n        /* \"#utility.yul\":3550:3727   */\n    tag_71:\n        /* \"#utility.yul\":3690:3719   */\n      0x4974277320746f6f206c61746520746f20776974686472617720210000000000\n        /* \"#utility.yul\":3686:3687   */\n      0x00\n        /* \"#utility.yul\":3678:3684   */\n      dup3\n        /* \"#utility.yul\":3674:3688   */\n      add\n        /* \"#utility.yul\":3667:3720   */\n      mstore\n        /* \"#utility.yul\":3550:3727   */\n      pop\n      jump\t// out\n        /* \"#utility.yul\":3733:4099   */\n    tag_72:\n        /* \"#utility.yul\":3875:3878   */\n      0x00\n        /* \"#utility.yul\":3896:3963   */\n      tag_113\n        /* \"#utility.yul\":3960:3962   */\n      0x1b\n        /* \"#utility.yul\":3955:3958   */\n      dup4\n        /* \"#utility.yul\":3896:3963   */\n      tag_68\n      jump\t// in\n    tag_113:\n        /* \"#utility.yul\":3889:3963   */\n      swap2\n      pop\n        /* \"#utility.yul\":3972:4065   */\n      tag_114\n        /* \"#utility.yul\":4061:4064   */\n      dup3\n        /* \"#utility.yul\":3972:4065   */\n      tag_71\n      jump\t// in\n    tag_114:\n        /* \"#utility.yul\":4090:4092   */\n      0x20\n        /* \"#utility.yul\":4085:4088   */\n      dup3\n        /* \"#utility.yul\":4081:4093   */\n      add\n        /* \"#utility.yul\":4074:4093   */\n      swap1\n      pop\n        /* \"#utility.yul\":3733:4099   */\n      swap2\n      swap1\n      pop\n      jump\t// out\n        /* \"#utility.yul\":4105:4524   */\n    tag_53:\n        /* \"#utility.yul\":4271:4275   */\n      0x00\n        /* \"#utility.yul\":4309:4311   */\n      0x20\n        /* \"#utility.yul\":4298:4307   */\n      dup3\n        /* \"#utility.yul\":4294:4312   */\n      add\n        /* \"#utility.yul\":4286:4312   */\n      swap1\n      pop\n        /* \"#utility.yul\":4358:4367   */\n      dup2\n        /* \"#utility.yul\":4352:4356   */\n      dup2\n        /* \"#utility.yul\":4348:4368   */\n      sub\n        /* \"#utility.yul\":4344:4345   */\n      0x00\n        /* \"#utility.yul\":4333:4342   */\n      dup4\n        /* \"#utility.yul\":4329:4346   */\n      add\n        /* \"#utility.yul\":4322:4369   */\n      mstore\n        /* \"#utility.yul\":4386:4517   */\n      tag_116\n        /* \"#utility.yul\":4512:4516   */\n      dup2\n        /* \"#utility.yul\":4386:4517   */\n      tag_72\n      jump\t// in\n    tag_116:\n        /* \"#utility.yul\":4378:4517   */\n      swap1\n      pop\n        /* \"#utility.yul\":4105:4524   */\n      swap2\n      swap1\n      pop\n      jump\t// out\n\n    auxdata: 0xa2646970667358221220602130e94e2e52665be6068f441301f40e2c8515cc6afd0d1838b621e0f4c90a64736f6c634300081a0033\n}\n",
				"bytecode": {
					"linkReferences": {},
					"object": "6080604052348015600e575f80fd5b50335f806101000a81548173ffffffffffffffffffffffffffffffffffffffff021916908373ffffffffffffffffffffffffffffffffffffffff1602179055506107e78061005b5f395ff3fe60806040526004361061006f575f3560e01c80637cc947d01161004d5780637cc947d0146100cf5780637ffdf46b146100e55780638fe4b1e614610121578063f4f0e1ae1461015d5761006f565b806308551a53146100735780632e0bf5251461009d5780632e99a3bc146100a7575b5f80fd5b34801561007e575f80fd5b50610087610199565b60405161009491906105a8565b60405180910390f35b6100a56101bc565b005b3480156100b2575f80fd5b506100cd60048036038101906100c891906105ef565b610250565b005b3480156100da575f80fd5b506100e36103b5565b005b3480156100f0575f80fd5b5061010b600480360381019061010691906105ef565b6104f9565b6040516101189190610632565b60405180910390f35b34801561012c575f80fd5b50610147600480360381019061014291906105ef565b61053f565b6040516101549190610632565b60405180910390f35b348015610168575f80fd5b50610183600480360381019061017e91906105ef565b610554565b6040516101909190610632565b60405180910390f35b5f8054906101000a900473ffffffffffffffffffffffffffffffffffffffff1681565b6203f480426101cb9190610678565b60015f3373ffffffffffffffffffffffffffffffffffffffff1673ffffffffffffffffffffffffffffffffffffffff1681526020019081526020015f20819055503460025f3373ffffffffffffffffffffffffffffffffffffffff1673ffffffffffffffffffffffffffffffffffffffff1681526020019081526020015f2081905550565b60015f8273ffffffffffffffffffffffffffffffffffffffff1673ffffffffffffffffffffffffffffffffffffffff1681526020019081526020015f20544210156102d0576040517f08c379a00000000000000000000000000000000000000000000000000000000081526004016102c79061072b565b60405180910390fd5b5f8054906101000a900473ffffffffffffffffffffffffffffffffffffffff1673ffffffffffffffffffffffffffffffffffffffff166108fc60025f8473ffffffffffffffffffffffffffffffffffffffff1673ffffffffffffffffffffffffffffffffffffffff1681526020019081526020015f205490811502906040515f60405180830381858888f1935050505015801561036f573d5f803e3d5ffd5b505f60025f8373ffffffffffffffffffffffffffffffffffffffff1673ffffffffffffffffffffffffffffffffffffffff1681526020019081526020015f208190555050565b60015f3373ffffffffffffffffffffffffffffffffffffffff1673ffffffffffffffffffffffffffffffffffffffff1681526020019081526020015f20544210610434576040517f08c379a000000000000000000000000000000000000000000000000000000000815260040161042b90610793565b60405180910390fd5b3373ffffffffffffffffffffffffffffffffffffffff166108fc60025f3373ffffffffffffffffffffffffffffffffffffffff1673ffffffffffffffffffffffffffffffffffffffff1681526020019081526020015f205490811502906040515f60405180830381858888f193505050501580156104b4573d5f803e3d5ffd5b505f60025f3373ffffffffffffffffffffffffffffffffffffffff1673ffffffffffffffffffffffffffffffffffffffff1681526020019081526020015f2081905550565b5f60025f8373ffffffffffffffffffffffffffffffffffffffff1673ffffffffffffffffffffffffffffffffffffffff1681526020019081526020015f20549050919050565b6001602052805f5260405f205f915090505481565b6002602052805f5260405f205f915090505481565b5f73ffffffffffffffffffffffffffffffffffffffff82169050919050565b5f61059282610569565b9050919050565b6105a281610588565b82525050565b5f6020820190506105bb5f830184610599565b92915050565b5f80fd5b6105ce81610588565b81146105d8575f80fd5b50565b5f813590506105e9816105c5565b92915050565b5f60208284031215610604576106036105c1565b5b5f610611848285016105db565b91505092915050565b5f819050919050565b61062c8161061a565b82525050565b5f6020820190506106455f830184610623565b92915050565b7f4e487b71000000000000000000000000000000000000000000000000000000005f52601160045260245ffd5b5f6106828261061a565b915061068d8361061a565b92508282019050808211156106a5576106a461064b565b5b92915050565b5f82825260208201905092915050565b7f5468652033206461797320667265657a696e6720706572696f64206861736e275f8201527f7420656e64656400000000000000000000000000000000000000000000000000602082015250565b5f6107156027836106ab565b9150610720826106bb565b604082019050919050565b5f6020820190508181035f83015261074281610709565b9050919050565b7f4974277320746f6f206c61746520746f207769746864726177202100000000005f82015250565b5f61077d601b836106ab565b915061078882610749565b602082019050919050565b5f6020820190508181035f8301526107aa81610771565b905091905056fea2646970667358221220602130e94e2e52665be6068f441301f40e2c8515cc6afd0d1838b621e0f4c90a64736f6c634300081a0033",
					"opcodes": "PUSH1 0x80 PUSH1 0x40 MSTORE CALLVALUE DUP1 ISZERO PUSH1 0xE JUMPI PUSH0 DUP1 REVERT JUMPDEST POP CALLER PUSH0 DUP1 PUSH2 0x100 EXP DUP2 SLOAD DUP2 PUSH20 0xFFFFFFFFFFFFFFFFFFFFFFFFFFFFFFFFFFFFFFFF MUL NOT AND SWAP1 DUP4 PUSH20 0xFFFFFFFFFFFFFFFFFFFFFFFFFFFFFFFFFFFFFFFF AND MUL OR SWAP1 SSTORE POP PUSH2 0x7E7 DUP1 PUSH2 0x5B PUSH0 CODECOPY PUSH0 RETURN INVALID PUSH1 0x80 PUSH1 0x40 MSTORE PUSH1 0x4 CALLDATASIZE LT PUSH2 0x6F JUMPI PUSH0 CALLDATALOAD PUSH1 0xE0 SHR DUP1 PUSH4 0x7CC947D0 GT PUSH2 0x4D JUMPI DUP1 PUSH4 0x7CC947D0 EQ PUSH2 0xCF JUMPI DUP1 PUSH4 0x7FFDF46B EQ PUSH2 0xE5 JUMPI DUP1 PUSH4 0x8FE4B1E6 EQ PUSH2 0x121 JUMPI DUP1 PUSH4 0xF4F0E1AE EQ PUSH2 0x15D JUMPI PUSH2 0x6F JUMP JUMPDEST DUP1 PUSH4 0x8551A53 EQ PUSH2 0x73 JUMPI DUP1 PUSH4 0x2E0BF525 EQ PUSH2 0x9D JUMPI DUP1 PUSH4 0x2E99A3BC EQ PUSH2 0xA7 JUMPI JUMPDEST PUSH0 DUP1 REVERT JUMPDEST CALLVALUE DUP1 ISZERO PUSH2 0x7E JUMPI PUSH0 DUP1 REVERT JUMPDEST POP PUSH2 0x87 PUSH2 0x199 JUMP JUMPDEST PUSH1 0x40 MLOAD PUSH2 0x94 SWAP2 SWAP1 PUSH2 0x5A8 JUMP JUMPDEST PUSH1 0x40 MLOAD DUP1 SWAP2 SUB SWAP1 RETURN JUMPDEST PUSH2 0xA5 PUSH2 0x1BC JUMP JUMPDEST STOP JUMPDEST CALLVALUE DUP1 ISZERO PUSH2 0xB2 JUMPI PUSH0 DUP1 REVERT JUMPDEST POP PUSH2 0xCD PUSH1 0x4 DUP1 CALLDATASIZE SUB DUP2 ADD SWAP1 PUSH2 0xC8 SWAP2 SWAP1 PUSH2 0x5EF JUMP JUMPDEST PUSH2 0x250 JUMP JUMPDEST STOP JUMPDEST CALLVALUE DUP1 ISZERO PUSH2 0xDA JUMPI PUSH0 DUP1 REVERT JUMPDEST POP PUSH2 0xE3 PUSH2 0x3B5 JUMP JUMPDEST STOP JUMPDEST CALLVALUE DUP1 ISZERO PUSH2 0xF0 JUMPI PUSH0 DUP1 REVERT JUMPDEST POP PUSH2 0x10B PUSH1 0x4 DUP1 CALLDATASIZE SUB DUP2 ADD SWAP1 PUSH2 0x106 SWAP2 SWAP1 PUSH2 0x5EF JUMP JUMPDEST PUSH2 0x4F9 JUMP JUMPDEST PUSH1 0x40 MLOAD PUSH2 0x118 SWAP2 SWAP1 PUSH2 0x632 JUMP JUMPDEST PUSH1 0x40 MLOAD DUP1 SWAP2 SUB SWAP1 RETURN JUMPDEST CALLVALUE DUP1 ISZERO PUSH2 0x12C JUMPI PUSH0 DUP1 REVERT JUMPDEST POP PUSH2 0x147 PUSH1 0x4 DUP1 CALLDATASIZE SUB DUP2 ADD SWAP1 PUSH2 0x142 SWAP2 SWAP1 PUSH2 0x5EF JUMP JUMPDEST PUSH2 0x53F JUMP JUMPDEST PUSH1 0x40 MLOAD PUSH2 0x154 SWAP2 SWAP1 PUSH2 0x632 JUMP JUMPDEST PUSH1 0x40 MLOAD DUP1 SWAP2 SUB SWAP1 RETURN JUMPDEST CALLVALUE DUP1 ISZERO PUSH2 0x168 JUMPI PUSH0 DUP1 REVERT JUMPDEST POP PUSH2 0x183 PUSH1 0x4 DUP1 CALLDATASIZE SUB DUP2 ADD SWAP1 PUSH2 0x17E SWAP2 SWAP1 PUSH2 0x5EF JUMP JUMPDEST PUSH2 0x554 JUMP JUMPDEST PUSH1 0x40 MLOAD PUSH2 0x190 SWAP2 SWAP1 PUSH2 0x632 JUMP JUMPDEST PUSH1 0x40 MLOAD DUP1 SWAP2 SUB SWAP1 RETURN JUMPDEST PUSH0 DUP1 SLOAD SWAP1 PUSH2 0x100 EXP SWAP1 DIV PUSH20 0xFFFFFFFFFFFFFFFFFFFFFFFFFFFFFFFFFFFFFFFF AND DUP2 JUMP JUMPDEST PUSH3 0x3F480 TIMESTAMP PUSH2 0x1CB SWAP2 SWAP1 PUSH2 0x678 JUMP JUMPDEST PUSH1 0x1 PUSH0 CALLER PUSH20 0xFFFFFFFFFFFFFFFFFFFFFFFFFFFFFFFFFFFFFFFF AND PUSH20 0xFFFFFFFFFFFFFFFFFFFFFFFFFFFFFFFFFFFFFFFF AND DUP2 MSTORE PUSH1 0x20 ADD SWAP1 DUP2 MSTORE PUSH1 0x20 ADD PUSH0 KECCAK256 DUP2 SWAP1 SSTORE POP CALLVALUE PUSH1 0x2 PUSH0 CALLER PUSH20 0xFFFFFFFFFFFFFFFFFFFFFFFFFFFFFFFFFFFFFFFF AND PUSH20 0xFFFFFFFFFFFFFFFFFFFFFFFFFFFFFFFFFFFFFFFF AND DUP2 MSTORE PUSH1 0x20 ADD SWAP1 DUP2 MSTORE PUSH1 0x20 ADD PUSH0 KECCAK256 DUP2 SWAP1 SSTORE POP JUMP JUMPDEST PUSH1 0x1 PUSH0 DUP3 PUSH20 0xFFFFFFFFFFFFFFFFFFFFFFFFFFFFFFFFFFFFFFFF AND PUSH20 0xFFFFFFFFFFFFFFFFFFFFFFFFFFFFFFFFFFFFFFFF AND DUP2 MSTORE PUSH1 0x20 ADD SWAP1 DUP2 MSTORE PUSH1 0x20 ADD PUSH0 KECCAK256 SLOAD TIMESTAMP LT ISZERO PUSH2 0x2D0 JUMPI PUSH1 0x40 MLOAD PUSH32 0x8C379A000000000000000000000000000000000000000000000000000000000 DUP2 MSTORE PUSH1 0x4 ADD PUSH2 0x2C7 SWAP1 PUSH2 0x72B JUMP JUMPDEST PUSH1 0x40 MLOAD DUP1 SWAP2 SUB SWAP1 REVERT JUMPDEST PUSH0 DUP1 SLOAD SWAP1 PUSH2 0x100 EXP SWAP1 DIV PUSH20 0xFFFFFFFFFFFFFFFFFFFFFFFFFFFFFFFFFFFFFFFF AND PUSH20 0xFFFFFFFFFFFFFFFFFFFFFFFFFFFFFFFFFFFFFFFF AND PUSH2 0x8FC PUSH1 0x2 PUSH0 DUP5 PUSH20 0xFFFFFFFFFFFFFFFFFFFFFFFFFFFFFFFFFFFFFFFF AND PUSH20 0xFFFFFFFFFFFFFFFFFFFFFFFFFFFFFFFFFFFFFFFF AND DUP2 MSTORE PUSH1 0x20 ADD SWAP1 DUP2 MSTORE PUSH1 0x20 ADD PUSH0 KECCAK256 SLOAD SWAP1 DUP2 ISZERO MUL SWAP1 PUSH1 0x40 MLOAD PUSH0 PUSH1 0x40 MLOAD DUP1 DUP4 SUB DUP2 DUP6 DUP9 DUP9 CALL SWAP4 POP POP POP POP ISZERO DUP1 ISZERO PUSH2 0x36F JUMPI RETURNDATASIZE PUSH0 DUP1 RETURNDATACOPY RETURNDATASIZE PUSH0 REVERT JUMPDEST POP PUSH0 PUSH1 0x2 PUSH0 DUP4 PUSH20 0xFFFFFFFFFFFFFFFFFFFFFFFFFFFFFFFFFFFFFFFF AND PUSH20 0xFFFFFFFFFFFFFFFFFFFFFFFFFFFFFFFFFFFFFFFF AND DUP2 MSTORE PUSH1 0x20 ADD SWAP1 DUP2 MSTORE PUSH1 0x20 ADD PUSH0 KECCAK256 DUP2 SWAP1 SSTORE POP POP JUMP JUMPDEST PUSH1 0x1 PUSH0 CALLER PUSH20 0xFFFFFFFFFFFFFFFFFFFFFFFFFFFFFFFFFFFFFFFF AND PUSH20 0xFFFFFFFFFFFFFFFFFFFFFFFFFFFFFFFFFFFFFFFF AND DUP2 MSTORE PUSH1 0x20 ADD SWAP1 DUP2 MSTORE PUSH1 0x20 ADD PUSH0 KECCAK256 SLOAD TIMESTAMP LT PUSH2 0x434 JUMPI PUSH1 0x40 MLOAD PUSH32 0x8C379A000000000000000000000000000000000000000000000000000000000 DUP2 MSTORE PUSH1 0x4 ADD PUSH2 0x42B SWAP1 PUSH2 0x793 JUMP JUMPDEST PUSH1 0x40 MLOAD DUP1 SWAP2 SUB SWAP1 REVERT JUMPDEST CALLER PUSH20 0xFFFFFFFFFFFFFFFFFFFFFFFFFFFFFFFFFFFFFFFF AND PUSH2 0x8FC PUSH1 0x2 PUSH0 CALLER PUSH20 0xFFFFFFFFFFFFFFFFFFFFFFFFFFFFFFFFFFFFFFFF AND PUSH20 0xFFFFFFFFFFFFFFFFFFFFFFFFFFFFFFFFFFFFFFFF AND DUP2 MSTORE PUSH1 0x20 ADD SWAP1 DUP2 MSTORE PUSH1 0x20 ADD PUSH0 KECCAK256 SLOAD SWAP1 DUP2 ISZERO MUL SWAP1 PUSH1 0x40 MLOAD PUSH0 PUSH1 0x40 MLOAD DUP1 DUP4 SUB DUP2 DUP6 DUP9 DUP9 CALL SWAP4 POP POP POP POP ISZERO DUP1 ISZERO PUSH2 0x4B4 JUMPI RETURNDATASIZE PUSH0 DUP1 RETURNDATACOPY RETURNDATASIZE PUSH0 REVERT JUMPDEST POP PUSH0 PUSH1 0x2 PUSH0 CALLER PUSH20 0xFFFFFFFFFFFFFFFFFFFFFFFFFFFFFFFFFFFFFFFF AND PUSH20 0xFFFFFFFFFFFFFFFFFFFFFFFFFFFFFFFFFFFFFFFF AND DUP2 MSTORE PUSH1 0x20 ADD SWAP1 DUP2 MSTORE PUSH1 0x20 ADD PUSH0 KECCAK256 DUP2 SWAP1 SSTORE POP JUMP JUMPDEST PUSH0 PUSH1 0x2 PUSH0 DUP4 PUSH20 0xFFFFFFFFFFFFFFFFFFFFFFFFFFFFFFFFFFFFFFFF AND PUSH20 0xFFFFFFFFFFFFFFFFFFFFFFFFFFFFFFFFFFFFFFFF AND DUP2 MSTORE PUSH1 0x20 ADD SWAP1 DUP2 MSTORE PUSH1 0x20 ADD PUSH0 KECCAK256 SLOAD SWAP1 POP SWAP2 SWAP1 POP JUMP JUMPDEST PUSH1 0x1 PUSH1 0x20 MSTORE DUP1 PUSH0 MSTORE PUSH1 0x40 PUSH0 KECCAK256 PUSH0 SWAP2 POP SWAP1 POP SLOAD DUP2 JUMP JUMPDEST PUSH1 0x2 PUSH1 0x20 MSTORE DUP1 PUSH0 MSTORE PUSH1 0x40 PUSH0 KECCAK256 PUSH0 SWAP2 POP SWAP1 POP SLOAD DUP2 JUMP JUMPDEST PUSH0 PUSH20 0xFFFFFFFFFFFFFFFFFFFFFFFFFFFFFFFFFFFFFFFF DUP3 AND SWAP1 POP SWAP2 SWAP1 POP JUMP JUMPDEST PUSH0 PUSH2 0x592 DUP3 PUSH2 0x569 JUMP JUMPDEST SWAP1 POP SWAP2 SWAP1 POP JUMP JUMPDEST PUSH2 0x5A2 DUP2 PUSH2 0x588 JUMP JUMPDEST DUP3 MSTORE POP POP JUMP JUMPDEST PUSH0 PUSH1 0x20 DUP3 ADD SWAP1 POP PUSH2 0x5BB PUSH0 DUP4 ADD DUP5 PUSH2 0x599 JUMP JUMPDEST SWAP3 SWAP2 POP POP JUMP JUMPDEST PUSH0 DUP1 REVERT JUMPDEST PUSH2 0x5CE DUP2 PUSH2 0x588 JUMP JUMPDEST DUP2 EQ PUSH2 0x5D8 JUMPI PUSH0 DUP1 REVERT JUMPDEST POP JUMP JUMPDEST PUSH0 DUP2 CALLDATALOAD SWAP1 POP PUSH2 0x5E9 DUP2 PUSH2 0x5C5 JUMP JUMPDEST SWAP3 SWAP2 POP POP JUMP JUMPDEST PUSH0 PUSH1 0x20 DUP3 DUP5 SUB SLT ISZERO PUSH2 0x604 JUMPI PUSH2 0x603 PUSH2 0x5C1 JUMP JUMPDEST JUMPDEST PUSH0 PUSH2 0x611 DUP5 DUP3 DUP6 ADD PUSH2 0x5DB JUMP JUMPDEST SWAP2 POP POP SWAP3 SWAP2 POP POP JUMP JUMPDEST PUSH0 DUP2 SWAP1 POP SWAP2 SWAP1 POP JUMP JUMPDEST PUSH2 0x62C DUP2 PUSH2 0x61A JUMP JUMPDEST DUP3 MSTORE POP POP JUMP JUMPDEST PUSH0 PUSH1 0x20 DUP3 ADD SWAP1 POP PUSH2 0x645 PUSH0 DUP4 ADD DUP5 PUSH2 0x623 JUMP JUMPDEST SWAP3 SWAP2 POP POP JUMP JUMPDEST PUSH32 0x4E487B7100000000000000000000000000000000000000000000000000000000 PUSH0 MSTORE PUSH1 0x11 PUSH1 0x4 MSTORE PUSH1 0x24 PUSH0 REVERT JUMPDEST PUSH0 PUSH2 0x682 DUP3 PUSH2 0x61A JUMP JUMPDEST SWAP2 POP PUSH2 0x68D DUP4 PUSH2 0x61A JUMP JUMPDEST SWAP3 POP DUP3 DUP3 ADD SWAP1 POP DUP1 DUP3 GT ISZERO PUSH2 0x6A5 JUMPI PUSH2 0x6A4 PUSH2 0x64B JUMP JUMPDEST JUMPDEST SWAP3 SWAP2 POP POP JUMP JUMPDEST PUSH0 DUP3 DUP3 MSTORE PUSH1 0x20 DUP3 ADD SWAP1 POP SWAP3 SWAP2 POP POP JUMP JUMPDEST PUSH32 0x5468652033206461797320667265657A696E6720706572696F64206861736E27 PUSH0 DUP3 ADD MSTORE PUSH32 0x7420656E64656400000000000000000000000000000000000000000000000000 PUSH1 0x20 DUP3 ADD MSTORE POP JUMP JUMPDEST PUSH0 PUSH2 0x715 PUSH1 0x27 DUP4 PUSH2 0x6AB JUMP JUMPDEST SWAP2 POP PUSH2 0x720 DUP3 PUSH2 0x6BB JUMP JUMPDEST PUSH1 0x40 DUP3 ADD SWAP1 POP SWAP2 SWAP1 POP JUMP JUMPDEST PUSH0 PUSH1 0x20 DUP3 ADD SWAP1 POP DUP2 DUP2 SUB PUSH0 DUP4 ADD MSTORE PUSH2 0x742 DUP2 PUSH2 0x709 JUMP JUMPDEST SWAP1 POP SWAP2 SWAP1 POP JUMP JUMPDEST PUSH32 0x4974277320746F6F206C61746520746F20776974686472617720210000000000 PUSH0 DUP3 ADD MSTORE POP JUMP JUMPDEST PUSH0 PUSH2 0x77D PUSH1 0x1B DUP4 PUSH2 0x6AB JUMP JUMPDEST SWAP2 POP PUSH2 0x788 DUP3 PUSH2 0x749 JUMP JUMPDEST PUSH1 0x20 DUP3 ADD SWAP1 POP SWAP2 SWAP1 POP JUMP JUMPDEST PUSH0 PUSH1 0x20 DUP3 ADD SWAP1 POP DUP2 DUP2 SUB PUSH0 DUP4 ADD MSTORE PUSH2 0x7AA DUP2 PUSH2 0x771 JUMP JUMPDEST SWAP1 POP SWAP2 SWAP1 POP JUMP INVALID LOG2 PUSH5 0x6970667358 0x22 SLT KECCAK256 PUSH1 0x21 ADDRESS 0xE9 0x4E 0x2E MSTORE PUSH7 0x5BE6068F441301 DELEGATECALL 0xE 0x2C DUP6 ISZERO 0xCC PUSH11 0xFD0D1838B621E0F4C90A64 PUSH20 0x6F6C634300081A00330000000000000000000000 "
				},
				"gasEstimates": {
					"creation": {
						"codeDepositCost": "404600",
						"executionCost": "24706",
						"totalCost": "429306"
					},
					"external": {
						"amountDeposited(address)": "2868",
						"buyerDeposit(address)": "2851",
						"buyerWithdraw()": "infinite",
						"createBuyOrder()": "infinite",
						"seller()": "2506",
						"sellerWithdraw(address)": "infinite",
						"withdrawalTime(address)": "2846"
					}
				},
				"methodIdentifiers": {
					"amountDeposited(address)": "f4f0e1ae",
					"buyerDeposit(address)": "7ffdf46b",
					"buyerWithdraw()": "7cc947d0",
					"createBuyOrder()": "2e0bf525",
					"seller()": "08551a53",
					"sellerWithdraw(address)": "2e99a3bc",
					"withdrawalTime(address)": "8fe4b1e6"
				}
			},
			"storageLayout": {
				"storage": [
					{
						"astId": 3,
						"contract": "TimelockEscrow/src/TimelockEscrow.sol:TimelockEscrow",
						"label": "seller",
						"offset": 0,
						"slot": "0",
						"type": "t_address"
					},
					{
						"astId": 7,
						"contract": "TimelockEscrow/src/TimelockEscrow.sol:TimelockEscrow",
						"label": "withdrawalTime",
						"offset": 0,
						"slot": "1",
						"type": "t_mapping(t_address,t_uint256)"
					},
					{
						"astId": 11,
						"contract": "TimelockEscrow/src/TimelockEscrow.sol:TimelockEscrow",
						"label": "amountDeposited",
						"offset": 0,
						"slot": "2",
						"type": "t_mapping(t_address,t_uint256)"
					}
				],
				"types": {
					"t_address": {
						"encoding": "inplace",
						"label": "address",
						"numberOfBytes": "20"
					},
					"t_mapping(t_address,t_uint256)": {
						"encoding": "mapping",
						"key": "t_address",
						"label": "mapping(address => uint256)",
						"numberOfBytes": "32",
						"value": "t_uint256"
					},
					"t_uint256": {
						"encoding": "inplace",
						"label": "uint256",
						"numberOfBytes": "32"
					}
				}
			},
			"userdoc": {
				"kind": "user",
				"methods": {
					"buyerWithdraw()": {
						"notice": "allowa buyer to withdraw at anytime before the end of the escrow (3 days)"
					},
					"constructor": {
						"notice": "The goal of this exercise is to create a Time lock escrow. A buyer deposits ether into a contract, and the seller cannot withdraw it until 3 days passes. Before that, the buyer can take it back Assume the owner is the seller"
					},
					"createBuyOrder()": {
						"notice": "escrows msg.value for 3 days which buyer can withdraw at anytime before 3 days but afterwhich only seller can withdraw should revert if an active escrow still exist or last escrow hasn't been withdrawn"
					}
				},
				"version": 1
			}
		}
	}
}