{
	"data": {
		"bytecode": {
			"linkReferences": {},
			"object": "6080604052348015600e575f80fd5b506103008061001c5f395ff3fe608060405234801561000f575f80fd5b5060043610610034575f3560e01c80631b80a7bc1461003857806361047ff414610068575b5f80fd5b610052600480360381019061004d919061019d565b610098565b60405161005f91906101d7565b60405180910390f35b610082600480360381019061007d919061019d565b610109565b60405161008f91906101d7565b60405180910390f35b5f8082036100a8575f9050610104565b600182036100b95760019050610104565b5f80600190505f80600290505b8581116100fc5782846100d9919061021d565b91508581146100e9578293508192505b80806100f490610250565b9150506100c6565b508093505050505b919050565b5f808203610119575f9050610161565b6001820361012a5760019050610161565b61013f60028361013a9190610297565b610109565b61015460018461014f9190610297565b610109565b61015e919061021d565b90505b919050565b5f80fd5b5f819050919050565b61017c8161016a565b8114610186575f80fd5b50565b5f8135905061019781610173565b92915050565b5f602082840312156101b2576101b1610166565b5b5f6101bf84828501610189565b91505092915050565b6101d18161016a565b82525050565b5f6020820190506101ea5f8301846101c8565b92915050565b7f4e487b71000000000000000000000000000000000000000000000000000000005f52601160045260245ffd5b5f6102278261016a565b91506102328361016a565b925082820190508082111561024a576102496101f0565b5b92915050565b5f61025a8261016a565b91507fffffffffffffffffffffffffffffffffffffffffffffffffffffffffffffffff820361028c5761028b6101f0565b5b600182019050919050565b5f6102a18261016a565b91506102ac8361016a565b92508282039050818111156102c4576102c36101f0565b5b9291505056fea264697066735822122040862a9ea38e38c3ed55ef7f5ee46bac79eda3e1756b8959e4b81410846fefd664736f6c634300081a0033",
			"opcodes": "PUSH1 0x80 PUSH1 0x40 MSTORE CALLVALUE DUP1 ISZERO PUSH1 0xE JUMPI PUSH0 DUP1 REVERT JUMPDEST POP PUSH2 0x300 DUP1 PUSH2 0x1C PUSH0 CODECOPY PUSH0 RETURN INVALID PUSH1 0x80 PUSH1 0x40 MSTORE CALLVALUE DUP1 ISZERO PUSH2 0xF JUMPI PUSH0 DUP1 REVERT JUMPDEST POP PUSH1 0x4 CALLDATASIZE LT PUSH2 0x34 JUMPI PUSH0 CALLDATALOAD PUSH1 0xE0 SHR DUP1 PUSH4 0x1B80A7BC EQ PUSH2 0x38 JUMPI DUP1 PUSH4 0x61047FF4 EQ PUSH2 0x68 JUMPI JUMPDEST PUSH0 DUP1 REVERT JUMPDEST PUSH2 0x52 PUSH1 0x4 DUP1 CALLDATASIZE SUB DUP2 ADD SWAP1 PUSH2 0x4D SWAP2 SWAP1 PUSH2 0x19D JUMP JUMPDEST PUSH2 0x98 JUMP JUMPDEST PUSH1 0x40 MLOAD PUSH2 0x5F SWAP2 SWAP1 PUSH2 0x1D7 JUMP JUMPDEST PUSH1 0x40 MLOAD DUP1 SWAP2 SUB SWAP1 RETURN JUMPDEST PUSH2 0x82 PUSH1 0x4 DUP1 CALLDATASIZE SUB DUP2 ADD SWAP1 PUSH2 0x7D SWAP2 SWAP1 PUSH2 0x19D JUMP JUMPDEST PUSH2 0x109 JUMP JUMPDEST PUSH1 0x40 MLOAD PUSH2 0x8F SWAP2 SWAP1 PUSH2 0x1D7 JUMP JUMPDEST PUSH1 0x40 MLOAD DUP1 SWAP2 SUB SWAP1 RETURN JUMPDEST PUSH0 DUP1 DUP3 SUB PUSH2 0xA8 JUMPI PUSH0 SWAP1 POP PUSH2 0x104 JUMP JUMPDEST PUSH1 0x1 DUP3 SUB PUSH2 0xB9 JUMPI PUSH1 0x1 SWAP1 POP PUSH2 0x104 JUMP JUMPDEST PUSH0 DUP1 PUSH1 0x1 SWAP1 POP PUSH0 DUP1 PUSH1 0x2 SWAP1 POP JUMPDEST DUP6 DUP2 GT PUSH2 0xFC JUMPI DUP3 DUP5 PUSH2 0xD9 SWAP2 SWAP1 PUSH2 0x21D JUMP JUMPDEST SWAP2 POP DUP6 DUP2 EQ PUSH2 0xE9 JUMPI DUP3 SWAP4 POP DUP2 SWAP3 POP JUMPDEST DUP1 DUP1 PUSH2 0xF4 SWAP1 PUSH2 0x250 JUMP JUMPDEST SWAP2 POP POP PUSH2 0xC6 JUMP JUMPDEST POP DUP1 SWAP4 POP POP POP POP JUMPDEST SWAP2 SWAP1 POP JUMP JUMPDEST PUSH0 DUP1 DUP3 SUB PUSH2 0x119 JUMPI PUSH0 SWAP1 POP PUSH2 0x161 JUMP JUMPDEST PUSH1 0x1 DUP3 SUB PUSH2 0x12A JUMPI PUSH1 0x1 SWAP1 POP PUSH2 0x161 JUMP JUMPDEST PUSH2 0x13F PUSH1 0x2 DUP4 PUSH2 0x13A SWAP2 SWAP1 PUSH2 0x297 JUMP JUMPDEST PUSH2 0x109 JUMP JUMPDEST PUSH2 0x154 PUSH1 0x1 DUP5 PUSH2 0x14F SWAP2 SWAP1 PUSH2 0x297 JUMP JUMPDEST PUSH2 0x109 JUMP JUMPDEST PUSH2 0x15E SWAP2 SWAP1 PUSH2 0x21D JUMP JUMPDEST SWAP1 POP JUMPDEST SWAP2 SWAP1 POP JUMP JUMPDEST PUSH0 DUP1 REVERT JUMPDEST PUSH0 DUP2 SWAP1 POP SWAP2 SWAP1 POP JUMP JUMPDEST PUSH2 0x17C DUP2 PUSH2 0x16A JUMP JUMPDEST DUP2 EQ PUSH2 0x186 JUMPI PUSH0 DUP1 REVERT JUMPDEST POP JUMP JUMPDEST PUSH0 DUP2 CALLDATALOAD SWAP1 POP PUSH2 0x197 DUP2 PUSH2 0x173 JUMP JUMPDEST SWAP3 SWAP2 POP POP JUMP JUMPDEST PUSH0 PUSH1 0x20 DUP3 DUP5 SUB SLT ISZERO PUSH2 0x1B2 JUMPI PUSH2 0x1B1 PUSH2 0x166 JUMP JUMPDEST JUMPDEST PUSH0 PUSH2 0x1BF DUP5 DUP3 DUP6 ADD PUSH2 0x189 JUMP JUMPDEST SWAP2 POP POP SWAP3 SWAP2 POP POP JUMP JUMPDEST PUSH2 0x1D1 DUP2 PUSH2 0x16A JUMP JUMPDEST DUP3 MSTORE POP POP JUMP JUMPDEST PUSH0 PUSH1 0x20 DUP3 ADD SWAP1 POP PUSH2 0x1EA PUSH0 DUP4 ADD DUP5 PUSH2 0x1C8 JUMP JUMPDEST SWAP3 SWAP2 POP POP JUMP JUMPDEST PUSH32 0x4E487B7100000000000000000000000000000000000000000000000000000000 PUSH0 MSTORE PUSH1 0x11 PUSH1 0x4 MSTORE PUSH1 0x24 PUSH0 REVERT JUMPDEST PUSH0 PUSH2 0x227 DUP3 PUSH2 0x16A JUMP JUMPDEST SWAP2 POP PUSH2 0x232 DUP4 PUSH2 0x16A JUMP JUMPDEST SWAP3 POP DUP3 DUP3 ADD SWAP1 POP DUP1 DUP3 GT ISZERO PUSH2 0x24A JUMPI PUSH2 0x249 PUSH2 0x1F0 JUMP JUMPDEST JUMPDEST SWAP3 SWAP2 POP POP JUMP JUMPDEST PUSH0 PUSH2 0x25A DUP3 PUSH2 0x16A JUMP JUMPDEST SWAP2 POP PUSH32 0xFFFFFFFFFFFFFFFFFFFFFFFFFFFFFFFFFFFFFFFFFFFFFFFFFFFFFFFFFFFFFFFF DUP3 SUB PUSH2 0x28C JUMPI PUSH2 0x28B PUSH2 0x1F0 JUMP JUMPDEST JUMPDEST PUSH1 0x1 DUP3 ADD SWAP1 POP SWAP2 SWAP1 POP JUMP JUMPDEST PUSH0 PUSH2 0x2A1 DUP3 PUSH2 0x16A JUMP JUMPDEST SWAP2 POP PUSH2 0x2AC DUP4 PUSH2 0x16A JUMP JUMPDEST SWAP3 POP DUP3 DUP3 SUB SWAP1 POP DUP2 DUP2 GT ISZERO PUSH2 0x2C4 JUMPI PUSH2 0x2C3 PUSH2 0x1F0 JUMP JUMPDEST JUMPDEST SWAP3 SWAP2 POP POP JUMP INVALID LOG2 PUSH5 0x6970667358 0x22 SLT KECCAK256 BLOCKHASH DUP7 0x2A SWAP15 LOG3 DUP15 CODESIZE 0xC3 0xED SSTORE 0xEF PUSH32 0x5EE46BAC79EDA3E1756B8959E4B81410846FEFD664736F6C634300081A003300 "
		},
		"gasEstimates": {
			"creation": {
				"codeDepositCost": "153600",
				"executionCost": "194",
				"totalCost": "153794"
			},
			"external": {
				"fibonacci(uint256)": "infinite",
				"fibonacci2(uint256)": "infinite"
			}
		},
		"methodIdentifiers": {
			"fibonacci(uint256)": "61047ff4",
			"fibonacci2(uint256)": "1b80a7bc"
		}
	},
	"abi": [
		{
			"inputs": [
				{
					"internalType": "uint256",
					"name": "_position",
					"type": "uint256"
				}
			],
			"name": "fibonacci",
			"outputs": [
				{
					"internalType": "uint256",
					"name": "",
					"type": "uint256"
				}
			],
			"stateMutability": "pure",
			"type": "function"
		},
		{
			"inputs": [
				{
					"internalType": "uint256",
					"name": "_position",
					"type": "uint256"
				}
			],
			"name": "fibonacci2",
			"outputs": [
				{
					"internalType": "uint256",
					"name": "",
					"type": "uint256"
				}
			],
			"stateMutability": "pure",
			"type": "function"
		}
	]
}