{
	"Typecast/src/Typecast.sol": {
		"Typecast": {
			"abi": [
				{
					"inputs": [],
					"name": "typeCast",
					"outputs": [],
					"stateMutability": "payable",
					"type": "function"
				}
			],
			"devdoc": {
				"kind": "dev",
				"methods": {},
				"version": 1
			},
			"evm": {
				"assembly": "    /* \"Typecast/src/Typecast.sol\":63:381  contract Typecast {... */\n  mstore(0x40, 0x80)\n  callvalue\n  dup1\n  iszero\n  tag_1\n  jumpi\n  0x00\n  dup1\n  revert\ntag_1:\n  pop\n  dataSize(sub_0)\n  dup1\n  dataOffset(sub_0)\n  0x00\n  codecopy\n  0x00\n  return\nstop\n\nsub_0: assembly {\n        /* \"Typecast/src/Typecast.sol\":63:381  contract Typecast {... */\n      mstore(0x40, 0x80)\n      jumpi(tag_1, lt(calldatasize, 0x04))\n      shr(0xe0, calldataload(0x00))\n      dup1\n      0x12e9b56d\n      eq\n      tag_2\n      jumpi\n    tag_1:\n      0x00\n      dup1\n      revert\n        /* \"Typecast/src/Typecast.sol\":222:379  function typeCast() external payable {... */\n    tag_2:\n      tag_3\n      tag_4\n      jump\t// in\n    tag_3:\n      stop\n    tag_4:\n        /* \"Typecast/src/Typecast.sol\":314:318  this */\n      address\n        /* \"Typecast/src/Typecast.sol\":290:321  uint256(uint160(address(this))) */\n      0xffffffffffffffffffffffffffffffffffffffff\n      and\n        /* \"Typecast/src/Typecast.sol\":277:286  msg.value */\n      callvalue\n        /* \"Typecast/src/Typecast.sol\":277:321  msg.value == uint256(uint160(address(this))) */\n      eq\n        /* \"Typecast/src/Typecast.sol\":269:372  require(msg.value == uint256(uint160(address(this))), \"msg.value should be equal the contract address\") */\n      tag_6\n      jumpi\n      mload(0x40)\n      0x08c379a000000000000000000000000000000000000000000000000000000000\n      dup2\n      mstore\n      0x04\n      add\n      tag_7\n      swap1\n      tag_8\n      jump\t// in\n    tag_7:\n      mload(0x40)\n      dup1\n      swap2\n      sub\n      swap1\n      revert\n    tag_6:\n        /* \"Typecast/src/Typecast.sol\":222:379  function typeCast() external payable {... */\n      jump\t// out\n        /* \"#utility.yul\":7:176   */\n    tag_9:\n        /* \"#utility.yul\":91:102   */\n      0x00\n        /* \"#utility.yul\":125:131   */\n      dup3\n        /* \"#utility.yul\":120:123   */\n      dup3\n        /* \"#utility.yul\":113:132   */\n      mstore\n        /* \"#utility.yul\":165:169   */\n      0x20\n        /* \"#utility.yul\":160:163   */\n      dup3\n        /* \"#utility.yul\":156:170   */\n      add\n        /* \"#utility.yul\":141:170   */\n      swap1\n      pop\n        /* \"#utility.yul\":7:176   */\n      swap3\n      swap2\n      pop\n      pop\n      jump\t// out\n        /* \"#utility.yul\":182:415   */\n    tag_10:\n        /* \"#utility.yul\":322:356   */\n      0x6d73672e76616c75652073686f756c6420626520657175616c2074686520636f\n        /* \"#utility.yul\":318:319   */\n      0x00\n        /* \"#utility.yul\":310:316   */\n      dup3\n        /* \"#utility.yul\":306:320   */\n      add\n        /* \"#utility.yul\":299:357   */\n      mstore\n        /* \"#utility.yul\":391:407   */\n      0x6e74726163742061646472657373000000000000000000000000000000000000\n        /* \"#utility.yul\":386:388   */\n      0x20\n        /* \"#utility.yul\":378:384   */\n      dup3\n        /* \"#utility.yul\":374:389   */\n      add\n        /* \"#utility.yul\":367:408   */\n      mstore\n        /* \"#utility.yul\":182:415   */\n      pop\n      jump\t// out\n        /* \"#utility.yul\":421:787   */\n    tag_11:\n        /* \"#utility.yul\":563:566   */\n      0x00\n        /* \"#utility.yul\":584:651   */\n      tag_16\n        /* \"#utility.yul\":648:650   */\n      0x2e\n        /* \"#utility.yul\":643:646   */\n      dup4\n        /* \"#utility.yul\":584:651   */\n      tag_9\n      jump\t// in\n    tag_16:\n        /* \"#utility.yul\":577:651   */\n      swap2\n      pop\n        /* \"#utility.yul\":660:753   */\n      tag_17\n        /* \"#utility.yul\":749:752   */\n      dup3\n        /* \"#utility.yul\":660:753   */\n      tag_10\n      jump\t// in\n    tag_17:\n        /* \"#utility.yul\":778:780   */\n      0x40\n        /* \"#utility.yul\":773:776   */\n      dup3\n        /* \"#utility.yul\":769:781   */\n      add\n        /* \"#utility.yul\":762:781   */\n      swap1\n      pop\n        /* \"#utility.yul\":421:787   */\n      swap2\n      swap1\n      pop\n      jump\t// out\n        /* \"#utility.yul\":793:1212   */\n    tag_8:\n        /* \"#utility.yul\":959:963   */\n      0x00\n        /* \"#utility.yul\":997:999   */\n      0x20\n        /* \"#utility.yul\":986:995   */\n      dup3\n        /* \"#utility.yul\":982:1000   */\n      add\n        /* \"#utility.yul\":974:1000   */\n      swap1\n      pop\n        /* \"#utility.yul\":1046:1055   */\n      dup2\n        /* \"#utility.yul\":1040:1044   */\n      dup2\n        /* \"#utility.yul\":1036:1056   */\n      sub\n        /* \"#utility.yul\":1032:1033   */\n      0x00\n        /* \"#utility.yul\":1021:1030   */\n      dup4\n        /* \"#utility.yul\":1017:1034   */\n      add\n        /* \"#utility.yul\":1010:1057   */\n      mstore\n        /* \"#utility.yul\":1074:1205   */\n      tag_19\n        /* \"#utility.yul\":1200:1204   */\n      dup2\n        /* \"#utility.yul\":1074:1205   */\n      tag_11\n      jump\t// in\n    tag_19:\n        /* \"#utility.yul\":1066:1205   */\n      swap1\n      pop\n        /* \"#utility.yul\":793:1212   */\n      swap2\n      swap1\n      pop\n      jump\t// out\n\n    auxdata: 0xa2646970667358221220d015c49d38364ed556df0d30157157fa700462bb953689cac54ab4f67aa5267264736f6c634300081a0033\n}\n",
				"bytecode": {
					"linkReferences": {},
					"object": "6080604052348015600e575f80fd5b506101598061001c5f395ff3fe60806040526004361061001d575f3560e01c806312e9b56d14610021575b5f80fd5b61002961002b565b005b3073ffffffffffffffffffffffffffffffffffffffff163414610083576040517f08c379a000000000000000000000000000000000000000000000000000000000815260040161007a90610105565b60405180910390fd5b565b5f82825260208201905092915050565b7f6d73672e76616c75652073686f756c6420626520657175616c2074686520636f5f8201527f6e74726163742061646472657373000000000000000000000000000000000000602082015250565b5f6100ef602e83610085565b91506100fa82610095565b604082019050919050565b5f6020820190508181035f83015261011c816100e3565b905091905056fea2646970667358221220d015c49d38364ed556df0d30157157fa700462bb953689cac54ab4f67aa5267264736f6c634300081a0033",
					"opcodes": "PUSH1 0x80 PUSH1 0x40 MSTORE CALLVALUE DUP1 ISZERO PUSH1 0xE JUMPI PUSH0 DUP1 REVERT JUMPDEST POP PUSH2 0x159 DUP1 PUSH2 0x1C PUSH0 CODECOPY PUSH0 RETURN INVALID PUSH1 0x80 PUSH1 0x40 MSTORE PUSH1 0x4 CALLDATASIZE LT PUSH2 0x1D JUMPI PUSH0 CALLDATALOAD PUSH1 0xE0 SHR DUP1 PUSH4 0x12E9B56D EQ PUSH2 0x21 JUMPI JUMPDEST PUSH0 DUP1 REVERT JUMPDEST PUSH2 0x29 PUSH2 0x2B JUMP JUMPDEST STOP JUMPDEST ADDRESS PUSH20 0xFFFFFFFFFFFFFFFFFFFFFFFFFFFFFFFFFFFFFFFF AND CALLVALUE EQ PUSH2 0x83 JUMPI PUSH1 0x40 MLOAD PUSH32 0x8C379A000000000000000000000000000000000000000000000000000000000 DUP2 MSTORE PUSH1 0x4 ADD PUSH2 0x7A SWAP1 PUSH2 0x105 JUMP JUMPDEST PUSH1 0x40 MLOAD DUP1 SWAP2 SUB SWAP1 REVERT JUMPDEST JUMP JUMPDEST PUSH0 DUP3 DUP3 MSTORE PUSH1 0x20 DUP3 ADD SWAP1 POP SWAP3 SWAP2 POP POP JUMP JUMPDEST PUSH32 0x6D73672E76616C75652073686F756C6420626520657175616C2074686520636F PUSH0 DUP3 ADD MSTORE PUSH32 0x6E74726163742061646472657373000000000000000000000000000000000000 PUSH1 0x20 DUP3 ADD MSTORE POP JUMP JUMPDEST PUSH0 PUSH2 0xEF PUSH1 0x2E DUP4 PUSH2 0x85 JUMP JUMPDEST SWAP2 POP PUSH2 0xFA DUP3 PUSH2 0x95 JUMP JUMPDEST PUSH1 0x40 DUP3 ADD SWAP1 POP SWAP2 SWAP1 POP JUMP JUMPDEST PUSH0 PUSH1 0x20 DUP3 ADD SWAP1 POP DUP2 DUP2 SUB PUSH0 DUP4 ADD MSTORE PUSH2 0x11C DUP2 PUSH2 0xE3 JUMP JUMPDEST SWAP1 POP SWAP2 SWAP1 POP JUMP INVALID LOG2 PUSH5 0x6970667358 0x22 SLT KECCAK256 0xD0 ISZERO 0xC4 SWAP14 CODESIZE CALLDATASIZE 0x4E 0xD5 JUMP 0xDF 0xD ADDRESS ISZERO PUSH18 0x57FA700462BB953689CAC54AB4F67AA52672 PUSH5 0x736F6C6343 STOP ADDMOD BYTE STOP CALLER "
				},
				"gasEstimates": {
					"creation": {
						"codeDepositCost": "69000",
						"executionCost": "115",
						"totalCost": "69115"
					},
					"external": {
						"typeCast()": "426"
					}
				},
				"methodIdentifiers": {
					"typeCast()": "12e9b56d"
				}
			},
			"storageLayout": {
				"storage": [],
				"types": null
			},
			"userdoc": {
				"kind": "user",
				"methods": {
					"typeCast()": {
						"notice": "the goal of this exercise is to pass if msg.value is equal to the address of this contract or revert otherwise"
					}
				},
				"version": 1
			}
		}
	}
}