{
	"data": {
		"bytecode": {
			"linkReferences": {},
			"object": "60a0604052426080818152505060805161031f61002a5f395f818160ad0152610157015261031f5ff3fe608060405234801561000f575f80fd5b5060043610610034575f3560e01c80633ccfd60b146100385780637815f86a14610042575b5f80fd5b610040610060565b005b61004a610155565b6040516100579190610191565b60405180910390f35b670de0b6b3a764000047146100aa576040517f08c379a00000000000000000000000000000000000000000000000000000000081526004016100a19061022a565b60405180910390fd5b5f7f0000000000000000000000000000000000000000000000000000000000000000426100d79190610275565b905062015180811015610152575f81650a86c8289c006100f791906102a8565b670de0b6b3a764000061010a9190610275565b90503373ffffffffffffffffffffffffffffffffffffffff166108fc8290811502906040515f60405180830381858888f1935050505015801561014f573d5f803e3d5ffd5b50505b50565b7f000000000000000000000000000000000000000000000000000000000000000081565b5f819050919050565b61018b81610179565b82525050565b5f6020820190506101a45f830184610182565b92915050565b5f82825260208201905092915050565b7f54686520636f6e74726163742062616c616e63652069736e27742031206574685f8201527f6572000000000000000000000000000000000000000000000000000000000000602082015250565b5f6102146022836101aa565b915061021f826101ba565b604082019050919050565b5f6020820190508181035f83015261024181610208565b9050919050565b7f4e487b71000000000000000000000000000000000000000000000000000000005f52601160045260245ffd5b5f61027f82610179565b915061028a83610179565b92508282039050818111156102a2576102a1610248565b5b92915050565b5f6102b282610179565b91506102bd83610179565b92508282026102cb81610179565b915082820484148315176102e2576102e1610248565b5b509291505056fea26469706673582212203d48b7cd26831b8b15884606e20b50bf379e89032805bf1f4cc6ae1bc105fece64736f6c634300081a0033",
			"opcodes": "PUSH1 0xA0 PUSH1 0x40 MSTORE TIMESTAMP PUSH1 0x80 DUP2 DUP2 MSTORE POP POP PUSH1 0x80 MLOAD PUSH2 0x31F PUSH2 0x2A PUSH0 CODECOPY PUSH0 DUP2 DUP2 PUSH1 0xAD ADD MSTORE PUSH2 0x157 ADD MSTORE PUSH2 0x31F PUSH0 RETURN INVALID PUSH1 0x80 PUSH1 0x40 MSTORE CALLVALUE DUP1 ISZERO PUSH2 0xF JUMPI PUSH0 DUP1 REVERT JUMPDEST POP PUSH1 0x4 CALLDATASIZE LT PUSH2 0x34 JUMPI PUSH0 CALLDATALOAD PUSH1 0xE0 SHR DUP1 PUSH4 0x3CCFD60B EQ PUSH2 0x38 JUMPI DUP1 PUSH4 0x7815F86A EQ PUSH2 0x42 JUMPI JUMPDEST PUSH0 DUP1 REVERT JUMPDEST PUSH2 0x40 PUSH2 0x60 JUMP JUMPDEST STOP JUMPDEST PUSH2 0x4A PUSH2 0x155 JUMP JUMPDEST PUSH1 0x40 MLOAD PUSH2 0x57 SWAP2 SWAP1 PUSH2 0x191 JUMP JUMPDEST PUSH1 0x40 MLOAD DUP1 SWAP2 SUB SWAP1 RETURN JUMPDEST PUSH8 0xDE0B6B3A7640000 SELFBALANCE EQ PUSH2 0xAA JUMPI PUSH1 0x40 MLOAD PUSH32 0x8C379A000000000000000000000000000000000000000000000000000000000 DUP2 MSTORE PUSH1 0x4 ADD PUSH2 0xA1 SWAP1 PUSH2 0x22A JUMP JUMPDEST PUSH1 0x40 MLOAD DUP1 SWAP2 SUB SWAP1 REVERT JUMPDEST PUSH0 PUSH32 0x0 TIMESTAMP PUSH2 0xD7 SWAP2 SWAP1 PUSH2 0x275 JUMP JUMPDEST SWAP1 POP PUSH3 0x15180 DUP2 LT ISZERO PUSH2 0x152 JUMPI PUSH0 DUP2 PUSH6 0xA86C8289C00 PUSH2 0xF7 SWAP2 SWAP1 PUSH2 0x2A8 JUMP JUMPDEST PUSH8 0xDE0B6B3A7640000 PUSH2 0x10A SWAP2 SWAP1 PUSH2 0x275 JUMP JUMPDEST SWAP1 POP CALLER PUSH20 0xFFFFFFFFFFFFFFFFFFFFFFFFFFFFFFFFFFFFFFFF AND PUSH2 0x8FC DUP3 SWAP1 DUP2 ISZERO MUL SWAP1 PUSH1 0x40 MLOAD PUSH0 PUSH1 0x40 MLOAD DUP1 DUP4 SUB DUP2 DUP6 DUP9 DUP9 CALL SWAP4 POP POP POP POP ISZERO DUP1 ISZERO PUSH2 0x14F JUMPI RETURNDATASIZE PUSH0 DUP1 RETURNDATACOPY RETURNDATASIZE PUSH0 REVERT JUMPDEST POP POP JUMPDEST POP JUMP JUMPDEST PUSH32 0x0 DUP2 JUMP JUMPDEST PUSH0 DUP2 SWAP1 POP SWAP2 SWAP1 POP JUMP JUMPDEST PUSH2 0x18B DUP2 PUSH2 0x179 JUMP JUMPDEST DUP3 MSTORE POP POP JUMP JUMPDEST PUSH0 PUSH1 0x20 DUP3 ADD SWAP1 POP PUSH2 0x1A4 PUSH0 DUP4 ADD DUP5 PUSH2 0x182 JUMP JUMPDEST SWAP3 SWAP2 POP POP JUMP JUMPDEST PUSH0 DUP3 DUP3 MSTORE PUSH1 0x20 DUP3 ADD SWAP1 POP SWAP3 SWAP2 POP POP JUMP JUMPDEST PUSH32 0x54686520636F6E74726163742062616C616E63652069736E2774203120657468 PUSH0 DUP3 ADD MSTORE PUSH32 0x6572000000000000000000000000000000000000000000000000000000000000 PUSH1 0x20 DUP3 ADD MSTORE POP JUMP JUMPDEST PUSH0 PUSH2 0x214 PUSH1 0x22 DUP4 PUSH2 0x1AA JUMP JUMPDEST SWAP2 POP PUSH2 0x21F DUP3 PUSH2 0x1BA JUMP JUMPDEST PUSH1 0x40 DUP3 ADD SWAP1 POP SWAP2 SWAP1 POP JUMP JUMPDEST PUSH0 PUSH1 0x20 DUP3 ADD SWAP1 POP DUP2 DUP2 SUB PUSH0 DUP4 ADD MSTORE PUSH2 0x241 DUP2 PUSH2 0x208 JUMP JUMPDEST SWAP1 POP SWAP2 SWAP1 POP JUMP JUMPDEST PUSH32 0x4E487B7100000000000000000000000000000000000000000000000000000000 PUSH0 MSTORE PUSH1 0x11 PUSH1 0x4 MSTORE PUSH1 0x24 PUSH0 REVERT JUMPDEST PUSH0 PUSH2 0x27F DUP3 PUSH2 0x179 JUMP JUMPDEST SWAP2 POP PUSH2 0x28A DUP4 PUSH2 0x179 JUMP JUMPDEST SWAP3 POP DUP3 DUP3 SUB SWAP1 POP DUP2 DUP2 GT ISZERO PUSH2 0x2A2 JUMPI PUSH2 0x2A1 PUSH2 0x248 JUMP JUMPDEST JUMPDEST SWAP3 SWAP2 POP POP JUMP JUMPDEST PUSH0 PUSH2 0x2B2 DUP3 PUSH2 0x179 JUMP JUMPDEST SWAP2 POP PUSH2 0x2BD DUP4 PUSH2 0x179 JUMP JUMPDEST SWAP3 POP DUP3 DUP3 MUL PUSH2 0x2CB DUP2 PUSH2 0x179 JUMP JUMPDEST SWAP2 POP DUP3 DUP3 DIV DUP5 EQ DUP4 ISZERO OR PUSH2 0x2E2 JUMPI PUSH2 0x2E1 PUSH2 0x248 JUMP JUMPDEST JUMPDEST POP SWAP3 SWAP2 POP POP JUMP INVALID LOG2 PUSH5 0x6970667358 0x22 SLT KECCAK256 RETURNDATASIZE BASEFEE 0xB7 0xCD 0x26 DUP4 SHL DUP12 ISZERO DUP9 CHAINID MOD 0xE2 SIGNEXTEND POP 0xBF CALLDATACOPY SWAP15 DUP10 SUB 0x28 SDIV 0xBF 0x1F 0x4C 0xC6 0xAE SHL 0xC1 SDIV INVALID 0xCE PUSH5 0x736F6C6343 STOP ADDMOD BYTE STOP CALLER "
		},
		"gasEstimates": {
			"creation": {
				"codeDepositCost": "159800",
				"executionCost": "infinite",
				"totalCost": "infinite"
			},
			"external": {
				"depositedTime()": "infinite",
				"withdraw()": "infinite"
			}
		},
		"methodIdentifiers": {
			"depositedTime()": "7815f86a",
			"withdraw()": "3ccfd60b"
		}
	},
	"abi": [
		{
			"inputs": [],
			"stateMutability": "payable",
			"type": "constructor"
		},
		{
			"inputs": [],
			"name": "depositedTime",
			"outputs": [
				{
					"internalType": "uint256",
					"name": "",
					"type": "uint256"
				}
			],
			"stateMutability": "view",
			"type": "function"
		},
		{
			"inputs": [],
			"name": "withdraw",
			"outputs": [],
			"stateMutability": "nonpayable",
			"type": "function"
		}
	]
}