{
	"IdiotBetting/src/IdiotBetting.sol": {
		"IdiotBettingGame": {
			"abi": [
				{
					"inputs": [],
					"name": "bet",
					"outputs": [],
					"stateMutability": "payable",
					"type": "function"
				},
				{
					"inputs": [],
					"name": "claimPrize",
					"outputs": [],
					"stateMutability": "nonpayable",
					"type": "function"
				}
			],
			"devdoc": {
				"kind": "dev",
				"methods": {},
				"version": 1
			},
			"evm": {
				"assembly": "    /* \"IdiotBetting/src/IdiotBetting.sol\":63:1379  contract IdiotBettingGame {... */\n  mstore(0x40, 0x80)\n  callvalue\n  dup1\n  iszero\n  tag_1\n  jumpi\n  0x00\n  dup1\n  revert\ntag_1:\n  pop\n  dataSize(sub_0)\n  dup1\n  dataOffset(sub_0)\n  0x00\n  codecopy\n  0x00\n  return\nstop\n\nsub_0: assembly {\n        /* \"IdiotBetting/src/IdiotBetting.sol\":63:1379  contract IdiotBettingGame {... */\n      mstore(0x40, 0x80)\n      jumpi(tag_1, lt(calldatasize, 0x04))\n      shr(0xe0, calldataload(0x00))\n      dup1\n      0x11610c25\n      eq\n      tag_2\n      jumpi\n      dup1\n      0x70740ac9\n      eq\n      tag_3\n      jumpi\n    tag_1:\n      0x00\n      dup1\n      revert\n        /* \"IdiotBetting/src/IdiotBetting.sol\":850:1116  function bet() public payable {... */\n    tag_2:\n      tag_4\n      tag_5\n      jump\t// in\n    tag_4:\n      stop\n        /* \"IdiotBetting/src/IdiotBetting.sol\":1122:1377  function claimPrize() public {... */\n    tag_3:\n      callvalue\n      dup1\n      iszero\n      tag_6\n      jumpi\n      0x00\n      dup1\n      revert\n    tag_6:\n      pop\n      tag_7\n      tag_8\n      jump\t// in\n    tag_7:\n      stop\n        /* \"IdiotBetting/src/IdiotBetting.sol\":850:1116  function bet() public payable {... */\n    tag_5:\n        /* \"IdiotBetting/src/IdiotBetting.sol\":906:920  highestDeposit */\n      sload(0x02)\n        /* \"IdiotBetting/src/IdiotBetting.sol\":894:903  msg.value */\n      callvalue\n        /* \"IdiotBetting/src/IdiotBetting.sol\":894:920  msg.value > highestDeposit */\n      gt\n        /* \"IdiotBetting/src/IdiotBetting.sol\":891:1110  if(msg.value > highestDeposit) {... */\n      iszero\n      tag_10\n      jumpi\n        /* \"IdiotBetting/src/IdiotBetting.sol\":953:962  msg.value */\n      callvalue\n        /* \"IdiotBetting/src/IdiotBetting.sol\":936:950  highestDeposit */\n      0x02\n        /* \"IdiotBetting/src/IdiotBetting.sol\":936:962  highestDeposit = msg.value */\n      dup2\n      swap1\n      sstore\n      pop\n        /* \"IdiotBetting/src/IdiotBetting.sol\":985:995  msg.sender */\n      caller\n        /* \"IdiotBetting/src/IdiotBetting.sol\":976:982  winner */\n      0x01\n      0x00\n        /* \"IdiotBetting/src/IdiotBetting.sol\":976:995  winner = msg.sender */\n      0x0100\n      exp\n      dup2\n      sload\n      dup2\n      0xffffffffffffffffffffffffffffffffffffffff\n      mul\n      not\n      and\n      swap1\n      dup4\n      0xffffffffffffffffffffffffffffffffffffffff\n      and\n      mul\n      or\n      swap1\n      sstore\n      pop\n        /* \"IdiotBetting/src/IdiotBetting.sol\":1037:1044  1 hours */\n      0x0e10\n        /* \"IdiotBetting/src/IdiotBetting.sol\":1019:1034  block.timestamp */\n      timestamp\n        /* \"IdiotBetting/src/IdiotBetting.sol\":1019:1044  block.timestamp + 1 hours */\n      tag_11\n      swap2\n      swap1\n      tag_12\n      jump\t// in\n    tag_11:\n        /* \"IdiotBetting/src/IdiotBetting.sol\":1009:1016  endTime */\n      0x00\n        /* \"IdiotBetting/src/IdiotBetting.sol\":1009:1044  endTime = block.timestamp + 1 hours */\n      dup2\n      swap1\n      sstore\n      pop\n        /* \"IdiotBetting/src/IdiotBetting.sol\":1090:1099  msg.value */\n      callvalue\n        /* \"IdiotBetting/src/IdiotBetting.sol\":1058:1074  userTotalDeposit */\n      0x03\n        /* \"IdiotBetting/src/IdiotBetting.sol\":1058:1086  userTotalDeposit[msg.sender] */\n      0x00\n        /* \"IdiotBetting/src/IdiotBetting.sol\":1075:1085  msg.sender */\n      caller\n        /* \"IdiotBetting/src/IdiotBetting.sol\":1058:1086  userTotalDeposit[msg.sender] */\n      0xffffffffffffffffffffffffffffffffffffffff\n      and\n      0xffffffffffffffffffffffffffffffffffffffff\n      and\n      dup2\n      mstore\n      0x20\n      add\n      swap1\n      dup2\n      mstore\n      0x20\n      add\n      0x00\n      keccak256\n      0x00\n        /* \"IdiotBetting/src/IdiotBetting.sol\":1058:1099  userTotalDeposit[msg.sender] += msg.value */\n      dup3\n      dup3\n      sload\n      tag_13\n      swap2\n      swap1\n      tag_12\n      jump\t// in\n    tag_13:\n      swap3\n      pop\n      pop\n      dup2\n      swap1\n      sstore\n      pop\n        /* \"IdiotBetting/src/IdiotBetting.sol\":891:1110  if(msg.value > highestDeposit) {... */\n    tag_10:\n        /* \"IdiotBetting/src/IdiotBetting.sol\":850:1116  function bet() public payable {... */\n      jump\t// out\n        /* \"IdiotBetting/src/IdiotBetting.sol\":1122:1377  function claimPrize() public {... */\n    tag_8:\n        /* \"IdiotBetting/src/IdiotBetting.sol\":1183:1189  winner */\n      0x01\n      0x00\n      swap1\n      sload\n      swap1\n      0x0100\n      exp\n      swap1\n      div\n      0xffffffffffffffffffffffffffffffffffffffff\n      and\n        /* \"IdiotBetting/src/IdiotBetting.sol\":1169:1189  msg.sender == winner */\n      0xffffffffffffffffffffffffffffffffffffffff\n      and\n        /* \"IdiotBetting/src/IdiotBetting.sol\":1169:1179  msg.sender */\n      caller\n        /* \"IdiotBetting/src/IdiotBetting.sol\":1169:1189  msg.sender == winner */\n      0xffffffffffffffffffffffffffffffffffffffff\n      and\n      eq\n        /* \"IdiotBetting/src/IdiotBetting.sol\":1161:1215  require(msg.sender == winner, \"You're not the winner\") */\n      tag_15\n      jumpi\n      mload(0x40)\n      0x08c379a000000000000000000000000000000000000000000000000000000000\n      dup2\n      mstore\n      0x04\n      add\n      tag_16\n      swap1\n      tag_17\n      jump\t// in\n    tag_16:\n      mload(0x40)\n      dup1\n      swap2\n      sub\n      swap1\n      revert\n    tag_15:\n        /* \"IdiotBetting/src/IdiotBetting.sol\":1253:1260  endTime */\n      sload(0x00)\n        /* \"IdiotBetting/src/IdiotBetting.sol\":1234:1249  block.timestamp */\n      timestamp\n        /* \"IdiotBetting/src/IdiotBetting.sol\":1234:1260  block.timestamp >= endTime */\n      lt\n      iszero\n        /* \"IdiotBetting/src/IdiotBetting.sol\":1225:1313  require (block.timestamp >= endTime, \"One hour should pass before you claim your prize\") */\n      tag_18\n      jumpi\n      mload(0x40)\n      0x08c379a000000000000000000000000000000000000000000000000000000000\n      dup2\n      mstore\n      0x04\n      add\n      tag_19\n      swap1\n      tag_20\n      jump\t// in\n    tag_19:\n      mload(0x40)\n      dup1\n      swap2\n      sub\n      swap1\n      revert\n    tag_18:\n        /* \"IdiotBetting/src/IdiotBetting.sol\":1331:1337  winner */\n      0x01\n      0x00\n      swap1\n      sload\n      swap1\n      0x0100\n      exp\n      swap1\n      div\n      0xffffffffffffffffffffffffffffffffffffffff\n      and\n        /* \"IdiotBetting/src/IdiotBetting.sol\":1323:1347  payable(winner).transfer */\n      0xffffffffffffffffffffffffffffffffffffffff\n      and\n        /* \"IdiotBetting/src/IdiotBetting.sol\":1323:1370  payable(winner).transfer(address(this).balance) */\n      0x08fc\n        /* \"IdiotBetting/src/IdiotBetting.sol\":1348:1369  address(this).balance */\n      selfbalance\n        /* \"IdiotBetting/src/IdiotBetting.sol\":1323:1370  payable(winner).transfer(address(this).balance) */\n      swap1\n      dup2\n      iszero\n      mul\n      swap1\n      mload(0x40)\n      0x00\n      mload(0x40)\n      dup1\n      dup4\n      sub\n      dup2\n      dup6\n      dup9\n      dup9\n      call\n      swap4\n      pop\n      pop\n      pop\n      pop\n      iszero\n      dup1\n      iszero\n      tag_22\n      jumpi\n      returndatasize\n      0x00\n      dup1\n      returndatacopy\n      revert(0x00, returndatasize)\n    tag_22:\n      pop\n        /* \"IdiotBetting/src/IdiotBetting.sol\":1122:1377  function claimPrize() public {... */\n      jump\t// out\n        /* \"#utility.yul\":7:84   */\n    tag_23:\n        /* \"#utility.yul\":44:51   */\n      0x00\n        /* \"#utility.yul\":73:78   */\n      dup2\n        /* \"#utility.yul\":62:78   */\n      swap1\n      pop\n        /* \"#utility.yul\":7:84   */\n      swap2\n      swap1\n      pop\n      jump\t// out\n        /* \"#utility.yul\":90:270   */\n    tag_24:\n        /* \"#utility.yul\":138:215   */\n      0x4e487b7100000000000000000000000000000000000000000000000000000000\n        /* \"#utility.yul\":135:136   */\n      0x00\n        /* \"#utility.yul\":128:216   */\n      mstore\n        /* \"#utility.yul\":235:239   */\n      0x11\n        /* \"#utility.yul\":232:233   */\n      0x04\n        /* \"#utility.yul\":225:240   */\n      mstore\n        /* \"#utility.yul\":259:263   */\n      0x24\n        /* \"#utility.yul\":256:257   */\n      0x00\n        /* \"#utility.yul\":249:264   */\n      revert\n        /* \"#utility.yul\":276:467   */\n    tag_12:\n        /* \"#utility.yul\":316:319   */\n      0x00\n        /* \"#utility.yul\":335:355   */\n      tag_34\n        /* \"#utility.yul\":353:354   */\n      dup3\n        /* \"#utility.yul\":335:355   */\n      tag_23\n      jump\t// in\n    tag_34:\n        /* \"#utility.yul\":330:355   */\n      swap2\n      pop\n        /* \"#utility.yul\":369:389   */\n      tag_35\n        /* \"#utility.yul\":387:388   */\n      dup4\n        /* \"#utility.yul\":369:389   */\n      tag_23\n      jump\t// in\n    tag_35:\n        /* \"#utility.yul\":364:389   */\n      swap3\n      pop\n        /* \"#utility.yul\":412:413   */\n      dup3\n        /* \"#utility.yul\":409:410   */\n      dup3\n        /* \"#utility.yul\":405:414   */\n      add\n        /* \"#utility.yul\":398:414   */\n      swap1\n      pop\n        /* \"#utility.yul\":433:436   */\n      dup1\n        /* \"#utility.yul\":430:431   */\n      dup3\n        /* \"#utility.yul\":427:437   */\n      gt\n        /* \"#utility.yul\":424:460   */\n      iszero\n      tag_36\n      jumpi\n        /* \"#utility.yul\":440:458   */\n      tag_37\n      tag_24\n      jump\t// in\n    tag_37:\n        /* \"#utility.yul\":424:460   */\n    tag_36:\n        /* \"#utility.yul\":276:467   */\n      swap3\n      swap2\n      pop\n      pop\n      jump\t// out\n        /* \"#utility.yul\":473:642   */\n    tag_25:\n        /* \"#utility.yul\":557:568   */\n      0x00\n        /* \"#utility.yul\":591:597   */\n      dup3\n        /* \"#utility.yul\":586:589   */\n      dup3\n        /* \"#utility.yul\":579:598   */\n      mstore\n        /* \"#utility.yul\":631:635   */\n      0x20\n        /* \"#utility.yul\":626:629   */\n      dup3\n        /* \"#utility.yul\":622:636   */\n      add\n        /* \"#utility.yul\":607:636   */\n      swap1\n      pop\n        /* \"#utility.yul\":473:642   */\n      swap3\n      swap2\n      pop\n      pop\n      jump\t// out\n        /* \"#utility.yul\":648:819   */\n    tag_26:\n        /* \"#utility.yul\":788:811   */\n      0x596f75277265206e6f74207468652077696e6e65720000000000000000000000\n        /* \"#utility.yul\":784:785   */\n      0x00\n        /* \"#utility.yul\":776:782   */\n      dup3\n        /* \"#utility.yul\":772:786   */\n      add\n        /* \"#utility.yul\":765:812   */\n      mstore\n        /* \"#utility.yul\":648:819   */\n      pop\n      jump\t// out\n        /* \"#utility.yul\":825:1191   */\n    tag_27:\n        /* \"#utility.yul\":967:970   */\n      0x00\n        /* \"#utility.yul\":988:1055   */\n      tag_41\n        /* \"#utility.yul\":1052:1054   */\n      0x15\n        /* \"#utility.yul\":1047:1050   */\n      dup4\n        /* \"#utility.yul\":988:1055   */\n      tag_25\n      jump\t// in\n    tag_41:\n        /* \"#utility.yul\":981:1055   */\n      swap2\n      pop\n        /* \"#utility.yul\":1064:1157   */\n      tag_42\n        /* \"#utility.yul\":1153:1156   */\n      dup3\n        /* \"#utility.yul\":1064:1157   */\n      tag_26\n      jump\t// in\n    tag_42:\n        /* \"#utility.yul\":1182:1184   */\n      0x20\n        /* \"#utility.yul\":1177:1180   */\n      dup3\n        /* \"#utility.yul\":1173:1185   */\n      add\n        /* \"#utility.yul\":1166:1185   */\n      swap1\n      pop\n        /* \"#utility.yul\":825:1191   */\n      swap2\n      swap1\n      pop\n      jump\t// out\n        /* \"#utility.yul\":1197:1616   */\n    tag_17:\n        /* \"#utility.yul\":1363:1367   */\n      0x00\n        /* \"#utility.yul\":1401:1403   */\n      0x20\n        /* \"#utility.yul\":1390:1399   */\n      dup3\n        /* \"#utility.yul\":1386:1404   */\n      add\n        /* \"#utility.yul\":1378:1404   */\n      swap1\n      pop\n        /* \"#utility.yul\":1450:1459   */\n      dup2\n        /* \"#utility.yul\":1444:1448   */\n      dup2\n        /* \"#utility.yul\":1440:1460   */\n      sub\n        /* \"#utility.yul\":1436:1437   */\n      0x00\n        /* \"#utility.yul\":1425:1434   */\n      dup4\n        /* \"#utility.yul\":1421:1438   */\n      add\n        /* \"#utility.yul\":1414:1461   */\n      mstore\n        /* \"#utility.yul\":1478:1609   */\n      tag_44\n        /* \"#utility.yul\":1604:1608   */\n      dup2\n        /* \"#utility.yul\":1478:1609   */\n      tag_27\n      jump\t// in\n    tag_44:\n        /* \"#utility.yul\":1470:1609   */\n      swap1\n      pop\n        /* \"#utility.yul\":1197:1616   */\n      swap2\n      swap1\n      pop\n      jump\t// out\n        /* \"#utility.yul\":1622:1857   */\n    tag_28:\n        /* \"#utility.yul\":1762:1796   */\n      0x4f6e6520686f75722073686f756c642070617373206265666f726520796f7520\n        /* \"#utility.yul\":1758:1759   */\n      0x00\n        /* \"#utility.yul\":1750:1756   */\n      dup3\n        /* \"#utility.yul\":1746:1760   */\n      add\n        /* \"#utility.yul\":1739:1797   */\n      mstore\n        /* \"#utility.yul\":1831:1849   */\n      0x636c61696d20796f7572207072697a6500000000000000000000000000000000\n        /* \"#utility.yul\":1826:1828   */\n      0x20\n        /* \"#utility.yul\":1818:1824   */\n      dup3\n        /* \"#utility.yul\":1814:1829   */\n      add\n        /* \"#utility.yul\":1807:1850   */\n      mstore\n        /* \"#utility.yul\":1622:1857   */\n      pop\n      jump\t// out\n        /* \"#utility.yul\":1863:2229   */\n    tag_29:\n        /* \"#utility.yul\":2005:2008   */\n      0x00\n        /* \"#utility.yul\":2026:2093   */\n      tag_47\n        /* \"#utility.yul\":2090:2092   */\n      0x30\n        /* \"#utility.yul\":2085:2088   */\n      dup4\n        /* \"#utility.yul\":2026:2093   */\n      tag_25\n      jump\t// in\n    tag_47:\n        /* \"#utility.yul\":2019:2093   */\n      swap2\n      pop\n        /* \"#utility.yul\":2102:2195   */\n      tag_48\n        /* \"#utility.yul\":2191:2194   */\n      dup3\n        /* \"#utility.yul\":2102:2195   */\n      tag_28\n      jump\t// in\n    tag_48:\n        /* \"#utility.yul\":2220:2222   */\n      0x40\n        /* \"#utility.yul\":2215:2218   */\n      dup3\n        /* \"#utility.yul\":2211:2223   */\n      add\n        /* \"#utility.yul\":2204:2223   */\n      swap1\n      pop\n        /* \"#utility.yul\":1863:2229   */\n      swap2\n      swap1\n      pop\n      jump\t// out\n        /* \"#utility.yul\":2235:2654   */\n    tag_20:\n        /* \"#utility.yul\":2401:2405   */\n      0x00\n        /* \"#utility.yul\":2439:2441   */\n      0x20\n        /* \"#utility.yul\":2428:2437   */\n      dup3\n        /* \"#utility.yul\":2424:2442   */\n      add\n        /* \"#utility.yul\":2416:2442   */\n      swap1\n      pop\n        /* \"#utility.yul\":2488:2497   */\n      dup2\n        /* \"#utility.yul\":2482:2486   */\n      dup2\n        /* \"#utility.yul\":2478:2498   */\n      sub\n        /* \"#utility.yul\":2474:2475   */\n      0x00\n        /* \"#utility.yul\":2463:2472   */\n      dup4\n        /* \"#utility.yul\":2459:2476   */\n      add\n        /* \"#utility.yul\":2452:2499   */\n      mstore\n        /* \"#utility.yul\":2516:2647   */\n      tag_50\n        /* \"#utility.yul\":2642:2646   */\n      dup2\n        /* \"#utility.yul\":2516:2647   */\n      tag_29\n      jump\t// in\n    tag_50:\n        /* \"#utility.yul\":2508:2647   */\n      swap1\n      pop\n        /* \"#utility.yul\":2235:2654   */\n      swap2\n      swap1\n      pop\n      jump\t// out\n\n    auxdata: 0xa2646970667358221220f004a465e288ee13f5d6bad575ea322291b3c6c6162e537ad39999a6cff66ad564736f6c634300081a0033\n}\n",
				"bytecode": {
					"linkReferences": {},
					"object": "6080604052348015600e575f80fd5b506103e58061001c5f395ff3fe608060405260043610610028575f3560e01c806311610c251461002c57806370740ac914610036575b5f80fd5b61003461004c565b005b348015610041575f80fd5b5061004a610106565b005b60025434111561010457346002819055503360015f6101000a81548173ffffffffffffffffffffffffffffffffffffffff021916908373ffffffffffffffffffffffffffffffffffffffff160217905550610e10426100ab9190610276565b5f819055503460035f3373ffffffffffffffffffffffffffffffffffffffff1673ffffffffffffffffffffffffffffffffffffffff1681526020019081526020015f205f8282546100fc9190610276565b925050819055505b565b60015f9054906101000a900473ffffffffffffffffffffffffffffffffffffffff1673ffffffffffffffffffffffffffffffffffffffff163373ffffffffffffffffffffffffffffffffffffffff1614610195576040517f08c379a000000000000000000000000000000000000000000000000000000000815260040161018c90610303565b60405180910390fd5b5f544210156101d9576040517f08c379a00000000000000000000000000000000000000000000000000000000081526004016101d090610391565b60405180910390fd5b60015f9054906101000a900473ffffffffffffffffffffffffffffffffffffffff1673ffffffffffffffffffffffffffffffffffffffff166108fc4790811502906040515f60405180830381858888f1935050505015801561023d573d5f803e3d5ffd5b50565b5f819050919050565b7f4e487b71000000000000000000000000000000000000000000000000000000005f52601160045260245ffd5b5f61028082610240565b915061028b83610240565b92508282019050808211156102a3576102a2610249565b5b92915050565b5f82825260208201905092915050565b7f596f75277265206e6f74207468652077696e6e657200000000000000000000005f82015250565b5f6102ed6015836102a9565b91506102f8826102b9565b602082019050919050565b5f6020820190508181035f83015261031a816102e1565b9050919050565b7f4f6e6520686f75722073686f756c642070617373206265666f726520796f75205f8201527f636c61696d20796f7572207072697a6500000000000000000000000000000000602082015250565b5f61037b6030836102a9565b915061038682610321565b604082019050919050565b5f6020820190508181035f8301526103a88161036f565b905091905056fea2646970667358221220f004a465e288ee13f5d6bad575ea322291b3c6c6162e537ad39999a6cff66ad564736f6c634300081a0033",
					"opcodes": "PUSH1 0x80 PUSH1 0x40 MSTORE CALLVALUE DUP1 ISZERO PUSH1 0xE JUMPI PUSH0 DUP1 REVERT JUMPDEST POP PUSH2 0x3E5 DUP1 PUSH2 0x1C PUSH0 CODECOPY PUSH0 RETURN INVALID PUSH1 0x80 PUSH1 0x40 MSTORE PUSH1 0x4 CALLDATASIZE LT PUSH2 0x28 JUMPI PUSH0 CALLDATALOAD PUSH1 0xE0 SHR DUP1 PUSH4 0x11610C25 EQ PUSH2 0x2C JUMPI DUP1 PUSH4 0x70740AC9 EQ PUSH2 0x36 JUMPI JUMPDEST PUSH0 DUP1 REVERT JUMPDEST PUSH2 0x34 PUSH2 0x4C JUMP JUMPDEST STOP JUMPDEST CALLVALUE DUP1 ISZERO PUSH2 0x41 JUMPI PUSH0 DUP1 REVERT JUMPDEST POP PUSH2 0x4A PUSH2 0x106 JUMP JUMPDEST STOP JUMPDEST PUSH1 0x2 SLOAD CALLVALUE GT ISZERO PUSH2 0x104 JUMPI CALLVALUE PUSH1 0x2 DUP2 SWAP1 SSTORE POP CALLER PUSH1 0x1 PUSH0 PUSH2 0x100 EXP DUP2 SLOAD DUP2 PUSH20 0xFFFFFFFFFFFFFFFFFFFFFFFFFFFFFFFFFFFFFFFF MUL NOT AND SWAP1 DUP4 PUSH20 0xFFFFFFFFFFFFFFFFFFFFFFFFFFFFFFFFFFFFFFFF AND MUL OR SWAP1 SSTORE POP PUSH2 0xE10 TIMESTAMP PUSH2 0xAB SWAP2 SWAP1 PUSH2 0x276 JUMP JUMPDEST PUSH0 DUP2 SWAP1 SSTORE POP CALLVALUE PUSH1 0x3 PUSH0 CALLER PUSH20 0xFFFFFFFFFFFFFFFFFFFFFFFFFFFFFFFFFFFFFFFF AND PUSH20 0xFFFFFFFFFFFFFFFFFFFFFFFFFFFFFFFFFFFFFFFF AND DUP2 MSTORE PUSH1 0x20 ADD SWAP1 DUP2 MSTORE PUSH1 0x20 ADD PUSH0 KECCAK256 PUSH0 DUP3 DUP3 SLOAD PUSH2 0xFC SWAP2 SWAP1 PUSH2 0x276 JUMP JUMPDEST SWAP3 POP POP DUP2 SWAP1 SSTORE POP JUMPDEST JUMP JUMPDEST PUSH1 0x1 PUSH0 SWAP1 SLOAD SWAP1 PUSH2 0x100 EXP SWAP1 DIV PUSH20 0xFFFFFFFFFFFFFFFFFFFFFFFFFFFFFFFFFFFFFFFF AND PUSH20 0xFFFFFFFFFFFFFFFFFFFFFFFFFFFFFFFFFFFFFFFF AND CALLER PUSH20 0xFFFFFFFFFFFFFFFFFFFFFFFFFFFFFFFFFFFFFFFF AND EQ PUSH2 0x195 JUMPI PUSH1 0x40 MLOAD PUSH32 0x8C379A000000000000000000000000000000000000000000000000000000000 DUP2 MSTORE PUSH1 0x4 ADD PUSH2 0x18C SWAP1 PUSH2 0x303 JUMP JUMPDEST PUSH1 0x40 MLOAD DUP1 SWAP2 SUB SWAP1 REVERT JUMPDEST PUSH0 SLOAD TIMESTAMP LT ISZERO PUSH2 0x1D9 JUMPI PUSH1 0x40 MLOAD PUSH32 0x8C379A000000000000000000000000000000000000000000000000000000000 DUP2 MSTORE PUSH1 0x4 ADD PUSH2 0x1D0 SWAP1 PUSH2 0x391 JUMP JUMPDEST PUSH1 0x40 MLOAD DUP1 SWAP2 SUB SWAP1 REVERT JUMPDEST PUSH1 0x1 PUSH0 SWAP1 SLOAD SWAP1 PUSH2 0x100 EXP SWAP1 DIV PUSH20 0xFFFFFFFFFFFFFFFFFFFFFFFFFFFFFFFFFFFFFFFF AND PUSH20 0xFFFFFFFFFFFFFFFFFFFFFFFFFFFFFFFFFFFFFFFF AND PUSH2 0x8FC SELFBALANCE SWAP1 DUP2 ISZERO MUL SWAP1 PUSH1 0x40 MLOAD PUSH0 PUSH1 0x40 MLOAD DUP1 DUP4 SUB DUP2 DUP6 DUP9 DUP9 CALL SWAP4 POP POP POP POP ISZERO DUP1 ISZERO PUSH2 0x23D JUMPI RETURNDATASIZE PUSH0 DUP1 RETURNDATACOPY RETURNDATASIZE PUSH0 REVERT JUMPDEST POP JUMP JUMPDEST PUSH0 DUP2 SWAP1 POP SWAP2 SWAP1 POP JUMP JUMPDEST PUSH32 0x4E487B7100000000000000000000000000000000000000000000000000000000 PUSH0 MSTORE PUSH1 0x11 PUSH1 0x4 MSTORE PUSH1 0x24 PUSH0 REVERT JUMPDEST PUSH0 PUSH2 0x280 DUP3 PUSH2 0x240 JUMP JUMPDEST SWAP2 POP PUSH2 0x28B DUP4 PUSH2 0x240 JUMP JUMPDEST SWAP3 POP DUP3 DUP3 ADD SWAP1 POP DUP1 DUP3 GT ISZERO PUSH2 0x2A3 JUMPI PUSH2 0x2A2 PUSH2 0x249 JUMP JUMPDEST JUMPDEST SWAP3 SWAP2 POP POP JUMP JUMPDEST PUSH0 DUP3 DUP3 MSTORE PUSH1 0x20 DUP3 ADD SWAP1 POP SWAP3 SWAP2 POP POP JUMP JUMPDEST PUSH32 0x596F75277265206E6F74207468652077696E6E65720000000000000000000000 PUSH0 DUP3 ADD MSTORE POP JUMP JUMPDEST PUSH0 PUSH2 0x2ED PUSH1 0x15 DUP4 PUSH2 0x2A9 JUMP JUMPDEST SWAP2 POP PUSH2 0x2F8 DUP3 PUSH2 0x2B9 JUMP JUMPDEST PUSH1 0x20 DUP3 ADD SWAP1 POP SWAP2 SWAP1 POP JUMP JUMPDEST PUSH0 PUSH1 0x20 DUP3 ADD SWAP1 POP DUP2 DUP2 SUB PUSH0 DUP4 ADD MSTORE PUSH2 0x31A DUP2 PUSH2 0x2E1 JUMP JUMPDEST SWAP1 POP SWAP2 SWAP1 POP JUMP JUMPDEST PUSH32 0x4F6E6520686F75722073686F756C642070617373206265666F726520796F7520 PUSH0 DUP3 ADD MSTORE PUSH32 0x636C61696D20796F7572207072697A6500000000000000000000000000000000 PUSH1 0x20 DUP3 ADD MSTORE POP JUMP JUMPDEST PUSH0 PUSH2 0x37B PUSH1 0x30 DUP4 PUSH2 0x2A9 JUMP JUMPDEST SWAP2 POP PUSH2 0x386 DUP3 PUSH2 0x321 JUMP JUMPDEST PUSH1 0x40 DUP3 ADD SWAP1 POP SWAP2 SWAP1 POP JUMP JUMPDEST PUSH0 PUSH1 0x20 DUP3 ADD SWAP1 POP DUP2 DUP2 SUB PUSH0 DUP4 ADD MSTORE PUSH2 0x3A8 DUP2 PUSH2 0x36F JUMP JUMPDEST SWAP1 POP SWAP2 SWAP1 POP JUMP INVALID LOG2 PUSH5 0x6970667358 0x22 SLT KECCAK256 CREATE DIV LOG4 PUSH6 0xE288EE13F5D6 0xBA 0xD5 PUSH22 0xEA322291B3C6C6162E537AD39999A6CFF66AD564736F PUSH13 0x634300081A0033000000000000 "
				},
				"gasEstimates": {
					"creation": {
						"codeDepositCost": "199400",
						"executionCost": "243",
						"totalCost": "199643"
					},
					"external": {
						"bet()": "infinite",
						"claimPrize()": "infinite"
					}
				},
				"methodIdentifiers": {
					"bet()": "11610c25",
					"claimPrize()": "70740ac9"
				}
			},
			"storageLayout": {
				"storage": [
					{
						"astId": 3,
						"contract": "IdiotBetting/src/IdiotBetting.sol:IdiotBettingGame",
						"label": "endTime",
						"offset": 0,
						"slot": "0",
						"type": "t_uint256"
					},
					{
						"astId": 5,
						"contract": "IdiotBetting/src/IdiotBetting.sol:IdiotBettingGame",
						"label": "winner",
						"offset": 0,
						"slot": "1",
						"type": "t_address"
					},
					{
						"astId": 7,
						"contract": "IdiotBetting/src/IdiotBetting.sol:IdiotBettingGame",
						"label": "highestDeposit",
						"offset": 0,
						"slot": "2",
						"type": "t_uint256"
					},
					{
						"astId": 11,
						"contract": "IdiotBetting/src/IdiotBetting.sol:IdiotBettingGame",
						"label": "userTotalDeposit",
						"offset": 0,
						"slot": "3",
						"type": "t_mapping(t_address,t_uint256)"
					}
				],
				"types": {
					"t_address": {
						"encoding": "inplace",
						"label": "address",
						"numberOfBytes": "20"
					},
					"t_mapping(t_address,t_uint256)": {
						"encoding": "mapping",
						"key": "t_address",
						"label": "mapping(address => uint256)",
						"numberOfBytes": "32",
						"value": "t_uint256"
					},
					"t_uint256": {
						"encoding": "inplace",
						"label": "uint256",
						"numberOfBytes": "32"
					}
				}
			},
			"userdoc": {
				"kind": "user",
				"methods": {},
				"version": 1
			}
		}
	}
}