{
	"ReducingPayout/src/ReducingPayout.sol": {
		"ReducingPayout": {
			"abi": [
				{
					"inputs": [],
					"stateMutability": "payable",
					"type": "constructor"
				},
				{
					"inputs": [],
					"name": "depositedTime",
					"outputs": [
						{
							"internalType": "uint256",
							"name": "",
							"type": "uint256"
						}
					],
					"stateMutability": "view",
					"type": "function"
				},
				{
					"inputs": [],
					"name": "withdraw",
					"outputs": [],
					"stateMutability": "nonpayable",
					"type": "function"
				}
			],
			"devdoc": {
				"kind": "dev",
				"methods": {},
				"version": 1
			},
			"evm": {
				"assembly": "    /* \"ReducingPayout/src/ReducingPayout.sol\":63:1203  contract ReducingPayout {... */\n  mstore(0x40, 0xa0)\n    /* \"ReducingPayout/src/ReducingPayout.sol\":605:620  block.timestamp */\n  timestamp\n    /* \"ReducingPayout/src/ReducingPayout.sol\":589:620  depositedTime = block.timestamp */\n  0x80\n  dup2\n  dup2\n  mstore\n  pop\n  pop\n    /* \"ReducingPayout/src/ReducingPayout.sol\":63:1203  contract ReducingPayout {... */\n  mload(0x80)\n  codecopy(0x00, dataOffset(sub_0), dataSize(sub_0))\n  0x00\n  assignImmutable(\"0x2a80e1ef1d7842f27f2e6be0972bb708b9a135c38860dbe73c27c3486c34f4de\")\n  return(0x00, dataSize(sub_0))\nstop\n\nsub_0: assembly {\n        /* \"ReducingPayout/src/ReducingPayout.sol\":63:1203  contract ReducingPayout {... */\n      mstore(0x40, 0x80)\n      callvalue\n      dup1\n      iszero\n      tag_1\n      jumpi\n      0x00\n      dup1\n      revert\n    tag_1:\n      pop\n      jumpi(tag_2, lt(calldatasize, 0x04))\n      shr(0xe0, calldataload(0x00))\n      dup1\n      0x3ccfd60b\n      eq\n      tag_3\n      jumpi\n      dup1\n      0x7815f86a\n      eq\n      tag_4\n      jumpi\n    tag_2:\n      0x00\n      dup1\n      revert\n        /* \"ReducingPayout/src/ReducingPayout.sol\":633:1201  function withdraw() public {... */\n    tag_3:\n      tag_5\n      tag_6\n      jump\t// in\n    tag_5:\n      stop\n        /* \"ReducingPayout/src/ReducingPayout.sol\":512:550  uint256 public immutable depositedTime */\n    tag_4:\n      tag_7\n      tag_8\n      jump\t// in\n    tag_7:\n      mload(0x40)\n      tag_9\n      swap2\n      swap1\n      tag_10\n      jump\t// in\n    tag_9:\n      mload(0x40)\n      dup1\n      swap2\n      sub\n      swap1\n      return\n        /* \"ReducingPayout/src/ReducingPayout.sol\":633:1201  function withdraw() public {... */\n    tag_6:\n        /* \"ReducingPayout/src/ReducingPayout.sol\":716:723  1 ether */\n      0x0de0b6b3a7640000\n        /* \"ReducingPayout/src/ReducingPayout.sol\":691:712  address(this).balance */\n      selfbalance\n        /* \"ReducingPayout/src/ReducingPayout.sol\":691:723  address(this).balance == 1 ether */\n      eq\n        /* \"ReducingPayout/src/ReducingPayout.sol\":670:783  require(... */\n      tag_12\n      jumpi\n      mload(0x40)\n      0x08c379a000000000000000000000000000000000000000000000000000000000\n      dup2\n      mstore\n      0x04\n      add\n      tag_13\n      swap1\n      tag_14\n      jump\t// in\n    tag_13:\n      mload(0x40)\n      dup1\n      swap2\n      sub\n      swap1\n      revert\n    tag_12:\n        /* \"ReducingPayout/src/ReducingPayout.sol\":836:844  24 hours */\n      0x015180\n        /* \"ReducingPayout/src/ReducingPayout.sol\":819:832  depositedTime */\n      immutable(\"0x2a80e1ef1d7842f27f2e6be0972bb708b9a135c38860dbe73c27c3486c34f4de\")\n        /* \"ReducingPayout/src/ReducingPayout.sol\":801:816  block.timestamp */\n      timestamp\n        /* \"ReducingPayout/src/ReducingPayout.sol\":801:832  block.timestamp - depositedTime */\n      tag_15\n      swap2\n      swap1\n      tag_16\n      jump\t// in\n    tag_15:\n        /* \"ReducingPayout/src/ReducingPayout.sol\":801:844  block.timestamp - depositedTime <= 24 hours */\n      gt\n      iszero\n        /* \"ReducingPayout/src/ReducingPayout.sol\":793:882  require(block.timestamp - depositedTime <= 24 hours, \"You can't withdraw after 24 Hours\") */\n      tag_17\n      jumpi\n      mload(0x40)\n      0x08c379a000000000000000000000000000000000000000000000000000000000\n      dup2\n      mstore\n      0x04\n      add\n      tag_18\n      swap1\n      tag_19\n      jump\t// in\n    tag_18:\n      mload(0x40)\n      dup1\n      swap2\n      sub\n      swap1\n      revert\n    tag_17:\n        /* \"ReducingPayout/src/ReducingPayout.sol\":892:921  uint256 ellapsedTimeInSeconds */\n      0x00\n        /* \"ReducingPayout/src/ReducingPayout.sol\":942:955  depositedTime */\n      immutable(\"0x2a80e1ef1d7842f27f2e6be0972bb708b9a135c38860dbe73c27c3486c34f4de\")\n        /* \"ReducingPayout/src/ReducingPayout.sol\":924:939  block.timestamp */\n      timestamp\n        /* \"ReducingPayout/src/ReducingPayout.sol\":924:955  block.timestamp - depositedTime */\n      tag_20\n      swap2\n      swap1\n      tag_16\n      jump\t// in\n    tag_20:\n        /* \"ReducingPayout/src/ReducingPayout.sol\":892:955  uint256 ellapsedTimeInSeconds = block.timestamp - depositedTime */\n      swap1\n      pop\n        /* \"ReducingPayout/src/ReducingPayout.sol\":993:1001  24 hours */\n      0x015180\n        /* \"ReducingPayout/src/ReducingPayout.sol\":968:989  ellapsedTimeInSeconds */\n      dup2\n        /* \"ReducingPayout/src/ReducingPayout.sol\":968:1001  ellapsedTimeInSeconds != 24 hours */\n      eq\n        /* \"ReducingPayout/src/ReducingPayout.sol\":965:1193  if(ellapsedTimeInSeconds != 24 hours){... */\n      tag_21\n      jumpi\n        /* \"ReducingPayout/src/ReducingPayout.sol\":1016:1045  uint256 remainingAmountInGwei */\n      0x00\n        /* \"ReducingPayout/src/ReducingPayout.sol\":1095:1116  ellapsedTimeInSeconds */\n      dup2\n        /* \"ReducingPayout/src/ReducingPayout.sol\":1075:1092  0.000011574 ether */\n      0x0a86c8289c00\n        /* \"ReducingPayout/src/ReducingPayout.sol\":1075:1116  0.000011574 ether * ellapsedTimeInSeconds */\n      tag_22\n      swap2\n      swap1\n      tag_23\n      jump\t// in\n    tag_22:\n        /* \"ReducingPayout/src/ReducingPayout.sol\":1048:1055  1 ether */\n      0x0de0b6b3a7640000\n        /* \"ReducingPayout/src/ReducingPayout.sol\":1048:1117  1 ether -... */\n      tag_24\n      swap2\n      swap1\n      tag_16\n      jump\t// in\n    tag_24:\n        /* \"ReducingPayout/src/ReducingPayout.sol\":1016:1117  uint256 remainingAmountInGwei = 1 ether -... */\n      swap1\n      pop\n        /* \"ReducingPayout/src/ReducingPayout.sol\":1139:1149  msg.sender */\n      caller\n        /* \"ReducingPayout/src/ReducingPayout.sol\":1131:1159  payable(msg.sender).transfer */\n      0xffffffffffffffffffffffffffffffffffffffff\n      and\n        /* \"ReducingPayout/src/ReducingPayout.sol\":1131:1182  payable(msg.sender).transfer(remainingAmountInGwei) */\n      0x08fc\n        /* \"ReducingPayout/src/ReducingPayout.sol\":1160:1181  remainingAmountInGwei */\n      dup3\n        /* \"ReducingPayout/src/ReducingPayout.sol\":1131:1182  payable(msg.sender).transfer(remainingAmountInGwei) */\n      swap1\n      dup2\n      iszero\n      mul\n      swap1\n      mload(0x40)\n      0x00\n      mload(0x40)\n      dup1\n      dup4\n      sub\n      dup2\n      dup6\n      dup9\n      dup9\n      call\n      swap4\n      pop\n      pop\n      pop\n      pop\n      iszero\n      dup1\n      iszero\n      tag_26\n      jumpi\n      returndatasize\n      0x00\n      dup1\n      returndatacopy\n      revert(0x00, returndatasize)\n    tag_26:\n      pop\n        /* \"ReducingPayout/src/ReducingPayout.sol\":1002:1193  {... */\n      pop\n        /* \"ReducingPayout/src/ReducingPayout.sol\":965:1193  if(ellapsedTimeInSeconds != 24 hours){... */\n    tag_21:\n        /* \"ReducingPayout/src/ReducingPayout.sol\":660:1201  {... */\n      pop\n        /* \"ReducingPayout/src/ReducingPayout.sol\":633:1201  function withdraw() public {... */\n      jump\t// out\n        /* \"ReducingPayout/src/ReducingPayout.sol\":512:550  uint256 public immutable depositedTime */\n    tag_8:\n      immutable(\"0x2a80e1ef1d7842f27f2e6be0972bb708b9a135c38860dbe73c27c3486c34f4de\")\n      dup2\n      jump\t// out\n        /* \"#utility.yul\":7:84   */\n    tag_27:\n        /* \"#utility.yul\":44:51   */\n      0x00\n        /* \"#utility.yul\":73:78   */\n      dup2\n        /* \"#utility.yul\":62:78   */\n      swap1\n      pop\n        /* \"#utility.yul\":7:84   */\n      swap2\n      swap1\n      pop\n      jump\t// out\n        /* \"#utility.yul\":90:208   */\n    tag_28:\n        /* \"#utility.yul\":177:201   */\n      tag_38\n        /* \"#utility.yul\":195:200   */\n      dup2\n        /* \"#utility.yul\":177:201   */\n      tag_27\n      jump\t// in\n    tag_38:\n        /* \"#utility.yul\":172:175   */\n      dup3\n        /* \"#utility.yul\":165:202   */\n      mstore\n        /* \"#utility.yul\":90:208   */\n      pop\n      pop\n      jump\t// out\n        /* \"#utility.yul\":214:436   */\n    tag_10:\n        /* \"#utility.yul\":307:311   */\n      0x00\n        /* \"#utility.yul\":345:347   */\n      0x20\n        /* \"#utility.yul\":334:343   */\n      dup3\n        /* \"#utility.yul\":330:348   */\n      add\n        /* \"#utility.yul\":322:348   */\n      swap1\n      pop\n        /* \"#utility.yul\":358:429   */\n      tag_40\n        /* \"#utility.yul\":426:427   */\n      0x00\n        /* \"#utility.yul\":415:424   */\n      dup4\n        /* \"#utility.yul\":411:428   */\n      add\n        /* \"#utility.yul\":402:408   */\n      dup5\n        /* \"#utility.yul\":358:429   */\n      tag_28\n      jump\t// in\n    tag_40:\n        /* \"#utility.yul\":214:436   */\n      swap3\n      swap2\n      pop\n      pop\n      jump\t// out\n        /* \"#utility.yul\":442:611   */\n    tag_29:\n        /* \"#utility.yul\":526:537   */\n      0x00\n        /* \"#utility.yul\":560:566   */\n      dup3\n        /* \"#utility.yul\":555:558   */\n      dup3\n        /* \"#utility.yul\":548:567   */\n      mstore\n        /* \"#utility.yul\":600:604   */\n      0x20\n        /* \"#utility.yul\":595:598   */\n      dup3\n        /* \"#utility.yul\":591:605   */\n      add\n        /* \"#utility.yul\":576:605   */\n      swap1\n      pop\n        /* \"#utility.yul\":442:611   */\n      swap3\n      swap2\n      pop\n      pop\n      jump\t// out\n        /* \"#utility.yul\":617:838   */\n    tag_30:\n        /* \"#utility.yul\":757:791   */\n      0x54686520636f6e74726163742062616c616e63652069736e2774203120657468\n        /* \"#utility.yul\":753:754   */\n      0x00\n        /* \"#utility.yul\":745:751   */\n      dup3\n        /* \"#utility.yul\":741:755   */\n      add\n        /* \"#utility.yul\":734:792   */\n      mstore\n        /* \"#utility.yul\":826:830   */\n      0x6572000000000000000000000000000000000000000000000000000000000000\n        /* \"#utility.yul\":821:823   */\n      0x20\n        /* \"#utility.yul\":813:819   */\n      dup3\n        /* \"#utility.yul\":809:824   */\n      add\n        /* \"#utility.yul\":802:831   */\n      mstore\n        /* \"#utility.yul\":617:838   */\n      pop\n      jump\t// out\n        /* \"#utility.yul\":844:1210   */\n    tag_31:\n        /* \"#utility.yul\":986:989   */\n      0x00\n        /* \"#utility.yul\":1007:1074   */\n      tag_44\n        /* \"#utility.yul\":1071:1073   */\n      0x22\n        /* \"#utility.yul\":1066:1069   */\n      dup4\n        /* \"#utility.yul\":1007:1074   */\n      tag_29\n      jump\t// in\n    tag_44:\n        /* \"#utility.yul\":1000:1074   */\n      swap2\n      pop\n        /* \"#utility.yul\":1083:1176   */\n      tag_45\n        /* \"#utility.yul\":1172:1175   */\n      dup3\n        /* \"#utility.yul\":1083:1176   */\n      tag_30\n      jump\t// in\n    tag_45:\n        /* \"#utility.yul\":1201:1203   */\n      0x40\n        /* \"#utility.yul\":1196:1199   */\n      dup3\n        /* \"#utility.yul\":1192:1204   */\n      add\n        /* \"#utility.yul\":1185:1204   */\n      swap1\n      pop\n        /* \"#utility.yul\":844:1210   */\n      swap2\n      swap1\n      pop\n      jump\t// out\n        /* \"#utility.yul\":1216:1635   */\n    tag_14:\n        /* \"#utility.yul\":1382:1386   */\n      0x00\n        /* \"#utility.yul\":1420:1422   */\n      0x20\n        /* \"#utility.yul\":1409:1418   */\n      dup3\n        /* \"#utility.yul\":1405:1423   */\n      add\n        /* \"#utility.yul\":1397:1423   */\n      swap1\n      pop\n        /* \"#utility.yul\":1469:1478   */\n      dup2\n        /* \"#utility.yul\":1463:1467   */\n      dup2\n        /* \"#utility.yul\":1459:1479   */\n      sub\n        /* \"#utility.yul\":1455:1456   */\n      0x00\n        /* \"#utility.yul\":1444:1453   */\n      dup4\n        /* \"#utility.yul\":1440:1457   */\n      add\n        /* \"#utility.yul\":1433:1480   */\n      mstore\n        /* \"#utility.yul\":1497:1628   */\n      tag_47\n        /* \"#utility.yul\":1623:1627   */\n      dup2\n        /* \"#utility.yul\":1497:1628   */\n      tag_31\n      jump\t// in\n    tag_47:\n        /* \"#utility.yul\":1489:1628   */\n      swap1\n      pop\n        /* \"#utility.yul\":1216:1635   */\n      swap2\n      swap1\n      pop\n      jump\t// out\n        /* \"#utility.yul\":1641:1821   */\n    tag_32:\n        /* \"#utility.yul\":1689:1766   */\n      0x4e487b7100000000000000000000000000000000000000000000000000000000\n        /* \"#utility.yul\":1686:1687   */\n      0x00\n        /* \"#utility.yul\":1679:1767   */\n      mstore\n        /* \"#utility.yul\":1786:1790   */\n      0x11\n        /* \"#utility.yul\":1783:1784   */\n      0x04\n        /* \"#utility.yul\":1776:1791   */\n      mstore\n        /* \"#utility.yul\":1810:1814   */\n      0x24\n        /* \"#utility.yul\":1807:1808   */\n      0x00\n        /* \"#utility.yul\":1800:1815   */\n      revert\n        /* \"#utility.yul\":1827:2021   */\n    tag_16:\n        /* \"#utility.yul\":1867:1871   */\n      0x00\n        /* \"#utility.yul\":1887:1907   */\n      tag_50\n        /* \"#utility.yul\":1905:1906   */\n      dup3\n        /* \"#utility.yul\":1887:1907   */\n      tag_27\n      jump\t// in\n    tag_50:\n        /* \"#utility.yul\":1882:1907   */\n      swap2\n      pop\n        /* \"#utility.yul\":1921:1941   */\n      tag_51\n        /* \"#utility.yul\":1939:1940   */\n      dup4\n        /* \"#utility.yul\":1921:1941   */\n      tag_27\n      jump\t// in\n    tag_51:\n        /* \"#utility.yul\":1916:1941   */\n      swap3\n      pop\n        /* \"#utility.yul\":1965:1966   */\n      dup3\n        /* \"#utility.yul\":1962:1963   */\n      dup3\n        /* \"#utility.yul\":1958:1967   */\n      sub\n        /* \"#utility.yul\":1950:1967   */\n      swap1\n      pop\n        /* \"#utility.yul\":1989:1990   */\n      dup2\n        /* \"#utility.yul\":1983:1987   */\n      dup2\n        /* \"#utility.yul\":1980:1991   */\n      gt\n        /* \"#utility.yul\":1977:2014   */\n      iszero\n      tag_52\n      jumpi\n        /* \"#utility.yul\":1994:2012   */\n      tag_53\n      tag_32\n      jump\t// in\n    tag_53:\n        /* \"#utility.yul\":1977:2014   */\n    tag_52:\n        /* \"#utility.yul\":1827:2021   */\n      swap3\n      swap2\n      pop\n      pop\n      jump\t// out\n        /* \"#utility.yul\":2027:2247   */\n    tag_33:\n        /* \"#utility.yul\":2167:2201   */\n      0x596f752063616e277420776974686472617720616674657220323420486f7572\n        /* \"#utility.yul\":2163:2164   */\n      0x00\n        /* \"#utility.yul\":2155:2161   */\n      dup3\n        /* \"#utility.yul\":2151:2165   */\n      add\n        /* \"#utility.yul\":2144:2202   */\n      mstore\n        /* \"#utility.yul\":2236:2239   */\n      0x7300000000000000000000000000000000000000000000000000000000000000\n        /* \"#utility.yul\":2231:2233   */\n      0x20\n        /* \"#utility.yul\":2223:2229   */\n      dup3\n        /* \"#utility.yul\":2219:2234   */\n      add\n        /* \"#utility.yul\":2212:2240   */\n      mstore\n        /* \"#utility.yul\":2027:2247   */\n      pop\n      jump\t// out\n        /* \"#utility.yul\":2253:2619   */\n    tag_34:\n        /* \"#utility.yul\":2395:2398   */\n      0x00\n        /* \"#utility.yul\":2416:2483   */\n      tag_56\n        /* \"#utility.yul\":2480:2482   */\n      0x21\n        /* \"#utility.yul\":2475:2478   */\n      dup4\n        /* \"#utility.yul\":2416:2483   */\n      tag_29\n      jump\t// in\n    tag_56:\n        /* \"#utility.yul\":2409:2483   */\n      swap2\n      pop\n        /* \"#utility.yul\":2492:2585   */\n      tag_57\n        /* \"#utility.yul\":2581:2584   */\n      dup3\n        /* \"#utility.yul\":2492:2585   */\n      tag_33\n      jump\t// in\n    tag_57:\n        /* \"#utility.yul\":2610:2612   */\n      0x40\n        /* \"#utility.yul\":2605:2608   */\n      dup3\n        /* \"#utility.yul\":2601:2613   */\n      add\n        /* \"#utility.yul\":2594:2613   */\n      swap1\n      pop\n        /* \"#utility.yul\":2253:2619   */\n      swap2\n      swap1\n      pop\n      jump\t// out\n        /* \"#utility.yul\":2625:3044   */\n    tag_19:\n        /* \"#utility.yul\":2791:2795   */\n      0x00\n        /* \"#utility.yul\":2829:2831   */\n      0x20\n        /* \"#utility.yul\":2818:2827   */\n      dup3\n        /* \"#utility.yul\":2814:2832   */\n      add\n        /* \"#utility.yul\":2806:2832   */\n      swap1\n      pop\n        /* \"#utility.yul\":2878:2887   */\n      dup2\n        /* \"#utility.yul\":2872:2876   */\n      dup2\n        /* \"#utility.yul\":2868:2888   */\n      sub\n        /* \"#utility.yul\":2864:2865   */\n      0x00\n        /* \"#utility.yul\":2853:2862   */\n      dup4\n        /* \"#utility.yul\":2849:2866   */\n      add\n        /* \"#utility.yul\":2842:2889   */\n      mstore\n        /* \"#utility.yul\":2906:3037   */\n      tag_59\n        /* \"#utility.yul\":3032:3036   */\n      dup2\n        /* \"#utility.yul\":2906:3037   */\n      tag_34\n      jump\t// in\n    tag_59:\n        /* \"#utility.yul\":2898:3037   */\n      swap1\n      pop\n        /* \"#utility.yul\":2625:3044   */\n      swap2\n      swap1\n      pop\n      jump\t// out\n        /* \"#utility.yul\":3050:3460   */\n    tag_23:\n        /* \"#utility.yul\":3090:3097   */\n      0x00\n        /* \"#utility.yul\":3113:3133   */\n      tag_61\n        /* \"#utility.yul\":3131:3132   */\n      dup3\n        /* \"#utility.yul\":3113:3133   */\n      tag_27\n      jump\t// in\n    tag_61:\n        /* \"#utility.yul\":3108:3133   */\n      swap2\n      pop\n        /* \"#utility.yul\":3147:3167   */\n      tag_62\n        /* \"#utility.yul\":3165:3166   */\n      dup4\n        /* \"#utility.yul\":3147:3167   */\n      tag_27\n      jump\t// in\n    tag_62:\n        /* \"#utility.yul\":3142:3167   */\n      swap3\n      pop\n        /* \"#utility.yul\":3202:3203   */\n      dup3\n        /* \"#utility.yul\":3199:3200   */\n      dup3\n        /* \"#utility.yul\":3195:3204   */\n      mul\n        /* \"#utility.yul\":3224:3254   */\n      tag_63\n        /* \"#utility.yul\":3242:3253   */\n      dup2\n        /* \"#utility.yul\":3224:3254   */\n      tag_27\n      jump\t// in\n    tag_63:\n        /* \"#utility.yul\":3213:3254   */\n      swap2\n      pop\n        /* \"#utility.yul\":3403:3404   */\n      dup3\n        /* \"#utility.yul\":3394:3401   */\n      dup3\n        /* \"#utility.yul\":3390:3405   */\n      div\n        /* \"#utility.yul\":3387:3388   */\n      dup5\n        /* \"#utility.yul\":3384:3406   */\n      eq\n        /* \"#utility.yul\":3364:3365   */\n      dup4\n        /* \"#utility.yul\":3357:3366   */\n      iszero\n        /* \"#utility.yul\":3337:3420   */\n      or\n        /* \"#utility.yul\":3314:3453   */\n      tag_64\n      jumpi\n        /* \"#utility.yul\":3433:3451   */\n      tag_65\n      tag_32\n      jump\t// in\n    tag_65:\n        /* \"#utility.yul\":3314:3453   */\n    tag_64:\n        /* \"#utility.yul\":3098:3460   */\n      pop\n        /* \"#utility.yul\":3050:3460   */\n      swap3\n      swap2\n      pop\n      pop\n      jump\t// out\n\n    auxdata: 0xa2646970667358221220e8e858e3051b06e1dd3a7ea1d5e271330a1f905782cb44f2c751f538c94a0e4464736f6c634300081a0033\n}\n",
				"bytecode": {
					"linkReferences": {},
					"object": "60a0604052426080818152505060805161041d6100315f395f818160b00152818161011e01526101c7015261041d5ff3fe608060405234801561000f575f80fd5b5060043610610034575f3560e01c80633ccfd60b146100385780637815f86a14610042575b5f80fd5b610040610060565b005b61004a6101c5565b6040516100579190610201565b60405180910390f35b670de0b6b3a764000047146100aa576040517f08c379a00000000000000000000000000000000000000000000000000000000081526004016100a19061029a565b60405180910390fd5b620151807f0000000000000000000000000000000000000000000000000000000000000000426100da91906102e5565b111561011b576040517f08c379a000000000000000000000000000000000000000000000000000000000815260040161011290610388565b60405180910390fd5b5f7f00000000000000000000000000000000000000000000000000000000000000004261014891906102e5565b90506201518081146101c2575f81650a86c8289c0061016791906103a6565b670de0b6b3a764000061017a91906102e5565b90503373ffffffffffffffffffffffffffffffffffffffff166108fc8290811502906040515f60405180830381858888f193505050501580156101bf573d5f803e3d5ffd5b50505b50565b7f000000000000000000000000000000000000000000000000000000000000000081565b5f819050919050565b6101fb816101e9565b82525050565b5f6020820190506102145f8301846101f2565b92915050565b5f82825260208201905092915050565b7f54686520636f6e74726163742062616c616e63652069736e27742031206574685f8201527f6572000000000000000000000000000000000000000000000000000000000000602082015250565b5f61028460228361021a565b915061028f8261022a565b604082019050919050565b5f6020820190508181035f8301526102b181610278565b9050919050565b7f4e487b71000000000000000000000000000000000000000000000000000000005f52601160045260245ffd5b5f6102ef826101e9565b91506102fa836101e9565b9250828203905081811115610312576103116102b8565b5b92915050565b7f596f752063616e277420776974686472617720616674657220323420486f75725f8201527f7300000000000000000000000000000000000000000000000000000000000000602082015250565b5f61037260218361021a565b915061037d82610318565b604082019050919050565b5f6020820190508181035f83015261039f81610366565b9050919050565b5f6103b0826101e9565b91506103bb836101e9565b92508282026103c9816101e9565b915082820484148315176103e0576103df6102b8565b5b509291505056fea2646970667358221220e8e858e3051b06e1dd3a7ea1d5e271330a1f905782cb44f2c751f538c94a0e4464736f6c634300081a0033",
					"opcodes": "PUSH1 0xA0 PUSH1 0x40 MSTORE TIMESTAMP PUSH1 0x80 DUP2 DUP2 MSTORE POP POP PUSH1 0x80 MLOAD PUSH2 0x41D PUSH2 0x31 PUSH0 CODECOPY PUSH0 DUP2 DUP2 PUSH1 0xB0 ADD MSTORE DUP2 DUP2 PUSH2 0x11E ADD MSTORE PUSH2 0x1C7 ADD MSTORE PUSH2 0x41D PUSH0 RETURN INVALID PUSH1 0x80 PUSH1 0x40 MSTORE CALLVALUE DUP1 ISZERO PUSH2 0xF JUMPI PUSH0 DUP1 REVERT JUMPDEST POP PUSH1 0x4 CALLDATASIZE LT PUSH2 0x34 JUMPI PUSH0 CALLDATALOAD PUSH1 0xE0 SHR DUP1 PUSH4 0x3CCFD60B EQ PUSH2 0x38 JUMPI DUP1 PUSH4 0x7815F86A EQ PUSH2 0x42 JUMPI JUMPDEST PUSH0 DUP1 REVERT JUMPDEST PUSH2 0x40 PUSH2 0x60 JUMP JUMPDEST STOP JUMPDEST PUSH2 0x4A PUSH2 0x1C5 JUMP JUMPDEST PUSH1 0x40 MLOAD PUSH2 0x57 SWAP2 SWAP1 PUSH2 0x201 JUMP JUMPDEST PUSH1 0x40 MLOAD DUP1 SWAP2 SUB SWAP1 RETURN JUMPDEST PUSH8 0xDE0B6B3A7640000 SELFBALANCE EQ PUSH2 0xAA JUMPI PUSH1 0x40 MLOAD PUSH32 0x8C379A000000000000000000000000000000000000000000000000000000000 DUP2 MSTORE PUSH1 0x4 ADD PUSH2 0xA1 SWAP1 PUSH2 0x29A JUMP JUMPDEST PUSH1 0x40 MLOAD DUP1 SWAP2 SUB SWAP1 REVERT JUMPDEST PUSH3 0x15180 PUSH32 0x0 TIMESTAMP PUSH2 0xDA SWAP2 SWAP1 PUSH2 0x2E5 JUMP JUMPDEST GT ISZERO PUSH2 0x11B JUMPI PUSH1 0x40 MLOAD PUSH32 0x8C379A000000000000000000000000000000000000000000000000000000000 DUP2 MSTORE PUSH1 0x4 ADD PUSH2 0x112 SWAP1 PUSH2 0x388 JUMP JUMPDEST PUSH1 0x40 MLOAD DUP1 SWAP2 SUB SWAP1 REVERT JUMPDEST PUSH0 PUSH32 0x0 TIMESTAMP PUSH2 0x148 SWAP2 SWAP1 PUSH2 0x2E5 JUMP JUMPDEST SWAP1 POP PUSH3 0x15180 DUP2 EQ PUSH2 0x1C2 JUMPI PUSH0 DUP2 PUSH6 0xA86C8289C00 PUSH2 0x167 SWAP2 SWAP1 PUSH2 0x3A6 JUMP JUMPDEST PUSH8 0xDE0B6B3A7640000 PUSH2 0x17A SWAP2 SWAP1 PUSH2 0x2E5 JUMP JUMPDEST SWAP1 POP CALLER PUSH20 0xFFFFFFFFFFFFFFFFFFFFFFFFFFFFFFFFFFFFFFFF AND PUSH2 0x8FC DUP3 SWAP1 DUP2 ISZERO MUL SWAP1 PUSH1 0x40 MLOAD PUSH0 PUSH1 0x40 MLOAD DUP1 DUP4 SUB DUP2 DUP6 DUP9 DUP9 CALL SWAP4 POP POP POP POP ISZERO DUP1 ISZERO PUSH2 0x1BF JUMPI RETURNDATASIZE PUSH0 DUP1 RETURNDATACOPY RETURNDATASIZE PUSH0 REVERT JUMPDEST POP POP JUMPDEST POP JUMP JUMPDEST PUSH32 0x0 DUP2 JUMP JUMPDEST PUSH0 DUP2 SWAP1 POP SWAP2 SWAP1 POP JUMP JUMPDEST PUSH2 0x1FB DUP2 PUSH2 0x1E9 JUMP JUMPDEST DUP3 MSTORE POP POP JUMP JUMPDEST PUSH0 PUSH1 0x20 DUP3 ADD SWAP1 POP PUSH2 0x214 PUSH0 DUP4 ADD DUP5 PUSH2 0x1F2 JUMP JUMPDEST SWAP3 SWAP2 POP POP JUMP JUMPDEST PUSH0 DUP3 DUP3 MSTORE PUSH1 0x20 DUP3 ADD SWAP1 POP SWAP3 SWAP2 POP POP JUMP JUMPDEST PUSH32 0x54686520636F6E74726163742062616C616E63652069736E2774203120657468 PUSH0 DUP3 ADD MSTORE PUSH32 0x6572000000000000000000000000000000000000000000000000000000000000 PUSH1 0x20 DUP3 ADD MSTORE POP JUMP JUMPDEST PUSH0 PUSH2 0x284 PUSH1 0x22 DUP4 PUSH2 0x21A JUMP JUMPDEST SWAP2 POP PUSH2 0x28F DUP3 PUSH2 0x22A JUMP JUMPDEST PUSH1 0x40 DUP3 ADD SWAP1 POP SWAP2 SWAP1 POP JUMP JUMPDEST PUSH0 PUSH1 0x20 DUP3 ADD SWAP1 POP DUP2 DUP2 SUB PUSH0 DUP4 ADD MSTORE PUSH2 0x2B1 DUP2 PUSH2 0x278 JUMP JUMPDEST SWAP1 POP SWAP2 SWAP1 POP JUMP JUMPDEST PUSH32 0x4E487B7100000000000000000000000000000000000000000000000000000000 PUSH0 MSTORE PUSH1 0x11 PUSH1 0x4 MSTORE PUSH1 0x24 PUSH0 REVERT JUMPDEST PUSH0 PUSH2 0x2EF DUP3 PUSH2 0x1E9 JUMP JUMPDEST SWAP2 POP PUSH2 0x2FA DUP4 PUSH2 0x1E9 JUMP JUMPDEST SWAP3 POP DUP3 DUP3 SUB SWAP1 POP DUP2 DUP2 GT ISZERO PUSH2 0x312 JUMPI PUSH2 0x311 PUSH2 0x2B8 JUMP JUMPDEST JUMPDEST SWAP3 SWAP2 POP POP JUMP JUMPDEST PUSH32 0x596F752063616E277420776974686472617720616674657220323420486F7572 PUSH0 DUP3 ADD MSTORE PUSH32 0x7300000000000000000000000000000000000000000000000000000000000000 PUSH1 0x20 DUP3 ADD MSTORE POP JUMP JUMPDEST PUSH0 PUSH2 0x372 PUSH1 0x21 DUP4 PUSH2 0x21A JUMP JUMPDEST SWAP2 POP PUSH2 0x37D DUP3 PUSH2 0x318 JUMP JUMPDEST PUSH1 0x40 DUP3 ADD SWAP1 POP SWAP2 SWAP1 POP JUMP JUMPDEST PUSH0 PUSH1 0x20 DUP3 ADD SWAP1 POP DUP2 DUP2 SUB PUSH0 DUP4 ADD MSTORE PUSH2 0x39F DUP2 PUSH2 0x366 JUMP JUMPDEST SWAP1 POP SWAP2 SWAP1 POP JUMP JUMPDEST PUSH0 PUSH2 0x3B0 DUP3 PUSH2 0x1E9 JUMP JUMPDEST SWAP2 POP PUSH2 0x3BB DUP4 PUSH2 0x1E9 JUMP JUMPDEST SWAP3 POP DUP3 DUP3 MUL PUSH2 0x3C9 DUP2 PUSH2 0x1E9 JUMP JUMPDEST SWAP2 POP DUP3 DUP3 DIV DUP5 EQ DUP4 ISZERO OR PUSH2 0x3E0 JUMPI PUSH2 0x3DF PUSH2 0x2B8 JUMP JUMPDEST JUMPDEST POP SWAP3 SWAP2 POP POP JUMP INVALID LOG2 PUSH5 0x6970667358 0x22 SLT KECCAK256 0xE8 0xE8 PC 0xE3 SDIV SHL MOD 0xE1 0xDD GASPRICE PUSH31 0xA1D5E271330A1F905782CB44F2C751F538C94A0E4464736F6C634300081A00 CALLER "
				},
				"gasEstimates": {
					"creation": {
						"codeDepositCost": "210600",
						"executionCost": "infinite",
						"totalCost": "infinite"
					},
					"external": {
						"depositedTime()": "infinite",
						"withdraw()": "infinite"
					}
				},
				"methodIdentifiers": {
					"depositedTime()": "7815f86a",
					"withdraw()": "3ccfd60b"
				}
			},
			"storageLayout": {
				"storage": [],
				"types": null
			},
			"userdoc": {
				"kind": "user",
				"methods": {},
				"version": 1
			}
		}
	}
}