{
	"TicTacToe/src/TicTacToe.sol": {
		"TicTacToe": {
			"abi": [
				{
					"inputs": [
						{
							"internalType": "uint8[3][3]",
							"name": "board",
							"type": "uint8[3][3]"
						}
					],
					"name": "isWinning",
					"outputs": [
						{
							"internalType": "bool",
							"name": "",
							"type": "bool"
						}
					],
					"stateMutability": "pure",
					"type": "function"
				}
			],
			"devdoc": {
				"kind": "dev",
				"methods": {},
				"version": 1
			},
			"evm": {
				"assembly": "    /* \"TicTacToe/src/TicTacToe.sol\":63:768  contract TicTacToe {... */\n  mstore(0x40, 0x80)\n  callvalue\n  dup1\n  iszero\n  tag_1\n  jumpi\n  0x00\n  dup1\n  revert\ntag_1:\n  pop\n  dataSize(sub_0)\n  dup1\n  dataOffset(sub_0)\n  0x00\n  codecopy\n  0x00\n  return\nstop\n\nsub_0: assembly {\n        /* \"TicTacToe/src/TicTacToe.sol\":63:768  contract TicTacToe {... */\n      mstore(0x40, 0x80)\n      callvalue\n      dup1\n      iszero\n      tag_1\n      jumpi\n      0x00\n      dup1\n      revert\n    tag_1:\n      pop\n      jumpi(tag_2, lt(calldatasize, 0x04))\n      shr(0xe0, calldataload(0x00))\n      dup1\n      0xd4edca96\n      eq\n      tag_3\n      jumpi\n    tag_2:\n      0x00\n      dup1\n      revert\n        /* \"TicTacToe/src/TicTacToe.sol\":446:766  function isWinning(uint8[3][3] memory board) public pure returns (bool) {... */\n    tag_3:\n      tag_4\n      0x04\n      dup1\n      calldatasize\n      sub\n      dup2\n      add\n      swap1\n      tag_5\n      swap2\n      swap1\n      tag_6\n      jump\t// in\n    tag_5:\n      tag_7\n      jump\t// in\n    tag_4:\n      mload(0x40)\n      tag_8\n      swap2\n      swap1\n      tag_9\n      jump\t// in\n    tag_8:\n      mload(0x40)\n      dup1\n      swap2\n      sub\n      swap1\n      return\n    tag_7:\n        /* \"TicTacToe/src/TicTacToe.sol\":512:516  bool */\n      0x00\n        /* \"TicTacToe/src/TicTacToe.sol\":532:539  uint8 i */\n      dup1\n        /* \"TicTacToe/src/TicTacToe.sol\":540:541  0 */\n      0x00\n        /* \"TicTacToe/src/TicTacToe.sol\":532:541  uint8 i=0 */\n      swap1\n      pop\n        /* \"TicTacToe/src/TicTacToe.sol\":528:739  for(uint8 i=0; i<board.length; i++){... */\n    tag_11:\n        /* \"TicTacToe/src/TicTacToe.sol\":545:557  board.length */\n      0x03\n        /* \"TicTacToe/src/TicTacToe.sol\":543:544  i */\n      dup2\n        /* \"TicTacToe/src/TicTacToe.sol\":543:557  i<board.length */\n      0xff\n      and\n      lt\n        /* \"TicTacToe/src/TicTacToe.sol\":528:739  for(uint8 i=0; i<board.length; i++){... */\n      iszero\n      tag_12\n      jumpi\n        /* \"TicTacToe/src/TicTacToe.sol\":713:714  1 */\n      0x01\n        /* \"TicTacToe/src/TicTacToe.sol\":698:703  board */\n      dup4\n        /* \"TicTacToe/src/TicTacToe.sol\":704:705  i */\n      dup3\n        /* \"TicTacToe/src/TicTacToe.sol\":698:706  board[i] */\n      0xff\n      and\n      0x03\n      dup2\n      lt\n      tag_14\n      jumpi\n      tag_15\n      tag_16\n      jump\t// in\n    tag_15:\n    tag_14:\n      0x20\n      mul\n      add\n      mload\n        /* \"TicTacToe/src/TicTacToe.sol\":707:708  i */\n      dup3\n        /* \"TicTacToe/src/TicTacToe.sol\":698:709  board[i][i] */\n      0xff\n      and\n      0x03\n      dup2\n      lt\n      tag_17\n      jumpi\n      tag_18\n      tag_16\n      jump\t// in\n    tag_18:\n    tag_17:\n      0x20\n      mul\n      add\n      mload\n        /* \"TicTacToe/src/TicTacToe.sol\":698:714  board[i][i] != 1 */\n      0xff\n      and\n      eq\n        /* \"TicTacToe/src/TicTacToe.sol\":695:728  if(board[i][i] != 1) return false */\n      tag_19\n      jumpi\n        /* \"TicTacToe/src/TicTacToe.sol\":723:728  false */\n      0x00\n        /* \"TicTacToe/src/TicTacToe.sol\":716:728  return false */\n      swap2\n      pop\n      pop\n      jump(tag_10)\n        /* \"TicTacToe/src/TicTacToe.sol\":695:728  if(board[i][i] != 1) return false */\n    tag_19:\n        /* \"TicTacToe/src/TicTacToe.sol\":559:562  i++ */\n      dup1\n      dup1\n      tag_20\n      swap1\n      tag_21\n      jump\t// in\n    tag_20:\n      swap2\n      pop\n      pop\n        /* \"TicTacToe/src/TicTacToe.sol\":528:739  for(uint8 i=0; i<board.length; i++){... */\n      jump(tag_11)\n    tag_12:\n      pop\n        /* \"TicTacToe/src/TicTacToe.sol\":755:759  true */\n      0x01\n        /* \"TicTacToe/src/TicTacToe.sol\":748:759  return true */\n      swap1\n      pop\n        /* \"TicTacToe/src/TicTacToe.sol\":446:766  function isWinning(uint8[3][3] memory board) public pure returns (bool) {... */\n    tag_10:\n      swap2\n      swap1\n      pop\n      jump\t// out\n        /* \"#utility.yul\":7:82   */\n    tag_22:\n        /* \"#utility.yul\":40:46   */\n      0x00\n        /* \"#utility.yul\":73:75   */\n      0x40\n        /* \"#utility.yul\":67:76   */\n      mload\n        /* \"#utility.yul\":57:76   */\n      swap1\n      pop\n        /* \"#utility.yul\":7:82   */\n      swap1\n      jump\t// out\n        /* \"#utility.yul\":88:205   */\n    tag_23:\n        /* \"#utility.yul\":197:198   */\n      0x00\n        /* \"#utility.yul\":194:195   */\n      dup1\n        /* \"#utility.yul\":187:199   */\n      revert\n        /* \"#utility.yul\":334:451   */\n    tag_25:\n        /* \"#utility.yul\":443:444   */\n      0x00\n        /* \"#utility.yul\":440:441   */\n      dup1\n        /* \"#utility.yul\":433:445   */\n      revert\n        /* \"#utility.yul\":457:559   */\n    tag_26:\n        /* \"#utility.yul\":498:504   */\n      0x00\n        /* \"#utility.yul\":549:551   */\n      0x1f\n        /* \"#utility.yul\":545:552   */\n      not\n        /* \"#utility.yul\":540:542   */\n      0x1f\n        /* \"#utility.yul\":533:538   */\n      dup4\n        /* \"#utility.yul\":529:543   */\n      add\n        /* \"#utility.yul\":525:553   */\n      and\n        /* \"#utility.yul\":515:553   */\n      swap1\n      pop\n        /* \"#utility.yul\":457:559   */\n      swap2\n      swap1\n      pop\n      jump\t// out\n        /* \"#utility.yul\":565:745   */\n    tag_27:\n        /* \"#utility.yul\":613:690   */\n      0x4e487b7100000000000000000000000000000000000000000000000000000000\n        /* \"#utility.yul\":610:611   */\n      0x00\n        /* \"#utility.yul\":603:691   */\n      mstore\n        /* \"#utility.yul\":710:714   */\n      0x41\n        /* \"#utility.yul\":707:708   */\n      0x04\n        /* \"#utility.yul\":700:715   */\n      mstore\n        /* \"#utility.yul\":734:738   */\n      0x24\n        /* \"#utility.yul\":731:732   */\n      0x00\n        /* \"#utility.yul\":724:739   */\n      revert\n        /* \"#utility.yul\":751:1032   */\n    tag_28:\n        /* \"#utility.yul\":834:861   */\n      tag_51\n        /* \"#utility.yul\":856:860   */\n      dup3\n        /* \"#utility.yul\":834:861   */\n      tag_26\n      jump\t// in\n    tag_51:\n        /* \"#utility.yul\":826:832   */\n      dup2\n        /* \"#utility.yul\":822:862   */\n      add\n        /* \"#utility.yul\":964:970   */\n      dup2\n        /* \"#utility.yul\":952:962   */\n      dup2\n        /* \"#utility.yul\":949:971   */\n      lt\n        /* \"#utility.yul\":928:946   */\n      0xffffffffffffffff\n        /* \"#utility.yul\":916:926   */\n      dup3\n        /* \"#utility.yul\":913:947   */\n      gt\n        /* \"#utility.yul\":910:972   */\n      or\n        /* \"#utility.yul\":907:995   */\n      iszero\n      tag_52\n      jumpi\n        /* \"#utility.yul\":975:993   */\n      tag_53\n      tag_27\n      jump\t// in\n    tag_53:\n        /* \"#utility.yul\":907:995   */\n    tag_52:\n        /* \"#utility.yul\":1015:1025   */\n      dup1\n        /* \"#utility.yul\":1011:1013   */\n      0x40\n        /* \"#utility.yul\":1004:1026   */\n      mstore\n        /* \"#utility.yul\":794:1032   */\n      pop\n        /* \"#utility.yul\":751:1032   */\n      pop\n      pop\n      jump\t// out\n        /* \"#utility.yul\":1038:1167   */\n    tag_29:\n        /* \"#utility.yul\":1072:1078   */\n      0x00\n        /* \"#utility.yul\":1099:1119   */\n      tag_55\n      tag_22\n      jump\t// in\n    tag_55:\n        /* \"#utility.yul\":1089:1119   */\n      swap1\n      pop\n        /* \"#utility.yul\":1128:1161   */\n      tag_56\n        /* \"#utility.yul\":1156:1160   */\n      dup3\n        /* \"#utility.yul\":1148:1154   */\n      dup3\n        /* \"#utility.yul\":1128:1161   */\n      tag_28\n      jump\t// in\n    tag_56:\n        /* \"#utility.yul\":1038:1167   */\n      swap2\n      swap1\n      pop\n      jump\t// out\n        /* \"#utility.yul\":1173:1443   */\n    tag_30:\n        /* \"#utility.yul\":1269:1273   */\n      0x00\n        /* \"#utility.yul\":1359:1377   */\n      0xffffffffffffffff\n        /* \"#utility.yul\":1351:1357   */\n      dup3\n        /* \"#utility.yul\":1348:1378   */\n      gt\n        /* \"#utility.yul\":1345:1401   */\n      iszero\n      tag_58\n      jumpi\n        /* \"#utility.yul\":1381:1399   */\n      tag_59\n      tag_27\n      jump\t// in\n    tag_59:\n        /* \"#utility.yul\":1345:1401   */\n    tag_58:\n        /* \"#utility.yul\":1431:1435   */\n      0x20\n        /* \"#utility.yul\":1423:1429   */\n      dup3\n        /* \"#utility.yul\":1419:1436   */\n      mul\n        /* \"#utility.yul\":1411:1436   */\n      swap1\n      pop\n        /* \"#utility.yul\":1173:1443   */\n      swap2\n      swap1\n      pop\n      jump\t// out\n        /* \"#utility.yul\":1449:1566   */\n    tag_31:\n        /* \"#utility.yul\":1558:1559   */\n      0x00\n        /* \"#utility.yul\":1555:1556   */\n      dup1\n        /* \"#utility.yul\":1548:1560   */\n      revert\n        /* \"#utility.yul\":1572:1819   */\n    tag_32:\n        /* \"#utility.yul\":1645:1649   */\n      0x00\n        /* \"#utility.yul\":1735:1753   */\n      0xffffffffffffffff\n        /* \"#utility.yul\":1727:1733   */\n      dup3\n        /* \"#utility.yul\":1724:1754   */\n      gt\n        /* \"#utility.yul\":1721:1777   */\n      iszero\n      tag_62\n      jumpi\n        /* \"#utility.yul\":1757:1775   */\n      tag_63\n      tag_27\n      jump\t// in\n    tag_63:\n        /* \"#utility.yul\":1721:1777   */\n    tag_62:\n        /* \"#utility.yul\":1807:1811   */\n      0x20\n        /* \"#utility.yul\":1799:1805   */\n      dup3\n        /* \"#utility.yul\":1795:1812   */\n      mul\n        /* \"#utility.yul\":1787:1812   */\n      swap1\n      pop\n        /* \"#utility.yul\":1572:1819   */\n      swap2\n      swap1\n      pop\n      jump\t// out\n        /* \"#utility.yul\":1825:1911   */\n    tag_33:\n        /* \"#utility.yul\":1860:1867   */\n      0x00\n        /* \"#utility.yul\":1900:1904   */\n      0xff\n        /* \"#utility.yul\":1893:1898   */\n      dup3\n        /* \"#utility.yul\":1889:1905   */\n      and\n        /* \"#utility.yul\":1878:1905   */\n      swap1\n      pop\n        /* \"#utility.yul\":1825:1911   */\n      swap2\n      swap1\n      pop\n      jump\t// out\n        /* \"#utility.yul\":1917:2035   */\n    tag_34:\n        /* \"#utility.yul\":1988:2010   */\n      tag_66\n        /* \"#utility.yul\":2004:2009   */\n      dup2\n        /* \"#utility.yul\":1988:2010   */\n      tag_33\n      jump\t// in\n    tag_66:\n        /* \"#utility.yul\":1981:1986   */\n      dup2\n        /* \"#utility.yul\":1978:2011   */\n      eq\n        /* \"#utility.yul\":1968:2029   */\n      tag_67\n      jumpi\n        /* \"#utility.yul\":2025:2026   */\n      0x00\n        /* \"#utility.yul\":2022:2023   */\n      dup1\n        /* \"#utility.yul\":2015:2027   */\n      revert\n        /* \"#utility.yul\":1968:2029   */\n    tag_67:\n        /* \"#utility.yul\":1917:2035   */\n      pop\n      jump\t// out\n        /* \"#utility.yul\":2041:2176   */\n    tag_35:\n        /* \"#utility.yul\":2085:2090   */\n      0x00\n        /* \"#utility.yul\":2123:2129   */\n      dup2\n        /* \"#utility.yul\":2110:2130   */\n      calldataload\n        /* \"#utility.yul\":2101:2130   */\n      swap1\n      pop\n        /* \"#utility.yul\":2139:2170   */\n      tag_69\n        /* \"#utility.yul\":2164:2169   */\n      dup2\n        /* \"#utility.yul\":2139:2170   */\n      tag_34\n      jump\t// in\n    tag_69:\n        /* \"#utility.yul\":2041:2176   */\n      swap3\n      swap2\n      pop\n      pop\n      jump\t// out\n        /* \"#utility.yul\":2198:2835   */\n    tag_36:\n        /* \"#utility.yul\":2290:2295   */\n      0x00\n        /* \"#utility.yul\":2315:2392   */\n      tag_71\n        /* \"#utility.yul\":2331:2391   */\n      tag_72\n        /* \"#utility.yul\":2384:2390   */\n      dup5\n        /* \"#utility.yul\":2331:2391   */\n      tag_32\n      jump\t// in\n    tag_72:\n        /* \"#utility.yul\":2315:2392   */\n      tag_29\n      jump\t// in\n    tag_71:\n        /* \"#utility.yul\":2306:2392   */\n      swap1\n      pop\n        /* \"#utility.yul\":2412:2417   */\n      dup1\n        /* \"#utility.yul\":2465:2469   */\n      0x20\n        /* \"#utility.yul\":2457:2463   */\n      dup5\n        /* \"#utility.yul\":2453:2470   */\n      mul\n        /* \"#utility.yul\":2445:2451   */\n      dup4\n        /* \"#utility.yul\":2441:2471   */\n      add\n        /* \"#utility.yul\":2494:2497   */\n      dup6\n        /* \"#utility.yul\":2486:2492   */\n      dup2\n        /* \"#utility.yul\":2483:2498   */\n      gt\n        /* \"#utility.yul\":2480:2602   */\n      iszero\n      tag_73\n      jumpi\n        /* \"#utility.yul\":2513:2592   */\n      tag_74\n      tag_31\n      jump\t// in\n    tag_74:\n        /* \"#utility.yul\":2480:2602   */\n    tag_73:\n        /* \"#utility.yul\":2628:2634   */\n      dup4\n        /* \"#utility.yul\":2611:2829   */\n    tag_75:\n        /* \"#utility.yul\":2645:2651   */\n      dup2\n        /* \"#utility.yul\":2640:2643   */\n      dup2\n        /* \"#utility.yul\":2637:2652   */\n      lt\n        /* \"#utility.yul\":2611:2829   */\n      iszero\n      tag_77\n      jumpi\n        /* \"#utility.yul\":2720:2723   */\n      dup1\n        /* \"#utility.yul\":2749:2784   */\n      tag_78\n        /* \"#utility.yul\":2780:2783   */\n      dup9\n        /* \"#utility.yul\":2768:2778   */\n      dup3\n        /* \"#utility.yul\":2749:2784   */\n      tag_35\n      jump\t// in\n    tag_78:\n        /* \"#utility.yul\":2744:2747   */\n      dup5\n        /* \"#utility.yul\":2737:2785   */\n      mstore\n        /* \"#utility.yul\":2814:2818   */\n      0x20\n        /* \"#utility.yul\":2809:2812   */\n      dup5\n        /* \"#utility.yul\":2805:2819   */\n      add\n        /* \"#utility.yul\":2798:2819   */\n      swap4\n      pop\n        /* \"#utility.yul\":2687:2829   */\n      pop\n        /* \"#utility.yul\":2671:2675   */\n      0x20\n        /* \"#utility.yul\":2666:2669   */\n      dup2\n        /* \"#utility.yul\":2662:2676   */\n      add\n        /* \"#utility.yul\":2655:2676   */\n      swap1\n      pop\n        /* \"#utility.yul\":2611:2829   */\n      jump(tag_75)\n    tag_77:\n        /* \"#utility.yul\":2615:2636   */\n      pop\n        /* \"#utility.yul\":2296:2835   */\n      pop\n      pop\n        /* \"#utility.yul\":2198:2835   */\n      swap4\n      swap3\n      pop\n      pop\n      pop\n      jump\t// out\n        /* \"#utility.yul\":2857:3192   */\n    tag_37:\n        /* \"#utility.yul\":2924:2929   */\n      0x00\n        /* \"#utility.yul\":2973:2976   */\n      dup3\n        /* \"#utility.yul\":2966:2970   */\n      0x1f\n        /* \"#utility.yul\":2958:2964   */\n      dup4\n        /* \"#utility.yul\":2954:2971   */\n      add\n        /* \"#utility.yul\":2950:2977   */\n      slt\n        /* \"#utility.yul\":2940:3062   */\n      tag_80\n      jumpi\n        /* \"#utility.yul\":2981:3060   */\n      tag_81\n      tag_25\n      jump\t// in\n    tag_81:\n        /* \"#utility.yul\":2940:3062   */\n    tag_80:\n        /* \"#utility.yul\":3085:3089   */\n      0x03\n        /* \"#utility.yul\":3107:3186   */\n      tag_82\n        /* \"#utility.yul\":3182:3185   */\n      dup5\n        /* \"#utility.yul\":3174:3180   */\n      dup3\n        /* \"#utility.yul\":3166:3172   */\n      dup6\n        /* \"#utility.yul\":3107:3186   */\n      tag_36\n      jump\t// in\n    tag_82:\n        /* \"#utility.yul\":3098:3186   */\n      swap2\n      pop\n        /* \"#utility.yul\":2930:3192   */\n      pop\n        /* \"#utility.yul\":2857:3192   */\n      swap3\n      swap2\n      pop\n      pop\n      jump\t// out\n        /* \"#utility.yul\":3217:3923   */\n    tag_38:\n        /* \"#utility.yul\":3332:3337   */\n      0x00\n        /* \"#utility.yul\":3357:3457   */\n      tag_84\n        /* \"#utility.yul\":3373:3456   */\n      tag_85\n        /* \"#utility.yul\":3449:3455   */\n      dup5\n        /* \"#utility.yul\":3373:3456   */\n      tag_30\n      jump\t// in\n    tag_85:\n        /* \"#utility.yul\":3357:3457   */\n      tag_29\n      jump\t// in\n    tag_84:\n        /* \"#utility.yul\":3348:3457   */\n      swap1\n      pop\n        /* \"#utility.yul\":3477:3482   */\n      dup1\n        /* \"#utility.yul\":3530:3534   */\n      0x60\n        /* \"#utility.yul\":3522:3528   */\n      dup5\n        /* \"#utility.yul\":3518:3535   */\n      mul\n        /* \"#utility.yul\":3510:3516   */\n      dup4\n        /* \"#utility.yul\":3506:3536   */\n      add\n        /* \"#utility.yul\":3559:3562   */\n      dup6\n        /* \"#utility.yul\":3551:3557   */\n      dup2\n        /* \"#utility.yul\":3548:3563   */\n      gt\n        /* \"#utility.yul\":3545:3667   */\n      iszero\n      tag_86\n      jumpi\n        /* \"#utility.yul\":3578:3657   */\n      tag_87\n      tag_31\n      jump\t// in\n    tag_87:\n        /* \"#utility.yul\":3545:3667   */\n    tag_86:\n        /* \"#utility.yul\":3693:3699   */\n      dup4\n        /* \"#utility.yul\":3676:3917   */\n    tag_88:\n        /* \"#utility.yul\":3710:3716   */\n      dup2\n        /* \"#utility.yul\":3705:3708   */\n      dup2\n        /* \"#utility.yul\":3702:3717   */\n      lt\n        /* \"#utility.yul\":3676:3917   */\n      iszero\n      tag_90\n      jumpi\n        /* \"#utility.yul\":3785:3788   */\n      dup1\n        /* \"#utility.yul\":3814:3872   */\n      tag_91\n        /* \"#utility.yul\":3868:3871   */\n      dup9\n        /* \"#utility.yul\":3856:3866   */\n      dup3\n        /* \"#utility.yul\":3814:3872   */\n      tag_37\n      jump\t// in\n    tag_91:\n        /* \"#utility.yul\":3809:3812   */\n      dup5\n        /* \"#utility.yul\":3802:3873   */\n      mstore\n        /* \"#utility.yul\":3902:3906   */\n      0x20\n        /* \"#utility.yul\":3897:3900   */\n      dup5\n        /* \"#utility.yul\":3893:3907   */\n      add\n        /* \"#utility.yul\":3886:3907   */\n      swap4\n      pop\n        /* \"#utility.yul\":3752:3917   */\n      pop\n        /* \"#utility.yul\":3736:3740   */\n      0x60\n        /* \"#utility.yul\":3731:3734   */\n      dup2\n        /* \"#utility.yul\":3727:3741   */\n      add\n        /* \"#utility.yul\":3720:3741   */\n      swap1\n      pop\n        /* \"#utility.yul\":3676:3917   */\n      jump(tag_88)\n    tag_90:\n        /* \"#utility.yul\":3680:3701   */\n      pop\n        /* \"#utility.yul\":3338:3923   */\n      pop\n      pop\n        /* \"#utility.yul\":3217:3923   */\n      swap4\n      swap3\n      pop\n      pop\n      pop\n      jump\t// out\n        /* \"#utility.yul\":3948:4329   */\n    tag_39:\n        /* \"#utility.yul\":4038:4043   */\n      0x00\n        /* \"#utility.yul\":4087:4090   */\n      dup3\n        /* \"#utility.yul\":4080:4084   */\n      0x1f\n        /* \"#utility.yul\":4072:4078   */\n      dup4\n        /* \"#utility.yul\":4068:4085   */\n      add\n        /* \"#utility.yul\":4064:4091   */\n      slt\n        /* \"#utility.yul\":4054:4176   */\n      tag_93\n      jumpi\n        /* \"#utility.yul\":4095:4174   */\n      tag_94\n      tag_25\n      jump\t// in\n    tag_94:\n        /* \"#utility.yul\":4054:4176   */\n    tag_93:\n        /* \"#utility.yul\":4199:4203   */\n      0x03\n        /* \"#utility.yul\":4221:4323   */\n      tag_95\n        /* \"#utility.yul\":4319:4322   */\n      dup5\n        /* \"#utility.yul\":4311:4317   */\n      dup3\n        /* \"#utility.yul\":4303:4309   */\n      dup6\n        /* \"#utility.yul\":4221:4323   */\n      tag_38\n      jump\t// in\n    tag_95:\n        /* \"#utility.yul\":4212:4323   */\n      swap2\n      pop\n        /* \"#utility.yul\":4044:4329   */\n      pop\n        /* \"#utility.yul\":3948:4329   */\n      swap3\n      swap2\n      pop\n      pop\n      jump\t// out\n        /* \"#utility.yul\":4335:4753   */\n    tag_6:\n        /* \"#utility.yul\":4438:4444   */\n      0x00\n        /* \"#utility.yul\":4487:4490   */\n      0x0120\n        /* \"#utility.yul\":4475:4484   */\n      dup3\n        /* \"#utility.yul\":4466:4473   */\n      dup5\n        /* \"#utility.yul\":4462:4485   */\n      sub\n        /* \"#utility.yul\":4458:4491   */\n      slt\n        /* \"#utility.yul\":4455:4575   */\n      iszero\n      tag_97\n      jumpi\n        /* \"#utility.yul\":4494:4573   */\n      tag_98\n      tag_23\n      jump\t// in\n    tag_98:\n        /* \"#utility.yul\":4455:4575   */\n    tag_97:\n        /* \"#utility.yul\":4614:4615   */\n      0x00\n        /* \"#utility.yul\":4639:4736   */\n      tag_99\n        /* \"#utility.yul\":4728:4735   */\n      dup5\n        /* \"#utility.yul\":4719:4725   */\n      dup3\n        /* \"#utility.yul\":4708:4717   */\n      dup6\n        /* \"#utility.yul\":4704:4726   */\n      add\n        /* \"#utility.yul\":4639:4736   */\n      tag_39\n      jump\t// in\n    tag_99:\n        /* \"#utility.yul\":4629:4736   */\n      swap2\n      pop\n        /* \"#utility.yul\":4585:4746   */\n      pop\n        /* \"#utility.yul\":4335:4753   */\n      swap3\n      swap2\n      pop\n      pop\n      jump\t// out\n        /* \"#utility.yul\":4759:4849   */\n    tag_40:\n        /* \"#utility.yul\":4793:4800   */\n      0x00\n        /* \"#utility.yul\":4836:4841   */\n      dup2\n        /* \"#utility.yul\":4829:4842   */\n      iszero\n        /* \"#utility.yul\":4822:4843   */\n      iszero\n        /* \"#utility.yul\":4811:4843   */\n      swap1\n      pop\n        /* \"#utility.yul\":4759:4849   */\n      swap2\n      swap1\n      pop\n      jump\t// out\n        /* \"#utility.yul\":4855:4964   */\n    tag_41:\n        /* \"#utility.yul\":4936:4957   */\n      tag_102\n        /* \"#utility.yul\":4951:4956   */\n      dup2\n        /* \"#utility.yul\":4936:4957   */\n      tag_40\n      jump\t// in\n    tag_102:\n        /* \"#utility.yul\":4931:4934   */\n      dup3\n        /* \"#utility.yul\":4924:4958   */\n      mstore\n        /* \"#utility.yul\":4855:4964   */\n      pop\n      pop\n      jump\t// out\n        /* \"#utility.yul\":4970:5180   */\n    tag_9:\n        /* \"#utility.yul\":5057:5061   */\n      0x00\n        /* \"#utility.yul\":5095:5097   */\n      0x20\n        /* \"#utility.yul\":5084:5093   */\n      dup3\n        /* \"#utility.yul\":5080:5098   */\n      add\n        /* \"#utility.yul\":5072:5098   */\n      swap1\n      pop\n        /* \"#utility.yul\":5108:5173   */\n      tag_104\n        /* \"#utility.yul\":5170:5171   */\n      0x00\n        /* \"#utility.yul\":5159:5168   */\n      dup4\n        /* \"#utility.yul\":5155:5172   */\n      add\n        /* \"#utility.yul\":5146:5152   */\n      dup5\n        /* \"#utility.yul\":5108:5173   */\n      tag_41\n      jump\t// in\n    tag_104:\n        /* \"#utility.yul\":4970:5180   */\n      swap3\n      swap2\n      pop\n      pop\n      jump\t// out\n        /* \"#utility.yul\":5186:5366   */\n    tag_16:\n        /* \"#utility.yul\":5234:5311   */\n      0x4e487b7100000000000000000000000000000000000000000000000000000000\n        /* \"#utility.yul\":5231:5232   */\n      0x00\n        /* \"#utility.yul\":5224:5312   */\n      mstore\n        /* \"#utility.yul\":5331:5335   */\n      0x32\n        /* \"#utility.yul\":5328:5329   */\n      0x04\n        /* \"#utility.yul\":5321:5336   */\n      mstore\n        /* \"#utility.yul\":5355:5359   */\n      0x24\n        /* \"#utility.yul\":5352:5353   */\n      0x00\n        /* \"#utility.yul\":5345:5360   */\n      revert\n        /* \"#utility.yul\":5372:5552   */\n    tag_42:\n        /* \"#utility.yul\":5420:5497   */\n      0x4e487b7100000000000000000000000000000000000000000000000000000000\n        /* \"#utility.yul\":5417:5418   */\n      0x00\n        /* \"#utility.yul\":5410:5498   */\n      mstore\n        /* \"#utility.yul\":5517:5521   */\n      0x11\n        /* \"#utility.yul\":5514:5515   */\n      0x04\n        /* \"#utility.yul\":5507:5522   */\n      mstore\n        /* \"#utility.yul\":5541:5545   */\n      0x24\n        /* \"#utility.yul\":5538:5539   */\n      0x00\n        /* \"#utility.yul\":5531:5546   */\n      revert\n        /* \"#utility.yul\":5558:5725   */\n    tag_21:\n        /* \"#utility.yul\":5595:5598   */\n      0x00\n        /* \"#utility.yul\":5618:5640   */\n      tag_108\n        /* \"#utility.yul\":5634:5639   */\n      dup3\n        /* \"#utility.yul\":5618:5640   */\n      tag_33\n      jump\t// in\n    tag_108:\n        /* \"#utility.yul\":5609:5640   */\n      swap2\n      pop\n        /* \"#utility.yul\":5662:5666   */\n      0xff\n        /* \"#utility.yul\":5655:5660   */\n      dup3\n        /* \"#utility.yul\":5652:5667   */\n      sub\n        /* \"#utility.yul\":5649:5690   */\n      tag_109\n      jumpi\n        /* \"#utility.yul\":5670:5688   */\n      tag_110\n      tag_42\n      jump\t// in\n    tag_110:\n        /* \"#utility.yul\":5649:5690   */\n    tag_109:\n        /* \"#utility.yul\":5717:5718   */\n      0x01\n        /* \"#utility.yul\":5710:5715   */\n      dup3\n        /* \"#utility.yul\":5706:5719   */\n      add\n        /* \"#utility.yul\":5699:5719   */\n      swap1\n      pop\n        /* \"#utility.yul\":5558:5725   */\n      swap2\n      swap1\n      pop\n      jump\t// out\n\n    auxdata: 0xa264697066735822122024b74136999316bb5795fc5e80642330389036a503aa98cdfb97afcc1dbc8a1064736f6c634300081a0033\n}\n",
				"bytecode": {
					"linkReferences": {},
					"object": "6080604052348015600e575f80fd5b5061041b8061001c5f395ff3fe608060405234801561000f575f80fd5b5060043610610029575f3560e01c8063d4edca961461002d575b5f80fd5b61004760048036038101906100429190610304565b61005d565b604051610054919061034a565b60405180910390f35b5f805f90505b60038160ff1610156100ca576001838260ff166003811061008757610086610363565b5b60200201518260ff16600381106100a1576100a0610363565b5b602002015160ff16146100b7575f9150506100d0565b80806100c2906103bd565b915050610063565b50600190505b919050565b5f604051905090565b5f80fd5b5f80fd5b5f601f19601f8301169050919050565b7f4e487b71000000000000000000000000000000000000000000000000000000005f52604160045260245ffd5b61012c826100e6565b810181811067ffffffffffffffff8211171561014b5761014a6100f6565b5b80604052505050565b5f61015d6100d5565b90506101698282610123565b919050565b5f67ffffffffffffffff821115610188576101876100f6565b5b602082029050919050565b5f80fd5b5f67ffffffffffffffff8211156101b1576101b06100f6565b5b602082029050919050565b5f60ff82169050919050565b6101d1816101bc565b81146101db575f80fd5b50565b5f813590506101ec816101c8565b92915050565b5f6102046101ff84610197565b610154565b9050806020840283018581111561021e5761021d610193565b5b835b81811015610247578061023388826101de565b845260208401935050602081019050610220565b5050509392505050565b5f82601f830112610265576102646100e2565b5b60036102728482856101f2565b91505092915050565b5f61028d6102888461016e565b610154565b905080606084028301858111156102a7576102a6610193565b5b835b818110156102d057806102bc8882610251565b8452602084019350506060810190506102a9565b5050509392505050565b5f82601f8301126102ee576102ed6100e2565b5b60036102fb84828561027b565b91505092915050565b5f610120828403121561031a576103196100de565b5b5f610327848285016102da565b91505092915050565b5f8115159050919050565b61034481610330565b82525050565b5f60208201905061035d5f83018461033b565b92915050565b7f4e487b71000000000000000000000000000000000000000000000000000000005f52603260045260245ffd5b7f4e487b71000000000000000000000000000000000000000000000000000000005f52601160045260245ffd5b5f6103c7826101bc565b915060ff82036103da576103d9610390565b5b60018201905091905056fea264697066735822122024b74136999316bb5795fc5e80642330389036a503aa98cdfb97afcc1dbc8a1064736f6c634300081a0033",
					"opcodes": "PUSH1 0x80 PUSH1 0x40 MSTORE CALLVALUE DUP1 ISZERO PUSH1 0xE JUMPI PUSH0 DUP1 REVERT JUMPDEST POP PUSH2 0x41B DUP1 PUSH2 0x1C PUSH0 CODECOPY PUSH0 RETURN INVALID PUSH1 0x80 PUSH1 0x40 MSTORE CALLVALUE DUP1 ISZERO PUSH2 0xF JUMPI PUSH0 DUP1 REVERT JUMPDEST POP PUSH1 0x4 CALLDATASIZE LT PUSH2 0x29 JUMPI PUSH0 CALLDATALOAD PUSH1 0xE0 SHR DUP1 PUSH4 0xD4EDCA96 EQ PUSH2 0x2D JUMPI JUMPDEST PUSH0 DUP1 REVERT JUMPDEST PUSH2 0x47 PUSH1 0x4 DUP1 CALLDATASIZE SUB DUP2 ADD SWAP1 PUSH2 0x42 SWAP2 SWAP1 PUSH2 0x304 JUMP JUMPDEST PUSH2 0x5D JUMP JUMPDEST PUSH1 0x40 MLOAD PUSH2 0x54 SWAP2 SWAP1 PUSH2 0x34A JUMP JUMPDEST PUSH1 0x40 MLOAD DUP1 SWAP2 SUB SWAP1 RETURN JUMPDEST PUSH0 DUP1 PUSH0 SWAP1 POP JUMPDEST PUSH1 0x3 DUP2 PUSH1 0xFF AND LT ISZERO PUSH2 0xCA JUMPI PUSH1 0x1 DUP4 DUP3 PUSH1 0xFF AND PUSH1 0x3 DUP2 LT PUSH2 0x87 JUMPI PUSH2 0x86 PUSH2 0x363 JUMP JUMPDEST JUMPDEST PUSH1 0x20 MUL ADD MLOAD DUP3 PUSH1 0xFF AND PUSH1 0x3 DUP2 LT PUSH2 0xA1 JUMPI PUSH2 0xA0 PUSH2 0x363 JUMP JUMPDEST JUMPDEST PUSH1 0x20 MUL ADD MLOAD PUSH1 0xFF AND EQ PUSH2 0xB7 JUMPI PUSH0 SWAP2 POP POP PUSH2 0xD0 JUMP JUMPDEST DUP1 DUP1 PUSH2 0xC2 SWAP1 PUSH2 0x3BD JUMP JUMPDEST SWAP2 POP POP PUSH2 0x63 JUMP JUMPDEST POP PUSH1 0x1 SWAP1 POP JUMPDEST SWAP2 SWAP1 POP JUMP JUMPDEST PUSH0 PUSH1 0x40 MLOAD SWAP1 POP SWAP1 JUMP JUMPDEST PUSH0 DUP1 REVERT JUMPDEST PUSH0 DUP1 REVERT JUMPDEST PUSH0 PUSH1 0x1F NOT PUSH1 0x1F DUP4 ADD AND SWAP1 POP SWAP2 SWAP1 POP JUMP JUMPDEST PUSH32 0x4E487B7100000000000000000000000000000000000000000000000000000000 PUSH0 MSTORE PUSH1 0x41 PUSH1 0x4 MSTORE PUSH1 0x24 PUSH0 REVERT JUMPDEST PUSH2 0x12C DUP3 PUSH2 0xE6 JUMP JUMPDEST DUP2 ADD DUP2 DUP2 LT PUSH8 0xFFFFFFFFFFFFFFFF DUP3 GT OR ISZERO PUSH2 0x14B JUMPI PUSH2 0x14A PUSH2 0xF6 JUMP JUMPDEST JUMPDEST DUP1 PUSH1 0x40 MSTORE POP POP POP JUMP JUMPDEST PUSH0 PUSH2 0x15D PUSH2 0xD5 JUMP JUMPDEST SWAP1 POP PUSH2 0x169 DUP3 DUP3 PUSH2 0x123 JUMP JUMPDEST SWAP2 SWAP1 POP JUMP JUMPDEST PUSH0 PUSH8 0xFFFFFFFFFFFFFFFF DUP3 GT ISZERO PUSH2 0x188 JUMPI PUSH2 0x187 PUSH2 0xF6 JUMP JUMPDEST JUMPDEST PUSH1 0x20 DUP3 MUL SWAP1 POP SWAP2 SWAP1 POP JUMP JUMPDEST PUSH0 DUP1 REVERT JUMPDEST PUSH0 PUSH8 0xFFFFFFFFFFFFFFFF DUP3 GT ISZERO PUSH2 0x1B1 JUMPI PUSH2 0x1B0 PUSH2 0xF6 JUMP JUMPDEST JUMPDEST PUSH1 0x20 DUP3 MUL SWAP1 POP SWAP2 SWAP1 POP JUMP JUMPDEST PUSH0 PUSH1 0xFF DUP3 AND SWAP1 POP SWAP2 SWAP1 POP JUMP JUMPDEST PUSH2 0x1D1 DUP2 PUSH2 0x1BC JUMP JUMPDEST DUP2 EQ PUSH2 0x1DB JUMPI PUSH0 DUP1 REVERT JUMPDEST POP JUMP JUMPDEST PUSH0 DUP2 CALLDATALOAD SWAP1 POP PUSH2 0x1EC DUP2 PUSH2 0x1C8 JUMP JUMPDEST SWAP3 SWAP2 POP POP JUMP JUMPDEST PUSH0 PUSH2 0x204 PUSH2 0x1FF DUP5 PUSH2 0x197 JUMP JUMPDEST PUSH2 0x154 JUMP JUMPDEST SWAP1 POP DUP1 PUSH1 0x20 DUP5 MUL DUP4 ADD DUP6 DUP2 GT ISZERO PUSH2 0x21E JUMPI PUSH2 0x21D PUSH2 0x193 JUMP JUMPDEST JUMPDEST DUP4 JUMPDEST DUP2 DUP2 LT ISZERO PUSH2 0x247 JUMPI DUP1 PUSH2 0x233 DUP9 DUP3 PUSH2 0x1DE JUMP JUMPDEST DUP5 MSTORE PUSH1 0x20 DUP5 ADD SWAP4 POP POP PUSH1 0x20 DUP2 ADD SWAP1 POP PUSH2 0x220 JUMP JUMPDEST POP POP POP SWAP4 SWAP3 POP POP POP JUMP JUMPDEST PUSH0 DUP3 PUSH1 0x1F DUP4 ADD SLT PUSH2 0x265 JUMPI PUSH2 0x264 PUSH2 0xE2 JUMP JUMPDEST JUMPDEST PUSH1 0x3 PUSH2 0x272 DUP5 DUP3 DUP6 PUSH2 0x1F2 JUMP JUMPDEST SWAP2 POP POP SWAP3 SWAP2 POP POP JUMP JUMPDEST PUSH0 PUSH2 0x28D PUSH2 0x288 DUP5 PUSH2 0x16E JUMP JUMPDEST PUSH2 0x154 JUMP JUMPDEST SWAP1 POP DUP1 PUSH1 0x60 DUP5 MUL DUP4 ADD DUP6 DUP2 GT ISZERO PUSH2 0x2A7 JUMPI PUSH2 0x2A6 PUSH2 0x193 JUMP JUMPDEST JUMPDEST DUP4 JUMPDEST DUP2 DUP2 LT ISZERO PUSH2 0x2D0 JUMPI DUP1 PUSH2 0x2BC DUP9 DUP3 PUSH2 0x251 JUMP JUMPDEST DUP5 MSTORE PUSH1 0x20 DUP5 ADD SWAP4 POP POP PUSH1 0x60 DUP2 ADD SWAP1 POP PUSH2 0x2A9 JUMP JUMPDEST POP POP POP SWAP4 SWAP3 POP POP POP JUMP JUMPDEST PUSH0 DUP3 PUSH1 0x1F DUP4 ADD SLT PUSH2 0x2EE JUMPI PUSH2 0x2ED PUSH2 0xE2 JUMP JUMPDEST JUMPDEST PUSH1 0x3 PUSH2 0x2FB DUP5 DUP3 DUP6 PUSH2 0x27B JUMP JUMPDEST SWAP2 POP POP SWAP3 SWAP2 POP POP JUMP JUMPDEST PUSH0 PUSH2 0x120 DUP3 DUP5 SUB SLT ISZERO PUSH2 0x31A JUMPI PUSH2 0x319 PUSH2 0xDE JUMP JUMPDEST JUMPDEST PUSH0 PUSH2 0x327 DUP5 DUP3 DUP6 ADD PUSH2 0x2DA JUMP JUMPDEST SWAP2 POP POP SWAP3 SWAP2 POP POP JUMP JUMPDEST PUSH0 DUP2 ISZERO ISZERO SWAP1 POP SWAP2 SWAP1 POP JUMP JUMPDEST PUSH2 0x344 DUP2 PUSH2 0x330 JUMP JUMPDEST DUP3 MSTORE POP POP JUMP JUMPDEST PUSH0 PUSH1 0x20 DUP3 ADD SWAP1 POP PUSH2 0x35D PUSH0 DUP4 ADD DUP5 PUSH2 0x33B JUMP JUMPDEST SWAP3 SWAP2 POP POP JUMP JUMPDEST PUSH32 0x4E487B7100000000000000000000000000000000000000000000000000000000 PUSH0 MSTORE PUSH1 0x32 PUSH1 0x4 MSTORE PUSH1 0x24 PUSH0 REVERT JUMPDEST PUSH32 0x4E487B7100000000000000000000000000000000000000000000000000000000 PUSH0 MSTORE PUSH1 0x11 PUSH1 0x4 MSTORE PUSH1 0x24 PUSH0 REVERT JUMPDEST PUSH0 PUSH2 0x3C7 DUP3 PUSH2 0x1BC JUMP JUMPDEST SWAP2 POP PUSH1 0xFF DUP3 SUB PUSH2 0x3DA JUMPI PUSH2 0x3D9 PUSH2 0x390 JUMP JUMPDEST JUMPDEST PUSH1 0x1 DUP3 ADD SWAP1 POP SWAP2 SWAP1 POP JUMP INVALID LOG2 PUSH5 0x6970667358 0x22 SLT KECCAK256 0x24 0xB7 COINBASE CALLDATASIZE SWAP10 SWAP4 AND 0xBB JUMPI SWAP6 0xFC MCOPY DUP1 PUSH5 0x2330389036 0xA5 SUB 0xAA SWAP9 0xCD 0xFB SWAP8 0xAF 0xCC SAR 0xBC DUP11 LT PUSH5 0x736F6C6343 STOP ADDMOD BYTE STOP CALLER "
				},
				"gasEstimates": {
					"creation": {
						"codeDepositCost": "210200",
						"executionCost": "249",
						"totalCost": "210449"
					},
					"external": {
						"isWinning(uint8[3][3])": "infinite"
					}
				},
				"methodIdentifiers": {
					"isWinning(uint8[3][3])": "d4edca96"
				}
			},
			"storageLayout": {
				"storage": [],
				"types": null
			},
			"userdoc": {
				"kind": "user",
				"methods": {},
				"version": 1
			}
		}
	}
}