{
	"NotEnough/src/NotEnough.sol": {
		"NotEnough": {
			"abi": [
				{
					"inputs": [
						{
							"internalType": "uint256",
							"name": "_number",
							"type": "uint256"
						}
					],
					"name": "largeEnough",
					"outputs": [],
					"stateMutability": "pure",
					"type": "function"
				}
			],
			"devdoc": {
				"kind": "dev",
				"methods": {},
				"version": 1
			},
			"evm": {
				"assembly": "    /* \"NotEnough/src/NotEnough.sol\":63:362  contract NotEnough {... */\n  mstore(0x40, 0x80)\n  callvalue\n  dup1\n  iszero\n  tag_1\n  jumpi\n  0x00\n  dup1\n  revert\ntag_1:\n  pop\n  dataSize(sub_0)\n  dup1\n  dataOffset(sub_0)\n  0x00\n  codecopy\n  0x00\n  return\nstop\n\nsub_0: assembly {\n        /* \"NotEnough/src/NotEnough.sol\":63:362  contract NotEnough {... */\n      mstore(0x40, 0x80)\n      callvalue\n      dup1\n      iszero\n      tag_1\n      jumpi\n      0x00\n      dup1\n      revert\n    tag_1:\n      pop\n      jumpi(tag_2, lt(calldatasize, 0x04))\n      shr(0xe0, calldataload(0x00))\n      dup1\n      0xfec3adae\n      eq\n      tag_3\n      jumpi\n    tag_2:\n      0x00\n      dup1\n      revert\n        /* \"NotEnough/src/NotEnough.sol\":256:360  function largeEnough(uint256 _number) external pure {... */\n    tag_3:\n      tag_4\n      0x04\n      dup1\n      calldatasize\n      sub\n      dup2\n      add\n      swap1\n      tag_5\n      swap2\n      swap1\n      tag_6\n      jump\t// in\n    tag_5:\n      tag_7\n      jump\t// in\n    tag_4:\n      stop\n    tag_7:\n        /* \"NotEnough/src/NotEnough.sol\":336:338  10 */\n      0x0a\n        /* \"NotEnough/src/NotEnough.sol\":326:333  _number */\n      dup2\n        /* \"NotEnough/src/NotEnough.sol\":326:338  _number > 10 */\n      gt\n        /* \"NotEnough/src/NotEnough.sol\":318:353  require(_number > 10, \"Not enough\") */\n      tag_9\n      jumpi\n      mload(0x40)\n      0x08c379a000000000000000000000000000000000000000000000000000000000\n      dup2\n      mstore\n      0x04\n      add\n      tag_10\n      swap1\n      tag_11\n      jump\t// in\n    tag_10:\n      mload(0x40)\n      dup1\n      swap2\n      sub\n      swap1\n      revert\n    tag_9:\n        /* \"NotEnough/src/NotEnough.sol\":256:360  function largeEnough(uint256 _number) external pure {... */\n      pop\n      jump\t// out\n        /* \"#utility.yul\":88:205   */\n    tag_13:\n        /* \"#utility.yul\":197:198   */\n      0x00\n        /* \"#utility.yul\":194:195   */\n      dup1\n        /* \"#utility.yul\":187:199   */\n      revert\n        /* \"#utility.yul\":334:411   */\n    tag_15:\n        /* \"#utility.yul\":371:378   */\n      0x00\n        /* \"#utility.yul\":400:405   */\n      dup2\n        /* \"#utility.yul\":389:405   */\n      swap1\n      pop\n        /* \"#utility.yul\":334:411   */\n      swap2\n      swap1\n      pop\n      jump\t// out\n        /* \"#utility.yul\":417:539   */\n    tag_16:\n        /* \"#utility.yul\":490:514   */\n      tag_27\n        /* \"#utility.yul\":508:513   */\n      dup2\n        /* \"#utility.yul\":490:514   */\n      tag_15\n      jump\t// in\n    tag_27:\n        /* \"#utility.yul\":483:488   */\n      dup2\n        /* \"#utility.yul\":480:515   */\n      eq\n        /* \"#utility.yul\":470:533   */\n      tag_28\n      jumpi\n        /* \"#utility.yul\":529:530   */\n      0x00\n        /* \"#utility.yul\":526:527   */\n      dup1\n        /* \"#utility.yul\":519:531   */\n      revert\n        /* \"#utility.yul\":470:533   */\n    tag_28:\n        /* \"#utility.yul\":417:539   */\n      pop\n      jump\t// out\n        /* \"#utility.yul\":545:684   */\n    tag_17:\n        /* \"#utility.yul\":591:596   */\n      0x00\n        /* \"#utility.yul\":629:635   */\n      dup2\n        /* \"#utility.yul\":616:636   */\n      calldataload\n        /* \"#utility.yul\":607:636   */\n      swap1\n      pop\n        /* \"#utility.yul\":645:678   */\n      tag_30\n        /* \"#utility.yul\":672:677   */\n      dup2\n        /* \"#utility.yul\":645:678   */\n      tag_16\n      jump\t// in\n    tag_30:\n        /* \"#utility.yul\":545:684   */\n      swap3\n      swap2\n      pop\n      pop\n      jump\t// out\n        /* \"#utility.yul\":690:1019   */\n    tag_6:\n        /* \"#utility.yul\":749:755   */\n      0x00\n        /* \"#utility.yul\":798:800   */\n      0x20\n        /* \"#utility.yul\":786:795   */\n      dup3\n        /* \"#utility.yul\":777:784   */\n      dup5\n        /* \"#utility.yul\":773:796   */\n      sub\n        /* \"#utility.yul\":769:801   */\n      slt\n        /* \"#utility.yul\":766:885   */\n      iszero\n      tag_32\n      jumpi\n        /* \"#utility.yul\":804:883   */\n      tag_33\n      tag_13\n      jump\t// in\n    tag_33:\n        /* \"#utility.yul\":766:885   */\n    tag_32:\n        /* \"#utility.yul\":924:925   */\n      0x00\n        /* \"#utility.yul\":949:1002   */\n      tag_34\n        /* \"#utility.yul\":994:1001   */\n      dup5\n        /* \"#utility.yul\":985:991   */\n      dup3\n        /* \"#utility.yul\":974:983   */\n      dup6\n        /* \"#utility.yul\":970:992   */\n      add\n        /* \"#utility.yul\":949:1002   */\n      tag_17\n      jump\t// in\n    tag_34:\n        /* \"#utility.yul\":939:1002   */\n      swap2\n      pop\n        /* \"#utility.yul\":895:1012   */\n      pop\n        /* \"#utility.yul\":690:1019   */\n      swap3\n      swap2\n      pop\n      pop\n      jump\t// out\n        /* \"#utility.yul\":1025:1194   */\n    tag_18:\n        /* \"#utility.yul\":1109:1120   */\n      0x00\n        /* \"#utility.yul\":1143:1149   */\n      dup3\n        /* \"#utility.yul\":1138:1141   */\n      dup3\n        /* \"#utility.yul\":1131:1150   */\n      mstore\n        /* \"#utility.yul\":1183:1187   */\n      0x20\n        /* \"#utility.yul\":1178:1181   */\n      dup3\n        /* \"#utility.yul\":1174:1188   */\n      add\n        /* \"#utility.yul\":1159:1188   */\n      swap1\n      pop\n        /* \"#utility.yul\":1025:1194   */\n      swap3\n      swap2\n      pop\n      pop\n      jump\t// out\n        /* \"#utility.yul\":1200:1360   */\n    tag_19:\n        /* \"#utility.yul\":1340:1352   */\n      0x4e6f7420656e6f75676800000000000000000000000000000000000000000000\n        /* \"#utility.yul\":1336:1337   */\n      0x00\n        /* \"#utility.yul\":1328:1334   */\n      dup3\n        /* \"#utility.yul\":1324:1338   */\n      add\n        /* \"#utility.yul\":1317:1353   */\n      mstore\n        /* \"#utility.yul\":1200:1360   */\n      pop\n      jump\t// out\n        /* \"#utility.yul\":1366:1732   */\n    tag_20:\n        /* \"#utility.yul\":1508:1511   */\n      0x00\n        /* \"#utility.yul\":1529:1596   */\n      tag_38\n        /* \"#utility.yul\":1593:1595   */\n      0x0a\n        /* \"#utility.yul\":1588:1591   */\n      dup4\n        /* \"#utility.yul\":1529:1596   */\n      tag_18\n      jump\t// in\n    tag_38:\n        /* \"#utility.yul\":1522:1596   */\n      swap2\n      pop\n        /* \"#utility.yul\":1605:1698   */\n      tag_39\n        /* \"#utility.yul\":1694:1697   */\n      dup3\n        /* \"#utility.yul\":1605:1698   */\n      tag_19\n      jump\t// in\n    tag_39:\n        /* \"#utility.yul\":1723:1725   */\n      0x20\n        /* \"#utility.yul\":1718:1721   */\n      dup3\n        /* \"#utility.yul\":1714:1726   */\n      add\n        /* \"#utility.yul\":1707:1726   */\n      swap1\n      pop\n        /* \"#utility.yul\":1366:1732   */\n      swap2\n      swap1\n      pop\n      jump\t// out\n        /* \"#utility.yul\":1738:2157   */\n    tag_11:\n        /* \"#utility.yul\":1904:1908   */\n      0x00\n        /* \"#utility.yul\":1942:1944   */\n      0x20\n        /* \"#utility.yul\":1931:1940   */\n      dup3\n        /* \"#utility.yul\":1927:1945   */\n      add\n        /* \"#utility.yul\":1919:1945   */\n      swap1\n      pop\n        /* \"#utility.yul\":1991:2000   */\n      dup2\n        /* \"#utility.yul\":1985:1989   */\n      dup2\n        /* \"#utility.yul\":1981:2001   */\n      sub\n        /* \"#utility.yul\":1977:1978   */\n      0x00\n        /* \"#utility.yul\":1966:1975   */\n      dup4\n        /* \"#utility.yul\":1962:1979   */\n      add\n        /* \"#utility.yul\":1955:2002   */\n      mstore\n        /* \"#utility.yul\":2019:2150   */\n      tag_41\n        /* \"#utility.yul\":2145:2149   */\n      dup2\n        /* \"#utility.yul\":2019:2150   */\n      tag_20\n      jump\t// in\n    tag_41:\n        /* \"#utility.yul\":2011:2150   */\n      swap1\n      pop\n        /* \"#utility.yul\":1738:2157   */\n      swap2\n      swap1\n      pop\n      jump\t// out\n\n    auxdata: 0xa26469706673582212204e9265378b6aa06e31e64df840433f23bae708e17b34373d70ccdd32aecdcb3d64736f6c634300081a0033\n}\n",
				"bytecode": {
					"linkReferences": {},
					"object": "6080604052348015600e575f80fd5b5061019f8061001c5f395ff3fe608060405234801561000f575f80fd5b5060043610610029575f3560e01c8063fec3adae1461002d575b5f80fd5b610047600480360381019061004291906100c6565b610049565b005b600a811161008c576040517f08c379a00000000000000000000000000000000000000000000000000000000081526004016100839061014b565b60405180910390fd5b50565b5f80fd5b5f819050919050565b6100a581610093565b81146100af575f80fd5b50565b5f813590506100c08161009c565b92915050565b5f602082840312156100db576100da61008f565b5b5f6100e8848285016100b2565b91505092915050565b5f82825260208201905092915050565b7f4e6f7420656e6f756768000000000000000000000000000000000000000000005f82015250565b5f610135600a836100f1565b915061014082610101565b602082019050919050565b5f6020820190508181035f83015261016281610129565b905091905056fea26469706673582212204e9265378b6aa06e31e64df840433f23bae708e17b34373d70ccdd32aecdcb3d64736f6c634300081a0033",
					"opcodes": "PUSH1 0x80 PUSH1 0x40 MSTORE CALLVALUE DUP1 ISZERO PUSH1 0xE JUMPI PUSH0 DUP1 REVERT JUMPDEST POP PUSH2 0x19F DUP1 PUSH2 0x1C PUSH0 CODECOPY PUSH0 RETURN INVALID PUSH1 0x80 PUSH1 0x40 MSTORE CALLVALUE DUP1 ISZERO PUSH2 0xF JUMPI PUSH0 DUP1 REVERT JUMPDEST POP PUSH1 0x4 CALLDATASIZE LT PUSH2 0x29 JUMPI PUSH0 CALLDATALOAD PUSH1 0xE0 SHR DUP1 PUSH4 0xFEC3ADAE EQ PUSH2 0x2D JUMPI JUMPDEST PUSH0 DUP1 REVERT JUMPDEST PUSH2 0x47 PUSH1 0x4 DUP1 CALLDATASIZE SUB DUP2 ADD SWAP1 PUSH2 0x42 SWAP2 SWAP1 PUSH2 0xC6 JUMP JUMPDEST PUSH2 0x49 JUMP JUMPDEST STOP JUMPDEST PUSH1 0xA DUP2 GT PUSH2 0x8C JUMPI PUSH1 0x40 MLOAD PUSH32 0x8C379A000000000000000000000000000000000000000000000000000000000 DUP2 MSTORE PUSH1 0x4 ADD PUSH2 0x83 SWAP1 PUSH2 0x14B JUMP JUMPDEST PUSH1 0x40 MLOAD DUP1 SWAP2 SUB SWAP1 REVERT JUMPDEST POP JUMP JUMPDEST PUSH0 DUP1 REVERT JUMPDEST PUSH0 DUP2 SWAP1 POP SWAP2 SWAP1 POP JUMP JUMPDEST PUSH2 0xA5 DUP2 PUSH2 0x93 JUMP JUMPDEST DUP2 EQ PUSH2 0xAF JUMPI PUSH0 DUP1 REVERT JUMPDEST POP JUMP JUMPDEST PUSH0 DUP2 CALLDATALOAD SWAP1 POP PUSH2 0xC0 DUP2 PUSH2 0x9C JUMP JUMPDEST SWAP3 SWAP2 POP POP JUMP JUMPDEST PUSH0 PUSH1 0x20 DUP3 DUP5 SUB SLT ISZERO PUSH2 0xDB JUMPI PUSH2 0xDA PUSH2 0x8F JUMP JUMPDEST JUMPDEST PUSH0 PUSH2 0xE8 DUP5 DUP3 DUP6 ADD PUSH2 0xB2 JUMP JUMPDEST SWAP2 POP POP SWAP3 SWAP2 POP POP JUMP JUMPDEST PUSH0 DUP3 DUP3 MSTORE PUSH1 0x20 DUP3 ADD SWAP1 POP SWAP3 SWAP2 POP POP JUMP JUMPDEST PUSH32 0x4E6F7420656E6F75676800000000000000000000000000000000000000000000 PUSH0 DUP3 ADD MSTORE POP JUMP JUMPDEST PUSH0 PUSH2 0x135 PUSH1 0xA DUP4 PUSH2 0xF1 JUMP JUMPDEST SWAP2 POP PUSH2 0x140 DUP3 PUSH2 0x101 JUMP JUMPDEST PUSH1 0x20 DUP3 ADD SWAP1 POP SWAP2 SWAP1 POP JUMP JUMPDEST PUSH0 PUSH1 0x20 DUP3 ADD SWAP1 POP DUP2 DUP2 SUB PUSH0 DUP4 ADD MSTORE PUSH2 0x162 DUP2 PUSH2 0x129 JUMP JUMPDEST SWAP1 POP SWAP2 SWAP1 POP JUMP INVALID LOG2 PUSH5 0x6970667358 0x22 SLT KECCAK256 0x4E SWAP3 PUSH6 0x378B6AA06E31 0xE6 0x4D 0xF8 BLOCKHASH NUMBER EXTCODEHASH 0x23 0xBA 0xE7 ADDMOD 0xE1 PUSH28 0x34373D70CCDD32AECDCB3D64736F6C634300081A0033000000000000 "
				},
				"gasEstimates": {
					"creation": {
						"codeDepositCost": "83000",
						"executionCost": "127",
						"totalCost": "83127"
					},
					"external": {
						"largeEnough(uint256)": "684"
					}
				},
				"methodIdentifiers": {
					"largeEnough(uint256)": "fec3adae"
				}
			},
			"storageLayout": {
				"storage": [],
				"types": null
			},
			"userdoc": {
				"kind": "user",
				"methods": {},
				"version": 1
			}
		}
	}
}