{
	"StudentDB/src/StudentDB.sol": {
		"StudentDB": {
			"abi": [
				{
					"inputs": [],
					"stateMutability": "nonpayable",
					"type": "constructor"
				},
				{
					"inputs": [
						{
							"internalType": "string",
							"name": "_name",
							"type": "string"
						},
						{
							"internalType": "uint256",
							"name": "_age",
							"type": "uint256"
						}
					],
					"name": "createStudent",
					"outputs": [],
					"stateMutability": "nonpayable",
					"type": "function"
				},
				{
					"inputs": [],
					"name": "getEntireStruct",
					"outputs": [
						{
							"components": [
								{
									"internalType": "string",
									"name": "name",
									"type": "string"
								},
								{
									"internalType": "uint256",
									"name": "age",
									"type": "uint256"
								}
							],
							"internalType": "struct StudentDB.Student",
							"name": "",
							"type": "tuple"
						}
					],
					"stateMutability": "view",
					"type": "function"
				}
			],
			"devdoc": {
				"kind": "dev",
				"methods": {},
				"version": 1
			},
			"evm": {
				"assembly": "    /* \"StudentDB/src/StudentDB.sol\":63:697  contract StudentDB {... */\n  mstore(0x40, 0x80)\n    /* \"StudentDB/src/StudentDB.sol\":365:421  constructor() {... */\n  callvalue\n  dup1\n  iszero\n  tag_1\n  jumpi\n  0x00\n  dup1\n  revert\ntag_1:\n  pop\n    /* \"StudentDB/src/StudentDB.sol\":389:414  createStudent(\"John\", 12) */\n  tag_4\n  mload(0x40)\n  dup1\n  0x40\n  add\n  0x40\n  mstore\n  dup1\n  0x04\n  dup2\n  mstore\n  0x20\n  add\n  0x4a6f686e00000000000000000000000000000000000000000000000000000000\n  dup2\n  mstore\n  pop\n    /* \"StudentDB/src/StudentDB.sol\":411:413  12 */\n  0x0c\n    /* \"StudentDB/src/StudentDB.sol\":389:402  createStudent */\n  shl(0x20, tag_5)\n    /* \"StudentDB/src/StudentDB.sol\":389:414  createStudent(\"John\", 12) */\n  0x20\n  shr\n  jump\t// in\ntag_4:\n    /* \"StudentDB/src/StudentDB.sol\":63:697  contract StudentDB {... */\n  jump(tag_6)\n    /* \"StudentDB/src/StudentDB.sol\":456:568  function createStudent(string memory _name, uint256 _age) public {... */\ntag_5:\n    /* \"StudentDB/src/StudentDB.sol\":541:561  Student(_name, _age) */\n  mload(0x40)\n  dup1\n  0x40\n  add\n  0x40\n  mstore\n  dup1\n    /* \"StudentDB/src/StudentDB.sol\":549:554  _name */\n  dup4\n    /* \"StudentDB/src/StudentDB.sol\":541:561  Student(_name, _age) */\n  dup2\n  mstore\n  0x20\n  add\n    /* \"StudentDB/src/StudentDB.sol\":556:560  _age */\n  dup3\n    /* \"StudentDB/src/StudentDB.sol\":541:561  Student(_name, _age) */\n  dup2\n  mstore\n  pop\n    /* \"StudentDB/src/StudentDB.sol\":531:538  student */\n  0x00\n    /* \"StudentDB/src/StudentDB.sol\":531:561  student = Student(_name, _age) */\n  dup1\n  dup3\n  add\n  mload\n  dup2\n  0x00\n  add\n  swap1\n  dup2\n  tag_8\n  swap2\n  swap1\n  tag_9\n  jump\t// in\ntag_8:\n  pop\n  0x20\n  dup3\n  add\n  mload\n  dup2\n  0x01\n  add\n  sstore\n  swap1\n  pop\n  pop\n    /* \"StudentDB/src/StudentDB.sol\":456:568  function createStudent(string memory _name, uint256 _age) public {... */\n  pop\n  pop\n  jump\t// out\n    /* \"#utility.yul\":7:106   */\ntag_10:\n    /* \"#utility.yul\":59:65   */\n  0x00\n    /* \"#utility.yul\":93:98   */\n  dup2\n    /* \"#utility.yul\":87:99   */\n  mload\n    /* \"#utility.yul\":77:99   */\n  swap1\n  pop\n    /* \"#utility.yul\":7:106   */\n  swap2\n  swap1\n  pop\n  jump\t// out\n    /* \"#utility.yul\":112:292   */\ntag_11:\n    /* \"#utility.yul\":160:237   */\n  0x4e487b7100000000000000000000000000000000000000000000000000000000\n    /* \"#utility.yul\":157:158   */\n  0x00\n    /* \"#utility.yul\":150:238   */\n  mstore\n    /* \"#utility.yul\":257:261   */\n  0x41\n    /* \"#utility.yul\":254:255   */\n  0x04\n    /* \"#utility.yul\":247:262   */\n  mstore\n    /* \"#utility.yul\":281:285   */\n  0x24\n    /* \"#utility.yul\":278:279   */\n  0x00\n    /* \"#utility.yul\":271:286   */\n  revert\n    /* \"#utility.yul\":298:478   */\ntag_12:\n    /* \"#utility.yul\":346:423   */\n  0x4e487b7100000000000000000000000000000000000000000000000000000000\n    /* \"#utility.yul\":343:344   */\n  0x00\n    /* \"#utility.yul\":336:424   */\n  mstore\n    /* \"#utility.yul\":443:447   */\n  0x22\n    /* \"#utility.yul\":440:441   */\n  0x04\n    /* \"#utility.yul\":433:448   */\n  mstore\n    /* \"#utility.yul\":467:471   */\n  0x24\n    /* \"#utility.yul\":464:465   */\n  0x00\n    /* \"#utility.yul\":457:472   */\n  revert\n    /* \"#utility.yul\":484:804   */\ntag_13:\n    /* \"#utility.yul\":528:534   */\n  0x00\n    /* \"#utility.yul\":565:566   */\n  0x02\n    /* \"#utility.yul\":559:563   */\n  dup3\n    /* \"#utility.yul\":555:567   */\n  div\n    /* \"#utility.yul\":545:567   */\n  swap1\n  pop\n    /* \"#utility.yul\":612:613   */\n  0x01\n    /* \"#utility.yul\":606:610   */\n  dup3\n    /* \"#utility.yul\":602:614   */\n  and\n    /* \"#utility.yul\":633:651   */\n  dup1\n    /* \"#utility.yul\":623:704   */\n  tag_35\n  jumpi\n    /* \"#utility.yul\":689:693   */\n  0x7f\n    /* \"#utility.yul\":681:687   */\n  dup3\n    /* \"#utility.yul\":677:694   */\n  and\n    /* \"#utility.yul\":667:694   */\n  swap2\n  pop\n    /* \"#utility.yul\":623:704   */\ntag_35:\n    /* \"#utility.yul\":751:753   */\n  0x20\n    /* \"#utility.yul\":743:749   */\n  dup3\n    /* \"#utility.yul\":740:754   */\n  lt\n    /* \"#utility.yul\":720:738   */\n  dup2\n    /* \"#utility.yul\":717:755   */\n  sub\n    /* \"#utility.yul\":714:798   */\n  tag_36\n  jumpi\n    /* \"#utility.yul\":770:788   */\n  tag_37\n  tag_12\n  jump\t// in\ntag_37:\n    /* \"#utility.yul\":714:798   */\ntag_36:\n    /* \"#utility.yul\":535:804   */\n  pop\n    /* \"#utility.yul\":484:804   */\n  swap2\n  swap1\n  pop\n  jump\t// out\n    /* \"#utility.yul\":810:951   */\ntag_14:\n    /* \"#utility.yul\":859:863   */\n  0x00\n    /* \"#utility.yul\":882:885   */\n  dup2\n    /* \"#utility.yul\":874:885   */\n  swap1\n  pop\n    /* \"#utility.yul\":905:908   */\n  dup2\n    /* \"#utility.yul\":902:903   */\n  0x00\n    /* \"#utility.yul\":895:909   */\n  mstore\n    /* \"#utility.yul\":939:943   */\n  0x20\n    /* \"#utility.yul\":936:937   */\n  0x00\n    /* \"#utility.yul\":926:944   */\n  keccak256\n    /* \"#utility.yul\":918:944   */\n  swap1\n  pop\n    /* \"#utility.yul\":810:951   */\n  swap2\n  swap1\n  pop\n  jump\t// out\n    /* \"#utility.yul\":957:1050   */\ntag_15:\n    /* \"#utility.yul\":994:1000   */\n  0x00\n    /* \"#utility.yul\":1041:1043   */\n  0x20\n    /* \"#utility.yul\":1036:1038   */\n  0x1f\n    /* \"#utility.yul\":1029:1034   */\n  dup4\n    /* \"#utility.yul\":1025:1039   */\n  add\n    /* \"#utility.yul\":1021:1044   */\n  div\n    /* \"#utility.yul\":1011:1044   */\n  swap1\n  pop\n    /* \"#utility.yul\":957:1050   */\n  swap2\n  swap1\n  pop\n  jump\t// out\n    /* \"#utility.yul\":1056:1163   */\ntag_16:\n    /* \"#utility.yul\":1100:1108   */\n  0x00\n    /* \"#utility.yul\":1150:1155   */\n  dup3\n    /* \"#utility.yul\":1144:1148   */\n  dup3\n    /* \"#utility.yul\":1140:1156   */\n  shl\n    /* \"#utility.yul\":1119:1156   */\n  swap1\n  pop\n    /* \"#utility.yul\":1056:1163   */\n  swap3\n  swap2\n  pop\n  pop\n  jump\t// out\n    /* \"#utility.yul\":1169:1562   */\ntag_17:\n    /* \"#utility.yul\":1238:1244   */\n  0x00\n    /* \"#utility.yul\":1288:1289   */\n  0x08\n    /* \"#utility.yul\":1276:1286   */\n  dup4\n    /* \"#utility.yul\":1272:1290   */\n  mul\n    /* \"#utility.yul\":1311:1408   */\n  tag_42\n    /* \"#utility.yul\":1341:1407   */\n  0xffffffffffffffffffffffffffffffffffffffffffffffffffffffffffffffff\n    /* \"#utility.yul\":1330:1339   */\n  dup3\n    /* \"#utility.yul\":1311:1408   */\n  tag_16\n  jump\t// in\ntag_42:\n    /* \"#utility.yul\":1429:1468   */\n  tag_43\n    /* \"#utility.yul\":1459:1467   */\n  dup7\n    /* \"#utility.yul\":1448:1457   */\n  dup4\n    /* \"#utility.yul\":1429:1468   */\n  tag_16\n  jump\t// in\ntag_43:\n    /* \"#utility.yul\":1417:1468   */\n  swap6\n  pop\n    /* \"#utility.yul\":1501:1505   */\n  dup1\n    /* \"#utility.yul\":1497:1506   */\n  not\n    /* \"#utility.yul\":1490:1495   */\n  dup5\n    /* \"#utility.yul\":1486:1507   */\n  and\n    /* \"#utility.yul\":1477:1507   */\n  swap4\n  pop\n    /* \"#utility.yul\":1550:1554   */\n  dup1\n    /* \"#utility.yul\":1540:1548   */\n  dup7\n    /* \"#utility.yul\":1536:1555   */\n  and\n    /* \"#utility.yul\":1529:1534   */\n  dup5\n    /* \"#utility.yul\":1526:1556   */\n  or\n    /* \"#utility.yul\":1516:1556   */\n  swap3\n  pop\n    /* \"#utility.yul\":1245:1562   */\n  pop\n  pop\n    /* \"#utility.yul\":1169:1562   */\n  swap4\n  swap3\n  pop\n  pop\n  pop\n  jump\t// out\n    /* \"#utility.yul\":1568:1645   */\ntag_18:\n    /* \"#utility.yul\":1605:1612   */\n  0x00\n    /* \"#utility.yul\":1634:1639   */\n  dup2\n    /* \"#utility.yul\":1623:1639   */\n  swap1\n  pop\n    /* \"#utility.yul\":1568:1645   */\n  swap2\n  swap1\n  pop\n  jump\t// out\n    /* \"#utility.yul\":1651:1711   */\ntag_19:\n    /* \"#utility.yul\":1679:1682   */\n  0x00\n    /* \"#utility.yul\":1700:1705   */\n  dup2\n    /* \"#utility.yul\":1693:1705   */\n  swap1\n  pop\n    /* \"#utility.yul\":1651:1711   */\n  swap2\n  swap1\n  pop\n  jump\t// out\n    /* \"#utility.yul\":1717:1859   */\ntag_20:\n    /* \"#utility.yul\":1767:1776   */\n  0x00\n    /* \"#utility.yul\":1800:1853   */\n  tag_47\n    /* \"#utility.yul\":1818:1852   */\n  tag_48\n    /* \"#utility.yul\":1827:1851   */\n  tag_49\n    /* \"#utility.yul\":1845:1850   */\n  dup5\n    /* \"#utility.yul\":1827:1851   */\n  tag_18\n  jump\t// in\ntag_49:\n    /* \"#utility.yul\":1818:1852   */\n  tag_19\n  jump\t// in\ntag_48:\n    /* \"#utility.yul\":1800:1853   */\n  tag_18\n  jump\t// in\ntag_47:\n    /* \"#utility.yul\":1787:1853   */\n  swap1\n  pop\n    /* \"#utility.yul\":1717:1859   */\n  swap2\n  swap1\n  pop\n  jump\t// out\n    /* \"#utility.yul\":1865:1940   */\ntag_21:\n    /* \"#utility.yul\":1908:1911   */\n  0x00\n    /* \"#utility.yul\":1929:1934   */\n  dup2\n    /* \"#utility.yul\":1922:1934   */\n  swap1\n  pop\n    /* \"#utility.yul\":1865:1940   */\n  swap2\n  swap1\n  pop\n  jump\t// out\n    /* \"#utility.yul\":1946:2215   */\ntag_22:\n    /* \"#utility.yul\":2056:2095   */\n  tag_52\n    /* \"#utility.yul\":2087:2094   */\n  dup4\n    /* \"#utility.yul\":2056:2095   */\n  tag_20\n  jump\t// in\ntag_52:\n    /* \"#utility.yul\":2117:2208   */\n  tag_53\n    /* \"#utility.yul\":2166:2207   */\n  tag_54\n    /* \"#utility.yul\":2190:2206   */\n  dup3\n    /* \"#utility.yul\":2166:2207   */\n  tag_21\n  jump\t// in\ntag_54:\n    /* \"#utility.yul\":2158:2164   */\n  dup5\n    /* \"#utility.yul\":2151:2155   */\n  dup5\n    /* \"#utility.yul\":2145:2156   */\n  sload\n    /* \"#utility.yul\":2117:2208   */\n  tag_17\n  jump\t// in\ntag_53:\n    /* \"#utility.yul\":2111:2115   */\n  dup3\n    /* \"#utility.yul\":2104:2209   */\n  sstore\n    /* \"#utility.yul\":2022:2215   */\n  pop\n    /* \"#utility.yul\":1946:2215   */\n  pop\n  pop\n  pop\n  jump\t// out\n    /* \"#utility.yul\":2221:2294   */\ntag_23:\n    /* \"#utility.yul\":2266:2269   */\n  0x00\n    /* \"#utility.yul\":2221:2294   */\n  swap1\n  jump\t// out\n    /* \"#utility.yul\":2300:2489   */\ntag_24:\n    /* \"#utility.yul\":2377:2409   */\n  tag_57\n  tag_23\n  jump\t// in\ntag_57:\n    /* \"#utility.yul\":2418:2483   */\n  tag_58\n    /* \"#utility.yul\":2476:2482   */\n  dup2\n    /* \"#utility.yul\":2468:2474   */\n  dup5\n    /* \"#utility.yul\":2462:2466   */\n  dup5\n    /* \"#utility.yul\":2418:2483   */\n  tag_22\n  jump\t// in\ntag_58:\n    /* \"#utility.yul\":2353:2489   */\n  pop\n    /* \"#utility.yul\":2300:2489   */\n  pop\n  pop\n  jump\t// out\n    /* \"#utility.yul\":2495:2681   */\ntag_25:\n    /* \"#utility.yul\":2555:2675   */\ntag_60:\n    /* \"#utility.yul\":2572:2575   */\n  dup2\n    /* \"#utility.yul\":2565:2570   */\n  dup2\n    /* \"#utility.yul\":2562:2576   */\n  lt\n    /* \"#utility.yul\":2555:2675   */\n  iszero\n  tag_62\n  jumpi\n    /* \"#utility.yul\":2626:2665   */\n  tag_63\n    /* \"#utility.yul\":2663:2664   */\n  0x00\n    /* \"#utility.yul\":2656:2661   */\n  dup3\n    /* \"#utility.yul\":2626:2665   */\n  tag_24\n  jump\t// in\ntag_63:\n    /* \"#utility.yul\":2599:2600   */\n  0x01\n    /* \"#utility.yul\":2592:2597   */\n  dup2\n    /* \"#utility.yul\":2588:2601   */\n  add\n    /* \"#utility.yul\":2579:2601   */\n  swap1\n  pop\n    /* \"#utility.yul\":2555:2675   */\n  jump(tag_60)\ntag_62:\n    /* \"#utility.yul\":2495:2681   */\n  pop\n  pop\n  jump\t// out\n    /* \"#utility.yul\":2687:3230   */\ntag_26:\n    /* \"#utility.yul\":2788:2790   */\n  0x1f\n    /* \"#utility.yul\":2783:2786   */\n  dup3\n    /* \"#utility.yul\":2780:2791   */\n  gt\n    /* \"#utility.yul\":2777:3223   */\n  iszero\n  tag_65\n  jumpi\n    /* \"#utility.yul\":2822:2860   */\n  tag_66\n    /* \"#utility.yul\":2854:2859   */\n  dup2\n    /* \"#utility.yul\":2822:2860   */\n  tag_14\n  jump\t// in\ntag_66:\n    /* \"#utility.yul\":2906:2935   */\n  tag_67\n    /* \"#utility.yul\":2924:2934   */\n  dup5\n    /* \"#utility.yul\":2906:2935   */\n  tag_15\n  jump\t// in\ntag_67:\n    /* \"#utility.yul\":2896:2904   */\n  dup2\n    /* \"#utility.yul\":2892:2936   */\n  add\n    /* \"#utility.yul\":3089:3091   */\n  0x20\n    /* \"#utility.yul\":3077:3087   */\n  dup6\n    /* \"#utility.yul\":3074:3092   */\n  lt\n    /* \"#utility.yul\":3071:3120   */\n  iszero\n  tag_68\n  jumpi\n    /* \"#utility.yul\":3110:3118   */\n  dup2\n    /* \"#utility.yul\":3095:3118   */\n  swap1\n  pop\n    /* \"#utility.yul\":3071:3120   */\ntag_68:\n    /* \"#utility.yul\":3133:3213   */\n  tag_69\n    /* \"#utility.yul\":3189:3211   */\n  tag_70\n    /* \"#utility.yul\":3207:3210   */\n  dup6\n    /* \"#utility.yul\":3189:3211   */\n  tag_15\n  jump\t// in\ntag_70:\n    /* \"#utility.yul\":3179:3187   */\n  dup4\n    /* \"#utility.yul\":3175:3212   */\n  add\n    /* \"#utility.yul\":3162:3173   */\n  dup3\n    /* \"#utility.yul\":3133:3213   */\n  tag_25\n  jump\t// in\ntag_69:\n    /* \"#utility.yul\":2792:3223   */\n  pop\n  pop\n    /* \"#utility.yul\":2777:3223   */\ntag_65:\n    /* \"#utility.yul\":2687:3230   */\n  pop\n  pop\n  pop\n  jump\t// out\n    /* \"#utility.yul\":3236:3353   */\ntag_27:\n    /* \"#utility.yul\":3290:3298   */\n  0x00\n    /* \"#utility.yul\":3340:3345   */\n  dup3\n    /* \"#utility.yul\":3334:3338   */\n  dup3\n    /* \"#utility.yul\":3330:3346   */\n  shr\n    /* \"#utility.yul\":3309:3346   */\n  swap1\n  pop\n    /* \"#utility.yul\":3236:3353   */\n  swap3\n  swap2\n  pop\n  pop\n  jump\t// out\n    /* \"#utility.yul\":3359:3528   */\ntag_28:\n    /* \"#utility.yul\":3403:3409   */\n  0x00\n    /* \"#utility.yul\":3436:3487   */\n  tag_73\n    /* \"#utility.yul\":3484:3485   */\n  0x00\n    /* \"#utility.yul\":3480:3486   */\n  not\n    /* \"#utility.yul\":3472:3477   */\n  dup5\n    /* \"#utility.yul\":3469:3470   */\n  0x08\n    /* \"#utility.yul\":3465:3478   */\n  mul\n    /* \"#utility.yul\":3436:3487   */\n  tag_27\n  jump\t// in\ntag_73:\n    /* \"#utility.yul\":3432:3488   */\n  not\n    /* \"#utility.yul\":3517:3521   */\n  dup1\n    /* \"#utility.yul\":3511:3515   */\n  dup4\n    /* \"#utility.yul\":3507:3522   */\n  and\n    /* \"#utility.yul\":3497:3522   */\n  swap2\n  pop\n    /* \"#utility.yul\":3410:3528   */\n  pop\n    /* \"#utility.yul\":3359:3528   */\n  swap3\n  swap2\n  pop\n  pop\n  jump\t// out\n    /* \"#utility.yul\":3533:3828   */\ntag_29:\n    /* \"#utility.yul\":3609:3613   */\n  0x00\n    /* \"#utility.yul\":3755:3784   */\n  tag_75\n    /* \"#utility.yul\":3780:3783   */\n  dup4\n    /* \"#utility.yul\":3774:3778   */\n  dup4\n    /* \"#utility.yul\":3755:3784   */\n  tag_28\n  jump\t// in\ntag_75:\n    /* \"#utility.yul\":3747:3784   */\n  swap2\n  pop\n    /* \"#utility.yul\":3817:3820   */\n  dup3\n    /* \"#utility.yul\":3814:3815   */\n  0x02\n    /* \"#utility.yul\":3810:3821   */\n  mul\n    /* \"#utility.yul\":3804:3808   */\n  dup3\n    /* \"#utility.yul\":3801:3822   */\n  or\n    /* \"#utility.yul\":3793:3822   */\n  swap1\n  pop\n    /* \"#utility.yul\":3533:3828   */\n  swap3\n  swap2\n  pop\n  pop\n  jump\t// out\n    /* \"#utility.yul\":3833:5228   */\ntag_9:\n    /* \"#utility.yul\":3950:3987   */\n  tag_77\n    /* \"#utility.yul\":3983:3986   */\n  dup3\n    /* \"#utility.yul\":3950:3987   */\n  tag_10\n  jump\t// in\ntag_77:\n    /* \"#utility.yul\":4052:4070   */\n  0xffffffffffffffff\n    /* \"#utility.yul\":4044:4050   */\n  dup2\n    /* \"#utility.yul\":4041:4071   */\n  gt\n    /* \"#utility.yul\":4038:4094   */\n  iszero\n  tag_78\n  jumpi\n    /* \"#utility.yul\":4074:4092   */\n  tag_79\n  tag_11\n  jump\t// in\ntag_79:\n    /* \"#utility.yul\":4038:4094   */\ntag_78:\n    /* \"#utility.yul\":4118:4156   */\n  tag_80\n    /* \"#utility.yul\":4150:4154   */\n  dup3\n    /* \"#utility.yul\":4144:4155   */\n  sload\n    /* \"#utility.yul\":4118:4156   */\n  tag_13\n  jump\t// in\ntag_80:\n    /* \"#utility.yul\":4203:4270   */\n  tag_81\n    /* \"#utility.yul\":4263:4269   */\n  dup3\n    /* \"#utility.yul\":4255:4261   */\n  dup3\n    /* \"#utility.yul\":4249:4253   */\n  dup6\n    /* \"#utility.yul\":4203:4270   */\n  tag_26\n  jump\t// in\ntag_81:\n    /* \"#utility.yul\":4297:4298   */\n  0x00\n    /* \"#utility.yul\":4321:4325   */\n  0x20\n    /* \"#utility.yul\":4308:4325   */\n  swap1\n  pop\n    /* \"#utility.yul\":4353:4355   */\n  0x1f\n    /* \"#utility.yul\":4345:4351   */\n  dup4\n    /* \"#utility.yul\":4342:4356   */\n  gt\n    /* \"#utility.yul\":4370:4371   */\n  0x01\n    /* \"#utility.yul\":4365:4983   */\n  dup2\n  eq\n  tag_83\n  jumpi\n    /* \"#utility.yul\":5027:5028   */\n  0x00\n    /* \"#utility.yul\":5044:5050   */\n  dup5\n    /* \"#utility.yul\":5041:5118   */\n  iszero\n  tag_84\n  jumpi\n    /* \"#utility.yul\":5093:5102   */\n  dup3\n    /* \"#utility.yul\":5088:5091   */\n  dup8\n    /* \"#utility.yul\":5084:5103   */\n  add\n    /* \"#utility.yul\":5078:5104   */\n  mload\n    /* \"#utility.yul\":5069:5104   */\n  swap1\n  pop\n    /* \"#utility.yul\":5041:5118   */\ntag_84:\n    /* \"#utility.yul\":5144:5211   */\n  tag_85\n    /* \"#utility.yul\":5204:5210   */\n  dup6\n    /* \"#utility.yul\":5197:5202   */\n  dup3\n    /* \"#utility.yul\":5144:5211   */\n  tag_29\n  jump\t// in\ntag_85:\n    /* \"#utility.yul\":5138:5142   */\n  dup7\n    /* \"#utility.yul\":5131:5212   */\n  sstore\n    /* \"#utility.yul\":5000:5222   */\n  pop\n    /* \"#utility.yul\":4335:5222   */\n  jump(tag_82)\n    /* \"#utility.yul\":4365:4983   */\ntag_83:\n    /* \"#utility.yul\":4417:4421   */\n  0x1f\n    /* \"#utility.yul\":4413:4422   */\n  not\n    /* \"#utility.yul\":4405:4411   */\n  dup5\n    /* \"#utility.yul\":4401:4423   */\n  and\n    /* \"#utility.yul\":4451:4488   */\n  tag_86\n    /* \"#utility.yul\":4483:4487   */\n  dup7\n    /* \"#utility.yul\":4451:4488   */\n  tag_14\n  jump\t// in\ntag_86:\n    /* \"#utility.yul\":4510:4511   */\n  0x00\n    /* \"#utility.yul\":4524:4732   */\ntag_87:\n    /* \"#utility.yul\":4538:4545   */\n  dup3\n    /* \"#utility.yul\":4535:4536   */\n  dup2\n    /* \"#utility.yul\":4532:4546   */\n  lt\n    /* \"#utility.yul\":4524:4732   */\n  iszero\n  tag_89\n  jumpi\n    /* \"#utility.yul\":4617:4626   */\n  dup5\n    /* \"#utility.yul\":4612:4615   */\n  dup10\n    /* \"#utility.yul\":4608:4627   */\n  add\n    /* \"#utility.yul\":4602:4628   */\n  mload\n    /* \"#utility.yul\":4594:4600   */\n  dup3\n    /* \"#utility.yul\":4587:4629   */\n  sstore\n    /* \"#utility.yul\":4668:4669   */\n  0x01\n    /* \"#utility.yul\":4660:4666   */\n  dup3\n    /* \"#utility.yul\":4656:4670   */\n  add\n    /* \"#utility.yul\":4646:4670   */\n  swap2\n  pop\n    /* \"#utility.yul\":4715:4717   */\n  0x20\n    /* \"#utility.yul\":4704:4713   */\n  dup6\n    /* \"#utility.yul\":4700:4718   */\n  add\n    /* \"#utility.yul\":4687:4718   */\n  swap5\n  pop\n    /* \"#utility.yul\":4561:4565   */\n  0x20\n    /* \"#utility.yul\":4558:4559   */\n  dup2\n    /* \"#utility.yul\":4554:4566   */\n  add\n    /* \"#utility.yul\":4549:4566   */\n  swap1\n  pop\n    /* \"#utility.yul\":4524:4732   */\n  jump(tag_87)\ntag_89:\n    /* \"#utility.yul\":4760:4766   */\n  dup7\n    /* \"#utility.yul\":4751:4758   */\n  dup4\n    /* \"#utility.yul\":4748:4767   */\n  lt\n    /* \"#utility.yul\":4745:4924   */\n  iszero\n  tag_90\n  jumpi\n    /* \"#utility.yul\":4818:4827   */\n  dup5\n    /* \"#utility.yul\":4813:4816   */\n  dup10\n    /* \"#utility.yul\":4809:4828   */\n  add\n    /* \"#utility.yul\":4803:4829   */\n  mload\n    /* \"#utility.yul\":4861:4909   */\n  tag_91\n    /* \"#utility.yul\":4903:4907   */\n  0x1f\n    /* \"#utility.yul\":4895:4901   */\n  dup10\n    /* \"#utility.yul\":4891:4908   */\n  and\n    /* \"#utility.yul\":4880:4889   */\n  dup3\n    /* \"#utility.yul\":4861:4909   */\n  tag_28\n  jump\t// in\ntag_91:\n    /* \"#utility.yul\":4853:4859   */\n  dup4\n    /* \"#utility.yul\":4846:4910   */\n  sstore\n    /* \"#utility.yul\":4768:4924   */\n  pop\n    /* \"#utility.yul\":4745:4924   */\ntag_90:\n    /* \"#utility.yul\":4970:4971   */\n  0x01\n    /* \"#utility.yul\":4966:4967   */\n  0x02\n    /* \"#utility.yul\":4958:4964   */\n  dup9\n    /* \"#utility.yul\":4954:4968   */\n  mul\n    /* \"#utility.yul\":4950:4972   */\n  add\n    /* \"#utility.yul\":4944:4948   */\n  dup9\n    /* \"#utility.yul\":4937:4973   */\n  sstore\n    /* \"#utility.yul\":4372:4983   */\n  pop\n  pop\n  pop\n    /* \"#utility.yul\":4335:5222   */\ntag_82:\n  pop\n    /* \"#utility.yul\":3925:5228   */\n  pop\n  pop\n  pop\n    /* \"#utility.yul\":3833:5228   */\n  pop\n  pop\n  jump\t// out\n    /* \"StudentDB/src/StudentDB.sol\":63:697  contract StudentDB {... */\ntag_6:\n  dataSize(sub_0)\n  dup1\n  dataOffset(sub_0)\n  0x00\n  codecopy\n  0x00\n  return\nstop\n\nsub_0: assembly {\n        /* \"StudentDB/src/StudentDB.sol\":63:697  contract StudentDB {... */\n      mstore(0x40, 0x80)\n      callvalue\n      dup1\n      iszero\n      tag_1\n      jumpi\n      0x00\n      dup1\n      revert\n    tag_1:\n      pop\n      jumpi(tag_2, lt(calldatasize, 0x04))\n      shr(0xe0, calldataload(0x00))\n      dup1\n      0x74a11638\n      eq\n      tag_3\n      jumpi\n      dup1\n      0x798ef527\n      eq\n      tag_4\n      jumpi\n    tag_2:\n      0x00\n      dup1\n      revert\n        /* \"StudentDB/src/StudentDB.sol\":456:568  function createStudent(string memory _name, uint256 _age) public {... */\n    tag_3:\n      tag_5\n      0x04\n      dup1\n      calldatasize\n      sub\n      dup2\n      add\n      swap1\n      tag_6\n      swap2\n      swap1\n      tag_7\n      jump\t// in\n    tag_6:\n      tag_8\n      jump\t// in\n    tag_5:\n      stop\n        /* \"StudentDB/src/StudentDB.sol\":600:695  function getEntireStruct() public view returns (Student memory) {... */\n    tag_4:\n      tag_9\n      tag_10\n      jump\t// in\n    tag_9:\n      mload(0x40)\n      tag_11\n      swap2\n      swap1\n      tag_12\n      jump\t// in\n    tag_11:\n      mload(0x40)\n      dup1\n      swap2\n      sub\n      swap1\n      return\n        /* \"StudentDB/src/StudentDB.sol\":456:568  function createStudent(string memory _name, uint256 _age) public {... */\n    tag_8:\n        /* \"StudentDB/src/StudentDB.sol\":541:561  Student(_name, _age) */\n      mload(0x40)\n      dup1\n      0x40\n      add\n      0x40\n      mstore\n      dup1\n        /* \"StudentDB/src/StudentDB.sol\":549:554  _name */\n      dup4\n        /* \"StudentDB/src/StudentDB.sol\":541:561  Student(_name, _age) */\n      dup2\n      mstore\n      0x20\n      add\n        /* \"StudentDB/src/StudentDB.sol\":556:560  _age */\n      dup3\n        /* \"StudentDB/src/StudentDB.sol\":541:561  Student(_name, _age) */\n      dup2\n      mstore\n      pop\n        /* \"StudentDB/src/StudentDB.sol\":531:538  student */\n      0x00\n        /* \"StudentDB/src/StudentDB.sol\":531:561  student = Student(_name, _age) */\n      dup1\n      dup3\n      add\n      mload\n      dup2\n      0x00\n      add\n      swap1\n      dup2\n      tag_14\n      swap2\n      swap1\n      tag_15\n      jump\t// in\n    tag_14:\n      pop\n      0x20\n      dup3\n      add\n      mload\n      dup2\n      0x01\n      add\n      sstore\n      swap1\n      pop\n      pop\n        /* \"StudentDB/src/StudentDB.sol\":456:568  function createStudent(string memory _name, uint256 _age) public {... */\n      pop\n      pop\n      jump\t// out\n        /* \"StudentDB/src/StudentDB.sol\":600:695  function getEntireStruct() public view returns (Student memory) {... */\n    tag_10:\n        /* \"StudentDB/src/StudentDB.sol\":648:662  Student memory */\n      tag_16\n      tag_17\n      jump\t// in\n    tag_16:\n        /* \"StudentDB/src/StudentDB.sol\":681:688  student */\n      0x00\n        /* \"StudentDB/src/StudentDB.sol\":674:688  return student */\n      mload(0x40)\n      dup1\n      0x40\n      add\n      0x40\n      mstore\n      swap1\n      dup2\n      0x00\n      dup3\n      add\n      dup1\n      sload\n      tag_19\n      swap1\n      tag_20\n      jump\t// in\n    tag_19:\n      dup1\n      0x1f\n      add\n      0x20\n      dup1\n      swap2\n      div\n      mul\n      0x20\n      add\n      mload(0x40)\n      swap1\n      dup2\n      add\n      0x40\n      mstore\n      dup1\n      swap3\n      swap2\n      swap1\n      dup2\n      dup2\n      mstore\n      0x20\n      add\n      dup3\n      dup1\n      sload\n      tag_21\n      swap1\n      tag_20\n      jump\t// in\n    tag_21:\n      dup1\n      iszero\n      tag_22\n      jumpi\n      dup1\n      0x1f\n      lt\n      tag_23\n      jumpi\n      0x0100\n      dup1\n      dup4\n      sload\n      div\n      mul\n      dup4\n      mstore\n      swap2\n      0x20\n      add\n      swap2\n      jump(tag_22)\n    tag_23:\n      dup3\n      add\n      swap2\n      swap1\n      0x00\n      mstore\n      keccak256(0x00, 0x20)\n      swap1\n    tag_24:\n      dup2\n      sload\n      dup2\n      mstore\n      swap1\n      0x01\n      add\n      swap1\n      0x20\n      add\n      dup1\n      dup4\n      gt\n      tag_24\n      jumpi\n      dup3\n      swap1\n      sub\n      0x1f\n      and\n      dup3\n      add\n      swap2\n    tag_22:\n      pop\n      pop\n      pop\n      pop\n      pop\n      dup2\n      mstore\n      0x20\n      add\n      0x01\n      dup3\n      add\n      sload\n      dup2\n      mstore\n      pop\n      pop\n      swap1\n      pop\n        /* \"StudentDB/src/StudentDB.sol\":600:695  function getEntireStruct() public view returns (Student memory) {... */\n      swap1\n      jump\t// out\n    tag_17:\n      mload(0x40)\n      dup1\n      0x40\n      add\n      0x40\n      mstore\n      dup1\n      0x60\n      dup2\n      mstore\n      0x20\n      add\n      0x00\n      dup2\n      mstore\n      pop\n      swap1\n      jump\t// out\n        /* \"#utility.yul\":7:82   */\n    tag_25:\n        /* \"#utility.yul\":40:46   */\n      0x00\n        /* \"#utility.yul\":73:75   */\n      0x40\n        /* \"#utility.yul\":67:76   */\n      mload\n        /* \"#utility.yul\":57:76   */\n      swap1\n      pop\n        /* \"#utility.yul\":7:82   */\n      swap1\n      jump\t// out\n        /* \"#utility.yul\":88:205   */\n    tag_26:\n        /* \"#utility.yul\":197:198   */\n      0x00\n        /* \"#utility.yul\":194:195   */\n      dup1\n        /* \"#utility.yul\":187:199   */\n      revert\n        /* \"#utility.yul\":211:328   */\n    tag_27:\n        /* \"#utility.yul\":320:321   */\n      0x00\n        /* \"#utility.yul\":317:318   */\n      dup1\n        /* \"#utility.yul\":310:322   */\n      revert\n        /* \"#utility.yul\":334:451   */\n    tag_28:\n        /* \"#utility.yul\":443:444   */\n      0x00\n        /* \"#utility.yul\":440:441   */\n      dup1\n        /* \"#utility.yul\":433:445   */\n      revert\n        /* \"#utility.yul\":457:574   */\n    tag_29:\n        /* \"#utility.yul\":566:567   */\n      0x00\n        /* \"#utility.yul\":563:564   */\n      dup1\n        /* \"#utility.yul\":556:568   */\n      revert\n        /* \"#utility.yul\":580:682   */\n    tag_30:\n        /* \"#utility.yul\":621:627   */\n      0x00\n        /* \"#utility.yul\":672:674   */\n      0x1f\n        /* \"#utility.yul\":668:675   */\n      not\n        /* \"#utility.yul\":663:665   */\n      0x1f\n        /* \"#utility.yul\":656:661   */\n      dup4\n        /* \"#utility.yul\":652:666   */\n      add\n        /* \"#utility.yul\":648:676   */\n      and\n        /* \"#utility.yul\":638:676   */\n      swap1\n      pop\n        /* \"#utility.yul\":580:682   */\n      swap2\n      swap1\n      pop\n      jump\t// out\n        /* \"#utility.yul\":688:868   */\n    tag_31:\n        /* \"#utility.yul\":736:813   */\n      0x4e487b7100000000000000000000000000000000000000000000000000000000\n        /* \"#utility.yul\":733:734   */\n      0x00\n        /* \"#utility.yul\":726:814   */\n      mstore\n        /* \"#utility.yul\":833:837   */\n      0x41\n        /* \"#utility.yul\":830:831   */\n      0x04\n        /* \"#utility.yul\":823:838   */\n      mstore\n        /* \"#utility.yul\":857:861   */\n      0x24\n        /* \"#utility.yul\":854:855   */\n      0x00\n        /* \"#utility.yul\":847:862   */\n      revert\n        /* \"#utility.yul\":874:1155   */\n    tag_32:\n        /* \"#utility.yul\":957:984   */\n      tag_72\n        /* \"#utility.yul\":979:983   */\n      dup3\n        /* \"#utility.yul\":957:984   */\n      tag_30\n      jump\t// in\n    tag_72:\n        /* \"#utility.yul\":949:955   */\n      dup2\n        /* \"#utility.yul\":945:985   */\n      add\n        /* \"#utility.yul\":1087:1093   */\n      dup2\n        /* \"#utility.yul\":1075:1085   */\n      dup2\n        /* \"#utility.yul\":1072:1094   */\n      lt\n        /* \"#utility.yul\":1051:1069   */\n      0xffffffffffffffff\n        /* \"#utility.yul\":1039:1049   */\n      dup3\n        /* \"#utility.yul\":1036:1070   */\n      gt\n        /* \"#utility.yul\":1033:1095   */\n      or\n        /* \"#utility.yul\":1030:1118   */\n      iszero\n      tag_73\n      jumpi\n        /* \"#utility.yul\":1098:1116   */\n      tag_74\n      tag_31\n      jump\t// in\n    tag_74:\n        /* \"#utility.yul\":1030:1118   */\n    tag_73:\n        /* \"#utility.yul\":1138:1148   */\n      dup1\n        /* \"#utility.yul\":1134:1136   */\n      0x40\n        /* \"#utility.yul\":1127:1149   */\n      mstore\n        /* \"#utility.yul\":917:1155   */\n      pop\n        /* \"#utility.yul\":874:1155   */\n      pop\n      pop\n      jump\t// out\n        /* \"#utility.yul\":1161:1290   */\n    tag_33:\n        /* \"#utility.yul\":1195:1201   */\n      0x00\n        /* \"#utility.yul\":1222:1242   */\n      tag_76\n      tag_25\n      jump\t// in\n    tag_76:\n        /* \"#utility.yul\":1212:1242   */\n      swap1\n      pop\n        /* \"#utility.yul\":1251:1284   */\n      tag_77\n        /* \"#utility.yul\":1279:1283   */\n      dup3\n        /* \"#utility.yul\":1271:1277   */\n      dup3\n        /* \"#utility.yul\":1251:1284   */\n      tag_32\n      jump\t// in\n    tag_77:\n        /* \"#utility.yul\":1161:1290   */\n      swap2\n      swap1\n      pop\n      jump\t// out\n        /* \"#utility.yul\":1296:1604   */\n    tag_34:\n        /* \"#utility.yul\":1358:1362   */\n      0x00\n        /* \"#utility.yul\":1448:1466   */\n      0xffffffffffffffff\n        /* \"#utility.yul\":1440:1446   */\n      dup3\n        /* \"#utility.yul\":1437:1467   */\n      gt\n        /* \"#utility.yul\":1434:1490   */\n      iszero\n      tag_79\n      jumpi\n        /* \"#utility.yul\":1470:1488   */\n      tag_80\n      tag_31\n      jump\t// in\n    tag_80:\n        /* \"#utility.yul\":1434:1490   */\n    tag_79:\n        /* \"#utility.yul\":1508:1537   */\n      tag_81\n        /* \"#utility.yul\":1530:1536   */\n      dup3\n        /* \"#utility.yul\":1508:1537   */\n      tag_30\n      jump\t// in\n    tag_81:\n        /* \"#utility.yul\":1500:1537   */\n      swap1\n      pop\n        /* \"#utility.yul\":1592:1596   */\n      0x20\n        /* \"#utility.yul\":1586:1590   */\n      dup2\n        /* \"#utility.yul\":1582:1597   */\n      add\n        /* \"#utility.yul\":1574:1597   */\n      swap1\n      pop\n        /* \"#utility.yul\":1296:1604   */\n      swap2\n      swap1\n      pop\n      jump\t// out\n        /* \"#utility.yul\":1610:1758   */\n    tag_35:\n        /* \"#utility.yul\":1708:1714   */\n      dup3\n        /* \"#utility.yul\":1703:1706   */\n      dup2\n        /* \"#utility.yul\":1698:1701   */\n      dup4\n        /* \"#utility.yul\":1685:1715   */\n      calldatacopy\n        /* \"#utility.yul\":1749:1750   */\n      0x00\n        /* \"#utility.yul\":1740:1746   */\n      dup4\n        /* \"#utility.yul\":1735:1738   */\n      dup4\n        /* \"#utility.yul\":1731:1747   */\n      add\n        /* \"#utility.yul\":1724:1751   */\n      mstore\n        /* \"#utility.yul\":1610:1758   */\n      pop\n      pop\n      pop\n      jump\t// out\n        /* \"#utility.yul\":1764:2189   */\n    tag_36:\n        /* \"#utility.yul\":1842:1847   */\n      0x00\n        /* \"#utility.yul\":1867:1933   */\n      tag_84\n        /* \"#utility.yul\":1883:1932   */\n      tag_85\n        /* \"#utility.yul\":1925:1931   */\n      dup5\n        /* \"#utility.yul\":1883:1932   */\n      tag_34\n      jump\t// in\n    tag_85:\n        /* \"#utility.yul\":1867:1933   */\n      tag_33\n      jump\t// in\n    tag_84:\n        /* \"#utility.yul\":1858:1933   */\n      swap1\n      pop\n        /* \"#utility.yul\":1956:1962   */\n      dup3\n        /* \"#utility.yul\":1949:1954   */\n      dup2\n        /* \"#utility.yul\":1942:1963   */\n      mstore\n        /* \"#utility.yul\":1994:1998   */\n      0x20\n        /* \"#utility.yul\":1987:1992   */\n      dup2\n        /* \"#utility.yul\":1983:1999   */\n      add\n        /* \"#utility.yul\":2032:2035   */\n      dup5\n        /* \"#utility.yul\":2023:2029   */\n      dup5\n        /* \"#utility.yul\":2018:2021   */\n      dup5\n        /* \"#utility.yul\":2014:2030   */\n      add\n        /* \"#utility.yul\":2011:2036   */\n      gt\n        /* \"#utility.yul\":2008:2120   */\n      iszero\n      tag_86\n      jumpi\n        /* \"#utility.yul\":2039:2118   */\n      tag_87\n      tag_29\n      jump\t// in\n    tag_87:\n        /* \"#utility.yul\":2008:2120   */\n    tag_86:\n        /* \"#utility.yul\":2129:2183   */\n      tag_88\n        /* \"#utility.yul\":2176:2182   */\n      dup5\n        /* \"#utility.yul\":2171:2174   */\n      dup3\n        /* \"#utility.yul\":2166:2169   */\n      dup6\n        /* \"#utility.yul\":2129:2183   */\n      tag_35\n      jump\t// in\n    tag_88:\n        /* \"#utility.yul\":1848:2189   */\n      pop\n        /* \"#utility.yul\":1764:2189   */\n      swap4\n      swap3\n      pop\n      pop\n      pop\n      jump\t// out\n        /* \"#utility.yul\":2209:2549   */\n    tag_37:\n        /* \"#utility.yul\":2265:2270   */\n      0x00\n        /* \"#utility.yul\":2314:2317   */\n      dup3\n        /* \"#utility.yul\":2307:2311   */\n      0x1f\n        /* \"#utility.yul\":2299:2305   */\n      dup4\n        /* \"#utility.yul\":2295:2312   */\n      add\n        /* \"#utility.yul\":2291:2318   */\n      slt\n        /* \"#utility.yul\":2281:2403   */\n      tag_90\n      jumpi\n        /* \"#utility.yul\":2322:2401   */\n      tag_91\n      tag_28\n      jump\t// in\n    tag_91:\n        /* \"#utility.yul\":2281:2403   */\n    tag_90:\n        /* \"#utility.yul\":2439:2445   */\n      dup2\n        /* \"#utility.yul\":2426:2446   */\n      calldataload\n        /* \"#utility.yul\":2464:2543   */\n      tag_92\n        /* \"#utility.yul\":2539:2542   */\n      dup5\n        /* \"#utility.yul\":2531:2537   */\n      dup3\n        /* \"#utility.yul\":2524:2528   */\n      0x20\n        /* \"#utility.yul\":2516:2522   */\n      dup7\n        /* \"#utility.yul\":2512:2529   */\n      add\n        /* \"#utility.yul\":2464:2543   */\n      tag_36\n      jump\t// in\n    tag_92:\n        /* \"#utility.yul\":2455:2543   */\n      swap2\n      pop\n        /* \"#utility.yul\":2271:2549   */\n      pop\n        /* \"#utility.yul\":2209:2549   */\n      swap3\n      swap2\n      pop\n      pop\n      jump\t// out\n        /* \"#utility.yul\":2555:2632   */\n    tag_38:\n        /* \"#utility.yul\":2592:2599   */\n      0x00\n        /* \"#utility.yul\":2621:2626   */\n      dup2\n        /* \"#utility.yul\":2610:2626   */\n      swap1\n      pop\n        /* \"#utility.yul\":2555:2632   */\n      swap2\n      swap1\n      pop\n      jump\t// out\n        /* \"#utility.yul\":2638:2760   */\n    tag_39:\n        /* \"#utility.yul\":2711:2735   */\n      tag_95\n        /* \"#utility.yul\":2729:2734   */\n      dup2\n        /* \"#utility.yul\":2711:2735   */\n      tag_38\n      jump\t// in\n    tag_95:\n        /* \"#utility.yul\":2704:2709   */\n      dup2\n        /* \"#utility.yul\":2701:2736   */\n      eq\n        /* \"#utility.yul\":2691:2754   */\n      tag_96\n      jumpi\n        /* \"#utility.yul\":2750:2751   */\n      0x00\n        /* \"#utility.yul\":2747:2748   */\n      dup1\n        /* \"#utility.yul\":2740:2752   */\n      revert\n        /* \"#utility.yul\":2691:2754   */\n    tag_96:\n        /* \"#utility.yul\":2638:2760   */\n      pop\n      jump\t// out\n        /* \"#utility.yul\":2766:2905   */\n    tag_40:\n        /* \"#utility.yul\":2812:2817   */\n      0x00\n        /* \"#utility.yul\":2850:2856   */\n      dup2\n        /* \"#utility.yul\":2837:2857   */\n      calldataload\n        /* \"#utility.yul\":2828:2857   */\n      swap1\n      pop\n        /* \"#utility.yul\":2866:2899   */\n      tag_98\n        /* \"#utility.yul\":2893:2898   */\n      dup2\n        /* \"#utility.yul\":2866:2899   */\n      tag_39\n      jump\t// in\n    tag_98:\n        /* \"#utility.yul\":2766:2905   */\n      swap3\n      swap2\n      pop\n      pop\n      jump\t// out\n        /* \"#utility.yul\":2911:3565   */\n    tag_7:\n        /* \"#utility.yul\":2989:2995   */\n      0x00\n        /* \"#utility.yul\":2997:3003   */\n      dup1\n        /* \"#utility.yul\":3046:3048   */\n      0x40\n        /* \"#utility.yul\":3034:3043   */\n      dup4\n        /* \"#utility.yul\":3025:3032   */\n      dup6\n        /* \"#utility.yul\":3021:3044   */\n      sub\n        /* \"#utility.yul\":3017:3049   */\n      slt\n        /* \"#utility.yul\":3014:3133   */\n      iszero\n      tag_100\n      jumpi\n        /* \"#utility.yul\":3052:3131   */\n      tag_101\n      tag_26\n      jump\t// in\n    tag_101:\n        /* \"#utility.yul\":3014:3133   */\n    tag_100:\n        /* \"#utility.yul\":3200:3201   */\n      0x00\n        /* \"#utility.yul\":3189:3198   */\n      dup4\n        /* \"#utility.yul\":3185:3202   */\n      add\n        /* \"#utility.yul\":3172:3203   */\n      calldataload\n        /* \"#utility.yul\":3230:3248   */\n      0xffffffffffffffff\n        /* \"#utility.yul\":3222:3228   */\n      dup2\n        /* \"#utility.yul\":3219:3249   */\n      gt\n        /* \"#utility.yul\":3216:3333   */\n      iszero\n      tag_102\n      jumpi\n        /* \"#utility.yul\":3252:3331   */\n      tag_103\n      tag_27\n      jump\t// in\n    tag_103:\n        /* \"#utility.yul\":3216:3333   */\n    tag_102:\n        /* \"#utility.yul\":3357:3420   */\n      tag_104\n        /* \"#utility.yul\":3412:3419   */\n      dup6\n        /* \"#utility.yul\":3403:3409   */\n      dup3\n        /* \"#utility.yul\":3392:3401   */\n      dup7\n        /* \"#utility.yul\":3388:3410   */\n      add\n        /* \"#utility.yul\":3357:3420   */\n      tag_37\n      jump\t// in\n    tag_104:\n        /* \"#utility.yul\":3347:3420   */\n      swap3\n      pop\n        /* \"#utility.yul\":3143:3430   */\n      pop\n        /* \"#utility.yul\":3469:3471   */\n      0x20\n        /* \"#utility.yul\":3495:3548   */\n      tag_105\n        /* \"#utility.yul\":3540:3547   */\n      dup6\n        /* \"#utility.yul\":3531:3537   */\n      dup3\n        /* \"#utility.yul\":3520:3529   */\n      dup7\n        /* \"#utility.yul\":3516:3538   */\n      add\n        /* \"#utility.yul\":3495:3548   */\n      tag_40\n      jump\t// in\n    tag_105:\n        /* \"#utility.yul\":3485:3548   */\n      swap2\n      pop\n        /* \"#utility.yul\":3440:3558   */\n      pop\n        /* \"#utility.yul\":2911:3565   */\n      swap3\n      pop\n      swap3\n      swap1\n      pop\n      jump\t// out\n        /* \"#utility.yul\":3571:3670   */\n    tag_41:\n        /* \"#utility.yul\":3623:3629   */\n      0x00\n        /* \"#utility.yul\":3657:3662   */\n      dup2\n        /* \"#utility.yul\":3651:3663   */\n      mload\n        /* \"#utility.yul\":3641:3663   */\n      swap1\n      pop\n        /* \"#utility.yul\":3571:3670   */\n      swap2\n      swap1\n      pop\n      jump\t// out\n        /* \"#utility.yul\":3676:3835   */\n    tag_42:\n        /* \"#utility.yul\":3750:3761   */\n      0x00\n        /* \"#utility.yul\":3784:3790   */\n      dup3\n        /* \"#utility.yul\":3779:3782   */\n      dup3\n        /* \"#utility.yul\":3772:3791   */\n      mstore\n        /* \"#utility.yul\":3824:3828   */\n      0x20\n        /* \"#utility.yul\":3819:3822   */\n      dup3\n        /* \"#utility.yul\":3815:3829   */\n      add\n        /* \"#utility.yul\":3800:3829   */\n      swap1\n      pop\n        /* \"#utility.yul\":3676:3835   */\n      swap3\n      swap2\n      pop\n      pop\n      jump\t// out\n        /* \"#utility.yul\":3841:3980   */\n    tag_43:\n        /* \"#utility.yul\":3930:3936   */\n      dup3\n        /* \"#utility.yul\":3925:3928   */\n      dup2\n        /* \"#utility.yul\":3920:3923   */\n      dup4\n        /* \"#utility.yul\":3914:3937   */\n      mcopy\n        /* \"#utility.yul\":3971:3972   */\n      0x00\n        /* \"#utility.yul\":3962:3968   */\n      dup4\n        /* \"#utility.yul\":3957:3960   */\n      dup4\n        /* \"#utility.yul\":3953:3969   */\n      add\n        /* \"#utility.yul\":3946:3973   */\n      mstore\n        /* \"#utility.yul\":3841:3980   */\n      pop\n      pop\n      pop\n      jump\t// out\n        /* \"#utility.yul\":3986:4343   */\n    tag_44:\n        /* \"#utility.yul\":4064:4067   */\n      0x00\n        /* \"#utility.yul\":4092:4131   */\n      tag_110\n        /* \"#utility.yul\":4125:4130   */\n      dup3\n        /* \"#utility.yul\":4092:4131   */\n      tag_41\n      jump\t// in\n    tag_110:\n        /* \"#utility.yul\":4147:4208   */\n      tag_111\n        /* \"#utility.yul\":4201:4207   */\n      dup2\n        /* \"#utility.yul\":4196:4199   */\n      dup6\n        /* \"#utility.yul\":4147:4208   */\n      tag_42\n      jump\t// in\n    tag_111:\n        /* \"#utility.yul\":4140:4208   */\n      swap4\n      pop\n        /* \"#utility.yul\":4217:4282   */\n      tag_112\n        /* \"#utility.yul\":4275:4281   */\n      dup2\n        /* \"#utility.yul\":4270:4273   */\n      dup6\n        /* \"#utility.yul\":4263:4267   */\n      0x20\n        /* \"#utility.yul\":4256:4261   */\n      dup7\n        /* \"#utility.yul\":4252:4268   */\n      add\n        /* \"#utility.yul\":4217:4282   */\n      tag_43\n      jump\t// in\n    tag_112:\n        /* \"#utility.yul\":4307:4336   */\n      tag_113\n        /* \"#utility.yul\":4329:4335   */\n      dup2\n        /* \"#utility.yul\":4307:4336   */\n      tag_30\n      jump\t// in\n    tag_113:\n        /* \"#utility.yul\":4302:4305   */\n      dup5\n        /* \"#utility.yul\":4298:4337   */\n      add\n        /* \"#utility.yul\":4291:4337   */\n      swap2\n      pop\n        /* \"#utility.yul\":4068:4343   */\n      pop\n        /* \"#utility.yul\":3986:4343   */\n      swap3\n      swap2\n      pop\n      pop\n      jump\t// out\n        /* \"#utility.yul\":4349:4457   */\n    tag_45:\n        /* \"#utility.yul\":4426:4450   */\n      tag_115\n        /* \"#utility.yul\":4444:4449   */\n      dup2\n        /* \"#utility.yul\":4426:4450   */\n      tag_38\n      jump\t// in\n    tag_115:\n        /* \"#utility.yul\":4421:4424   */\n      dup3\n        /* \"#utility.yul\":4414:4451   */\n      mstore\n        /* \"#utility.yul\":4349:4457   */\n      pop\n      pop\n      jump\t// out\n        /* \"#utility.yul\":4523:5122   */\n    tag_46:\n        /* \"#utility.yul\":4636:4639   */\n      0x00\n        /* \"#utility.yul\":4672:4676   */\n      0x40\n        /* \"#utility.yul\":4667:4670   */\n      dup4\n        /* \"#utility.yul\":4663:4677   */\n      add\n        /* \"#utility.yul\":4759:4763   */\n      0x00\n        /* \"#utility.yul\":4752:4757   */\n      dup4\n        /* \"#utility.yul\":4748:4764   */\n      add\n        /* \"#utility.yul\":4742:4765   */\n      mload\n        /* \"#utility.yul\":4812:4815   */\n      dup5\n        /* \"#utility.yul\":4806:4810   */\n      dup3\n        /* \"#utility.yul\":4802:4816   */\n      sub\n        /* \"#utility.yul\":4795:4799   */\n      0x00\n        /* \"#utility.yul\":4790:4793   */\n      dup7\n        /* \"#utility.yul\":4786:4800   */\n      add\n        /* \"#utility.yul\":4779:4817   */\n      mstore\n        /* \"#utility.yul\":4838:4911   */\n      tag_117\n        /* \"#utility.yul\":4906:4910   */\n      dup3\n        /* \"#utility.yul\":4892:4904   */\n      dup3\n        /* \"#utility.yul\":4838:4911   */\n      tag_44\n      jump\t// in\n    tag_117:\n        /* \"#utility.yul\":4830:4911   */\n      swap2\n      pop\n        /* \"#utility.yul\":4687:4922   */\n      pop\n        /* \"#utility.yul\":5003:5007   */\n      0x20\n        /* \"#utility.yul\":4996:5001   */\n      dup4\n        /* \"#utility.yul\":4992:5008   */\n      add\n        /* \"#utility.yul\":4986:5009   */\n      mload\n        /* \"#utility.yul\":5022:5085   */\n      tag_118\n        /* \"#utility.yul\":5079:5083   */\n      0x20\n        /* \"#utility.yul\":5074:5077   */\n      dup7\n        /* \"#utility.yul\":5070:5084   */\n      add\n        /* \"#utility.yul\":5056:5068   */\n      dup3\n        /* \"#utility.yul\":5022:5085   */\n      tag_45\n      jump\t// in\n    tag_118:\n        /* \"#utility.yul\":4932:5095   */\n      pop\n        /* \"#utility.yul\":5112:5116   */\n      dup1\n        /* \"#utility.yul\":5105:5116   */\n      swap2\n      pop\n        /* \"#utility.yul\":4641:5122   */\n      pop\n        /* \"#utility.yul\":4523:5122   */\n      swap3\n      swap2\n      pop\n      pop\n      jump\t// out\n        /* \"#utility.yul\":5128:5489   */\n    tag_12:\n        /* \"#utility.yul\":5265:5269   */\n      0x00\n        /* \"#utility.yul\":5303:5305   */\n      0x20\n        /* \"#utility.yul\":5292:5301   */\n      dup3\n        /* \"#utility.yul\":5288:5306   */\n      add\n        /* \"#utility.yul\":5280:5306   */\n      swap1\n      pop\n        /* \"#utility.yul\":5352:5361   */\n      dup2\n        /* \"#utility.yul\":5346:5350   */\n      dup2\n        /* \"#utility.yul\":5342:5362   */\n      sub\n        /* \"#utility.yul\":5338:5339   */\n      0x00\n        /* \"#utility.yul\":5327:5336   */\n      dup4\n        /* \"#utility.yul\":5323:5340   */\n      add\n        /* \"#utility.yul\":5316:5363   */\n      mstore\n        /* \"#utility.yul\":5380:5482   */\n      tag_120\n        /* \"#utility.yul\":5477:5481   */\n      dup2\n        /* \"#utility.yul\":5468:5474   */\n      dup5\n        /* \"#utility.yul\":5380:5482   */\n      tag_46\n      jump\t// in\n    tag_120:\n        /* \"#utility.yul\":5372:5482   */\n      swap1\n      pop\n        /* \"#utility.yul\":5128:5489   */\n      swap3\n      swap2\n      pop\n      pop\n      jump\t// out\n        /* \"#utility.yul\":5495:5675   */\n    tag_47:\n        /* \"#utility.yul\":5543:5620   */\n      0x4e487b7100000000000000000000000000000000000000000000000000000000\n        /* \"#utility.yul\":5540:5541   */\n      0x00\n        /* \"#utility.yul\":5533:5621   */\n      mstore\n        /* \"#utility.yul\":5640:5644   */\n      0x22\n        /* \"#utility.yul\":5637:5638   */\n      0x04\n        /* \"#utility.yul\":5630:5645   */\n      mstore\n        /* \"#utility.yul\":5664:5668   */\n      0x24\n        /* \"#utility.yul\":5661:5662   */\n      0x00\n        /* \"#utility.yul\":5654:5669   */\n      revert\n        /* \"#utility.yul\":5681:6001   */\n    tag_20:\n        /* \"#utility.yul\":5725:5731   */\n      0x00\n        /* \"#utility.yul\":5762:5763   */\n      0x02\n        /* \"#utility.yul\":5756:5760   */\n      dup3\n        /* \"#utility.yul\":5752:5764   */\n      div\n        /* \"#utility.yul\":5742:5764   */\n      swap1\n      pop\n        /* \"#utility.yul\":5809:5810   */\n      0x01\n        /* \"#utility.yul\":5803:5807   */\n      dup3\n        /* \"#utility.yul\":5799:5811   */\n      and\n        /* \"#utility.yul\":5830:5848   */\n      dup1\n        /* \"#utility.yul\":5820:5901   */\n      tag_123\n      jumpi\n        /* \"#utility.yul\":5886:5890   */\n      0x7f\n        /* \"#utility.yul\":5878:5884   */\n      dup3\n        /* \"#utility.yul\":5874:5891   */\n      and\n        /* \"#utility.yul\":5864:5891   */\n      swap2\n      pop\n        /* \"#utility.yul\":5820:5901   */\n    tag_123:\n        /* \"#utility.yul\":5948:5950   */\n      0x20\n        /* \"#utility.yul\":5940:5946   */\n      dup3\n        /* \"#utility.yul\":5937:5951   */\n      lt\n        /* \"#utility.yul\":5917:5935   */\n      dup2\n        /* \"#utility.yul\":5914:5952   */\n      sub\n        /* \"#utility.yul\":5911:5995   */\n      tag_124\n      jumpi\n        /* \"#utility.yul\":5967:5985   */\n      tag_125\n      tag_47\n      jump\t// in\n    tag_125:\n        /* \"#utility.yul\":5911:5995   */\n    tag_124:\n        /* \"#utility.yul\":5732:6001   */\n      pop\n        /* \"#utility.yul\":5681:6001   */\n      swap2\n      swap1\n      pop\n      jump\t// out\n        /* \"#utility.yul\":6007:6148   */\n    tag_48:\n        /* \"#utility.yul\":6056:6060   */\n      0x00\n        /* \"#utility.yul\":6079:6082   */\n      dup2\n        /* \"#utility.yul\":6071:6082   */\n      swap1\n      pop\n        /* \"#utility.yul\":6102:6105   */\n      dup2\n        /* \"#utility.yul\":6099:6100   */\n      0x00\n        /* \"#utility.yul\":6092:6106   */\n      mstore\n        /* \"#utility.yul\":6136:6140   */\n      0x20\n        /* \"#utility.yul\":6133:6134   */\n      0x00\n        /* \"#utility.yul\":6123:6141   */\n      keccak256\n        /* \"#utility.yul\":6115:6141   */\n      swap1\n      pop\n        /* \"#utility.yul\":6007:6148   */\n      swap2\n      swap1\n      pop\n      jump\t// out\n        /* \"#utility.yul\":6154:6247   */\n    tag_49:\n        /* \"#utility.yul\":6191:6197   */\n      0x00\n        /* \"#utility.yul\":6238:6240   */\n      0x20\n        /* \"#utility.yul\":6233:6235   */\n      0x1f\n        /* \"#utility.yul\":6226:6231   */\n      dup4\n        /* \"#utility.yul\":6222:6236   */\n      add\n        /* \"#utility.yul\":6218:6241   */\n      div\n        /* \"#utility.yul\":6208:6241   */\n      swap1\n      pop\n        /* \"#utility.yul\":6154:6247   */\n      swap2\n      swap1\n      pop\n      jump\t// out\n        /* \"#utility.yul\":6253:6360   */\n    tag_50:\n        /* \"#utility.yul\":6297:6305   */\n      0x00\n        /* \"#utility.yul\":6347:6352   */\n      dup3\n        /* \"#utility.yul\":6341:6345   */\n      dup3\n        /* \"#utility.yul\":6337:6353   */\n      shl\n        /* \"#utility.yul\":6316:6353   */\n      swap1\n      pop\n        /* \"#utility.yul\":6253:6360   */\n      swap3\n      swap2\n      pop\n      pop\n      jump\t// out\n        /* \"#utility.yul\":6366:6759   */\n    tag_51:\n        /* \"#utility.yul\":6435:6441   */\n      0x00\n        /* \"#utility.yul\":6485:6486   */\n      0x08\n        /* \"#utility.yul\":6473:6483   */\n      dup4\n        /* \"#utility.yul\":6469:6487   */\n      mul\n        /* \"#utility.yul\":6508:6605   */\n      tag_130\n        /* \"#utility.yul\":6538:6604   */\n      0xffffffffffffffffffffffffffffffffffffffffffffffffffffffffffffffff\n        /* \"#utility.yul\":6527:6536   */\n      dup3\n        /* \"#utility.yul\":6508:6605   */\n      tag_50\n      jump\t// in\n    tag_130:\n        /* \"#utility.yul\":6626:6665   */\n      tag_131\n        /* \"#utility.yul\":6656:6664   */\n      dup7\n        /* \"#utility.yul\":6645:6654   */\n      dup4\n        /* \"#utility.yul\":6626:6665   */\n      tag_50\n      jump\t// in\n    tag_131:\n        /* \"#utility.yul\":6614:6665   */\n      swap6\n      pop\n        /* \"#utility.yul\":6698:6702   */\n      dup1\n        /* \"#utility.yul\":6694:6703   */\n      not\n        /* \"#utility.yul\":6687:6692   */\n      dup5\n        /* \"#utility.yul\":6683:6704   */\n      and\n        /* \"#utility.yul\":6674:6704   */\n      swap4\n      pop\n        /* \"#utility.yul\":6747:6751   */\n      dup1\n        /* \"#utility.yul\":6737:6745   */\n      dup7\n        /* \"#utility.yul\":6733:6752   */\n      and\n        /* \"#utility.yul\":6726:6731   */\n      dup5\n        /* \"#utility.yul\":6723:6753   */\n      or\n        /* \"#utility.yul\":6713:6753   */\n      swap3\n      pop\n        /* \"#utility.yul\":6442:6759   */\n      pop\n      pop\n        /* \"#utility.yul\":6366:6759   */\n      swap4\n      swap3\n      pop\n      pop\n      pop\n      jump\t// out\n        /* \"#utility.yul\":6765:6825   */\n    tag_52:\n        /* \"#utility.yul\":6793:6796   */\n      0x00\n        /* \"#utility.yul\":6814:6819   */\n      dup2\n        /* \"#utility.yul\":6807:6819   */\n      swap1\n      pop\n        /* \"#utility.yul\":6765:6825   */\n      swap2\n      swap1\n      pop\n      jump\t// out\n        /* \"#utility.yul\":6831:6973   */\n    tag_53:\n        /* \"#utility.yul\":6881:6890   */\n      0x00\n        /* \"#utility.yul\":6914:6967   */\n      tag_134\n        /* \"#utility.yul\":6932:6966   */\n      tag_135\n        /* \"#utility.yul\":6941:6965   */\n      tag_136\n        /* \"#utility.yul\":6959:6964   */\n      dup5\n        /* \"#utility.yul\":6941:6965   */\n      tag_38\n      jump\t// in\n    tag_136:\n        /* \"#utility.yul\":6932:6966   */\n      tag_52\n      jump\t// in\n    tag_135:\n        /* \"#utility.yul\":6914:6967   */\n      tag_38\n      jump\t// in\n    tag_134:\n        /* \"#utility.yul\":6901:6967   */\n      swap1\n      pop\n        /* \"#utility.yul\":6831:6973   */\n      swap2\n      swap1\n      pop\n      jump\t// out\n        /* \"#utility.yul\":6979:7054   */\n    tag_54:\n        /* \"#utility.yul\":7022:7025   */\n      0x00\n        /* \"#utility.yul\":7043:7048   */\n      dup2\n        /* \"#utility.yul\":7036:7048   */\n      swap1\n      pop\n        /* \"#utility.yul\":6979:7054   */\n      swap2\n      swap1\n      pop\n      jump\t// out\n        /* \"#utility.yul\":7060:7329   */\n    tag_55:\n        /* \"#utility.yul\":7170:7209   */\n      tag_139\n        /* \"#utility.yul\":7201:7208   */\n      dup4\n        /* \"#utility.yul\":7170:7209   */\n      tag_53\n      jump\t// in\n    tag_139:\n        /* \"#utility.yul\":7231:7322   */\n      tag_140\n        /* \"#utility.yul\":7280:7321   */\n      tag_141\n        /* \"#utility.yul\":7304:7320   */\n      dup3\n        /* \"#utility.yul\":7280:7321   */\n      tag_54\n      jump\t// in\n    tag_141:\n        /* \"#utility.yul\":7272:7278   */\n      dup5\n        /* \"#utility.yul\":7265:7269   */\n      dup5\n        /* \"#utility.yul\":7259:7270   */\n      sload\n        /* \"#utility.yul\":7231:7322   */\n      tag_51\n      jump\t// in\n    tag_140:\n        /* \"#utility.yul\":7225:7229   */\n      dup3\n        /* \"#utility.yul\":7218:7323   */\n      sstore\n        /* \"#utility.yul\":7136:7329   */\n      pop\n        /* \"#utility.yul\":7060:7329   */\n      pop\n      pop\n      pop\n      jump\t// out\n        /* \"#utility.yul\":7335:7408   */\n    tag_56:\n        /* \"#utility.yul\":7380:7383   */\n      0x00\n        /* \"#utility.yul\":7335:7408   */\n      swap1\n      jump\t// out\n        /* \"#utility.yul\":7414:7603   */\n    tag_57:\n        /* \"#utility.yul\":7491:7523   */\n      tag_144\n      tag_56\n      jump\t// in\n    tag_144:\n        /* \"#utility.yul\":7532:7597   */\n      tag_145\n        /* \"#utility.yul\":7590:7596   */\n      dup2\n        /* \"#utility.yul\":7582:7588   */\n      dup5\n        /* \"#utility.yul\":7576:7580   */\n      dup5\n        /* \"#utility.yul\":7532:7597   */\n      tag_55\n      jump\t// in\n    tag_145:\n        /* \"#utility.yul\":7467:7603   */\n      pop\n        /* \"#utility.yul\":7414:7603   */\n      pop\n      pop\n      jump\t// out\n        /* \"#utility.yul\":7609:7795   */\n    tag_58:\n        /* \"#utility.yul\":7669:7789   */\n    tag_147:\n        /* \"#utility.yul\":7686:7689   */\n      dup2\n        /* \"#utility.yul\":7679:7684   */\n      dup2\n        /* \"#utility.yul\":7676:7690   */\n      lt\n        /* \"#utility.yul\":7669:7789   */\n      iszero\n      tag_149\n      jumpi\n        /* \"#utility.yul\":7740:7779   */\n      tag_150\n        /* \"#utility.yul\":7777:7778   */\n      0x00\n        /* \"#utility.yul\":7770:7775   */\n      dup3\n        /* \"#utility.yul\":7740:7779   */\n      tag_57\n      jump\t// in\n    tag_150:\n        /* \"#utility.yul\":7713:7714   */\n      0x01\n        /* \"#utility.yul\":7706:7711   */\n      dup2\n        /* \"#utility.yul\":7702:7715   */\n      add\n        /* \"#utility.yul\":7693:7715   */\n      swap1\n      pop\n        /* \"#utility.yul\":7669:7789   */\n      jump(tag_147)\n    tag_149:\n        /* \"#utility.yul\":7609:7795   */\n      pop\n      pop\n      jump\t// out\n        /* \"#utility.yul\":7801:8344   */\n    tag_59:\n        /* \"#utility.yul\":7902:7904   */\n      0x1f\n        /* \"#utility.yul\":7897:7900   */\n      dup3\n        /* \"#utility.yul\":7894:7905   */\n      gt\n        /* \"#utility.yul\":7891:8337   */\n      iszero\n      tag_152\n      jumpi\n        /* \"#utility.yul\":7936:7974   */\n      tag_153\n        /* \"#utility.yul\":7968:7973   */\n      dup2\n        /* \"#utility.yul\":7936:7974   */\n      tag_48\n      jump\t// in\n    tag_153:\n        /* \"#utility.yul\":8020:8049   */\n      tag_154\n        /* \"#utility.yul\":8038:8048   */\n      dup5\n        /* \"#utility.yul\":8020:8049   */\n      tag_49\n      jump\t// in\n    tag_154:\n        /* \"#utility.yul\":8010:8018   */\n      dup2\n        /* \"#utility.yul\":8006:8050   */\n      add\n        /* \"#utility.yul\":8203:8205   */\n      0x20\n        /* \"#utility.yul\":8191:8201   */\n      dup6\n        /* \"#utility.yul\":8188:8206   */\n      lt\n        /* \"#utility.yul\":8185:8234   */\n      iszero\n      tag_155\n      jumpi\n        /* \"#utility.yul\":8224:8232   */\n      dup2\n        /* \"#utility.yul\":8209:8232   */\n      swap1\n      pop\n        /* \"#utility.yul\":8185:8234   */\n    tag_155:\n        /* \"#utility.yul\":8247:8327   */\n      tag_156\n        /* \"#utility.yul\":8303:8325   */\n      tag_157\n        /* \"#utility.yul\":8321:8324   */\n      dup6\n        /* \"#utility.yul\":8303:8325   */\n      tag_49\n      jump\t// in\n    tag_157:\n        /* \"#utility.yul\":8293:8301   */\n      dup4\n        /* \"#utility.yul\":8289:8326   */\n      add\n        /* \"#utility.yul\":8276:8287   */\n      dup3\n        /* \"#utility.yul\":8247:8327   */\n      tag_58\n      jump\t// in\n    tag_156:\n        /* \"#utility.yul\":7906:8337   */\n      pop\n      pop\n        /* \"#utility.yul\":7891:8337   */\n    tag_152:\n        /* \"#utility.yul\":7801:8344   */\n      pop\n      pop\n      pop\n      jump\t// out\n        /* \"#utility.yul\":8350:8467   */\n    tag_60:\n        /* \"#utility.yul\":8404:8412   */\n      0x00\n        /* \"#utility.yul\":8454:8459   */\n      dup3\n        /* \"#utility.yul\":8448:8452   */\n      dup3\n        /* \"#utility.yul\":8444:8460   */\n      shr\n        /* \"#utility.yul\":8423:8460   */\n      swap1\n      pop\n        /* \"#utility.yul\":8350:8467   */\n      swap3\n      swap2\n      pop\n      pop\n      jump\t// out\n        /* \"#utility.yul\":8473:8642   */\n    tag_61:\n        /* \"#utility.yul\":8517:8523   */\n      0x00\n        /* \"#utility.yul\":8550:8601   */\n      tag_160\n        /* \"#utility.yul\":8598:8599   */\n      0x00\n        /* \"#utility.yul\":8594:8600   */\n      not\n        /* \"#utility.yul\":8586:8591   */\n      dup5\n        /* \"#utility.yul\":8583:8584   */\n      0x08\n        /* \"#utility.yul\":8579:8592   */\n      mul\n        /* \"#utility.yul\":8550:8601   */\n      tag_60\n      jump\t// in\n    tag_160:\n        /* \"#utility.yul\":8546:8602   */\n      not\n        /* \"#utility.yul\":8631:8635   */\n      dup1\n        /* \"#utility.yul\":8625:8629   */\n      dup4\n        /* \"#utility.yul\":8621:8636   */\n      and\n        /* \"#utility.yul\":8611:8636   */\n      swap2\n      pop\n        /* \"#utility.yul\":8524:8642   */\n      pop\n        /* \"#utility.yul\":8473:8642   */\n      swap3\n      swap2\n      pop\n      pop\n      jump\t// out\n        /* \"#utility.yul\":8647:8942   */\n    tag_62:\n        /* \"#utility.yul\":8723:8727   */\n      0x00\n        /* \"#utility.yul\":8869:8898   */\n      tag_162\n        /* \"#utility.yul\":8894:8897   */\n      dup4\n        /* \"#utility.yul\":8888:8892   */\n      dup4\n        /* \"#utility.yul\":8869:8898   */\n      tag_61\n      jump\t// in\n    tag_162:\n        /* \"#utility.yul\":8861:8898   */\n      swap2\n      pop\n        /* \"#utility.yul\":8931:8934   */\n      dup3\n        /* \"#utility.yul\":8928:8929   */\n      0x02\n        /* \"#utility.yul\":8924:8935   */\n      mul\n        /* \"#utility.yul\":8918:8922   */\n      dup3\n        /* \"#utility.yul\":8915:8936   */\n      or\n        /* \"#utility.yul\":8907:8936   */\n      swap1\n      pop\n        /* \"#utility.yul\":8647:8942   */\n      swap3\n      swap2\n      pop\n      pop\n      jump\t// out\n        /* \"#utility.yul\":8947:10342   */\n    tag_15:\n        /* \"#utility.yul\":9064:9101   */\n      tag_164\n        /* \"#utility.yul\":9097:9100   */\n      dup3\n        /* \"#utility.yul\":9064:9101   */\n      tag_41\n      jump\t// in\n    tag_164:\n        /* \"#utility.yul\":9166:9184   */\n      0xffffffffffffffff\n        /* \"#utility.yul\":9158:9164   */\n      dup2\n        /* \"#utility.yul\":9155:9185   */\n      gt\n        /* \"#utility.yul\":9152:9208   */\n      iszero\n      tag_165\n      jumpi\n        /* \"#utility.yul\":9188:9206   */\n      tag_166\n      tag_31\n      jump\t// in\n    tag_166:\n        /* \"#utility.yul\":9152:9208   */\n    tag_165:\n        /* \"#utility.yul\":9232:9270   */\n      tag_167\n        /* \"#utility.yul\":9264:9268   */\n      dup3\n        /* \"#utility.yul\":9258:9269   */\n      sload\n        /* \"#utility.yul\":9232:9270   */\n      tag_20\n      jump\t// in\n    tag_167:\n        /* \"#utility.yul\":9317:9384   */\n      tag_168\n        /* \"#utility.yul\":9377:9383   */\n      dup3\n        /* \"#utility.yul\":9369:9375   */\n      dup3\n        /* \"#utility.yul\":9363:9367   */\n      dup6\n        /* \"#utility.yul\":9317:9384   */\n      tag_59\n      jump\t// in\n    tag_168:\n        /* \"#utility.yul\":9411:9412   */\n      0x00\n        /* \"#utility.yul\":9435:9439   */\n      0x20\n        /* \"#utility.yul\":9422:9439   */\n      swap1\n      pop\n        /* \"#utility.yul\":9467:9469   */\n      0x1f\n        /* \"#utility.yul\":9459:9465   */\n      dup4\n        /* \"#utility.yul\":9456:9470   */\n      gt\n        /* \"#utility.yul\":9484:9485   */\n      0x01\n        /* \"#utility.yul\":9479:10097   */\n      dup2\n      eq\n      tag_170\n      jumpi\n        /* \"#utility.yul\":10141:10142   */\n      0x00\n        /* \"#utility.yul\":10158:10164   */\n      dup5\n        /* \"#utility.yul\":10155:10232   */\n      iszero\n      tag_171\n      jumpi\n        /* \"#utility.yul\":10207:10216   */\n      dup3\n        /* \"#utility.yul\":10202:10205   */\n      dup8\n        /* \"#utility.yul\":10198:10217   */\n      add\n        /* \"#utility.yul\":10192:10218   */\n      mload\n        /* \"#utility.yul\":10183:10218   */\n      swap1\n      pop\n        /* \"#utility.yul\":10155:10232   */\n    tag_171:\n        /* \"#utility.yul\":10258:10325   */\n      tag_172\n        /* \"#utility.yul\":10318:10324   */\n      dup6\n        /* \"#utility.yul\":10311:10316   */\n      dup3\n        /* \"#utility.yul\":10258:10325   */\n      tag_62\n      jump\t// in\n    tag_172:\n        /* \"#utility.yul\":10252:10256   */\n      dup7\n        /* \"#utility.yul\":10245:10326   */\n      sstore\n        /* \"#utility.yul\":10114:10336   */\n      pop\n        /* \"#utility.yul\":9449:10336   */\n      jump(tag_169)\n        /* \"#utility.yul\":9479:10097   */\n    tag_170:\n        /* \"#utility.yul\":9531:9535   */\n      0x1f\n        /* \"#utility.yul\":9527:9536   */\n      not\n        /* \"#utility.yul\":9519:9525   */\n      dup5\n        /* \"#utility.yul\":9515:9537   */\n      and\n        /* \"#utility.yul\":9565:9602   */\n      tag_173\n        /* \"#utility.yul\":9597:9601   */\n      dup7\n        /* \"#utility.yul\":9565:9602   */\n      tag_48\n      jump\t// in\n    tag_173:\n        /* \"#utility.yul\":9624:9625   */\n      0x00\n        /* \"#utility.yul\":9638:9846   */\n    tag_174:\n        /* \"#utility.yul\":9652:9659   */\n      dup3\n        /* \"#utility.yul\":9649:9650   */\n      dup2\n        /* \"#utility.yul\":9646:9660   */\n      lt\n        /* \"#utility.yul\":9638:9846   */\n      iszero\n      tag_176\n      jumpi\n        /* \"#utility.yul\":9731:9740   */\n      dup5\n        /* \"#utility.yul\":9726:9729   */\n      dup10\n        /* \"#utility.yul\":9722:9741   */\n      add\n        /* \"#utility.yul\":9716:9742   */\n      mload\n        /* \"#utility.yul\":9708:9714   */\n      dup3\n        /* \"#utility.yul\":9701:9743   */\n      sstore\n        /* \"#utility.yul\":9782:9783   */\n      0x01\n        /* \"#utility.yul\":9774:9780   */\n      dup3\n        /* \"#utility.yul\":9770:9784   */\n      add\n        /* \"#utility.yul\":9760:9784   */\n      swap2\n      pop\n        /* \"#utility.yul\":9829:9831   */\n      0x20\n        /* \"#utility.yul\":9818:9827   */\n      dup6\n        /* \"#utility.yul\":9814:9832   */\n      add\n        /* \"#utility.yul\":9801:9832   */\n      swap5\n      pop\n        /* \"#utility.yul\":9675:9679   */\n      0x20\n        /* \"#utility.yul\":9672:9673   */\n      dup2\n        /* \"#utility.yul\":9668:9680   */\n      add\n        /* \"#utility.yul\":9663:9680   */\n      swap1\n      pop\n        /* \"#utility.yul\":9638:9846   */\n      jump(tag_174)\n    tag_176:\n        /* \"#utility.yul\":9874:9880   */\n      dup7\n        /* \"#utility.yul\":9865:9872   */\n      dup4\n        /* \"#utility.yul\":9862:9881   */\n      lt\n        /* \"#utility.yul\":9859:10038   */\n      iszero\n      tag_177\n      jumpi\n        /* \"#utility.yul\":9932:9941   */\n      dup5\n        /* \"#utility.yul\":9927:9930   */\n      dup10\n        /* \"#utility.yul\":9923:9942   */\n      add\n        /* \"#utility.yul\":9917:9943   */\n      mload\n        /* \"#utility.yul\":9975:10023   */\n      tag_178\n        /* \"#utility.yul\":10017:10021   */\n      0x1f\n        /* \"#utility.yul\":10009:10015   */\n      dup10\n        /* \"#utility.yul\":10005:10022   */\n      and\n        /* \"#utility.yul\":9994:10003   */\n      dup3\n        /* \"#utility.yul\":9975:10023   */\n      tag_61\n      jump\t// in\n    tag_178:\n        /* \"#utility.yul\":9967:9973   */\n      dup4\n        /* \"#utility.yul\":9960:10024   */\n      sstore\n        /* \"#utility.yul\":9882:10038   */\n      pop\n        /* \"#utility.yul\":9859:10038   */\n    tag_177:\n        /* \"#utility.yul\":10084:10085   */\n      0x01\n        /* \"#utility.yul\":10080:10081   */\n      0x02\n        /* \"#utility.yul\":10072:10078   */\n      dup9\n        /* \"#utility.yul\":10068:10082   */\n      mul\n        /* \"#utility.yul\":10064:10086   */\n      add\n        /* \"#utility.yul\":10058:10062   */\n      dup9\n        /* \"#utility.yul\":10051:10087   */\n      sstore\n        /* \"#utility.yul\":9486:10097   */\n      pop\n      pop\n      pop\n        /* \"#utility.yul\":9449:10336   */\n    tag_169:\n      pop\n        /* \"#utility.yul\":9039:10342   */\n      pop\n      pop\n      pop\n        /* \"#utility.yul\":8947:10342   */\n      pop\n      pop\n      jump\t// out\n\n    auxdata: 0xa2646970667358221220e8f235b5187f808566ec7701ecd8df0c53c3b37571526044cb7cec089e2312f064736f6c634300081a0033\n}\n",
				"bytecode": {
					"linkReferences": {},
					"object": "608060405234801561000f575f80fd5b506100566040518060400160405280600481526020017f4a6f686e00000000000000000000000000000000000000000000000000000000815250600c61005b60201b60201c565b61039f565b6040518060400160405280838152602001828152505f80820151815f01908161008491906102d0565b50602082015181600101559050505050565b5f81519050919050565b7f4e487b71000000000000000000000000000000000000000000000000000000005f52604160045260245ffd5b7f4e487b71000000000000000000000000000000000000000000000000000000005f52602260045260245ffd5b5f600282049050600182168061011157607f821691505b602082108103610124576101236100cd565b5b50919050565b5f819050815f5260205f209050919050565b5f6020601f8301049050919050565b5f82821b905092915050565b5f600883026101867fffffffffffffffffffffffffffffffffffffffffffffffffffffffffffffffff8261014b565b610190868361014b565b95508019841693508086168417925050509392505050565b5f819050919050565b5f819050919050565b5f6101d46101cf6101ca846101a8565b6101b1565b6101a8565b9050919050565b5f819050919050565b6101ed836101ba565b6102016101f9826101db565b848454610157565b825550505050565b5f90565b610215610209565b6102208184846101e4565b505050565b5b81811015610243576102385f8261020d565b600181019050610226565b5050565b601f821115610288576102598161012a565b6102628461013c565b81016020851015610271578190505b61028561027d8561013c565b830182610225565b50505b505050565b5f82821c905092915050565b5f6102a85f198460080261028d565b1980831691505092915050565b5f6102c08383610299565b9150826002028217905092915050565b6102d982610096565b67ffffffffffffffff8111156102f2576102f16100a0565b5b6102fc82546100fa565b610307828285610247565b5f60209050601f831160018114610338575f8415610326578287015190505b61033085826102b5565b865550610397565b601f1984166103468661012a565b5f5b8281101561036d57848901518255600182019150602085019450602081019050610348565b8683101561038a5784890151610386601f891682610299565b8355505b6001600288020188555050505b505050505050565b61071a806103ac5f395ff3fe608060405234801561000f575f80fd5b5060043610610034575f3560e01c806374a1163814610038578063798ef52714610054575b5f80fd5b610052600480360381019061004d91906102f8565b610072565b005b61005c6100ad565b60405161006991906103fb565b60405180910390f35b6040518060400160405280838152602001828152505f80820151815f01908161009b9190610615565b50602082015181600101559050505050565b6100b561015f565b5f6040518060400160405290815f820180546100d090610448565b80601f01602080910402602001604051908101604052809291908181526020018280546100fc90610448565b80156101475780601f1061011e57610100808354040283529160200191610147565b820191905f5260205f20905b81548152906001019060200180831161012a57829003601f168201915b50505050508152602001600182015481525050905090565b6040518060400160405280606081526020015f81525090565b5f604051905090565b5f80fd5b5f80fd5b5f80fd5b5f80fd5b5f601f19601f8301169050919050565b7f4e487b71000000000000000000000000000000000000000000000000000000005f52604160045260245ffd5b6101d782610191565b810181811067ffffffffffffffff821117156101f6576101f56101a1565b5b80604052505050565b5f610208610178565b905061021482826101ce565b919050565b5f67ffffffffffffffff821115610233576102326101a1565b5b61023c82610191565b9050602081019050919050565b828183375f83830152505050565b5f61026961026484610219565b6101ff565b9050828152602081018484840111156102855761028461018d565b5b610290848285610249565b509392505050565b5f82601f8301126102ac576102ab610189565b5b81356102bc848260208601610257565b91505092915050565b5f819050919050565b6102d7816102c5565b81146102e1575f80fd5b50565b5f813590506102f2816102ce565b92915050565b5f806040838503121561030e5761030d610181565b5b5f83013567ffffffffffffffff81111561032b5761032a610185565b5b61033785828601610298565b9250506020610348858286016102e4565b9150509250929050565b5f81519050919050565b5f82825260208201905092915050565b8281835e5f83830152505050565b5f61038482610352565b61038e818561035c565b935061039e81856020860161036c565b6103a781610191565b840191505092915050565b6103bb816102c5565b82525050565b5f604083015f8301518482035f8601526103db828261037a565b91505060208301516103f060208601826103b2565b508091505092915050565b5f6020820190508181035f83015261041381846103c1565b905092915050565b7f4e487b71000000000000000000000000000000000000000000000000000000005f52602260045260245ffd5b5f600282049050600182168061045f57607f821691505b6020821081036104725761047161041b565b5b50919050565b5f819050815f5260205f209050919050565b5f6020601f8301049050919050565b5f82821b905092915050565b5f600883026104d47fffffffffffffffffffffffffffffffffffffffffffffffffffffffffffffffff82610499565b6104de8683610499565b95508019841693508086168417925050509392505050565b5f819050919050565b5f61051961051461050f846102c5565b6104f6565b6102c5565b9050919050565b5f819050919050565b610532836104ff565b61054661053e82610520565b8484546104a5565b825550505050565b5f90565b61055a61054e565b610565818484610529565b505050565b5b818110156105885761057d5f82610552565b60018101905061056b565b5050565b601f8211156105cd5761059e81610478565b6105a78461048a565b810160208510156105b6578190505b6105ca6105c28561048a565b83018261056a565b50505b505050565b5f82821c905092915050565b5f6105ed5f19846008026105d2565b1980831691505092915050565b5f61060583836105de565b9150826002028217905092915050565b61061e82610352565b67ffffffffffffffff811115610637576106366101a1565b5b6106418254610448565b61064c82828561058c565b5f60209050601f83116001811461067d575f841561066b578287015190505b61067585826105fa565b8655506106dc565b601f19841661068b86610478565b5f5b828110156106b25784890151825560018201915060208501945060208101905061068d565b868310156106cf57848901516106cb601f8916826105de565b8355505b6001600288020188555050505b50505050505056fea2646970667358221220e8f235b5187f808566ec7701ecd8df0c53c3b37571526044cb7cec089e2312f064736f6c634300081a0033",
					"opcodes": "PUSH1 0x80 PUSH1 0x40 MSTORE CALLVALUE DUP1 ISZERO PUSH2 0xF JUMPI PUSH0 DUP1 REVERT JUMPDEST POP PUSH2 0x56 PUSH1 0x40 MLOAD DUP1 PUSH1 0x40 ADD PUSH1 0x40 MSTORE DUP1 PUSH1 0x4 DUP2 MSTORE PUSH1 0x20 ADD PUSH32 0x4A6F686E00000000000000000000000000000000000000000000000000000000 DUP2 MSTORE POP PUSH1 0xC PUSH2 0x5B PUSH1 0x20 SHL PUSH1 0x20 SHR JUMP JUMPDEST PUSH2 0x39F JUMP JUMPDEST PUSH1 0x40 MLOAD DUP1 PUSH1 0x40 ADD PUSH1 0x40 MSTORE DUP1 DUP4 DUP2 MSTORE PUSH1 0x20 ADD DUP3 DUP2 MSTORE POP PUSH0 DUP1 DUP3 ADD MLOAD DUP2 PUSH0 ADD SWAP1 DUP2 PUSH2 0x84 SWAP2 SWAP1 PUSH2 0x2D0 JUMP JUMPDEST POP PUSH1 0x20 DUP3 ADD MLOAD DUP2 PUSH1 0x1 ADD SSTORE SWAP1 POP POP POP POP JUMP JUMPDEST PUSH0 DUP2 MLOAD SWAP1 POP SWAP2 SWAP1 POP JUMP JUMPDEST PUSH32 0x4E487B7100000000000000000000000000000000000000000000000000000000 PUSH0 MSTORE PUSH1 0x41 PUSH1 0x4 MSTORE PUSH1 0x24 PUSH0 REVERT JUMPDEST PUSH32 0x4E487B7100000000000000000000000000000000000000000000000000000000 PUSH0 MSTORE PUSH1 0x22 PUSH1 0x4 MSTORE PUSH1 0x24 PUSH0 REVERT JUMPDEST PUSH0 PUSH1 0x2 DUP3 DIV SWAP1 POP PUSH1 0x1 DUP3 AND DUP1 PUSH2 0x111 JUMPI PUSH1 0x7F DUP3 AND SWAP2 POP JUMPDEST PUSH1 0x20 DUP3 LT DUP2 SUB PUSH2 0x124 JUMPI PUSH2 0x123 PUSH2 0xCD JUMP JUMPDEST JUMPDEST POP SWAP2 SWAP1 POP JUMP JUMPDEST PUSH0 DUP2 SWAP1 POP DUP2 PUSH0 MSTORE PUSH1 0x20 PUSH0 KECCAK256 SWAP1 POP SWAP2 SWAP1 POP JUMP JUMPDEST PUSH0 PUSH1 0x20 PUSH1 0x1F DUP4 ADD DIV SWAP1 POP SWAP2 SWAP1 POP JUMP JUMPDEST PUSH0 DUP3 DUP3 SHL SWAP1 POP SWAP3 SWAP2 POP POP JUMP JUMPDEST PUSH0 PUSH1 0x8 DUP4 MUL PUSH2 0x186 PUSH32 0xFFFFFFFFFFFFFFFFFFFFFFFFFFFFFFFFFFFFFFFFFFFFFFFFFFFFFFFFFFFFFFFF DUP3 PUSH2 0x14B JUMP JUMPDEST PUSH2 0x190 DUP7 DUP4 PUSH2 0x14B JUMP JUMPDEST SWAP6 POP DUP1 NOT DUP5 AND SWAP4 POP DUP1 DUP7 AND DUP5 OR SWAP3 POP POP POP SWAP4 SWAP3 POP POP POP JUMP JUMPDEST PUSH0 DUP2 SWAP1 POP SWAP2 SWAP1 POP JUMP JUMPDEST PUSH0 DUP2 SWAP1 POP SWAP2 SWAP1 POP JUMP JUMPDEST PUSH0 PUSH2 0x1D4 PUSH2 0x1CF PUSH2 0x1CA DUP5 PUSH2 0x1A8 JUMP JUMPDEST PUSH2 0x1B1 JUMP JUMPDEST PUSH2 0x1A8 JUMP JUMPDEST SWAP1 POP SWAP2 SWAP1 POP JUMP JUMPDEST PUSH0 DUP2 SWAP1 POP SWAP2 SWAP1 POP JUMP JUMPDEST PUSH2 0x1ED DUP4 PUSH2 0x1BA JUMP JUMPDEST PUSH2 0x201 PUSH2 0x1F9 DUP3 PUSH2 0x1DB JUMP JUMPDEST DUP5 DUP5 SLOAD PUSH2 0x157 JUMP JUMPDEST DUP3 SSTORE POP POP POP POP JUMP JUMPDEST PUSH0 SWAP1 JUMP JUMPDEST PUSH2 0x215 PUSH2 0x209 JUMP JUMPDEST PUSH2 0x220 DUP2 DUP5 DUP5 PUSH2 0x1E4 JUMP JUMPDEST POP POP POP JUMP JUMPDEST JUMPDEST DUP2 DUP2 LT ISZERO PUSH2 0x243 JUMPI PUSH2 0x238 PUSH0 DUP3 PUSH2 0x20D JUMP JUMPDEST PUSH1 0x1 DUP2 ADD SWAP1 POP PUSH2 0x226 JUMP JUMPDEST POP POP JUMP JUMPDEST PUSH1 0x1F DUP3 GT ISZERO PUSH2 0x288 JUMPI PUSH2 0x259 DUP2 PUSH2 0x12A JUMP JUMPDEST PUSH2 0x262 DUP5 PUSH2 0x13C JUMP JUMPDEST DUP2 ADD PUSH1 0x20 DUP6 LT ISZERO PUSH2 0x271 JUMPI DUP2 SWAP1 POP JUMPDEST PUSH2 0x285 PUSH2 0x27D DUP6 PUSH2 0x13C JUMP JUMPDEST DUP4 ADD DUP3 PUSH2 0x225 JUMP JUMPDEST POP POP JUMPDEST POP POP POP JUMP JUMPDEST PUSH0 DUP3 DUP3 SHR SWAP1 POP SWAP3 SWAP2 POP POP JUMP JUMPDEST PUSH0 PUSH2 0x2A8 PUSH0 NOT DUP5 PUSH1 0x8 MUL PUSH2 0x28D JUMP JUMPDEST NOT DUP1 DUP4 AND SWAP2 POP POP SWAP3 SWAP2 POP POP JUMP JUMPDEST PUSH0 PUSH2 0x2C0 DUP4 DUP4 PUSH2 0x299 JUMP JUMPDEST SWAP2 POP DUP3 PUSH1 0x2 MUL DUP3 OR SWAP1 POP SWAP3 SWAP2 POP POP JUMP JUMPDEST PUSH2 0x2D9 DUP3 PUSH2 0x96 JUMP JUMPDEST PUSH8 0xFFFFFFFFFFFFFFFF DUP2 GT ISZERO PUSH2 0x2F2 JUMPI PUSH2 0x2F1 PUSH2 0xA0 JUMP JUMPDEST JUMPDEST PUSH2 0x2FC DUP3 SLOAD PUSH2 0xFA JUMP JUMPDEST PUSH2 0x307 DUP3 DUP3 DUP6 PUSH2 0x247 JUMP JUMPDEST PUSH0 PUSH1 0x20 SWAP1 POP PUSH1 0x1F DUP4 GT PUSH1 0x1 DUP2 EQ PUSH2 0x338 JUMPI PUSH0 DUP5 ISZERO PUSH2 0x326 JUMPI DUP3 DUP8 ADD MLOAD SWAP1 POP JUMPDEST PUSH2 0x330 DUP6 DUP3 PUSH2 0x2B5 JUMP JUMPDEST DUP7 SSTORE POP PUSH2 0x397 JUMP JUMPDEST PUSH1 0x1F NOT DUP5 AND PUSH2 0x346 DUP7 PUSH2 0x12A JUMP JUMPDEST PUSH0 JUMPDEST DUP3 DUP2 LT ISZERO PUSH2 0x36D JUMPI DUP5 DUP10 ADD MLOAD DUP3 SSTORE PUSH1 0x1 DUP3 ADD SWAP2 POP PUSH1 0x20 DUP6 ADD SWAP5 POP PUSH1 0x20 DUP2 ADD SWAP1 POP PUSH2 0x348 JUMP JUMPDEST DUP7 DUP4 LT ISZERO PUSH2 0x38A JUMPI DUP5 DUP10 ADD MLOAD PUSH2 0x386 PUSH1 0x1F DUP10 AND DUP3 PUSH2 0x299 JUMP JUMPDEST DUP4 SSTORE POP JUMPDEST PUSH1 0x1 PUSH1 0x2 DUP9 MUL ADD DUP9 SSTORE POP POP POP JUMPDEST POP POP POP POP POP POP JUMP JUMPDEST PUSH2 0x71A DUP1 PUSH2 0x3AC PUSH0 CODECOPY PUSH0 RETURN INVALID PUSH1 0x80 PUSH1 0x40 MSTORE CALLVALUE DUP1 ISZERO PUSH2 0xF JUMPI PUSH0 DUP1 REVERT JUMPDEST POP PUSH1 0x4 CALLDATASIZE LT PUSH2 0x34 JUMPI PUSH0 CALLDATALOAD PUSH1 0xE0 SHR DUP1 PUSH4 0x74A11638 EQ PUSH2 0x38 JUMPI DUP1 PUSH4 0x798EF527 EQ PUSH2 0x54 JUMPI JUMPDEST PUSH0 DUP1 REVERT JUMPDEST PUSH2 0x52 PUSH1 0x4 DUP1 CALLDATASIZE SUB DUP2 ADD SWAP1 PUSH2 0x4D SWAP2 SWAP1 PUSH2 0x2F8 JUMP JUMPDEST PUSH2 0x72 JUMP JUMPDEST STOP JUMPDEST PUSH2 0x5C PUSH2 0xAD JUMP JUMPDEST PUSH1 0x40 MLOAD PUSH2 0x69 SWAP2 SWAP1 PUSH2 0x3FB JUMP JUMPDEST PUSH1 0x40 MLOAD DUP1 SWAP2 SUB SWAP1 RETURN JUMPDEST PUSH1 0x40 MLOAD DUP1 PUSH1 0x40 ADD PUSH1 0x40 MSTORE DUP1 DUP4 DUP2 MSTORE PUSH1 0x20 ADD DUP3 DUP2 MSTORE POP PUSH0 DUP1 DUP3 ADD MLOAD DUP2 PUSH0 ADD SWAP1 DUP2 PUSH2 0x9B SWAP2 SWAP1 PUSH2 0x615 JUMP JUMPDEST POP PUSH1 0x20 DUP3 ADD MLOAD DUP2 PUSH1 0x1 ADD SSTORE SWAP1 POP POP POP POP JUMP JUMPDEST PUSH2 0xB5 PUSH2 0x15F JUMP JUMPDEST PUSH0 PUSH1 0x40 MLOAD DUP1 PUSH1 0x40 ADD PUSH1 0x40 MSTORE SWAP1 DUP2 PUSH0 DUP3 ADD DUP1 SLOAD PUSH2 0xD0 SWAP1 PUSH2 0x448 JUMP JUMPDEST DUP1 PUSH1 0x1F ADD PUSH1 0x20 DUP1 SWAP2 DIV MUL PUSH1 0x20 ADD PUSH1 0x40 MLOAD SWAP1 DUP2 ADD PUSH1 0x40 MSTORE DUP1 SWAP3 SWAP2 SWAP1 DUP2 DUP2 MSTORE PUSH1 0x20 ADD DUP3 DUP1 SLOAD PUSH2 0xFC SWAP1 PUSH2 0x448 JUMP JUMPDEST DUP1 ISZERO PUSH2 0x147 JUMPI DUP1 PUSH1 0x1F LT PUSH2 0x11E JUMPI PUSH2 0x100 DUP1 DUP4 SLOAD DIV MUL DUP4 MSTORE SWAP2 PUSH1 0x20 ADD SWAP2 PUSH2 0x147 JUMP JUMPDEST DUP3 ADD SWAP2 SWAP1 PUSH0 MSTORE PUSH1 0x20 PUSH0 KECCAK256 SWAP1 JUMPDEST DUP2 SLOAD DUP2 MSTORE SWAP1 PUSH1 0x1 ADD SWAP1 PUSH1 0x20 ADD DUP1 DUP4 GT PUSH2 0x12A JUMPI DUP3 SWAP1 SUB PUSH1 0x1F AND DUP3 ADD SWAP2 JUMPDEST POP POP POP POP POP DUP2 MSTORE PUSH1 0x20 ADD PUSH1 0x1 DUP3 ADD SLOAD DUP2 MSTORE POP POP SWAP1 POP SWAP1 JUMP JUMPDEST PUSH1 0x40 MLOAD DUP1 PUSH1 0x40 ADD PUSH1 0x40 MSTORE DUP1 PUSH1 0x60 DUP2 MSTORE PUSH1 0x20 ADD PUSH0 DUP2 MSTORE POP SWAP1 JUMP JUMPDEST PUSH0 PUSH1 0x40 MLOAD SWAP1 POP SWAP1 JUMP JUMPDEST PUSH0 DUP1 REVERT JUMPDEST PUSH0 DUP1 REVERT JUMPDEST PUSH0 DUP1 REVERT JUMPDEST PUSH0 DUP1 REVERT JUMPDEST PUSH0 PUSH1 0x1F NOT PUSH1 0x1F DUP4 ADD AND SWAP1 POP SWAP2 SWAP1 POP JUMP JUMPDEST PUSH32 0x4E487B7100000000000000000000000000000000000000000000000000000000 PUSH0 MSTORE PUSH1 0x41 PUSH1 0x4 MSTORE PUSH1 0x24 PUSH0 REVERT JUMPDEST PUSH2 0x1D7 DUP3 PUSH2 0x191 JUMP JUMPDEST DUP2 ADD DUP2 DUP2 LT PUSH8 0xFFFFFFFFFFFFFFFF DUP3 GT OR ISZERO PUSH2 0x1F6 JUMPI PUSH2 0x1F5 PUSH2 0x1A1 JUMP JUMPDEST JUMPDEST DUP1 PUSH1 0x40 MSTORE POP POP POP JUMP JUMPDEST PUSH0 PUSH2 0x208 PUSH2 0x178 JUMP JUMPDEST SWAP1 POP PUSH2 0x214 DUP3 DUP3 PUSH2 0x1CE JUMP JUMPDEST SWAP2 SWAP1 POP JUMP JUMPDEST PUSH0 PUSH8 0xFFFFFFFFFFFFFFFF DUP3 GT ISZERO PUSH2 0x233 JUMPI PUSH2 0x232 PUSH2 0x1A1 JUMP JUMPDEST JUMPDEST PUSH2 0x23C DUP3 PUSH2 0x191 JUMP JUMPDEST SWAP1 POP PUSH1 0x20 DUP2 ADD SWAP1 POP SWAP2 SWAP1 POP JUMP JUMPDEST DUP3 DUP2 DUP4 CALLDATACOPY PUSH0 DUP4 DUP4 ADD MSTORE POP POP POP JUMP JUMPDEST PUSH0 PUSH2 0x269 PUSH2 0x264 DUP5 PUSH2 0x219 JUMP JUMPDEST PUSH2 0x1FF JUMP JUMPDEST SWAP1 POP DUP3 DUP2 MSTORE PUSH1 0x20 DUP2 ADD DUP5 DUP5 DUP5 ADD GT ISZERO PUSH2 0x285 JUMPI PUSH2 0x284 PUSH2 0x18D JUMP JUMPDEST JUMPDEST PUSH2 0x290 DUP5 DUP3 DUP6 PUSH2 0x249 JUMP JUMPDEST POP SWAP4 SWAP3 POP POP POP JUMP JUMPDEST PUSH0 DUP3 PUSH1 0x1F DUP4 ADD SLT PUSH2 0x2AC JUMPI PUSH2 0x2AB PUSH2 0x189 JUMP JUMPDEST JUMPDEST DUP2 CALLDATALOAD PUSH2 0x2BC DUP5 DUP3 PUSH1 0x20 DUP7 ADD PUSH2 0x257 JUMP JUMPDEST SWAP2 POP POP SWAP3 SWAP2 POP POP JUMP JUMPDEST PUSH0 DUP2 SWAP1 POP SWAP2 SWAP1 POP JUMP JUMPDEST PUSH2 0x2D7 DUP2 PUSH2 0x2C5 JUMP JUMPDEST DUP2 EQ PUSH2 0x2E1 JUMPI PUSH0 DUP1 REVERT JUMPDEST POP JUMP JUMPDEST PUSH0 DUP2 CALLDATALOAD SWAP1 POP PUSH2 0x2F2 DUP2 PUSH2 0x2CE JUMP JUMPDEST SWAP3 SWAP2 POP POP JUMP JUMPDEST PUSH0 DUP1 PUSH1 0x40 DUP4 DUP6 SUB SLT ISZERO PUSH2 0x30E JUMPI PUSH2 0x30D PUSH2 0x181 JUMP JUMPDEST JUMPDEST PUSH0 DUP4 ADD CALLDATALOAD PUSH8 0xFFFFFFFFFFFFFFFF DUP2 GT ISZERO PUSH2 0x32B JUMPI PUSH2 0x32A PUSH2 0x185 JUMP JUMPDEST JUMPDEST PUSH2 0x337 DUP6 DUP3 DUP7 ADD PUSH2 0x298 JUMP JUMPDEST SWAP3 POP POP PUSH1 0x20 PUSH2 0x348 DUP6 DUP3 DUP7 ADD PUSH2 0x2E4 JUMP JUMPDEST SWAP2 POP POP SWAP3 POP SWAP3 SWAP1 POP JUMP JUMPDEST PUSH0 DUP2 MLOAD SWAP1 POP SWAP2 SWAP1 POP JUMP JUMPDEST PUSH0 DUP3 DUP3 MSTORE PUSH1 0x20 DUP3 ADD SWAP1 POP SWAP3 SWAP2 POP POP JUMP JUMPDEST DUP3 DUP2 DUP4 MCOPY PUSH0 DUP4 DUP4 ADD MSTORE POP POP POP JUMP JUMPDEST PUSH0 PUSH2 0x384 DUP3 PUSH2 0x352 JUMP JUMPDEST PUSH2 0x38E DUP2 DUP6 PUSH2 0x35C JUMP JUMPDEST SWAP4 POP PUSH2 0x39E DUP2 DUP6 PUSH1 0x20 DUP7 ADD PUSH2 0x36C JUMP JUMPDEST PUSH2 0x3A7 DUP2 PUSH2 0x191 JUMP JUMPDEST DUP5 ADD SWAP2 POP POP SWAP3 SWAP2 POP POP JUMP JUMPDEST PUSH2 0x3BB DUP2 PUSH2 0x2C5 JUMP JUMPDEST DUP3 MSTORE POP POP JUMP JUMPDEST PUSH0 PUSH1 0x40 DUP4 ADD PUSH0 DUP4 ADD MLOAD DUP5 DUP3 SUB PUSH0 DUP7 ADD MSTORE PUSH2 0x3DB DUP3 DUP3 PUSH2 0x37A JUMP JUMPDEST SWAP2 POP POP PUSH1 0x20 DUP4 ADD MLOAD PUSH2 0x3F0 PUSH1 0x20 DUP7 ADD DUP3 PUSH2 0x3B2 JUMP JUMPDEST POP DUP1 SWAP2 POP POP SWAP3 SWAP2 POP POP JUMP JUMPDEST PUSH0 PUSH1 0x20 DUP3 ADD SWAP1 POP DUP2 DUP2 SUB PUSH0 DUP4 ADD MSTORE PUSH2 0x413 DUP2 DUP5 PUSH2 0x3C1 JUMP JUMPDEST SWAP1 POP SWAP3 SWAP2 POP POP JUMP JUMPDEST PUSH32 0x4E487B7100000000000000000000000000000000000000000000000000000000 PUSH0 MSTORE PUSH1 0x22 PUSH1 0x4 MSTORE PUSH1 0x24 PUSH0 REVERT JUMPDEST PUSH0 PUSH1 0x2 DUP3 DIV SWAP1 POP PUSH1 0x1 DUP3 AND DUP1 PUSH2 0x45F JUMPI PUSH1 0x7F DUP3 AND SWAP2 POP JUMPDEST PUSH1 0x20 DUP3 LT DUP2 SUB PUSH2 0x472 JUMPI PUSH2 0x471 PUSH2 0x41B JUMP JUMPDEST JUMPDEST POP SWAP2 SWAP1 POP JUMP JUMPDEST PUSH0 DUP2 SWAP1 POP DUP2 PUSH0 MSTORE PUSH1 0x20 PUSH0 KECCAK256 SWAP1 POP SWAP2 SWAP1 POP JUMP JUMPDEST PUSH0 PUSH1 0x20 PUSH1 0x1F DUP4 ADD DIV SWAP1 POP SWAP2 SWAP1 POP JUMP JUMPDEST PUSH0 DUP3 DUP3 SHL SWAP1 POP SWAP3 SWAP2 POP POP JUMP JUMPDEST PUSH0 PUSH1 0x8 DUP4 MUL PUSH2 0x4D4 PUSH32 0xFFFFFFFFFFFFFFFFFFFFFFFFFFFFFFFFFFFFFFFFFFFFFFFFFFFFFFFFFFFFFFFF DUP3 PUSH2 0x499 JUMP JUMPDEST PUSH2 0x4DE DUP7 DUP4 PUSH2 0x499 JUMP JUMPDEST SWAP6 POP DUP1 NOT DUP5 AND SWAP4 POP DUP1 DUP7 AND DUP5 OR SWAP3 POP POP POP SWAP4 SWAP3 POP POP POP JUMP JUMPDEST PUSH0 DUP2 SWAP1 POP SWAP2 SWAP1 POP JUMP JUMPDEST PUSH0 PUSH2 0x519 PUSH2 0x514 PUSH2 0x50F DUP5 PUSH2 0x2C5 JUMP JUMPDEST PUSH2 0x4F6 JUMP JUMPDEST PUSH2 0x2C5 JUMP JUMPDEST SWAP1 POP SWAP2 SWAP1 POP JUMP JUMPDEST PUSH0 DUP2 SWAP1 POP SWAP2 SWAP1 POP JUMP JUMPDEST PUSH2 0x532 DUP4 PUSH2 0x4FF JUMP JUMPDEST PUSH2 0x546 PUSH2 0x53E DUP3 PUSH2 0x520 JUMP JUMPDEST DUP5 DUP5 SLOAD PUSH2 0x4A5 JUMP JUMPDEST DUP3 SSTORE POP POP POP POP JUMP JUMPDEST PUSH0 SWAP1 JUMP JUMPDEST PUSH2 0x55A PUSH2 0x54E JUMP JUMPDEST PUSH2 0x565 DUP2 DUP5 DUP5 PUSH2 0x529 JUMP JUMPDEST POP POP POP JUMP JUMPDEST JUMPDEST DUP2 DUP2 LT ISZERO PUSH2 0x588 JUMPI PUSH2 0x57D PUSH0 DUP3 PUSH2 0x552 JUMP JUMPDEST PUSH1 0x1 DUP2 ADD SWAP1 POP PUSH2 0x56B JUMP JUMPDEST POP POP JUMP JUMPDEST PUSH1 0x1F DUP3 GT ISZERO PUSH2 0x5CD JUMPI PUSH2 0x59E DUP2 PUSH2 0x478 JUMP JUMPDEST PUSH2 0x5A7 DUP5 PUSH2 0x48A JUMP JUMPDEST DUP2 ADD PUSH1 0x20 DUP6 LT ISZERO PUSH2 0x5B6 JUMPI DUP2 SWAP1 POP JUMPDEST PUSH2 0x5CA PUSH2 0x5C2 DUP6 PUSH2 0x48A JUMP JUMPDEST DUP4 ADD DUP3 PUSH2 0x56A JUMP JUMPDEST POP POP JUMPDEST POP POP POP JUMP JUMPDEST PUSH0 DUP3 DUP3 SHR SWAP1 POP SWAP3 SWAP2 POP POP JUMP JUMPDEST PUSH0 PUSH2 0x5ED PUSH0 NOT DUP5 PUSH1 0x8 MUL PUSH2 0x5D2 JUMP JUMPDEST NOT DUP1 DUP4 AND SWAP2 POP POP SWAP3 SWAP2 POP POP JUMP JUMPDEST PUSH0 PUSH2 0x605 DUP4 DUP4 PUSH2 0x5DE JUMP JUMPDEST SWAP2 POP DUP3 PUSH1 0x2 MUL DUP3 OR SWAP1 POP SWAP3 SWAP2 POP POP JUMP JUMPDEST PUSH2 0x61E DUP3 PUSH2 0x352 JUMP JUMPDEST PUSH8 0xFFFFFFFFFFFFFFFF DUP2 GT ISZERO PUSH2 0x637 JUMPI PUSH2 0x636 PUSH2 0x1A1 JUMP JUMPDEST JUMPDEST PUSH2 0x641 DUP3 SLOAD PUSH2 0x448 JUMP JUMPDEST PUSH2 0x64C DUP3 DUP3 DUP6 PUSH2 0x58C JUMP JUMPDEST PUSH0 PUSH1 0x20 SWAP1 POP PUSH1 0x1F DUP4 GT PUSH1 0x1 DUP2 EQ PUSH2 0x67D JUMPI PUSH0 DUP5 ISZERO PUSH2 0x66B JUMPI DUP3 DUP8 ADD MLOAD SWAP1 POP JUMPDEST PUSH2 0x675 DUP6 DUP3 PUSH2 0x5FA JUMP JUMPDEST DUP7 SSTORE POP PUSH2 0x6DC JUMP JUMPDEST PUSH1 0x1F NOT DUP5 AND PUSH2 0x68B DUP7 PUSH2 0x478 JUMP JUMPDEST PUSH0 JUMPDEST DUP3 DUP2 LT ISZERO PUSH2 0x6B2 JUMPI DUP5 DUP10 ADD MLOAD DUP3 SSTORE PUSH1 0x1 DUP3 ADD SWAP2 POP PUSH1 0x20 DUP6 ADD SWAP5 POP PUSH1 0x20 DUP2 ADD SWAP1 POP PUSH2 0x68D JUMP JUMPDEST DUP7 DUP4 LT ISZERO PUSH2 0x6CF JUMPI DUP5 DUP10 ADD MLOAD PUSH2 0x6CB PUSH1 0x1F DUP10 AND DUP3 PUSH2 0x5DE JUMP JUMPDEST DUP4 SSTORE POP JUMPDEST PUSH1 0x1 PUSH1 0x2 DUP9 MUL ADD DUP9 SSTORE POP POP POP JUMPDEST POP POP POP POP POP POP JUMP INVALID LOG2 PUSH5 0x6970667358 0x22 SLT KECCAK256 0xE8 CALLCODE CALLDATALOAD 0xB5 XOR PUSH32 0x808566EC7701ECD8DF0C53C3B37571526044CB7CEC089E2312F064736F6C6343 STOP ADDMOD BYTE STOP CALLER "
				},
				"gasEstimates": {
					"creation": {
						"codeDepositCost": "363600",
						"executionCost": "infinite",
						"totalCost": "infinite"
					},
					"external": {
						"createStudent(string,uint256)": "infinite",
						"getEntireStruct()": "infinite"
					}
				},
				"methodIdentifiers": {
					"createStudent(string,uint256)": "74a11638",
					"getEntireStruct()": "798ef527"
				}
			},
			"storageLayout": {
				"storage": [
					{
						"astId": 9,
						"contract": "StudentDB/src/StudentDB.sol:StudentDB",
						"label": "student",
						"offset": 0,
						"slot": "0",
						"type": "t_struct(Student)6_storage"
					}
				],
				"types": {
					"t_string_storage": {
						"encoding": "bytes",
						"label": "string",
						"numberOfBytes": "32"
					},
					"t_struct(Student)6_storage": {
						"encoding": "inplace",
						"label": "struct StudentDB.Student",
						"members": [
							{
								"astId": 3,
								"contract": "StudentDB/src/StudentDB.sol:StudentDB",
								"label": "name",
								"offset": 0,
								"slot": "0",
								"type": "t_string_storage"
							},
							{
								"astId": 5,
								"contract": "StudentDB/src/StudentDB.sol:StudentDB",
								"label": "age",
								"offset": 0,
								"slot": "1",
								"type": "t_uint256"
							}
						],
						"numberOfBytes": "64"
					},
					"t_uint256": {
						"encoding": "inplace",
						"label": "uint256",
						"numberOfBytes": "32"
					}
				}
			},
			"userdoc": {
				"kind": "user",
				"methods": {},
				"version": 1
			}
		}
	}
}