{
	"DistributeV2/src/DistributeV2.sol": {
		"DistributeV2": {
			"abi": [
				{
					"inputs": [],
					"stateMutability": "payable",
					"type": "constructor"
				},
				{
					"inputs": [
						{
							"internalType": "address[]",
							"name": "addresses",
							"type": "address[]"
						}
					],
					"name": "distributeEther",
					"outputs": [],
					"stateMutability": "nonpayable",
					"type": "function"
				}
			],
			"devdoc": {
				"kind": "dev",
				"methods": {},
				"version": 1
			},
			"evm": {
				"assembly": "    /* \"DistributeV2/src/DistributeV2.sol\":63:884  contract DistributeV2 {... */\n  mstore(0x40, 0x80)\n  dataSize(sub_0)\n  dup1\n  dataOffset(sub_0)\n  0x00\n  codecopy\n  0x00\n  return\nstop\n\nsub_0: assembly {\n        /* \"DistributeV2/src/DistributeV2.sol\":63:884  contract DistributeV2 {... */\n      mstore(0x40, 0x80)\n      callvalue\n      dup1\n      iszero\n      tag_1\n      jumpi\n      0x00\n      dup1\n      revert\n    tag_1:\n      pop\n      jumpi(tag_2, lt(calldatasize, 0x04))\n      shr(0xe0, calldataload(0x00))\n      dup1\n      0x3c0ff791\n      eq\n      tag_3\n      jumpi\n    tag_2:\n      0x00\n      dup1\n      revert\n        /* \"DistributeV2/src/DistributeV2.sol\":572:882  function distributeEther(address[] memory addresses) public {... */\n    tag_3:\n      tag_4\n      0x04\n      dup1\n      calldatasize\n      sub\n      dup2\n      add\n      swap1\n      tag_5\n      swap2\n      swap1\n      tag_6\n      jump\t// in\n    tag_5:\n      tag_7\n      jump\t// in\n    tag_4:\n      stop\n    tag_7:\n        /* \"DistributeV2/src/DistributeV2.sol\":642:656  uint256 amount */\n      0x00\n        /* \"DistributeV2/src/DistributeV2.sol\":683:692  addresses */\n      dup2\n        /* \"DistributeV2/src/DistributeV2.sol\":683:699  addresses.length */\n      mload\n        /* \"DistributeV2/src/DistributeV2.sol\":659:680  address(this).balance */\n      selfbalance\n        /* \"DistributeV2/src/DistributeV2.sol\":659:699  address(this).balance / addresses.length */\n      tag_9\n      swap2\n      swap1\n      tag_10\n      jump\t// in\n    tag_9:\n        /* \"DistributeV2/src/DistributeV2.sol\":642:699  uint256 amount = address(this).balance / addresses.length */\n      swap1\n      pop\n        /* \"DistributeV2/src/DistributeV2.sol\":713:722  uint256 i */\n      0x00\n        /* \"DistributeV2/src/DistributeV2.sol\":709:876  for(uint256 i=0; i < addresses.length; i++) {... */\n    tag_11:\n        /* \"DistributeV2/src/DistributeV2.sol\":730:739  addresses */\n      dup3\n        /* \"DistributeV2/src/DistributeV2.sol\":730:746  addresses.length */\n      mload\n        /* \"DistributeV2/src/DistributeV2.sol\":726:727  i */\n      dup2\n        /* \"DistributeV2/src/DistributeV2.sol\":726:746  i < addresses.length */\n      lt\n        /* \"DistributeV2/src/DistributeV2.sol\":709:876  for(uint256 i=0; i < addresses.length; i++) {... */\n      iszero\n      tag_12\n      jumpi\n        /* \"DistributeV2/src/DistributeV2.sol\":767:774  bool ok */\n      0x00\n        /* \"DistributeV2/src/DistributeV2.sol\":787:796  addresses */\n      dup4\n        /* \"DistributeV2/src/DistributeV2.sol\":797:798  i */\n      dup3\n        /* \"DistributeV2/src/DistributeV2.sol\":787:799  addresses[i] */\n      dup2\n      mload\n      dup2\n      lt\n      tag_14\n      jumpi\n      tag_15\n      tag_16\n      jump\t// in\n    tag_15:\n    tag_14:\n      0x20\n      mul\n      0x20\n      add\n      add\n      mload\n        /* \"DistributeV2/src/DistributeV2.sol\":779:805  payable(addresses[i]).call */\n      0xffffffffffffffffffffffffffffffffffffffff\n      and\n        /* \"DistributeV2/src/DistributeV2.sol\":813:819  amount */\n      dup4\n        /* \"DistributeV2/src/DistributeV2.sol\":826:830  2300 */\n      0x08fc\n        /* \"DistributeV2/src/DistributeV2.sol\":779:835  payable(addresses[i]).call{value: amount, gas: 2300}(\"\") */\n      swap1\n      mload(0x40)\n      tag_17\n      swap1\n      tag_18\n      jump\t// in\n    tag_17:\n      0x00\n      mload(0x40)\n      dup1\n      dup4\n      sub\n      dup2\n      dup6\n      dup9\n      dup9\n      call\n      swap4\n      pop\n      pop\n      pop\n      pop\n      returndatasize\n      dup1\n      0x00\n      dup2\n      eq\n      tag_21\n      jumpi\n      mload(0x40)\n      swap2\n      pop\n      and(add(returndatasize, 0x3f), not(0x1f))\n      dup3\n      add\n      0x40\n      mstore\n      returndatasize\n      dup3\n      mstore\n      returndatasize\n      0x00\n      0x20\n      dup5\n      add\n      returndatacopy\n      jump(tag_20)\n    tag_21:\n      0x60\n      swap2\n      pop\n    tag_20:\n      pop\n        /* \"DistributeV2/src/DistributeV2.sol\":766:835  (bool ok,) = payable(addresses[i]).call{value: amount, gas: 2300}(\"\") */\n      pop\n      swap1\n      pop\n        /* \"DistributeV2/src/DistributeV2.sol\":853:855  ok */\n      dup1\n        /* \"DistributeV2/src/DistributeV2.sol\":849:865  if(!ok) continue */\n      tag_22\n      jumpi\n        /* \"DistributeV2/src/DistributeV2.sol\":857:865  continue */\n      pop\n      jump(tag_13)\n        /* \"DistributeV2/src/DistributeV2.sol\":849:865  if(!ok) continue */\n    tag_22:\n        /* \"DistributeV2/src/DistributeV2.sol\":753:876  {... */\n      pop\n        /* \"DistributeV2/src/DistributeV2.sol\":709:876  for(uint256 i=0; i < addresses.length; i++) {... */\n    tag_13:\n        /* \"DistributeV2/src/DistributeV2.sol\":748:751  i++ */\n      dup1\n      dup1\n      0x01\n      add\n      swap2\n      pop\n      pop\n        /* \"DistributeV2/src/DistributeV2.sol\":709:876  for(uint256 i=0; i < addresses.length; i++) {... */\n      jump(tag_11)\n    tag_12:\n      pop\n        /* \"DistributeV2/src/DistributeV2.sol\":632:882  {... */\n      pop\n        /* \"DistributeV2/src/DistributeV2.sol\":572:882  function distributeEther(address[] memory addresses) public {... */\n      pop\n      jump\t// out\n        /* \"#utility.yul\":7:82   */\n    tag_23:\n        /* \"#utility.yul\":40:46   */\n      0x00\n        /* \"#utility.yul\":73:75   */\n      0x40\n        /* \"#utility.yul\":67:76   */\n      mload\n        /* \"#utility.yul\":57:76   */\n      swap1\n      pop\n        /* \"#utility.yul\":7:82   */\n      swap1\n      jump\t// out\n        /* \"#utility.yul\":88:205   */\n    tag_24:\n        /* \"#utility.yul\":197:198   */\n      0x00\n        /* \"#utility.yul\":194:195   */\n      dup1\n        /* \"#utility.yul\":187:199   */\n      revert\n        /* \"#utility.yul\":211:328   */\n    tag_25:\n        /* \"#utility.yul\":320:321   */\n      0x00\n        /* \"#utility.yul\":317:318   */\n      dup1\n        /* \"#utility.yul\":310:322   */\n      revert\n        /* \"#utility.yul\":334:451   */\n    tag_26:\n        /* \"#utility.yul\":443:444   */\n      0x00\n        /* \"#utility.yul\":440:441   */\n      dup1\n        /* \"#utility.yul\":433:445   */\n      revert\n        /* \"#utility.yul\":457:559   */\n    tag_27:\n        /* \"#utility.yul\":498:504   */\n      0x00\n        /* \"#utility.yul\":549:551   */\n      0x1f\n        /* \"#utility.yul\":545:552   */\n      not\n        /* \"#utility.yul\":540:542   */\n      0x1f\n        /* \"#utility.yul\":533:538   */\n      dup4\n        /* \"#utility.yul\":529:543   */\n      add\n        /* \"#utility.yul\":525:553   */\n      and\n        /* \"#utility.yul\":515:553   */\n      swap1\n      pop\n        /* \"#utility.yul\":457:559   */\n      swap2\n      swap1\n      pop\n      jump\t// out\n        /* \"#utility.yul\":565:745   */\n    tag_28:\n        /* \"#utility.yul\":613:690   */\n      0x4e487b7100000000000000000000000000000000000000000000000000000000\n        /* \"#utility.yul\":610:611   */\n      0x00\n        /* \"#utility.yul\":603:691   */\n      mstore\n        /* \"#utility.yul\":710:714   */\n      0x41\n        /* \"#utility.yul\":707:708   */\n      0x04\n        /* \"#utility.yul\":700:715   */\n      mstore\n        /* \"#utility.yul\":734:738   */\n      0x24\n        /* \"#utility.yul\":731:732   */\n      0x00\n        /* \"#utility.yul\":724:739   */\n      revert\n        /* \"#utility.yul\":751:1032   */\n    tag_29:\n        /* \"#utility.yul\":834:861   */\n      tag_53\n        /* \"#utility.yul\":856:860   */\n      dup3\n        /* \"#utility.yul\":834:861   */\n      tag_27\n      jump\t// in\n    tag_53:\n        /* \"#utility.yul\":826:832   */\n      dup2\n        /* \"#utility.yul\":822:862   */\n      add\n        /* \"#utility.yul\":964:970   */\n      dup2\n        /* \"#utility.yul\":952:962   */\n      dup2\n        /* \"#utility.yul\":949:971   */\n      lt\n        /* \"#utility.yul\":928:946   */\n      0xffffffffffffffff\n        /* \"#utility.yul\":916:926   */\n      dup3\n        /* \"#utility.yul\":913:947   */\n      gt\n        /* \"#utility.yul\":910:972   */\n      or\n        /* \"#utility.yul\":907:995   */\n      iszero\n      tag_54\n      jumpi\n        /* \"#utility.yul\":975:993   */\n      tag_55\n      tag_28\n      jump\t// in\n    tag_55:\n        /* \"#utility.yul\":907:995   */\n    tag_54:\n        /* \"#utility.yul\":1015:1025   */\n      dup1\n        /* \"#utility.yul\":1011:1013   */\n      0x40\n        /* \"#utility.yul\":1004:1026   */\n      mstore\n        /* \"#utility.yul\":794:1032   */\n      pop\n        /* \"#utility.yul\":751:1032   */\n      pop\n      pop\n      jump\t// out\n        /* \"#utility.yul\":1038:1167   */\n    tag_30:\n        /* \"#utility.yul\":1072:1078   */\n      0x00\n        /* \"#utility.yul\":1099:1119   */\n      tag_57\n      tag_23\n      jump\t// in\n    tag_57:\n        /* \"#utility.yul\":1089:1119   */\n      swap1\n      pop\n        /* \"#utility.yul\":1128:1161   */\n      tag_58\n        /* \"#utility.yul\":1156:1160   */\n      dup3\n        /* \"#utility.yul\":1148:1154   */\n      dup3\n        /* \"#utility.yul\":1128:1161   */\n      tag_29\n      jump\t// in\n    tag_58:\n        /* \"#utility.yul\":1038:1167   */\n      swap2\n      swap1\n      pop\n      jump\t// out\n        /* \"#utility.yul\":1173:1484   */\n    tag_31:\n        /* \"#utility.yul\":1250:1254   */\n      0x00\n        /* \"#utility.yul\":1340:1358   */\n      0xffffffffffffffff\n        /* \"#utility.yul\":1332:1338   */\n      dup3\n        /* \"#utility.yul\":1329:1359   */\n      gt\n        /* \"#utility.yul\":1326:1382   */\n      iszero\n      tag_60\n      jumpi\n        /* \"#utility.yul\":1362:1380   */\n      tag_61\n      tag_28\n      jump\t// in\n    tag_61:\n        /* \"#utility.yul\":1326:1382   */\n    tag_60:\n        /* \"#utility.yul\":1412:1416   */\n      0x20\n        /* \"#utility.yul\":1404:1410   */\n      dup3\n        /* \"#utility.yul\":1400:1417   */\n      mul\n        /* \"#utility.yul\":1392:1417   */\n      swap1\n      pop\n        /* \"#utility.yul\":1472:1476   */\n      0x20\n        /* \"#utility.yul\":1466:1470   */\n      dup2\n        /* \"#utility.yul\":1462:1477   */\n      add\n        /* \"#utility.yul\":1454:1477   */\n      swap1\n      pop\n        /* \"#utility.yul\":1173:1484   */\n      swap2\n      swap1\n      pop\n      jump\t// out\n        /* \"#utility.yul\":1490:1607   */\n    tag_32:\n        /* \"#utility.yul\":1599:1600   */\n      0x00\n        /* \"#utility.yul\":1596:1597   */\n      dup1\n        /* \"#utility.yul\":1589:1601   */\n      revert\n        /* \"#utility.yul\":1613:1739   */\n    tag_33:\n        /* \"#utility.yul\":1650:1657   */\n      0x00\n        /* \"#utility.yul\":1690:1732   */\n      0xffffffffffffffffffffffffffffffffffffffff\n        /* \"#utility.yul\":1683:1688   */\n      dup3\n        /* \"#utility.yul\":1679:1733   */\n      and\n        /* \"#utility.yul\":1668:1733   */\n      swap1\n      pop\n        /* \"#utility.yul\":1613:1739   */\n      swap2\n      swap1\n      pop\n      jump\t// out\n        /* \"#utility.yul\":1745:1841   */\n    tag_34:\n        /* \"#utility.yul\":1782:1789   */\n      0x00\n        /* \"#utility.yul\":1811:1835   */\n      tag_65\n        /* \"#utility.yul\":1829:1834   */\n      dup3\n        /* \"#utility.yul\":1811:1835   */\n      tag_33\n      jump\t// in\n    tag_65:\n        /* \"#utility.yul\":1800:1835   */\n      swap1\n      pop\n        /* \"#utility.yul\":1745:1841   */\n      swap2\n      swap1\n      pop\n      jump\t// out\n        /* \"#utility.yul\":1847:1969   */\n    tag_35:\n        /* \"#utility.yul\":1920:1944   */\n      tag_67\n        /* \"#utility.yul\":1938:1943   */\n      dup2\n        /* \"#utility.yul\":1920:1944   */\n      tag_34\n      jump\t// in\n    tag_67:\n        /* \"#utility.yul\":1913:1918   */\n      dup2\n        /* \"#utility.yul\":1910:1945   */\n      eq\n        /* \"#utility.yul\":1900:1963   */\n      tag_68\n      jumpi\n        /* \"#utility.yul\":1959:1960   */\n      0x00\n        /* \"#utility.yul\":1956:1957   */\n      dup1\n        /* \"#utility.yul\":1949:1961   */\n      revert\n        /* \"#utility.yul\":1900:1963   */\n    tag_68:\n        /* \"#utility.yul\":1847:1969   */\n      pop\n      jump\t// out\n        /* \"#utility.yul\":1975:2114   */\n    tag_36:\n        /* \"#utility.yul\":2021:2026   */\n      0x00\n        /* \"#utility.yul\":2059:2065   */\n      dup2\n        /* \"#utility.yul\":2046:2066   */\n      calldataload\n        /* \"#utility.yul\":2037:2066   */\n      swap1\n      pop\n        /* \"#utility.yul\":2075:2108   */\n      tag_70\n        /* \"#utility.yul\":2102:2107   */\n      dup2\n        /* \"#utility.yul\":2075:2108   */\n      tag_35\n      jump\t// in\n    tag_70:\n        /* \"#utility.yul\":1975:2114   */\n      swap3\n      swap2\n      pop\n      pop\n      jump\t// out\n        /* \"#utility.yul\":2137:2847   */\n    tag_37:\n        /* \"#utility.yul\":2233:2238   */\n      0x00\n        /* \"#utility.yul\":2258:2339   */\n      tag_72\n        /* \"#utility.yul\":2274:2338   */\n      tag_73\n        /* \"#utility.yul\":2331:2337   */\n      dup5\n        /* \"#utility.yul\":2274:2338   */\n      tag_31\n      jump\t// in\n    tag_73:\n        /* \"#utility.yul\":2258:2339   */\n      tag_30\n      jump\t// in\n    tag_72:\n        /* \"#utility.yul\":2249:2339   */\n      swap1\n      pop\n        /* \"#utility.yul\":2359:2364   */\n      dup1\n        /* \"#utility.yul\":2388:2394   */\n      dup4\n        /* \"#utility.yul\":2381:2386   */\n      dup3\n        /* \"#utility.yul\":2374:2395   */\n      mstore\n        /* \"#utility.yul\":2422:2426   */\n      0x20\n        /* \"#utility.yul\":2415:2420   */\n      dup3\n        /* \"#utility.yul\":2411:2427   */\n      add\n        /* \"#utility.yul\":2404:2427   */\n      swap1\n      pop\n        /* \"#utility.yul\":2475:2479   */\n      0x20\n        /* \"#utility.yul\":2467:2473   */\n      dup5\n        /* \"#utility.yul\":2463:2480   */\n      mul\n        /* \"#utility.yul\":2455:2461   */\n      dup4\n        /* \"#utility.yul\":2451:2481   */\n      add\n        /* \"#utility.yul\":2504:2507   */\n      dup6\n        /* \"#utility.yul\":2496:2502   */\n      dup2\n        /* \"#utility.yul\":2493:2508   */\n      gt\n        /* \"#utility.yul\":2490:2612   */\n      iszero\n      tag_74\n      jumpi\n        /* \"#utility.yul\":2523:2602   */\n      tag_75\n      tag_32\n      jump\t// in\n    tag_75:\n        /* \"#utility.yul\":2490:2612   */\n    tag_74:\n        /* \"#utility.yul\":2638:2644   */\n      dup4\n        /* \"#utility.yul\":2621:2841   */\n    tag_76:\n        /* \"#utility.yul\":2655:2661   */\n      dup2\n        /* \"#utility.yul\":2650:2653   */\n      dup2\n        /* \"#utility.yul\":2647:2662   */\n      lt\n        /* \"#utility.yul\":2621:2841   */\n      iszero\n      tag_78\n      jumpi\n        /* \"#utility.yul\":2730:2733   */\n      dup1\n        /* \"#utility.yul\":2759:2796   */\n      tag_79\n        /* \"#utility.yul\":2792:2795   */\n      dup9\n        /* \"#utility.yul\":2780:2790   */\n      dup3\n        /* \"#utility.yul\":2759:2796   */\n      tag_36\n      jump\t// in\n    tag_79:\n        /* \"#utility.yul\":2754:2757   */\n      dup5\n        /* \"#utility.yul\":2747:2797   */\n      mstore\n        /* \"#utility.yul\":2826:2830   */\n      0x20\n        /* \"#utility.yul\":2821:2824   */\n      dup5\n        /* \"#utility.yul\":2817:2831   */\n      add\n        /* \"#utility.yul\":2810:2831   */\n      swap4\n      pop\n        /* \"#utility.yul\":2697:2841   */\n      pop\n        /* \"#utility.yul\":2681:2685   */\n      0x20\n        /* \"#utility.yul\":2676:2679   */\n      dup2\n        /* \"#utility.yul\":2672:2686   */\n      add\n        /* \"#utility.yul\":2665:2686   */\n      swap1\n      pop\n        /* \"#utility.yul\":2621:2841   */\n      jump(tag_76)\n    tag_78:\n        /* \"#utility.yul\":2625:2646   */\n      pop\n        /* \"#utility.yul\":2239:2847   */\n      pop\n      pop\n        /* \"#utility.yul\":2137:2847   */\n      swap4\n      swap3\n      pop\n      pop\n      pop\n      jump\t// out\n        /* \"#utility.yul\":2870:3240   */\n    tag_38:\n        /* \"#utility.yul\":2941:2946   */\n      0x00\n        /* \"#utility.yul\":2990:2993   */\n      dup3\n        /* \"#utility.yul\":2983:2987   */\n      0x1f\n        /* \"#utility.yul\":2975:2981   */\n      dup4\n        /* \"#utility.yul\":2971:2988   */\n      add\n        /* \"#utility.yul\":2967:2994   */\n      slt\n        /* \"#utility.yul\":2957:3079   */\n      tag_81\n      jumpi\n        /* \"#utility.yul\":2998:3077   */\n      tag_82\n      tag_26\n      jump\t// in\n    tag_82:\n        /* \"#utility.yul\":2957:3079   */\n    tag_81:\n        /* \"#utility.yul\":3115:3121   */\n      dup2\n        /* \"#utility.yul\":3102:3122   */\n      calldataload\n        /* \"#utility.yul\":3140:3234   */\n      tag_83\n        /* \"#utility.yul\":3230:3233   */\n      dup5\n        /* \"#utility.yul\":3222:3228   */\n      dup3\n        /* \"#utility.yul\":3215:3219   */\n      0x20\n        /* \"#utility.yul\":3207:3213   */\n      dup7\n        /* \"#utility.yul\":3203:3220   */\n      add\n        /* \"#utility.yul\":3140:3234   */\n      tag_37\n      jump\t// in\n    tag_83:\n        /* \"#utility.yul\":3131:3234   */\n      swap2\n      pop\n        /* \"#utility.yul\":2947:3240   */\n      pop\n        /* \"#utility.yul\":2870:3240   */\n      swap3\n      swap2\n      pop\n      pop\n      jump\t// out\n        /* \"#utility.yul\":3246:3785   */\n    tag_6:\n        /* \"#utility.yul\":3330:3336   */\n      0x00\n        /* \"#utility.yul\":3379:3381   */\n      0x20\n        /* \"#utility.yul\":3367:3376   */\n      dup3\n        /* \"#utility.yul\":3358:3365   */\n      dup5\n        /* \"#utility.yul\":3354:3377   */\n      sub\n        /* \"#utility.yul\":3350:3382   */\n      slt\n        /* \"#utility.yul\":3347:3466   */\n      iszero\n      tag_85\n      jumpi\n        /* \"#utility.yul\":3385:3464   */\n      tag_86\n      tag_24\n      jump\t// in\n    tag_86:\n        /* \"#utility.yul\":3347:3466   */\n    tag_85:\n        /* \"#utility.yul\":3533:3534   */\n      0x00\n        /* \"#utility.yul\":3522:3531   */\n      dup3\n        /* \"#utility.yul\":3518:3535   */\n      add\n        /* \"#utility.yul\":3505:3536   */\n      calldataload\n        /* \"#utility.yul\":3563:3581   */\n      0xffffffffffffffff\n        /* \"#utility.yul\":3555:3561   */\n      dup2\n        /* \"#utility.yul\":3552:3582   */\n      gt\n        /* \"#utility.yul\":3549:3666   */\n      iszero\n      tag_87\n      jumpi\n        /* \"#utility.yul\":3585:3664   */\n      tag_88\n      tag_25\n      jump\t// in\n    tag_88:\n        /* \"#utility.yul\":3549:3666   */\n    tag_87:\n        /* \"#utility.yul\":3690:3768   */\n      tag_89\n        /* \"#utility.yul\":3760:3767   */\n      dup5\n        /* \"#utility.yul\":3751:3757   */\n      dup3\n        /* \"#utility.yul\":3740:3749   */\n      dup6\n        /* \"#utility.yul\":3736:3758   */\n      add\n        /* \"#utility.yul\":3690:3768   */\n      tag_38\n      jump\t// in\n    tag_89:\n        /* \"#utility.yul\":3680:3768   */\n      swap2\n      pop\n        /* \"#utility.yul\":3476:3778   */\n      pop\n        /* \"#utility.yul\":3246:3785   */\n      swap3\n      swap2\n      pop\n      pop\n      jump\t// out\n        /* \"#utility.yul\":3791:3868   */\n    tag_39:\n        /* \"#utility.yul\":3828:3835   */\n      0x00\n        /* \"#utility.yul\":3857:3862   */\n      dup2\n        /* \"#utility.yul\":3846:3862   */\n      swap1\n      pop\n        /* \"#utility.yul\":3791:3868   */\n      swap2\n      swap1\n      pop\n      jump\t// out\n        /* \"#utility.yul\":3874:4054   */\n    tag_40:\n        /* \"#utility.yul\":3922:3999   */\n      0x4e487b7100000000000000000000000000000000000000000000000000000000\n        /* \"#utility.yul\":3919:3920   */\n      0x00\n        /* \"#utility.yul\":3912:4000   */\n      mstore\n        /* \"#utility.yul\":4019:4023   */\n      0x12\n        /* \"#utility.yul\":4016:4017   */\n      0x04\n        /* \"#utility.yul\":4009:4024   */\n      mstore\n        /* \"#utility.yul\":4043:4047   */\n      0x24\n        /* \"#utility.yul\":4040:4041   */\n      0x00\n        /* \"#utility.yul\":4033:4048   */\n      revert\n        /* \"#utility.yul\":4246:4431   */\n    tag_10:\n        /* \"#utility.yul\":4286:4287   */\n      0x00\n        /* \"#utility.yul\":4303:4323   */\n      tag_94\n        /* \"#utility.yul\":4321:4322   */\n      dup3\n        /* \"#utility.yul\":4303:4323   */\n      tag_39\n      jump\t// in\n    tag_94:\n        /* \"#utility.yul\":4298:4323   */\n      swap2\n      pop\n        /* \"#utility.yul\":4337:4357   */\n      tag_95\n        /* \"#utility.yul\":4355:4356   */\n      dup4\n        /* \"#utility.yul\":4337:4357   */\n      tag_39\n      jump\t// in\n    tag_95:\n        /* \"#utility.yul\":4332:4357   */\n      swap3\n      pop\n        /* \"#utility.yul\":4376:4377   */\n      dup3\n        /* \"#utility.yul\":4366:4401   */\n      tag_96\n      jumpi\n        /* \"#utility.yul\":4381:4399   */\n      tag_97\n      tag_40\n      jump\t// in\n    tag_97:\n        /* \"#utility.yul\":4366:4401   */\n    tag_96:\n        /* \"#utility.yul\":4423:4424   */\n      dup3\n        /* \"#utility.yul\":4420:4421   */\n      dup3\n        /* \"#utility.yul\":4416:4425   */\n      div\n        /* \"#utility.yul\":4411:4425   */\n      swap1\n      pop\n        /* \"#utility.yul\":4246:4431   */\n      swap3\n      swap2\n      pop\n      pop\n      jump\t// out\n        /* \"#utility.yul\":4437:4617   */\n    tag_16:\n        /* \"#utility.yul\":4485:4562   */\n      0x4e487b7100000000000000000000000000000000000000000000000000000000\n        /* \"#utility.yul\":4482:4483   */\n      0x00\n        /* \"#utility.yul\":4475:4563   */\n      mstore\n        /* \"#utility.yul\":4582:4586   */\n      0x32\n        /* \"#utility.yul\":4579:4580   */\n      0x04\n        /* \"#utility.yul\":4572:4587   */\n      mstore\n        /* \"#utility.yul\":4606:4610   */\n      0x24\n        /* \"#utility.yul\":4603:4604   */\n      0x00\n        /* \"#utility.yul\":4596:4611   */\n      revert\n        /* \"#utility.yul\":4623:4770   */\n    tag_42:\n        /* \"#utility.yul\":4724:4735   */\n      0x00\n        /* \"#utility.yul\":4761:4764   */\n      dup2\n        /* \"#utility.yul\":4746:4764   */\n      swap1\n      pop\n        /* \"#utility.yul\":4623:4770   */\n      swap3\n      swap2\n      pop\n      pop\n      jump\t// out\n        /* \"#utility.yul\":4776:4890   */\n    tag_43:\n      pop\n      jump\t// out\n        /* \"#utility.yul\":4896:5294   */\n    tag_44:\n        /* \"#utility.yul\":5055:5058   */\n      0x00\n        /* \"#utility.yul\":5076:5159   */\n      tag_102\n        /* \"#utility.yul\":5157:5158   */\n      0x00\n        /* \"#utility.yul\":5152:5155   */\n      dup4\n        /* \"#utility.yul\":5076:5159   */\n      tag_42\n      jump\t// in\n    tag_102:\n        /* \"#utility.yul\":5069:5159   */\n      swap2\n      pop\n        /* \"#utility.yul\":5168:5261   */\n      tag_103\n        /* \"#utility.yul\":5257:5260   */\n      dup3\n        /* \"#utility.yul\":5168:5261   */\n      tag_43\n      jump\t// in\n    tag_103:\n        /* \"#utility.yul\":5286:5287   */\n      0x00\n        /* \"#utility.yul\":5281:5284   */\n      dup3\n        /* \"#utility.yul\":5277:5288   */\n      add\n        /* \"#utility.yul\":5270:5288   */\n      swap1\n      pop\n        /* \"#utility.yul\":4896:5294   */\n      swap2\n      swap1\n      pop\n      jump\t// out\n        /* \"#utility.yul\":5300:5679   */\n    tag_18:\n        /* \"#utility.yul\":5484:5487   */\n      0x00\n        /* \"#utility.yul\":5506:5653   */\n      tag_105\n        /* \"#utility.yul\":5649:5652   */\n      dup3\n        /* \"#utility.yul\":5506:5653   */\n      tag_44\n      jump\t// in\n    tag_105:\n        /* \"#utility.yul\":5499:5653   */\n      swap2\n      pop\n        /* \"#utility.yul\":5670:5673   */\n      dup2\n        /* \"#utility.yul\":5663:5673   */\n      swap1\n      pop\n        /* \"#utility.yul\":5300:5679   */\n      swap2\n      swap1\n      pop\n      jump\t// out\n\n    auxdata: 0xa264697066735822122019d4c7646d033eb3d8547ed02d570d9846e3ae36bbeaad1ff535d1afca4b83c564736f6c634300081a0033\n}\n",
				"bytecode": {
					"linkReferences": {},
					"object": "6080604052610416806100115f395ff3fe608060405234801561000f575f80fd5b5060043610610029575f3560e01c80633c0ff7911461002d575b5f80fd5b610047600480360381019061004291906102c5565b610049565b005b5f8151476100579190610342565b90505f5b8251811015610105575f83828151811061007857610077610372565b5b602002602001015173ffffffffffffffffffffffffffffffffffffffff16836108fc906040516100a7906103cc565b5f60405180830381858888f193505050503d805f81146100e2576040519150601f19603f3d011682016040523d82523d5f602084013e6100e7565b606091505b50509050806100f657506100f8565b505b808060010191505061005b565b505050565b5f604051905090565b5f80fd5b5f80fd5b5f80fd5b5f601f19601f8301169050919050565b7f4e487b71000000000000000000000000000000000000000000000000000000005f52604160045260245ffd5b6101658261011f565b810181811067ffffffffffffffff821117156101845761018361012f565b5b80604052505050565b5f61019661010a565b90506101a2828261015c565b919050565b5f67ffffffffffffffff8211156101c1576101c061012f565b5b602082029050602081019050919050565b5f80fd5b5f73ffffffffffffffffffffffffffffffffffffffff82169050919050565b5f6101ff826101d6565b9050919050565b61020f816101f5565b8114610219575f80fd5b50565b5f8135905061022a81610206565b92915050565b5f61024261023d846101a7565b61018d565b90508083825260208201905060208402830185811115610265576102646101d2565b5b835b8181101561028e578061027a888261021c565b845260208401935050602081019050610267565b5050509392505050565b5f82601f8301126102ac576102ab61011b565b5b81356102bc848260208601610230565b91505092915050565b5f602082840312156102da576102d9610113565b5b5f82013567ffffffffffffffff8111156102f7576102f6610117565b5b61030384828501610298565b91505092915050565b5f819050919050565b7f4e487b71000000000000000000000000000000000000000000000000000000005f52601260045260245ffd5b5f61034c8261030c565b91506103578361030c565b92508261036757610366610315565b5b828204905092915050565b7f4e487b71000000000000000000000000000000000000000000000000000000005f52603260045260245ffd5b5f81905092915050565b50565b5f6103b75f8361039f565b91506103c2826103a9565b5f82019050919050565b5f6103d6826103ac565b915081905091905056fea264697066735822122019d4c7646d033eb3d8547ed02d570d9846e3ae36bbeaad1ff535d1afca4b83c564736f6c634300081a0033",
					"opcodes": "PUSH1 0x80 PUSH1 0x40 MSTORE PUSH2 0x416 DUP1 PUSH2 0x11 PUSH0 CODECOPY PUSH0 RETURN INVALID PUSH1 0x80 PUSH1 0x40 MSTORE CALLVALUE DUP1 ISZERO PUSH2 0xF JUMPI PUSH0 DUP1 REVERT JUMPDEST POP PUSH1 0x4 CALLDATASIZE LT PUSH2 0x29 JUMPI PUSH0 CALLDATALOAD PUSH1 0xE0 SHR DUP1 PUSH4 0x3C0FF791 EQ PUSH2 0x2D JUMPI JUMPDEST PUSH0 DUP1 REVERT JUMPDEST PUSH2 0x47 PUSH1 0x4 DUP1 CALLDATASIZE SUB DUP2 ADD SWAP1 PUSH2 0x42 SWAP2 SWAP1 PUSH2 0x2C5 JUMP JUMPDEST PUSH2 0x49 JUMP JUMPDEST STOP JUMPDEST PUSH0 DUP2 MLOAD SELFBALANCE PUSH2 0x57 SWAP2 SWAP1 PUSH2 0x342 JUMP JUMPDEST SWAP1 POP PUSH0 JUMPDEST DUP3 MLOAD DUP2 LT ISZERO PUSH2 0x105 JUMPI PUSH0 DUP4 DUP3 DUP2 MLOAD DUP2 LT PUSH2 0x78 JUMPI PUSH2 0x77 PUSH2 0x372 JUMP JUMPDEST JUMPDEST PUSH1 0x20 MUL PUSH1 0x20 ADD ADD MLOAD PUSH20 0xFFFFFFFFFFFFFFFFFFFFFFFFFFFFFFFFFFFFFFFF AND DUP4 PUSH2 0x8FC SWAP1 PUSH1 0x40 MLOAD PUSH2 0xA7 SWAP1 PUSH2 0x3CC JUMP JUMPDEST PUSH0 PUSH1 0x40 MLOAD DUP1 DUP4 SUB DUP2 DUP6 DUP9 DUP9 CALL SWAP4 POP POP POP POP RETURNDATASIZE DUP1 PUSH0 DUP2 EQ PUSH2 0xE2 JUMPI PUSH1 0x40 MLOAD SWAP2 POP PUSH1 0x1F NOT PUSH1 0x3F RETURNDATASIZE ADD AND DUP3 ADD PUSH1 0x40 MSTORE RETURNDATASIZE DUP3 MSTORE RETURNDATASIZE PUSH0 PUSH1 0x20 DUP5 ADD RETURNDATACOPY PUSH2 0xE7 JUMP JUMPDEST PUSH1 0x60 SWAP2 POP JUMPDEST POP POP SWAP1 POP DUP1 PUSH2 0xF6 JUMPI POP PUSH2 0xF8 JUMP JUMPDEST POP JUMPDEST DUP1 DUP1 PUSH1 0x1 ADD SWAP2 POP POP PUSH2 0x5B JUMP JUMPDEST POP POP POP JUMP JUMPDEST PUSH0 PUSH1 0x40 MLOAD SWAP1 POP SWAP1 JUMP JUMPDEST PUSH0 DUP1 REVERT JUMPDEST PUSH0 DUP1 REVERT JUMPDEST PUSH0 DUP1 REVERT JUMPDEST PUSH0 PUSH1 0x1F NOT PUSH1 0x1F DUP4 ADD AND SWAP1 POP SWAP2 SWAP1 POP JUMP JUMPDEST PUSH32 0x4E487B7100000000000000000000000000000000000000000000000000000000 PUSH0 MSTORE PUSH1 0x41 PUSH1 0x4 MSTORE PUSH1 0x24 PUSH0 REVERT JUMPDEST PUSH2 0x165 DUP3 PUSH2 0x11F JUMP JUMPDEST DUP2 ADD DUP2 DUP2 LT PUSH8 0xFFFFFFFFFFFFFFFF DUP3 GT OR ISZERO PUSH2 0x184 JUMPI PUSH2 0x183 PUSH2 0x12F JUMP JUMPDEST JUMPDEST DUP1 PUSH1 0x40 MSTORE POP POP POP JUMP JUMPDEST PUSH0 PUSH2 0x196 PUSH2 0x10A JUMP JUMPDEST SWAP1 POP PUSH2 0x1A2 DUP3 DUP3 PUSH2 0x15C JUMP JUMPDEST SWAP2 SWAP1 POP JUMP JUMPDEST PUSH0 PUSH8 0xFFFFFFFFFFFFFFFF DUP3 GT ISZERO PUSH2 0x1C1 JUMPI PUSH2 0x1C0 PUSH2 0x12F JUMP JUMPDEST JUMPDEST PUSH1 0x20 DUP3 MUL SWAP1 POP PUSH1 0x20 DUP2 ADD SWAP1 POP SWAP2 SWAP1 POP JUMP JUMPDEST PUSH0 DUP1 REVERT JUMPDEST PUSH0 PUSH20 0xFFFFFFFFFFFFFFFFFFFFFFFFFFFFFFFFFFFFFFFF DUP3 AND SWAP1 POP SWAP2 SWAP1 POP JUMP JUMPDEST PUSH0 PUSH2 0x1FF DUP3 PUSH2 0x1D6 JUMP JUMPDEST SWAP1 POP SWAP2 SWAP1 POP JUMP JUMPDEST PUSH2 0x20F DUP2 PUSH2 0x1F5 JUMP JUMPDEST DUP2 EQ PUSH2 0x219 JUMPI PUSH0 DUP1 REVERT JUMPDEST POP JUMP JUMPDEST PUSH0 DUP2 CALLDATALOAD SWAP1 POP PUSH2 0x22A DUP2 PUSH2 0x206 JUMP JUMPDEST SWAP3 SWAP2 POP POP JUMP JUMPDEST PUSH0 PUSH2 0x242 PUSH2 0x23D DUP5 PUSH2 0x1A7 JUMP JUMPDEST PUSH2 0x18D JUMP JUMPDEST SWAP1 POP DUP1 DUP4 DUP3 MSTORE PUSH1 0x20 DUP3 ADD SWAP1 POP PUSH1 0x20 DUP5 MUL DUP4 ADD DUP6 DUP2 GT ISZERO PUSH2 0x265 JUMPI PUSH2 0x264 PUSH2 0x1D2 JUMP JUMPDEST JUMPDEST DUP4 JUMPDEST DUP2 DUP2 LT ISZERO PUSH2 0x28E JUMPI DUP1 PUSH2 0x27A DUP9 DUP3 PUSH2 0x21C JUMP JUMPDEST DUP5 MSTORE PUSH1 0x20 DUP5 ADD SWAP4 POP POP PUSH1 0x20 DUP2 ADD SWAP1 POP PUSH2 0x267 JUMP JUMPDEST POP POP POP SWAP4 SWAP3 POP POP POP JUMP JUMPDEST PUSH0 DUP3 PUSH1 0x1F DUP4 ADD SLT PUSH2 0x2AC JUMPI PUSH2 0x2AB PUSH2 0x11B JUMP JUMPDEST JUMPDEST DUP2 CALLDATALOAD PUSH2 0x2BC DUP5 DUP3 PUSH1 0x20 DUP7 ADD PUSH2 0x230 JUMP JUMPDEST SWAP2 POP POP SWAP3 SWAP2 POP POP JUMP JUMPDEST PUSH0 PUSH1 0x20 DUP3 DUP5 SUB SLT ISZERO PUSH2 0x2DA JUMPI PUSH2 0x2D9 PUSH2 0x113 JUMP JUMPDEST JUMPDEST PUSH0 DUP3 ADD CALLDATALOAD PUSH8 0xFFFFFFFFFFFFFFFF DUP2 GT ISZERO PUSH2 0x2F7 JUMPI PUSH2 0x2F6 PUSH2 0x117 JUMP JUMPDEST JUMPDEST PUSH2 0x303 DUP5 DUP3 DUP6 ADD PUSH2 0x298 JUMP JUMPDEST SWAP2 POP POP SWAP3 SWAP2 POP POP JUMP JUMPDEST PUSH0 DUP2 SWAP1 POP SWAP2 SWAP1 POP JUMP JUMPDEST PUSH32 0x4E487B7100000000000000000000000000000000000000000000000000000000 PUSH0 MSTORE PUSH1 0x12 PUSH1 0x4 MSTORE PUSH1 0x24 PUSH0 REVERT JUMPDEST PUSH0 PUSH2 0x34C DUP3 PUSH2 0x30C JUMP JUMPDEST SWAP2 POP PUSH2 0x357 DUP4 PUSH2 0x30C JUMP JUMPDEST SWAP3 POP DUP3 PUSH2 0x367 JUMPI PUSH2 0x366 PUSH2 0x315 JUMP JUMPDEST JUMPDEST DUP3 DUP3 DIV SWAP1 POP SWAP3 SWAP2 POP POP JUMP JUMPDEST PUSH32 0x4E487B7100000000000000000000000000000000000000000000000000000000 PUSH0 MSTORE PUSH1 0x32 PUSH1 0x4 MSTORE PUSH1 0x24 PUSH0 REVERT JUMPDEST PUSH0 DUP2 SWAP1 POP SWAP3 SWAP2 POP POP JUMP JUMPDEST POP JUMP JUMPDEST PUSH0 PUSH2 0x3B7 PUSH0 DUP4 PUSH2 0x39F JUMP JUMPDEST SWAP2 POP PUSH2 0x3C2 DUP3 PUSH2 0x3A9 JUMP JUMPDEST PUSH0 DUP3 ADD SWAP1 POP SWAP2 SWAP1 POP JUMP JUMPDEST PUSH0 PUSH2 0x3D6 DUP3 PUSH2 0x3AC JUMP JUMPDEST SWAP2 POP DUP2 SWAP1 POP SWAP2 SWAP1 POP JUMP INVALID LOG2 PUSH5 0x6970667358 0x22 SLT KECCAK256 NOT 0xD4 0xC7 PUSH5 0x6D033EB3D8 SLOAD PUSH31 0xD02D570D9846E3AE36BBEAAD1FF535D1AFCA4B83C564736F6C634300081A00 CALLER "
				},
				"gasEstimates": {
					"creation": {
						"codeDepositCost": "209200",
						"executionCost": "225",
						"totalCost": "209425"
					},
					"external": {
						"distributeEther(address[])": "infinite"
					}
				},
				"methodIdentifiers": {
					"distributeEther(address[])": "3c0ff791"
				}
			},
			"storageLayout": {
				"storage": [],
				"types": null
			},
			"userdoc": {
				"kind": "user",
				"methods": {},
				"version": 1
			}
		}
	}
}