{
	"data": {
		"bytecode": {
			"linkReferences": {},
			"object": "6080604052348015600e575f80fd5b506102708061001c5f395ff3fe608060405234801561000f575f80fd5b5060043610610034575f3560e01c806301c534ff146100385780633900948214610054575b5f80fd5b610052600480360381019061004d91906101b7565b610073565b005b61005c6100f4565b60405161006a929190610213565b60405180910390f35b60405180604001604052808373ffffffffffffffffffffffffffffffffffffffff168152602001828152505f80820151815f015f6101000a81548173ffffffffffffffffffffffffffffffffffffffff021916908373ffffffffffffffffffffffffffffffffffffffff160217905550602082015181600101559050505050565b5f805f80015f9054906101000a900473ffffffffffffffffffffffffffffffffffffffff165f60010154915091509091565b5f80fd5b5f73ffffffffffffffffffffffffffffffffffffffff82169050919050565b5f6101538261012a565b9050919050565b61016381610149565b811461016d575f80fd5b50565b5f8135905061017e8161015a565b92915050565b5f819050919050565b61019681610184565b81146101a0575f80fd5b50565b5f813590506101b18161018d565b92915050565b5f80604083850312156101cd576101cc610126565b5b5f6101da85828601610170565b92505060206101eb858286016101a3565b9150509250929050565b6101fe81610149565b82525050565b61020d81610184565b82525050565b5f6040820190506102265f8301856101f5565b6102336020830184610204565b939250505056fea2646970667358221220a95043e32d1073a54e1587f4312b19fd3e4e9bc2eb000dd675a95ab29acba52264736f6c634300081a0033",
			"opcodes": "PUSH1 0x80 PUSH1 0x40 MSTORE CALLVALUE DUP1 ISZERO PUSH1 0xE JUMPI PUSH0 DUP1 REVERT JUMPDEST POP PUSH2 0x270 DUP1 PUSH2 0x1C PUSH0 CODECOPY PUSH0 RETURN INVALID PUSH1 0x80 PUSH1 0x40 MSTORE CALLVALUE DUP1 ISZERO PUSH2 0xF JUMPI PUSH0 DUP1 REVERT JUMPDEST POP PUSH1 0x4 CALLDATASIZE LT PUSH2 0x34 JUMPI PUSH0 CALLDATALOAD PUSH1 0xE0 SHR DUP1 PUSH4 0x1C534FF EQ PUSH2 0x38 JUMPI DUP1 PUSH4 0x39009482 EQ PUSH2 0x54 JUMPI JUMPDEST PUSH0 DUP1 REVERT JUMPDEST PUSH2 0x52 PUSH1 0x4 DUP1 CALLDATASIZE SUB DUP2 ADD SWAP1 PUSH2 0x4D SWAP2 SWAP1 PUSH2 0x1B7 JUMP JUMPDEST PUSH2 0x73 JUMP JUMPDEST STOP JUMPDEST PUSH2 0x5C PUSH2 0xF4 JUMP JUMPDEST PUSH1 0x40 MLOAD PUSH2 0x6A SWAP3 SWAP2 SWAP1 PUSH2 0x213 JUMP JUMPDEST PUSH1 0x40 MLOAD DUP1 SWAP2 SUB SWAP1 RETURN JUMPDEST PUSH1 0x40 MLOAD DUP1 PUSH1 0x40 ADD PUSH1 0x40 MSTORE DUP1 DUP4 PUSH20 0xFFFFFFFFFFFFFFFFFFFFFFFFFFFFFFFFFFFFFFFF AND DUP2 MSTORE PUSH1 0x20 ADD DUP3 DUP2 MSTORE POP PUSH0 DUP1 DUP3 ADD MLOAD DUP2 PUSH0 ADD PUSH0 PUSH2 0x100 EXP DUP2 SLOAD DUP2 PUSH20 0xFFFFFFFFFFFFFFFFFFFFFFFFFFFFFFFFFFFFFFFF MUL NOT AND SWAP1 DUP4 PUSH20 0xFFFFFFFFFFFFFFFFFFFFFFFFFFFFFFFFFFFFFFFF AND MUL OR SWAP1 SSTORE POP PUSH1 0x20 DUP3 ADD MLOAD DUP2 PUSH1 0x1 ADD SSTORE SWAP1 POP POP POP POP JUMP JUMPDEST PUSH0 DUP1 PUSH0 DUP1 ADD PUSH0 SWAP1 SLOAD SWAP1 PUSH2 0x100 EXP SWAP1 DIV PUSH20 0xFFFFFFFFFFFFFFFFFFFFFFFFFFFFFFFFFFFFFFFF AND PUSH0 PUSH1 0x1 ADD SLOAD SWAP2 POP SWAP2 POP SWAP1 SWAP2 JUMP JUMPDEST PUSH0 DUP1 REVERT JUMPDEST PUSH0 PUSH20 0xFFFFFFFFFFFFFFFFFFFFFFFFFFFFFFFFFFFFFFFF DUP3 AND SWAP1 POP SWAP2 SWAP1 POP JUMP JUMPDEST PUSH0 PUSH2 0x153 DUP3 PUSH2 0x12A JUMP JUMPDEST SWAP1 POP SWAP2 SWAP1 POP JUMP JUMPDEST PUSH2 0x163 DUP2 PUSH2 0x149 JUMP JUMPDEST DUP2 EQ PUSH2 0x16D JUMPI PUSH0 DUP1 REVERT JUMPDEST POP JUMP JUMPDEST PUSH0 DUP2 CALLDATALOAD SWAP1 POP PUSH2 0x17E DUP2 PUSH2 0x15A JUMP JUMPDEST SWAP3 SWAP2 POP POP JUMP JUMPDEST PUSH0 DUP2 SWAP1 POP SWAP2 SWAP1 POP JUMP JUMPDEST PUSH2 0x196 DUP2 PUSH2 0x184 JUMP JUMPDEST DUP2 EQ PUSH2 0x1A0 JUMPI PUSH0 DUP1 REVERT JUMPDEST POP JUMP JUMPDEST PUSH0 DUP2 CALLDATALOAD SWAP1 POP PUSH2 0x1B1 DUP2 PUSH2 0x18D JUMP JUMPDEST SWAP3 SWAP2 POP POP JUMP JUMPDEST PUSH0 DUP1 PUSH1 0x40 DUP4 DUP6 SUB SLT ISZERO PUSH2 0x1CD JUMPI PUSH2 0x1CC PUSH2 0x126 JUMP JUMPDEST JUMPDEST PUSH0 PUSH2 0x1DA DUP6 DUP3 DUP7 ADD PUSH2 0x170 JUMP JUMPDEST SWAP3 POP POP PUSH1 0x20 PUSH2 0x1EB DUP6 DUP3 DUP7 ADD PUSH2 0x1A3 JUMP JUMPDEST SWAP2 POP POP SWAP3 POP SWAP3 SWAP1 POP JUMP JUMPDEST PUSH2 0x1FE DUP2 PUSH2 0x149 JUMP JUMPDEST DUP3 MSTORE POP POP JUMP JUMPDEST PUSH2 0x20D DUP2 PUSH2 0x184 JUMP JUMPDEST DUP3 MSTORE POP POP JUMP JUMPDEST PUSH0 PUSH1 0x40 DUP3 ADD SWAP1 POP PUSH2 0x226 PUSH0 DUP4 ADD DUP6 PUSH2 0x1F5 JUMP JUMPDEST PUSH2 0x233 PUSH1 0x20 DUP4 ADD DUP5 PUSH2 0x204 JUMP JUMPDEST SWAP4 SWAP3 POP POP POP JUMP INVALID LOG2 PUSH5 0x6970667358 0x22 SLT KECCAK256 0xA9 POP NUMBER 0xE3 0x2D LT PUSH20 0xA54E1587F4312B19FD3E4E9BC2EB000DD675A95A 0xB2 SWAP11 0xCB 0xA5 0x22 PUSH5 0x736F6C6343 STOP ADDMOD BYTE STOP CALLER "
		},
		"gasEstimates": {
			"creation": {
				"codeDepositCost": "124800",
				"executionCost": "169",
				"totalCost": "124969"
			},
			"external": {
				"returnTuple()": "4738",
				"setTuple(address,uint256)": "47073"
			}
		},
		"methodIdentifiers": {
			"returnTuple()": "39009482",
			"setTuple(address,uint256)": "01c534ff"
		}
	},
	"abi": [
		{
			"inputs": [],
			"name": "returnTuple",
			"outputs": [
				{
					"internalType": "address",
					"name": "",
					"type": "address"
				},
				{
					"internalType": "uint256",
					"name": "",
					"type": "uint256"
				}
			],
			"stateMutability": "view",
			"type": "function"
		},
		{
			"inputs": [
				{
					"internalType": "address",
					"name": "_addr",
					"type": "address"
				},
				{
					"internalType": "uint256",
					"name": "_age",
					"type": "uint256"
				}
			],
			"name": "setTuple",
			"outputs": [],
			"stateMutability": "nonpayable",
			"type": "function"
		}
	]
}